:020000040800F2
:10000000005000203D70000835610008376100088D
:10001000396100083B6100083D61000800000000F4
:100020000000000000000000000000003F61000828
:1000300041610008000000004361000845610008BC
:1000400085700008857000088570000885700008BC
:1000500085700008857000088570000885700008AC
:10006000857000088570000885700008857000089C
:100070008570000849610008556100088570000816
:100080008570000885700008AD6200088570000862
:10009000616100088570000885700008857000089F
:1000A000857000088570000885700008857000085C
:1000B000857000088570000885700008857000084C
:1000C000857000088570000885700008857000083C
:1000D0008570000809400008857000083940000854
:1000E0008570000885700008857000080000000019
:1000F0000000000000000000000000000000000000
:0C01000000000000000000005FF808F1A3
:10010C0010B5054C237833B9044B13B10448AFF345
:10011C0000800123237010BDD803002000000000D4
:10012C00187C000808B5034B1BB103490348AFF317
:10013C00008008BD00000000DC030020187C0008D3
:10014C00034613F8012B002AFBD1181A013870470B
:10015C0080F0004002E000BF81F0004142001FBF70
:10016C005FEA410392EA030F7FEA226C7FEA236C79
:10017C006AD04FEA1262D2EB1363C1BFD21841406E
:10018C0048404140B8BF5B42192B88BF704710F004
:10019C00004F40F4000020F07F4018BF404211F0A7
:1001AC00004F41F4000121F07F4118BF494292EA0F
:1001BC00030F3FD0A2F1010241FA03FC10EB0C003B
:1001CC00C3F1200301FA03F100F0004302D54942C8
:1001DC0060EB4000B0F5000F13D3B0F1807F06D375
:1001EC0040084FEA310102F10102FE2A51D2B1F16D
:1001FC00004F40EBC25008BF20F0010040EA030062
:10020C007047490040EB000010F4000FA2F101020E
:10021C00EDD1B0FA80FCACF1080CB2EB0C0200FA98
:10022C000CF0AABF00EBC25052421843BCBFD040E6
:10023C001843704792F0000F81F4000106BF80F460
:10024C0000000132013BB5E74FEA41037FEA226C23
:10025C0018BF7FEA236C21D092EA030F04D092F0EE
:10026C00000F08BF0846704790EA010F1CBF002022
:10027C00704712F07F4F04D1400028BF40F000407F
:10028C00704712F100723CBF00F50000704700F09F
:10029C00004343F0FE4040F4000070477FEA2262C6
:1002AC0016BF08467FEA23630146420206BF5FEA97
:1002BC00412390EA010F40F4800070474FF0000397
:1002CC0004E000BF10F0004348BF40425FEA000C5E
:1002DC0008BF704743F0964301464FF000001CE006
:1002EC0050EA010208BF70474FF000030AE000BF5C
:1002FC0050EA010208BF704711F0004302D540429A
:10030C0061EB41015FEA010C02BF8446014600200B
:10031C0043F0B64308BFA3F18053A3F50003BCFA26
:10032C008CF2083AA3EBC25310DB01FA02FC6344D3
:10033C0000FA02FCC2F12002BCF1004F20FA02F2DA
:10034C0043EB020008BF20F00100704702F12002CD
:10035C0001FA02FCC2F1200250EA4C0021FA02F22E
:10036C0043EB020008BF20EADC7070474FF0FF0C33
:10037C001CEAD0521EBF1CEAD15392EA0C0F93EA2E
:10038C000C0F6FD01A4480EA010C400218BF5FEAD0
:10039C0041211ED04FF0006343EA501043EA511143
:1003AC00A0FB01310CF00040B1F5000F3EBF49003D
:1003BC0041EAD3715B0040EA010062F17F02FD2A41
:1003CC001DD8B3F1004F40EBC25008BF20F0010024
:1003DC00704790F0000F0CF0004C08BF49024CEA3B
:1003EC00502040EA51207F3AC2BFD2F1FF0340EACD
:1003FC00C250704740F400004FF00003013A5DDC3E
:10040C0012F1190FDCBF00F000407047C2F100027E
:10041C00410021FA02F1C2F1200200FA02FC5FEA6B
:10042C00310040F1000053EA4C0308BF20EADC70B5
:10043C00704792F0000F00F0004C02BF400010F427
:10044C00000F013AF9D040EA0C0093F0000F01F0D4
:10045C00004C02BF490011F4000F013BF9D041EAF6
:10046C000C018FE70CEAD15392EA0C0F18BF93EAF8
:10047C000C0F0AD030F0004C18BF31F0004CD8D122
:10048C0080EA010000F00040704790F0000F17BFA9
:10049C0090F0004F084691F0000F91F0004F14D0EF
:1004AC0092EA0C0F01D142020FD193EA0C0F03D147
:1004BC004B0218BF084608D180EA010000F000404A
:1004CC0040F0FE4040F40000704740F0FE4040F425
:1004DC00400070474FF0FF0C1CEAD0521EBF1CEAC4
:1004EC00D15392EA0C0F93EA0C0F69D0A2EB0302E2
:1004FC0080EA010C49024FEA402037D04FF080537C
:10050C0043EA111143EA10130CF000408B4238BF40
:10051C005B0042F17D024FF4000C8B4224BF5B1A4E
:10052C0040EA0C00B3EB510F24BFA3EB510340EA9C
:10053C005C00B3EB910F24BFA3EB910340EA9C004A
:10054C00B3EBD10F24BFA3EBD10340EADC001B01BA
:10055C0018BF5FEA1C1CE0D1FD2A3FF650AF8B425E
:10056C0040EBC25008BF20F0010070470CF0004C6B
:10057C004CEA50207F32C2BFD2F1FF0340EAC25096
:10058C00704740F400004FF00003013A37E792F057
:10059C00000F00F0004C02BF400010F4000F013AB5
:1005AC00F9D040EA0C0093F0000F01F0004C02BFB0
:1005BC00490011F4000F013BF9D041EA0C0195E719
:1005CC000CEAD15392EA0C0F08D142027FF47DAFB2
:1005DC0093EA0C0F7FF470AF084676E793EA0C0FA2
:1005EC0004D14B023FF44CAF08466EE730F0004CA0
:1005FC0018BF31F0004CCAD130F000427FF45CAF30
:10060C0031F000437FF43CAF5FE700BF4FEA40029C
:10061C00B2F1FE4F0FD34FF09E03B3EB12620DD924
:10062C004FEA002343F0004310F0004F23FA02F08E
:10063C0018BF404270474FF00000704712F1610F35
:10064C0001D1420205D110F0004008BF6FF000400C
:10065C0070474FF00000704738B50E4B05461878C0
:10066C004FF47A73B3FBF0F30B4A1068B0FBF3F062
:10067C0000F0C8FA044658B90F2D09D8024629468D
:10068C004FF0FF3000F07CFA2046044B1D6038BD63
:10069C000120FCE700000020840100200400002061
:1006AC00074A08B51368032043F01003136000F0E9
:1006BC0055FA0020FFF7D0FF05F05AFC002008BDCA
:1006CC0000200240034A044B11681B780B44136052
:1006DC00704700BF5C09002000000020014B186827
:1006EC00704700BF5C0900200368D86C70477047E6
:1006FC00036810B55A680446900627D51A68910706
:10070C0024D5A26AD2065EBFA26A42F40072A2622B
:10071C009A6802F46022B2F5602F10D1227B72B974
:10072C005A6822F020025A60A36A23F48073A362F1
:10073C00A36ADB045EBFA36A43F00103A3622046F5
:10074C0005F0B4FD6FF0120223681A6023685A6832
:10075C00100630D51A6851072DD5A26AD2065EBF95
:10076C00A26A42F40052A2629A6802F4E042B2F524
:10077C00E04F0AD05A68500516D49A6802F46022E9
:10078C00B2F5602F10D1227B72B95A6822F0800228
:10079C005A60A36A23F48053A362A36AD9055EBF8F
:1007AC00A36A43F00103A362204600F0D5F96FF071
:1007BC000C0223681A6023685A6852060DD51B6810
:1007CC00DB070AD5A36A204643F48033A362FFF704
:1007DC008EFF6FF0010223681A6010BD002373B501
:1007EC00019390F82430012B6DD001234D6880F8D3
:1007FC002430062D026805EB85030C6823D81F26D0
:10080C00556B053B9E4025EA060504FA03F32B4382
:10081C005363092C8B6804EB44054FF007012AD96C
:10082C00D6681E3DA94026EA0101AB400B43D360BC
:10083C00A4F11003012B26D90023002280F82420D8
:10084C00184602B070BD0C2D4FF01F0509D8166B61
:10085C00233B9D4026EA050504FA03F32B4313635F
:10086C00D7E7D66A413B9D4026EA050504FA03F317
:10087C002B43D362CDE71669A94026EA0101AB40B0
:10088C000B431361D4E7114B9A4216D193681B02A8
:10089C00D2D49368102C43F400039360CCD10C4B4E
:1008AC000C4A1B68B3FBF2F20A2353430193019BDE
:1008BC00002BC1D0019B013BF8E7836A43F0200376
:1008CC0083620123B9E70223BAE700BF0024014089
:1008DC008401002040420F00002373B5019303688C
:1008EC0004469A68D20702D5002002B070BD9A68FF
:1008FC0042F001029A60124B124A1B68B3FBF2F3EE
:10090C000193019BC3B9FFF7E9FE064623689D6876
:10091C0015F00105E8D1FFF7E1FE801B0228F5D99F
:10092C00A36A84F8245043F01003A362E36A012005
:10093C0043F00103E362D8E7019B013BE0E700BF12
:10094C008401002040420F0090F8243010B5012B98
:10095C00044658D0012380F82430FFF7BDFF00284F
:10096C004DD1A36A294A23F4706323F0010343F4A5
:10097C008073A3622368934204D125494A6812F418
:10098C00702F32D1A26A22F48012A2625A685205E8
:10099C0041BFA26A22F4405242F48052A262A26A7F
:1009AC0012F480521CBFE26A22F00602E2620022BC
:1009BC0084F824206FF002021A605A6842F0200278
:1009CC005A609A6802F46022B2F5602F13D10F4A74
:1009DC00934205D1A2F58062526812F4702F0AD1AD
:1009EC009A6842F4A0029A6010BDA26A42F4801286
:1009FC00A2624A68CBE79A6842F48012F3E70023BC
:100A0C0084F82430F0E70220EEE700BF0028014014
:100A1C000024014038B5036804469A68D20701D413
:100A2C00002038BD9A6822F001029A60FFF756FE4A
:100A3C00054623689B68DB07F2D5FFF74FFE401B8A
:100A4C000228F6D9A36A012043F01003A362E36ADB
:100A5C0043F00103E362E4E770B50446002870D06C
:100A6C00836A23B9C36280F8243005F0A3FA2046C8
:100A7C00FFF7D0FFA36A13F0100FA36A63D100280D
:100A8C0061D1E16923F48853626823F0020343F0D7
:100A9C0002030A43A168A362237BB1F5807F42EA7B
:100AAC00430237D0012914BF06464FF48076257DCA
:100ABC00012D06D183BBA369013B46EA433545F4BE
:100ACC0000662368B1F5807F5D6825F4694545EAC9
:100ADC0006055D609E681E4D05EA060545EA0205A1
:100AEC009D6001D0012920D1216901390905DD6AF8
:100AFC0025F470052943D9629968164B0B409A422C
:100B0C0015D10023E362A36A23F0030343F001032E
:100B1C00A36270BD0E46CAE7A36A43F02003A3622A
:100B2C00E36A43F00103E362CBE70021DFE7A36A4A
:100B3C0023F0120343F01003A362E36A43F00103B2
:100B4C00E3620120E5E743F01003A362F9E700BF7D
:100B5C00FDF7E1FFFE0E1FFF70470000074A000281
:100B6C00D36800F4E06023F4E0631B041B0C43F037
:100B7C00BF6343F400330343D360704700ED00E0E0
:100B8C00174B70B5DC684FF0FF36C4F30224C4F188
:100B9C000705042D04F1040328BF0425062B98BF78
:100BAC00002406FA05F388BF033C21EA0303A340A3
:100BBC0006FA04F422EA0404002843EA0403A8BF5A
:100BCC0000F160404FEA0313B8BF064ADBB2ABBF7B
:100BDC0000F5614000F00F0080F80033135470BD35
:100BEC0000ED00E014ED00E0002808DB01234209D1
:100BFC0000F01F0003FA00F0014B43F8220070478D
:100C0C0000E100E00138B0F1807F0AD2F021064B00
:100C1C00064A586082F823100020072298601A6058
:100C2C0070470120704700BF10E000E000ED00E0CD
:100C3C0010B530B314220168134B0B44B3FBF2F321
:100C4C009B000364114B0A68C363D0E9013423434E
:100C5C00C46822F47F522343046922F030022343F8
:100C6C004469234384692343C469234313430B60BE
:100C7C000122002380F82120836380F8203018465D
:100C8C0010BD0120FCE700BFF8FFFDBF00000240D3
:100C9C00F0B590F82040012C35D0012490F821506B
:100CAC0080F82040A5424FF000064FF0020428D1F6
:100CBC0080F8214004688663266826F001062660C9
:100CCC00D0E90F67BD407560636043680568102B01
:100CDC00C36A0BBFA260A160E160E2604BB1236804
:100CEC0043F00E03002023602B6843F001032B60BC
:100CFC00F0BD236823F004032360236843F00A0348
:100D0C00F0E780F820600220F2E7000090F8213034
:100D1C0010B5022B03D004238363012010BD03689C
:100D2C001A6822F00E021A601A6822F001021A6088
:100D3C00184A93421FD0143293421ED0143293425D
:100D4C001DD0143293421DD0143293421DD0143254
:100D5C0093420CBF4FF480134FF080730E4A002463
:100D6C005360012380F82130436B80F820407BB125
:100D7C0098472046D2E70123F0E71023EEE74FF423
:100D8C008073EBE74FF48053E8E74FF48033E5E7EB
:100D9C001846C3E7080002400000024070B4042566
:100DAC00C66B026C3468036895402542196832D0D2
:100DBC004D0730D51A6896065EBF1A6822F00402F9
:100DCC001A603E4A934219D01432934218D014320E
:100DDC00934217D01432934217D01432934217D047
:100DEC00143293420CBF4FF480034FF08063344AAB
:100DFC005360C36A002B5ED070BC18470423F6E71F
:100E0C004023F4E74FF48063F1E74FF48043EEE7BF
:100E1C004FF48023EBE702259540254235D08D0712
:100E2C0033D51A68940606D41A6822F00A021A609E
:100E3C00012280F82120214A934219D01432934286
:100E4C0018D01432934217D01432934217D0143264
:100E5C00934217D0143293420CBF4FF400134FF04F
:100E6C000073174A5360002380F82030836AC1E76F
:100E7C000223F6E72023F4E74FF40073F1E74FF475
:100E8C000053EEE74FF40033EBE70825954025427D
:100E9C0011D009070FD5196821F00E011960012333
:100EAC0003FA02F27260836380F82130002380F829
:100EBC002030036B9EE770BC704700BF08000240F7
:100ECC0000000240114AD36813F0100305D01049FA
:100EDC00CB6943F00203CB611023D268500706D5CF
:100EEC000B4943F00403CA6942F00102CA61074A84
:100EFC00D169C90708D50648C16941F00401C1612F
:100F0C00D16921F00101D161D3607047002002400A
:100F1C0060090020064B186910F0800007D0054AC4
:100F2C005A6002F188325A601869C0F3C0107047D9
:100F3C000020024023016745034A0020136943F057
:100F4C0080031361704700BF00200240F8B50646CD
:100F5C00FFF7C4FB114C07462546E368D80712D4AB
:100F6C00E368990644BF2023E360EB68DA0606D4F5
:100F7C00EB69DB0703D4E86810F0040007D0FFF737
:100F8C00A1FF012003E0731CE7D00EB90320F8BDCC
:100F9C00FFF7A4FBC01BB042DFD9F7E700200240EB
:100FAC002DE9F84F244C1E46237E0546012B0F4697
:100FBC0090463FD001234CF250302376FFF7C6FF0A
:100FCC00A0BB012D03D0022D0CBF022504254FF030
:100FDC000009CB46DFF864A04FEA0913C3F12001E6
:100FEC00A3F1200206FA01F128FA03F3C4F81CB0AD
:100FFC000B4326FA02F21343DAF810209BB242F0AC
:10100C000102CAF810204CF2503027F81930FFF7C3
:10101C009DFFDAF8103023F00103CAF8103028B91C
:10102C0009F101095FFA89F39D42D5D80023237693
:10103C00BDE8F88F0220FBE7600900200020024089
:10104C000022064BDA61064B1A6942F004021A615F
:10105C001A6942F040021A61704700BF6009002013
:10106C00002002400022064BDA61064B1A6942F05E
:10107C0002021A6158611A6942F040021A61704703
:10108C0060090020002002402DE9F041224D074666
:10109C002B7E8846012B3DD0012403682C76022B35
:1010AC004CF2503013D1FFF751FF20B10120002337
:1010BC002B76BDE8F081FFF7C3FF4CF25030FFF701
:1010CC0045FF164A136923F004031361EFE7FFF79A
:1010DC003DFF0028EAD14FF0FF33C8F8003020461E
:1010EC00BE680E4CD7E9023203EB8223B342DED941
:1010FC003046FFF7B7FF4CF25030FFF727FF23695C
:10110C0023F00203236110B1C8F80060CFE706F5A5
:10111C008066E7E70220CCE760090020002002404F
:10112C002DE9F74F00242646654BDFF8A4C1DFF804
:10113C00A4E10A6832FA06F502D103B0BDE8F08FDB
:10114C004FF0010808FA06F802EA080290457ED131
:10115C004D68122D00F0A98000F28280022D00F063
:10116C00A18076D8002D00F08880012D00F09880A9
:10117C004FF00F09FF2A93BF824606F18045083DC8
:10118C00D0F800B092BFB500D0F804B0AD0009FAA9
:10119C0005F82BEA080804FA05F588BF00F1040AE3
:1011AC0048EA0505CAF80050D1F804A01AF0805F8F
:1011BC004DD0444F26F00308BD6908F1804845F036
:1011CC000105BD61BD6908F5803805F00105019583
:1011DC0006F0030B019D4FEA8B0BD8F8085009FA67
:1011EC000BF925EA0909384DA84263D005F580654D
:1011FC00A84261D005F58065A8425FD005F58065F1
:10120C00A8420CBF0325042505FA0BF545EA090590
:10121C00C8F808501D681AF4803F14BF1543954355
:10122C001D605D681AF4003F14BF154395435D6063
:10123C009D681AF4801F14BF154395439D60DD68AB
:10124C001AF4001F14BF2A4325EA0202DA600136A1
:10125C006FE7032D22D0112D8AD1CC68043487E797
:10126C001A4FBD4209D012D8DFF86C904D4504D00E
:10127C0009F580394D457FF47BAF8C68C4B1012CE6
:10128C000CBFC0F81080C0F81480082470E76545C6
:10129C00F3D07545F1D0DFF84490EBE7002467E715
:1012AC00CC6865E7CC68083462E7CC680C345FE73F
:1012BC0004245DE70025A7E70125A5E70225A3E7A0
:1012CC000004014000100240000801400000211001
:1012DC00000031100000321000001110000022102C
:1012EC008368194214BF0120002070470AB10161C4
:1012FC0070470904FBE7F0B5044687B010B390F8CB
:10130C00293203F0FF021BB980F8282205F034F9CA
:10131C00254603236E4655F8100B84F8293201F04C
:10132C0040FD0FCD0FC62B6825463360271D97E86F
:10133C000E0055F8100B01F025FD064620B10223D6
:10134C0084F82932012548E00146206801F033FD7C
:10135C0030464FF0010C6168C3B2994200F10100B4
:10136C0017D800221046D3B2994202F101021DD8BF
:10137C000FCD6E460FC62B68336097E80E002068C1
:10138C0001F01BFD0123054600B3022284F829223B
:10139C00D8E704EB431282F829C082F82830D386B0
:1013AC0082F82B60C2E90E661664D5E704EB43168F
:1013BC0086F828310A335B0186F8290186F82B015F
:1013CC00C6F83801C6F83C01E050CCE784F824009C
:1013DC0084F82932206801F092FF284607B0F0BD4E
:1013EC0090F8283210B5012B04460ED0012180F85C
:1013FC00281205F0EEF9206801F07FFF206801F05B
:10140C00C8FC002084F8280210BD0220FCE790F8EC
:10141C00282210B5012A04460BD0012280F828227C
:10142C0084F82410006801F062FF002084F8280280
:10143C0010BD0220FCE770B5044601F0070511F061
:10144C00800F4FEA451014BF00F1280100F594718C
:10145C0004EB000617BF01200020091986F82900AB
:10146C0004BF091986F829010A614A780D70CB70FE
:10147C0002B1CD81022B04BF00230B7194F82832EA
:10148C00012B09D00123206884F8283201F0B0FC2C
:10149C00002084F8280270BD0220FCE701F007024E
:1014AC0011F0800F4FEA421310B5044618BF03F138
:1014BC00280118440BBF03F594710123002309196B
:1014CC000ABF091980F8293080F829310A7094F87C
:1014DC002832012B09D00123206884F8283201F02E
:1014EC00E1FD002084F8280210BD0220FCE770B555
:1014FC00002601F007014D01441984F8281105F567
:10150C0094710144C4F83C21C4F84031C4F84461DE
:10151C0084F82961006801F009FF304670BD01F0C4
:10152C00070100EB4111D1F84401704701F00701AC
:10153C0070B54D014419C4E90F230026012384F82A
:10154C00281005F128010144666484F829300068EC
:10155C0001F0ECFE304670BD2DE9F84F04460068F2
:10156C0001F0CFFE02040BD5DFF80C94DFF80CA4CD
:10157C00DFF80CB42068B0F844301B0400F19E80F6
:10158C00206801F0BEFE43050FD522682046B2F854
:10159C00443023F480631B041B0CA2F8443005F088
:1015AC0024F800212046FFF732FF206801F0A9FE45
:1015BC00470408D52268B2F8443023F480431B0456
:1015CC001B0CA2F84430206801F09BFE860408D561
:1015DC002268B2F8443023F400531B041B0CA2F80D
:1015EC004430206801F08DFEC5041CD522682046CD
:1015FC00B2F8403023F004031B041B0CA2F840305B
:10160C00B2F8403023F008031B041B0CA2F8403046
:10161C0005F00EF82268B2F8443023F480531B0412
:10162C001B0CA2F84430206801F06BFE000524D599
:10163C002068B0F8403043F00803A0F84030B0F810
:10164C00443023F400631B041B0CA0F84430B0F8A6
:10165C00403043F00403A0F8403001F052FEC104C6
:10166C0008D52268B2F8443023F480531B041B0CB9
:10167C00A2F84430204604F0CBFF206801F041FE74
:10168C0082050BD522682046B2F8443023F400734F
:10169C001B041B0CA2F8443004F0A3FF206801F0DB
:1016AC0030FEC30508D52268B2F8443023F48073A9
:1016BC001B041B0CA2F84430BDE8F88FB0F84410A2
:1016CC0089B211F00F0640F0B18011F010010388BF
:1016DC002AD109EA030343F400430380B0F85030E5
:1016EC0094F8282003EBC20300EB4300B0F8043459
:1016FC00E26BC3F3090363641344E363204604F011
:10170C0069FF94F82430002B3FF434AF226C002A8C
:10171C007FF430AF94F82430216843F08003A1F8B3
:10172C004C3084F8242025E79BB213F4006520D0BC
:10173C00B0F8503094F8282104F50C7103EBC20377
:10174C0000EB4303B3F80C34B4F82E21C3F30903B4
:10175C00C4F8443101F0BEFE22682046138823F001
:10176C0070031B051B0D43F08003138004F024FF52
:10177C0000E71F047FF5FEAE038823F070031B0502
:10178C001B0D43F080030380B0F8503094F82821EF
:10179C0003EBC20300EB4303B3F80C34C3F30903AC
:1017AC00C4F844318BB1D4F83C1171B1B4F82E218A
:1017BC0001F090FED4F83C31D4F84421294613446E
:1017CC00C4F83C31204604F0FDFE2168D4F83851B1
:1017DC00B1F8503001F20C409BB2BDB9C25A22F4A0
:1017EC00F8421204120CC252C25A4AEA020292B2D3
:1017FC00C2520B8823F4804323F0700383F44053CC
:10180C0043F4004343F080030B80B3E63E2D05D830
:10181C006A08EE0748BF01329202E8E76A09ED0652
:10182C0008BF02F1FF324AEA8222E0E730F8268054
:10183C001FFA88F818F4004F3CD030F826307701A6
:10184C0023F070031B051B0D43F0800320F826309A
:10185C00E11991F8343100F58062002B50D1B0F8C9
:10186C00503091F82851063303EBC50332F813506E
:10187C00C5F3090535B1B1F82E212B46D1F83C1131
:10188C0001F028FEE119D1F84431D1F83C212B4468
:10189C00C1F84431D1F840312A44C1F83C211BB184
:1018AC00D1F8380185425DD2274497F8281120469B
:1018BC0004F088FE18F0800F3FF45CAE23682046DD
:1018CC0033F8262009EA020242F4004223F82620CB
:1018DC00B3F8502004EB461696F82810023202EBAF
:1018EC00C10203EB4203B3F80024F36BC2F3090209
:1018FC0072641A44336CF263D3BB04F06BFE39E6AA
:10190C0091F8283130F82350DB0015F4804FB0F8F3
:10191C0050502B441BD0023332F81350C5F3090539
:10192C0035B12B46B1F83021D1F83C1101F0D2FD84
:10193C00E31993F82811226832F821300BEA0303DB
:10194C0043F4004343F0C00322F821309AE70633F6
:10195C0032F81350C5F30905002DE9D02B46B1F828
:10196C003221E1E791F828112046FFF7C0FDA1E7ED
:10197C00FFF7DCFDFEE500BF0F8FFFFF0080FFFFD0
:10198C008F8FFFFF38B5436801F007059D42044671
:10199C0028D80B061DD501226B0103F12801034445
:1019AC00014483F8292001230D708B7094F82822B0
:1019BC009A4219D084F82832206801F039FC25B9F4
:1019CC0004F50C71206801F09FFC002084F82802BB
:1019DC0038BD00224B0103F594710344014483F894
:1019EC002921E0E70120F3E70220F1E738B543684D
:1019FC0001F00F029A42044627D801F0070211F0B9
:101A0C00800F4FEA421314BF03F1280103F59471C0
:101A1C0018444FF0000515BF0123002309190919BB
:101A2C0014BF80F8293080F829318D700A7094F831
:101A3C002832012B0BD00123206884F8283201F0C6
:101A4C0013FC284684F8285238BD0120FCE70220FC
:101A5C00FAE711F0800F1BBF01F0070100EB4110FA
:101A6C0000EB4110283008BF00F5947099B21AB9F8
:101A7C000273C1800020704701221B0C027301818C
:101A8C004381F7E72DE9F341054608B901203CE015
:101A9C000368DB0710D42B689F075DD42B681907EC
:101AAC0000F194802B685A0700F1BE80E869002889
:101ABC0040F02C81002028E08F4C636803F00C036D
:101ACC00042B07D0636803F00C03082B09D163685F
:101ADC00DE0306D523689C03DDD56B68002BDAD1B9
:101AEC00D4E76B68B3F5803F12D1236843F480339D
:101AFC002360FEF7F3FD064623689803CBD4FEF76C
:101B0C00EDFD801B6428F7D9032002B0BDE8F081FD
:101B1C009BB9236823F480332360236823F4802348
:101B2C002360FEF7DBFD064623689903B3D5FEF769
:101B3C00D5FD801B6428F7D9E6E7B3F5A02F236801
:101B4C0003D143F480232360CFE723F48033236055
:101B5C00236823F48023CBE7674C636813F00C0FE6
:101B6C0007D0636803F00C03082B10D16368DA0309
:101B7C000DD423689B0702D52B69012B86D12368D2
:101B8C006A6923F0F80343EAC203236086E72A69F3
:101B9C005A4B6AB101221A60FEF7A0FD0646236873
:101BAC009F07ECD4FEF79AFD801B0228F7D9ABE710
:101BBC001A60FEF793FD0646236898077FF56EAF13
:101BCC00FEF78CFD801B0228F6D99DE7AA694A4CCA
:101BDC004B4BDAB101221A60FEF780FD0646636AB0
:101BEC009B070DD54FF4FA52464B1B68B3FBF2F32F
:101BFC00019300BF019B5A1E0192002BF9D151E7B2
:101C0C00FEF76CFD801B0228E9D97DE71A60FEF710
:101C1C0065FD0646636A9F077FF544AFFEF75EFDE0
:101C2C00801B0228F6D96FE7334CE369D80024D423
:101C3C000127E36943F08053E361E36903F08053C8
:101C4C000093009B304E3368D90518D5EB68012BF7
:101C5C0026D1236A43F001032362FEF73FFD41F2D4
:101C6C0088368046236A9B073FD5002F3FF41EAF72
:101C7C00E36923F08053E36118E70027E2E7336858
:101C8C0043F480733360FEF729FD80463368DA0530
:101C9C00DCD4FEF723FDA0EB08006428F6D933E76B
:101CAC00ABB9236A41F2883823F001032362236A1B
:101CBC0023F004032362FEF711FD0646236A9807FE
:101CCC00D3D5FEF70BFD801B4045F7D91CE7052B40
:101CDC00236A03D143F004032362BAE723F0010320
:101CEC002362236A23F00403B6E7FEF7F7FCA0EBAC
:101CFC000800B042B6D907E700100240000042428B
:101D0C008004424284010020007000402A4B5A6833
:101D1C001C4602F00C02082A3DD00023274E022854
:101D2C0033602BD1FEF7DAFC0746236899011FD4E8
:101D3C002B6AB3F5803F05D16268A96822F40032A2
:101D4C000A436260696A62680B4322F4741213439B
:101D5C00636001233360FEF7C1FC054623689A01DA
:101D6C003FF5A8AEFEF7BAFC401B0228F6D9CBE62D
:101D7C00FEF7B4FCC01B0228D7D9C5E6FEF7AEFCB3
:101D8C00054623689B017FF595AEFEF7A7FC401B2B
:101D9C000228F6D9B8E601283FF4B7AE58682B6A8A
:101DAC0000F480329A427FF471AE6B6A00F47010CA
:101DBC00C01A18BF0120A8E6001002406000424281
:101DCC0030B5184B87B002AC03F1100522461868E9
:101DDC005968083303C2AB421446F7D140F20123D1
:101DEC001149ADF804304B6803F00C02082A17D1E6
:101DFC00C3F3834206A80244DB0312F8102C0CD563
:101E0C004B680A48C3F34043504306AA134413F8E3
:101E1C00143CB0FBF3F007B030BD05485043FAE773
:101E2C000248F8E7307C00080010024000127A00EB
:101E3C0000093D002DE9F0410D46044610B9012082
:101E4C00BDE8F081444A136803F007038B4228D3A2
:101E5C0021688E0730D4CA0743D43F4A136803F075
:101E6C000703AB4265D822683C4D12F0040F6CD1CD
:101E7C00130706D56B68226923F4605343EAC20347
:101E8C006B60FFF79DFF6B68354AC3F30313D35C9C
:101E9C00D840344B1860344B1868FEF7DDFB00203B
:101EAC00CEE7136823F007030B431360136803F0AA
:101EBC0007038B42C3D1CBE7284B11F0040F1EBF95
:101ECC005A6842F4E0625A60080742BF5A6842F40A
:101EDC0060525A605A68A06822F0F00202435A60BD
:101EEC00B9E762681D4E012A33681AD113F4003F1A
:101EFC00A5D0736841F2883823F003031343736051
:101F0C00FEF7ECFB07467368626803F00C03B3EB57
:101F1C00820FA2D0FEF7E2FBC01B4045F3D9032091
:101F2C008EE7022A02D113F0007FE1E713F0020FD3
:101F3C00DEE7136823F007032B431360136803F0E9
:101F4C000703AB427FF47BAF8DE76B68E16823F44A
:101F5C00E0630B436B608BE70020024000100240F3
:101F6C00FA8900088401002004000020044B054A73
:101F7C005B68C3F30223D35C034A1068D8407047F4
:101F8C00001002400A8A000884010020044B054A14
:101F9C005B68C3F3C223D35C034A1068D840704714
:101FAC00001002400A8A00088401002003682DE911
:101FBC00F341D907054620D5354CE369DA0032D414
:101FCC000127E36943F08053E361E36903F0805335
:101FDC000193019B2F4E3368DB0526D5236A13F43E
:101FEC00407336D1236A6A6823F440731343236227
:101FFC001FB1E36923F08053E3612868830706D59A
:10200C00234AA968536823F440430B43536010F0F0
:10201C0010001BD01E4AE9685368002023F480038B
:10202C000B43536012E00027D4E7336843F480730A
:10203C003360FEF753FB80463368D805CED4FEF7E9
:10204C004DFBA0EB08006428F6D9032002B0BDE8D4
:10205C00F0816A6802F440729A42C3D001200E4AA1
:10206C00236A1060002023F4407110602162D907AC
:10207C00B8D5FEF733FB41F288380646236A9A0737
:10208C00B0D4FEF72BFB801B4045F7D9DDE700BF32
:10209C00001002400070004040044242F8B5044673
:1020AC000E4615461F4621688A6836EA020301D09F
:1020BC0000202DE06B1CF7D0FEF710FBC01B8542F7
:1020CC00F1D823685A6822F0E0025A606268B2F5CF
:1020DC00827F0AD1A268B2F5004F02D0B2F5806FB0
:1020EC0003D11A6822F040021A60A26AB2F5005FAE
:1020FC0007D11A6822F400521A601A6842F400528E
:10210C001A60012384F851300023032084F85030E6
:10211C00F8BD10B513460A4680210446FFF7BEFFF2
:10212C0020B10320636D43F02003636510BD70473D
:10213C0010B50446002834D00023836290F8513047
:10214C0003F0FF021BB980F85020FFF7F0FF0223C9
:10215C00226884F851301368A16923F0400313609E
:10216C00D4E901300343E068034320690343606909
:10217C000343E0690343206A0343A06A034301F469
:10218C000070090C034301F0040113605160D36922
:10219C00002023F40063D3610123606584F851307F
:1021AC0010BD0120FCE72DE9F3411E4690F850309C
:1021BC000446012B0D46904600F09C80012380F8CC
:1021CC005030FEF78BFA074694F85100C0B2012844
:1021DC0040F08E80002D5ED0B8F1000F5BD0032351
:1021EC00002084F85130A3686065A063A4F83680A1
:1021FC00A087E087C4E910002068B3F5004F08BF42
:10220C000368256308BF43F48043A4F8348008BFF7
:10221C0003600368E2685B065EBF036843F040033B
:10222C000360B2F5006F63683ED113B1B8F1010FD2
:10223C0007D135F8023BC3602563E38E013B9BB2AB
:10224C00E386E38E9BB2A3B93A4631462046FFF7AC
:10225C0060FF002849D1A36833B901932368DA6879
:10226C0001929B680193019B606D003018BF0120A7
:10227C0011E022689368980705D5236B33F8021B8D
:10228C00D1602363D9E7FEF729FAC01BB042D8D33B
:10229C00711CD6D00320012384F85130002384F81C
:1022AC00503002B0BDE8F08113B1B8F1010F08D184
:1022BC002B780373236B01332363E38E013B9BB2B7
:1022CC00E386E38E9BB2002BBED023689A689207FC
:1022DC0003D5226B12781A73ECE7FEF7FFF9C01BDB
:1022EC00B042EED3731CECD0D4E720236365B2E785
:1022FC000220D0E70220D4E790F8503010B5012B23
:10230C0004464ED0012380F8503090F85100C0B2F2
:10231C00984244D100292DD0002A2BD0032384F8D5
:10232C00513000236365A363E286C4E91033E3876D
:10233C00A387A368A2862268B3F5004F08BF136871
:10234C00216304BF43F480431360A06C164B0C3222
:10235C00C362164B8362164B036300234363E38E05
:10236C00FEF796FC50B10120636D43F010036365DA
:10237C0084F85100002384F8503010BD23681A688B
:10238C0052065EBF1A6842F040021A605A6842F068
:10239C0020025A605A6842F002025A60EAE70220B0
:1023AC00E8E70220E9E700BFC5230008F323000893
:1023BC00D12300087047704708B5406AFFF7FBFF50
:1023CC0008BD7047406A08B50268536823F00303E0
:1023DC005360436D43F010034365012380F8513083
:1023EC00FFF7EFFF08BD37B50546446AFEF776F9EF
:1023FC002B6802461B689B0626D423682046596826
:10240C0021F020015960596821F0020159606421C2
:10241C00FFF77FFE18B1636D43F020036365A3687B
:10242C0033B901932368DA6801929B680193019B8D
:10243C000023E386012384F85130636D23B12046D9
:10244C00FFF7BFFF03B030BD2046FFF7B3FFF9E73E
:10245C00036A70B523F001030362036A446882695E
:10246C000D6822F073022A438D6823F002032B437C
:10247C000A4DA8420BD1CD6823F008032B4324F45A
:10248C004074D1E90556354323F004032C434460D2
:10249C0082614A684263036270BD00BF002C014038
:1024AC00036A70B523F480730362036A4468C269DB
:1024BC000D6822F073022A438D6823F4007343EAFB
:1024CC0005230B4DA8420DD1CD6823F4006343EADC
:1024DC00052324F44054D1E90556354323F4806395
:1024EC0044EA05144460C2614A68C263036270BD69
:1024FC00002C0140036A30B523F480530362036A55
:10250C004468C2690D6822F4E64242EA05228D68ED
:10251C0023F4005343EA0533064DA84202BF4D692C
:10252C0024F4804444EA85144460C2614A6802641D
:10253C00036230BD002C01407047022380F83D300F
:10254C0003689A6802F00702062A1EBF1A6842F056
:10255C0001021A60012380F83D300020704770475B
:10256C001A4A036890420AD0B0F1804F07D0A2F506
:10257C009432904203D002F58062904215D14A68A1
:10258C0023F070031343114A90420AD0B0F1804FEC
:10259C0007D0A2F59432904203D002F580629042AB
:1025AC0003D1CA6823F4407313434A6923F08003B0
:1025BC00134303608B68C3620B688362034B9842BE
:1025CC0004BF0B690363012343617047002C014076
:1025DC0010B50446A0B190F83D3003F0FF021BB9D2
:1025EC0080F83C20FFF7A8FF0223206884F83D30D8
:1025FC00211DFFF7B5FF0123002084F83D3010BDED
:10260C000120FCE710B50446A0B190F83D3003F072
:10261C00FF021BB980F83C20FFF7A1FF02232068C2
:10262C0084F83D30211DFFF79BFF0123002084F827
:10263C003D3010BD0120FCE7036A70B523F0100398
:10264C000362036A446882690D6822F4E64242EA36
:10265C0005228D6823F0200343EA05130B4DA84295
:10266C000DD1CD6823F0800343EA051324F44064B4
:10267C00D1E90556354323F0400344EA8504446010
:10268C0082614A688263036270BD00BF002C014006
:10269C0038B590F83C300446012B4FF0020025D0A1
:1026AC00012384F83D0084F83C300C2A18D8DFE86C
:1026BC0002F0071717171E1717172F1717174000B9
:1026CC002068FFF7C5FE236809699A6942F0080281
:1026DC009A619A6922F004029A619A690A439A6192
:1026EC000123002084F83D3084F83C0038BD20687C
:1026FC00FFF7A2FF236809699A6942F400629A61A4
:10270C009A6922F480629A619A6942EA0122E6E7A8
:10271C002068FFF7C5FE23680969DA6942F00802F0
:10272C00DA61DA6922F00402DA61DA690A43DA6101
:10273C00D6E72068FFF7DEFE23680969DA6942F400
:10274C000062DA61DA6922F48062DA61DA6942EAFB
:10275C000122ECE710B584680A4324F47F4442EA72
:10276C0003232343836010BD90F83C3070B5012BDC
:10277C0004464FF0020019D0012384F83D00206874
:10278C0084F83C30836823F47F4323F07703836021
:10279C000B68402B65D015D8102B0CD007D853B133
:1027AC000123002084F83D3084F83C0070BD202BC0
:1027BC0001D0302BF4D1826843F0070322F0700271
:1027CC0013431AE0602B34D019D8502BE8D14A6847
:1027DC00CE68016A056A21F00A0125F0010505623F
:1027EC0083690A4323F0F00343EA06138361026210
:1027FC00836823F0700343F057038360D0E7702B9A
:10280C000CD0B3F5005FCBD1CB68D1E90121FFF738
:10281C00A1FF2268936843F4804308E0CB68D1E9B8
:10282C000121FFF797FF2268936843F077039360C9
:10283C00B6E74D68CE68016A21F010010162826929
:10284C00036A22F4704223F0A00343EA051342EA20
:10285C00063282610362836823F0700343F06703DE
:10286C00CBE74A68CE68016A056A21F00A0125F0B7
:10287C000105056283690A4323F0F00343EA06135A
:10288C0083610262836823F0700343F04703B4E76B
:10289C0010B50124036A01F01F018C4023EA0403E4
:1028AC000362036A8A401A43026210BD10B50446E3
:1028BC0001220068FFF7ECFF2368094A00209342CD
:1028CC0002BF5A6C42F400425A649A6802F0070242
:1028DC00062A1EBF1A6842F001021A6010BD00BF22
:1028EC00002C0140FFF7E2BF0368DA6822F4907213
:1028FC00DA605A6922F001025A61202380F83A30DA
:10290C007047000038B505460368C1681A69192478
:10291C0022F440520A431A6182680069D968024362
:10292C00686921F4B05121F00C0102430A43DA60CA
:10293C005A69A96922F440720A435A610D4A9342BA
:10294C0014D1FFF723FB60436C686422A400B0FB36
:10295C00F4F0B0FBF2F102FB11031B013233B3FBB9
:10296C00F2F32C6803EB0113A36038BDFFF7FEFAFA
:10297C00E9E700BF00380140F8B504460E4617469B
:10298C001D4621680B6836EA030301D1002014E0D0
:10299C006B1CF7D095B923680320DA6822F4D07247
:1029AC00DA605A6922F001025A61202384F8393026
:1029BC0084F83A30002384F83830F8BDFDF78EFEE9
:1029CC00C01B8542DDD2E6E710B5044640B390F853
:1029DC00393003F0FF021BB980F8382003F03AFBC2
:1029EC002423226884F83930D368204623F400531A
:1029FC00D360FFF787FF236800201A6922F4904206
:102A0C001A615A6922F02A025A61DA6842F40052B9
:102A1C00DA602023E06384F8393084F83A3010BD52
:102A2C000120FCE710B5044660B390F8393003F090
:102A3C00FF021BB980F8382003F00CFB242322681A
:102A4C0084F83930D368204623F40053D360FFF761
:102A5C0059FF236800201A6922F490421A615A69BE
:102A6C0022F022025A615A6942F008025A61DA686D
:102A7C0042F40052DA602023E06384F8393084F8A1
:102A8C003A3010BD0120FCE72DE9F0411F4690F8CB
:102A9C0039300446202B0D4690464CD1002948D0A5
:102AAC00002A46D090F83830012B44D0012380F80E
:102ABC0038300023C363212380F83930FDF70EFE34
:102ACC000646A4F82480A4F82680E38C9BB263B954
:102ADC003B46324640212046FFF74EFFA0B920234B
:102AEC0084F8380084F839300FE0E38C3246013B2F
:102AFC009BB2E384A3688021B3F5805F20463B46FC
:102B0C000ED1FFF739FF10B10320BDE8F0812B88FF
:102B1C002268C3F308035360236943B90235D4E731
:102B2C00FFF72AFF0028EFD123682A785A60013575
:102B3C00CBE70120E9E70220E7E790F83A30202BB9
:102B4C0020D1E9B1E2B190F83830012B1AD0C2850E
:102B5C00828500232222C36380F83A2002688162B6
:102B6C00D16880F8383041F48071D16051691846D1
:102B7C0041F001015161D16841F02001D1607047F1
:102B8C000120704702207047704790F83A3010B51A
:102B9C00222B33D181680469B1F5805F836A0268A6
:102BAC0023D15268ECB9C2F3080223F8022B8362DA
:102BBC00C48D013CA4B2C4858CB90368DA6822F0D8
:102BCC002002DA60DA6822F48072DA605A6922F044
:102BDC0001025A61202380F83A3001F02DFA0020CE
:102BEC000DE0D2B223F8012BE1E7591C5268816247
:102BFC000CB91A70DCE702F07F02FAE7022010BD74
:102C0C0070470000036870B51A6804461607D96847
:102C1C005D6907D1960658D58D0656D5BDE870402E
:102C2C00FFF7B3BF15F0010502D111F4907F4CD022
:102C3C00D30705D5CE0542BFE36B43F00103E36335
:102C4C00500704D51DB1E36B43F00203E363930714
:102C5C0004D51DB1E36B43F00403E363160704D5FD
:102C6C001DB1E36B43F00803E363E36B43B39506D9
:102C7C0004D5880602D52046FFF787FF2368204637
:102C8C005D69E26B110702D415F0400519D0FFF70E
:102C9C002BFE23685A6952060FD55A69606B22F0D5
:102CAC0040025A6148B1264B4363FEF72FF838B106
:102CBC00606BBDE87040436B18472046FFF7A0FFE0
:102CCC0070BDFFF79DFFE563FAE7160628D50D06E4
:102CDC0026D594F83920212AF2D1A168226AB1F5BF
:102CEC00805F18D11188C1F308015960216981B93D
:102CFC0002322262E28C013A92B2E284002ADFD1E3
:102D0C00DA6822F08002DA60DA6842F04002DA60B7
:102D1C00D6E70132EDE7511C216212785A60E9E7DF
:102D2C005006CDD54A06CBD5DA68204622F04002B3
:102D3C00DA60202384F83930FFF726FFC0E700BFA4
:102D4C00512D000808B50023406AC385C384FFF7E2
:102D5C0057FF08BD90F83830012B11D0242302689E
:102D6C0080F83930D36823F00C0343F00403D360AC
:102D7C00202380F83930002380F83830184670470B
:102D8C000220704784B001A880E80E0004B0002037
:102D9C007047B0F8403043F43F43A0F84030002077
:102DAC007047B0F8403023F47C535B045B0CA0F804
:102DBC004030002070470020704784B010B503AC41
:102DCC0084E80E00BDE810400123A0F84030002339
:102DDC00A0F84030A0F84430A0F85030B0F84020B3
:102DEC0004B042F43F42A0F840201846704700005F
:102DFC00F0B50C78034630F82420C87822F4EC4265
:102E0C0022F07002032803D8DFE800F04249444660
:102E1C00012048F280052A4323F824200E789E4A8C
:102E2C0033F82640354314402C4323F826400D7BC1
:102E3C000C78002D40F08280CD884E786D086D00A6
:102E4C0003EB041476B3B3F850603444A4F8005484
:102E5C000D7833F82540670608D533F82540224015
:102E6C0042F4004242F0C00223F82520CA780C78C4
:102E7C00012A33F82410894A02EA010218BF82F0B1
:102E8C00200242F4004242F0800223F82420F0BDDC
:102E9C0042F400720020BCE742F4C062FAE742F44C
:102EAC008062F7E7B3F850200E691444A4F8085474
:102EBC000A78B3F8504003EB0212A4B202F20C42AF
:102ECC0056BB155B25F4F8452D042D0C1553155BDD
:102EDC0045F4004515530C7833F8242057040BD5D2
:102EEC0033F8242022F0F0021205120D42F4404275
:102EFC0042F0800223F82420097833F8212022F4B0
:102F0C00804222F0700282F4405242F4004242F0BD
:102F1C00800223F82120BAE73E2E06D87508F60762
:102F2C0048BF0135AD02ADB2D4E77709F5065C4D6B
:102F3C0008BF07F1FF3745EA8725F4E733F824503B
:102F4C00154045F4014545F0800523F824500C78D4
:102F5C000D89B3F8506003EB04146D08B6B204F598
:102F6C0080646D00A5530C784D89B3F8506003EB69
:102F7C0004146D0804F581646D00B6B2A5534C7849
:102F8C000D78002C43D133F82540660408D533F86E
:102F9C002540224042F4404242F0800223F8252092
:102FAC000C7833F8242055060BD533F8242022F066
:102FBC00F0021205120D42F4004242F0C00223F856
:102FCC0024200C7833F8242022F0F0021205120D84
:102FDC0042F4004242F0C00223F8242048F280045C
:102FEC000D7833F8252022F4804222F0700282F40E
:102FFC004052224323F82520097833F8212022F46B
:10300C00E04222F04002144323F821403FE733F81A
:10301C002540640408D533F82540224042F4404250
:10302C0042F0800223F825200C7833F82420520635
:10303C000BD533F8242022F0F0021205120D42F4C5
:10304C00004242F0C00223F824200C7833F82420EC
:10305C0022F0F0021205120D42F4404242F08002BE
:10306C0023F82420CA780C78012A33F824500B4A10
:10307C0002EA050218BF82F0200242F4004242F03C
:10308C00800223F82420097833F8212022F0F00262
:10309C009204920C39E700BF8F8FFFFFBF8FFFFFA9
:1030AC000080FFFF10B50C7B4A780B78BCBBF2B1EB
:1030BC0030F8232052060BD530F8232022F0F002F2
:1030CC001205120D42F4004242F0C00220F82320F7
:1030DC000A7830F8223023F0C0031B051B0D43F493
:1030EC00004343F0800320F82230002010BD30F85C
:1030FC00232054040BD530F8232022F0F0021205C3
:10310C00120D42F4404242F0800220F823200A784B
:10311C0030F8223023F0F0039B049B0CDFE7002AED
:10312C0044D130F8232052040BD530F8232022F060
:10313C00F0021205120D42F4404242F0800220F8D7
:10314C0023200A7830F822305C060BD530F8223078
:10315C0023F0F0031B051B0D43F4004343F0C003A5
:10316C0020F822300A7830F8223023F0F0031B05C7
:10317C001B0D43F4004343F0C00320F8223048F207
:10318C0080020C7830F8243023F4804323F0700351
:10319C00134320F82430097830F8213023F4E0432D
:1031AC0023F040031A4320F821209EE730F8232017
:1031BC0052040BD530F8232022F0F0021205120D28
:1031CC0042F4404242F0800220F823200A7830F882
:1031DC0022305B060BD530F8223023F0F0031B05B0
:1031EC001B0D43F4004343F0C00320F822300A784F
:1031FC0030F8223023F0F0031B051B0D43F4404341
:10320C0043F0800320F8223048F280020C7830F82A
:10321C00243023F4E04323F04003134320F82430FC
:10322C00097830F8213023F4804323F07003B9E798
:10323C004B780A787BB130F8223023F4E04323F04A
:10324C00400383F0100343F4004343F0800320F861
:10325C0022300020704730F8223023F4804323F0D2
:10326C00700383F48053EEE70B7B23BB4B780A7817
:10327C001BB330F822305B060BD530F8223023F02C
:10328C00F0031B051B0D43F4004343F0C00320F86F
:10329C002230CB78012B0ED00A7830F8223023F470
:1032AC00E04323F0400383F0200343F4004343F056
:1032BC00800320F822300020704730F822305B0465
:1032CC000BD530F8223023F0F0031B051B0D43F413
:1032DC00404343F0800320F822300A7830F8223043
:1032EC0023F4804323F0700383F44053DDE711B9DA
:1032FC008023A0F84C30002070470020704700203D
:10330C007047B0F8440070470020704700EB420251
:10331C00013302F580625B0802EB83039A4200D111
:10332C00704731F8020B22F8040BF7E770B50D4625
:10333C00497804460129AA692B69287B5DD19A42F8
:10334C009DBF0023AB611346D21A88BFAA6169697D
:10335C009EB2E8B93346EA882046FFF7D7FFB4F8A7
:10336C0050102A7804F2044312010B44D6522A78E6
:10337C0034F8223023F4E04323F0400383F030038D
:10338C0043F4004343F0800324F82230002070BD46
:10339C002B7834F82320B4F8500052064BBF04F2BB
:1033AC000C4204F20442121812184FEA03134BBFDA
:1033BC00D652D6526A892A8933462046FFF7A6FF91
:1033CC006B782A7863B934F8223023F0F0031B05AC
:1033DC001B0D43F4004343F0C00324F82230C6E72E
:1033EC00012BC4D134F8223023F0F0031B051B0D44
:1033FC0043F4404343F08003EFE79A4293BF00232A
:10340C00D21AAA61AB6198BF13462A7890B9B4F866
:10341C00501004F20C4001441201002B3BD18B5A8A
:10342C0023F4F8431B041B0C8B528B5A43F40043BC
:10343C008B5239E081B9B4F8501004F204400144C5
:10344C001201B3B9885A20F4F8400004000C8852D9
:10345C00885A40F40040885269782A780029D6D0DE
:10346C00012921D1B4F8500004F20C41014412019D
:10347C002CE03E2B06D85808DE0748BF01308002EE
:10348C0080B2E8E75E09D806114808BF06F1FF369E
:10349C0040EA8620F4E73E2B10D85808DE0748BFD8
:1034AC000130800280B288522A7834F8223023F41A
:1034BC00804323F0700383F4405361E75809DB0623
:1034CC00034B08BF00F1FF3043EA80239BB2AFE708
:1034DC000080FFFF00EB4202F0B502F580625D0850
:1034EC00084617462E46023036B9DB0744BF32F881
:1034FC00253001F81530F0BD37F8044B013EA4B26D
:10350C0000F8024C240A00F8014CECE7D0F8BC326D
:10351C0010B56BB1D0F8B84294F80002FF2807D070
:10352C009B6894F8012221469847FF2384F80032C7
:10353C00002010BD4323038000487047400000204A
:10354C0043230380004870478400002043230380FA
:10355C0000487047D40000200A23038000487047BD
:10356C00C800002038B50546D0F8B84203F028F959
:10357C00D5F8B832C4F80C024BB1D5F8BC3204F50E
:10358C000371DB68D4F804029847002038BD022090
:10359C00FCE7F8B5D0F8B862CEB1142303FB0103F5
:1035AC00DA6982B1D0F8C04204EB4114A56BB2FBCE
:1035BC00F5F405FB142434B9DC612246234603F0F0
:1035CC00E3F82046F8BD0020C6F81402FAE7022002
:1035DC00F8E72DE9F7434FF000080A78054612F09A
:1035EC0060040E46D0F8B8728DF80580ADF80680F0
:1035FC0028D0202C45D1CC884B78E4B1120611D5BB
:10360C00D0F8BC223946D2F8089018462246C84752
:10361C00F2883946284600F046FC4446204603B062
:10362C00BDE8F08387F8003287F80142224639461C
:10363C0000F04EFCF1E7D0F8BC2218469568224603
:10364C00A847EBE74F780A2F0DD00B2F15D0C7B931
:10365C0090F89C32032B14D102220DF1060100F0DC
:10366C0022FC3C46DAE790F89C32032B09D101226C
:10367C000DF1050100F017FCD0E790F89C32032BFC
:10368C00CCD03146284600F0E7FB0224C6E738B51B
:10369C0004460025812103F02FF80121E562204624
:1036AC0003F02AF8C4F86C518221204603F024F868
:1036BC00D4F8B83225644BB1D4F8BC325B68984767
:1036CC00D4F8B80203F084F8C4F8B852002038BD1E
:1036DC00037C2DE9F0410446CBBB4FF4007302226E
:1036EC008121012502F0F8FF4FF40073E5622946B1
:1036FC000222204602F0F0FFC4F86C510125082389
:10370C0003228221204602F0E7FF25644FF4077064
:10371C0003F05AF80646C4F8B80250B30027D4F8A0
:10372C00BC321B68984794F81080C6F81472C6F81F
:10373C001872B8F1000F13D14FF40073D6F80422AD
:10374C002946204603F02EF84046BDE8F0810125BD
:10375C0040230222812102F0BFFFE5624023C6E72D
:10376C004023D6F804222946204603F01BF838469D
:10377C00EBE72846E9E719B1C0F8BC120020704706
:10378C0002207047D0F8B8320020C3F80812C3F8F2
:10379C0010227047D0F8B8320020C3F804127047DA
:1037AC00D0F8B82210B582B1D2F81442012374B902
:1037BC00C2F81432D2F8103281210363D2F80822F5
:1037CC009BB202F0E1FF204610BD0220FCE7184638
:1037DC00FAE7D0F8B82210B562B1047CD2F8042212
:1037EC0034B94FF40073012102F0DCFF002010BD4E
:1037FC004023F8E70220FAE708B580B1D0F8B432DC
:10380C0013B10023C0F8B43209B1C0F8B0120123CF
:10381C00027080F89C3202F00FFF002008BD0220DD
:10382C00FCE719B1C0F8B4120020704702207047B1
:10383C0008B502F043FF002008BD08B5D0F8B4323B
:10384C000BB9022008BD1B6898470028FAD0F8E78E
:10385C0008B5D0F8B4325B689847002008BD38B57D
:10386C0000F52A750446284600F0E2FA012394F884
:10387C00A812C4F89432B4F8AE32C4F8983201F0FD
:10388C001F03012B0ED007D3022B10D001F08001A7
:10389C00204602F03FFF03E02946204600F0F6F8F0
:1038AC00002038BD2946204600F014FAF8E72946D6
:1038BC00204600F034FAF3E770B50546164649BBCE
:1038CC00D0F89432032B1ED1D0F86031D0F864219B
:1038DC0093420BD99B1A9A42C0F860318CBF9AB2B2
:1038EC0092B2314600F003FB002070BDD0F8B43228
:1038FC001B6923B190F89C22032A00D198472846D3
:10390C0000F0FDFAF0E7052BEED1C5F8941202F0A9
:10391C0001FFE9E7D0F8B4329B692BB190F89C22F7
:10392C00032A01D19847DFE70220DEE770B5134682
:10393C0004460E46002947D1D0F89422022A3CD1E5
:10394C00D0E90852954213D9AA1A0262194692B2CA
:10395C0000F0B6FA33461A461946204602F022FF0A
:10396C0094F8A0320020012B01D184F8A00270BD84
:10397C00C369B3FBF2F502FB153565B99A420AD857
:10398C00D0F89822934206D22A4600F099FAC4F84D
:10399C0098522B46DFE7D4F8B432DB682BB194F89D
:1039AC009C22032A01D1204698478021204602F010
:1039BC00B1FE204600F0AEFAD2E732F00403CFD1CC
:1039CC00802102F0A7FECBE7D0F8B4325B6933B1AB
:1039DC0090F89C22032A02D198470020C7E70220C6
:1039EC00C5E7002270B50446012540261146402348
:1039FC0002F072FE33468021C4F85851C4F8646159
:103A0C000022204602F068FE0021D4F8B832A561ED
:103A1C00666284F89C52C4F894126160C4F8A412D3
:103A2C0023B1D4F8B43220465B689847002070BDAF
:103A3C0001740020704790F89C3280F89D3204236A
:103A4C0080F89C320020704790F89C32042B04BF05
:103A5C0090F89D3280F89C320020704708B590F8A1
:103A6C009C22032A04D1D0F8B432DB6903B1984705
:103A7C00002008BD10B50446802102F04BFE204604
:103A8C00BDE81040002102F045BE000037B50B78B0
:103A9C00044603F06003202B0D4612D0402B10D0AF
:103AAC00002B5BD14B78092B58D8DFE813F0E900D9
:103ABC0005015700FE005700840013005700D20088
:103ACC00A000D4F8B43229469B68204698470020C1
:103ADC0003B030BD0023ADF806304B881A0A013A0A
:103AEC00062A3BD8DFE802F004202D3A3A525C005B
:103AFC00D0F8B0321B680DF10601207C9847BDF858
:103B0C00062052B1EB8843B19A4228BF1A460146AF
:103B1C002046ADF8062000F0C6F9EB88002BD6D174
:103B2C00204600F0ECF9D2E7027CD0F8B43232B97E
:103B3C009B6A0DF10600984702234370DFE7DB6AAE
:103B4C00F7E7DBB2052B09D8DFE803F0030C101400
:103B5C00181CD0F8B0325B68002BCCD12046FFF794
:103B6C0089FFB4E7D0F8B0329B68F5E7D0F8B032F3
:103B7C00DB68F1E7D0F8B0321B69EDE7D0F8B03272
:103B8C005B69E9E7D0F8B0329B69E5E7037C002B71
:103B9C00E4D1D0F8B4320DF106005B6B9847AEE778
:103BAC00037C002BDAD1D0F8B4320DF106001B6B7C
:103BBC0098470723C1E78B88002BCFD1CB88002BEC
:103BCC00CCD14D887F2DC9D890F89C32032BC5D011
:103BDC00E9B280F89E1202F0C9FD204600F08FF980
:103BEC001DB1022384F89C3271E70123FAE789782E
:103BFC00374D01292970B1D890F89C32022B08D08E
:103C0C00032B14D0FFF736FF29782046FFF720FE50
:103C1C005DE7002984D001210323416080F89C32A8
:103C2C002046FFF70AFE02287FF47AAF96E731B9F7
:103C3C000223416080F89C32FFF70AFE70E741686E
:103C4C0001293FF46DAFC9B2FFF702FE297861601C
:103C5C00E6E7CA88012A81D190F89C32002B3FF408
:103C6C007DAF022B04D9032B7FF478AF011D03E049
:103C7C000146002341F8083F204600F014F926E7DE
:103C8C0090F89C32013B022B3FF668AFCB88022B9D
:103C9C007FF464AF0123C360D0F8A4320BB10323CB
:103CAC00C360022204F10C01E6E74B88012B7FF480
:103CBC000EAFC4F8A43233E790F89C32013B022BD0
:103CCC003FF64CAF4B88012B7FF401AF0023F0E79C
:103CDC00F403002038B50B78044603F06003202B66
:103CEC000D4602D0402B00D0ABB994F89C32013B6E
:103CFC00022B10D82B79012B0DD8D4F8B4322946CD
:103D0C009B6820469847EB881BB910B9204600F0F9
:103D1C00F6F8002038BD2046FFF7ACFEF9E738B5C1
:103D2C000A78044602F06002202A0B4614D0402A7E
:103D3C0012D06AB95A788D88012AE9B220D036D3CC
:103D4C00032A05D190F89C22022A27D0032A0BD0F3
:103D5C002046FFF78FFE05E0D4F8B422194692688E
:103D6C0020469047002038BD5A882AB94A0603D00D
:103D7C00DB880BB902F0CEFC204600F0C0F8F1E76E
:103D8C0090F89C22022A09D0032AE1D15B88002BEF
:103D9C00E8D14D06F0D002F0CBFCEDE74B06D7D0C6
:103DAC0002F0B8FC8021204602F0B4FCDAE790F86F
:103DBC009C32022B18D0032BCAD1142301F00F0212
:103DCC0015F0800F03FB02021FD09269002ABFD0AE
:103DDC0001F07F0505FB0335054411F07F031FD16E
:103DEC002B60022229460CE04A06B1D12B064FF07B
:103DFC0000034FF002024CBF00F1140100F5AA7150
:103E0C000B60204600F04FF8ACE7D2F85821002A9E
:103E1C009ED001F07F0503FB050505F5AA75DCE7CF
:103E2C00204602F093FC08B10123D9E72860D8E7BB
:103E3C000B7803704B784370CA788B7803EB0223B2
:103E4C0043804A790B7903EB02238380CA798B79FF
:103E5C0003EB0223C380704710B50446802102F0A7
:103E6C0059FC2046BDE81040002102F053BC30B58F
:103E7C0088B105462B1A15F8014BDBB2002CF9D191
:103E8C0001335B0013800B7003234B70022301384A
:103E9C0010F8015F05B930BD5A1CCD54D2B20233B3
:103EAC00DBB28C54F4E71346022210B5C0F894220E
:103EBC00C0E907330A46002102F066FC002010BD61
:103ECC0008B513460A46002102F05EFC002008BD2E
:103EDC001346032210B5C0F89422C0F85C310A4690
:103EEC00C0F86031002102F05DFC002010BD08B567
:103EFC0013460A46002102F055FC002008BD08B507
:103F0C000423C0F8943200231A46194602F03CFCF4
:103F1C00002008BD08B50523C0F8943200231A46CA
:103F2C00194602F03FFC002008BD0000014B186848
:103F3C00704700BFF8030020014B1878704700BF92
:103F4C00F5030020014B1868704700BF00040020E7
:103F5C0010B5064C206808B103F0CEF8044B0121D3
:103F6C00186803F08FF8206010BD00BFFC03002020
:103F7C000004002010F0010F18BF0122064B19603D
:103F8C00064B18BF1A701B78012B14BF0B221A2278
:103F9C00034B1A60FFF7DCBFF8030020F503002089
:103FAC0000040020044B1B6823B1044A12688242AF
:103FBC0088BF1954704700BFFC0300200004002088
:103FCC00054B1B682BB1054A1268824201D9185C5B
:103FDC0070470020704700BFFC0300200004002045
:103FEC00044B1B68834286BF034B53F82000002010
:103FFC00704700BF0004002018010020094B82B05C
:10400C001B681A68920709D5002201921A6801925E
:10401C0001225B680193019B034B1A70014802B0AB
:10402C00FEF7F0BD380C0020100400200148FEF70C
:10403C00E9BD00BF540B00200368374A73B59342A7
:10404C0056D1364B364D1B78364C8DF807302B78C5
:10405C006BB3354A13780133DBB2137013782C2B06
:10406C000DD100231370314A4FF4005113783048AE
:10407C00B3FA83F35B0913701278FDF737F9002359
:10408C002C490B7023802B709DF8072002F0FF0346
:10409C005AB1172B4FF0010227D00A701F4926483E
:1040AC0002B0BDE87040FEF748BD244A1370234BA4
:1040BC001B78A3B9224D23882A689A420FD82688E8
:1040CC00FFF740FF2B68B6B21844864207D220880F
:1040DC002B689DF80710C01A0138FFF763FF23887F
:1040EC00012201339BB22380D8E7144B1A70DEE710
:1040FC00144A93420DD1144B01221B78134933B14E
:10410C00134800F0EFFF012210491248C8E712488B
:10411C00F7E702B070BD00BF003801400404002076
:10412C0010040020060400200904002008040020CC
:10413C000010014080010020380C00200A040020EF
:10414C000C0400200048004020040020050400203E
:10415C0080090020540B00209809002008B5054860
:10416C0000228021FDF7C2F8BDE808400248FEF7A6
:10417C00F1BD00BF000C0140380C002008B5FFF762
:10418C00D5FE054B1860FFF7E9FFBDE8084001229A
:10419C0002490348FEF7D1BC0C04002004040020A3
:1041AC00380C002008B5FFF7E9FFBDE808400122F4
:1041BC0001490248FEF7C1BC05040020540B002045
:1041CC0030B50446A40287B044F000640D46FCF7F9
:1041DC00A1FE01230494002401A902A805950393D0
:1041EC000294FCF751FF38B9FCF7A6FE0198431C6A
:1041FC005842584107B030BDFCF79EFE2046F9E707
:10420C0001217F20FFF7DCBF0144B1F5807F0BDD7E
:10421C0000207047830003F1006303F5FE331B6835
:10422C00013042F8043B80B28142F3DC012070473C
:10423C000144B1F5807FF8B5164602DD0024204616
:10424C00F8BDFFF7DDFF04460028F7D0FCF762FE4F
:10425C00094D0A4F043E56F8042F0023294602202C
:10426C00FCF79EFE10B1FCF767FEE7E70435BD4294
:10427C00F1D1FCF761FEE2E700FC01080000020846
:10428C000023044A044942F823100133402BFAD18D
:10429C00704700BFB00900205C7D000810B50E4AC5
:1042AC00C1B9012352F82310DCB2096941B10133C1
:1042BC00402BF7D1094801F0A3FA0024204610BD89
:1042CC003F2CF7D042F824002146C21C044801F0D0
:1042DC0097FAF3E70C46F5E7B0090020707D00086B
:1042EC007E7D000808B5002002F0ECFB002002F0F7
:1042FC00EFFB002002F07AFB002002F07DFB002097
:10430C0002F0F8FCBDE80840002002F059BCFFF7B1
:10431C00E9BF00002DE9F0411D4D044655F8203051
:10432C001C4E1B6903B978BB1B4F3B78032B11D078
:10433C00337855F823100B691BB10022C968022091
:10434C0098473178154855F82120033201F058FA76
:10435C0003233B704FF00008114B3278C3F80080F8
:10436C00104B34701A7084B155F824304146D3E99F
:10437C0003244046A04731780B4855F8212087F894
:10438C000080033201F03CFA34782046BDE8F0811D
:10439C00B009002011040020120400208C7D0008BC
:1043AC001404002018040020A87D000870B5104DDE
:1043BC00104C2B78002254F823300220D9681E6947
:1043CC00B04729780C4854F82120033201F018FA30
:1043DC0003220A4B1A702B7854F82330987818B1B2
:1043EC00BDE87040FFF796BF054B1878F8E700BFA3
:1043FC0011040020B00900208C7D0008120400205C
:10440C0018040020F8B5174E337853B3164F174CD9
:10441C0057F8233021685878DA68012805D1914281
:10442C000FD1BDE8F840FFF7C1BF022809D1914276
:10443C0007D100251B6925602A46284698470C4B56
:10444C001D703378216857F823300120D3E90325F8
:10445C00A8470128E5D00122054B1A7023681344A4
:10446C002360F8BD11040020B009002014040020C2
:10447C001204002010B54FF480410848FCF730FFBF
:10448C00B0FA80F44FF4004104486409FCF728FFAB
:10449C0008B944F00204204610BD00BF00100140D2
:1044AC0010B54FF400411F48FCF71AFFB0FA80F426
:1044BC0008211D486409FCF713FF08B944F00204F5
:1044CC0010211948FCF70CFF08B944F004044FF410
:1044DC0080711548FCF704FF08B944F008044FF448
:1044EC0000711148FCF7FCFE08B944F010044FF4BD
:1044FC0080510D48FCF7F4FE08B944F020044FF449
:10450C0000510948FCF7ECFE08B944F040044FF4A4
:10451C0080410548FCF7E4FE08B944F080042046CD
:10452C0010BD00BF00080140000C014008B520215F
:10453C000348FCF7D5FEB0FA80F0400908BD00BF77
:10454C000008014070B540F23444FF236043B0FBD7
:10455C00F3F316460E4A10885843B0FBF4F0401A99
:10456C00FBF7B0FE05463046FBF7ACFE014628468D
:10457C00FBF7FCFE0749FBF7ADFFFCF747F800B271
:10458C00A042A8BF204620EAE07080B270BD00BFF8
:10459C001A0400200000C84270B5A24C05462368DE
:1045AC0000201E78FFF70CFD864200D185B100205B
:1045BC00FFF706FD40F234435843FF23B0FBF3F002
:1045CC00994B256818800020FFF7FAFC287001250C
:1045DC00236801205E78FFF7F3FC864200D1ADB171
:1045EC000120FFF7EDFC9149B1F93E30B1F93C20C7
:1045FC00B1F93A10FFF7A6FF00210246084600F079
:10460C0009FD01202668FFF7DBFC7070236802208F
:10461C009E78FFF7D5FC864200D1ADB10220FFF7A2
:10462C00CFFC8249B1F94430B1F94220B1F94010C4
:10463C00FFF788FF01210246002000F0EBFC02206E
:10464C002668FFF7BDFCB07023680320DE78FFF707
:10465C00B7FC864200D1ADB10320FFF7B1FC734922
:10466C00B1F94A30B1F94820B1F94610FFF76AFFA9
:10467C0002210246002000F0CDFC03202668FFF743
:10468C009FFCF070236804201E79FFF799FC86428A
:10469C0000D1ADB10420FFF793FC6449B1F93E3071
:1046AC00B1F93C20B1F93A10FFF74CFF002102465A
:1046BC00012000F0AFFC04202668FFF781FC30716C
:1046CC00236805205E79FFF77BFC864200D1ADB1F3
:1046DC000520FFF775FC5549B1F94430B1F942207A
:1046EC00B1F94010FFF72EFF01210246084600F0F9
:1046FC0091FC05202668FFF763FC70712368062087
:10470C009E79FFF75DFC864200D1ADB10620FFF724
:10471C0057FC4649B1F94A30B1F94820B1F9461075
:10472C00FFF710FF02210246012000F073FC062067
:10473C002668FFF745FCB07123680720DE79FFF788
:10474C003FFC864200D1ADB10720FFF739FC374959
:10475C00B1F93E30B1F93C20B1F93A10FFF7F2FE55
:10476C0000210246022000F055FC07202668FFF7C6
:10477C0027FCF071236808201E7AFFF721FC864283
:10478C0000D1ADB10820FFF71BFC2849B1F944302A
:10479C00B1F94220B1F94010FFF7D4FE01210246D5
:1047AC00022000F037FC08202668FFF709FC307265
:1047BC00236809205E7AFFF703FC864200D1ADB175
:1047CC000920FFF7FDFB1949B1F94A30B1F948202E
:1047DC00B1F94610FFF7B6FE02210246084600F07A
:1047EC0019FC09202668FFF7EBFB707223680A207E
:1047FC009E7AFFF7E5FB864200D18DB10A20FFF7C8
:10480C00DFFBDC2364220021FFF79CFE0321024620
:10481C00022000F0FFFB0A202468FFF7D1FBA072F6
:10482C0070BD00BF1C0400201A040020B00A002038
:10483C0010B5094C206808B102F05EFCFFF782FB52
:10484C000121084402F01EFCFF23037020600120AC
:10485C00BDE81040FFF7A0BE1C04002038B5FFF7E0
:10486C006BFB012816D10B20FFF7AAFB0A4B0B4D53
:10487C0093F82530B0FBF3F02B68C0B2DB7A83429F
:10488C0008D0FFF747FD044601460B20FFF78AFBD3
:10489C002B68DC7238BD00BFB00A00201C0400205D
:1048AC0030B5102495B0224600210CA802F037FC3C
:1048BC00142200210DEB020002F031FC22460021F3
:1048CC0001A802F02CFC02254FF480330922CDE91B
:1048DC001153CDE90A2301224FF4E0130AA80E92DA
:1048EC0010921393FDF7CEF80F230024CDE9053574
:1048FC004FF48063294605A8CDE907430994FDF7D9
:10490C0099FA122301934FF4004301A8CDE9033423
:10491C00FDF74CFB15B030BD00242DE98048C24D8D
:10492C008BB0FBF7BDFEFFF7BBFF0894AB6901260C
:10493C0002274FF0800843F01003AB61AB6906A966
:10494C0003F010030293029BAB69B84843F02003B9
:10495C00AB61AB694FF4005903F020030393039B45
:10496C00AB694FF0030A43F00403AB61AB6948F247
:10497C00200B03F004030493049BAB6943F008037E
:10498C00AB61AB69CDE9068603F008030593059B83
:10499C000997FCF7C5FB22464146A448FCF7A6FC48
:1049AC004FF4404306A9A248CDE906340894FCF71D
:1049BC00B7FB06A99E48CDE906960997FCF7B0FB14
:1049CC0040F2CE7306A99B48CDE90637CDF824A05A
:1049DC00FCF7A6FB06A99548CDE906A7CDF824A0BF
:1049EC00FCF79EFB06A99348CDE906B40896FCF7A4
:1049FC0097FB47F2183306A98C48CDE90634089684
:104A0C00FCF78EFB06A98948CDE906B7CDF824A0A2
:104A1C00FCF786FB4FF480634FF4602A06A98348A9
:104A2C00CDE90847CDE90636FCF77AFB824A834F7D
:104A3C005368494643F0E063334353607C48224655
:104A4C00FCF754FC7E4B38463B60BC603C733C75B9
:104A5C00C7F81CA07C60CDE9064408943E61FBF7C6
:104A6C00FBFF06A93846774FCDE906460894FBF7BD
:104A7C00B5FE754B38463B60BC603C733C75C7F863
:104A8C001CA07C60CDE9064408943E61FBF7E4FF72
:104A9C00042338460C2706A9CDE906360894FBF703
:104AAC009DFE6A486A4B6B4AC0E90249C0E9002383
:104ABC00C0E905740461C461FDF7B4FF22462146C8
:104ACC002520FCF75DF82520FCF78EF84FF4E13338
:104ADC0061486249C0E90447C0E90013C0E90244D7
:104AEC00C0E90644FDF770FF5D4B4FF4827AC3F8C2
:104AFC0004804FF400794FF020080A27AB6959481D
:104B0C0043F48053AB61AB69C0E9024403F48053B6
:104B1C000693069B544BC0E90444C0E9003AC0E933
:104B2C0008448462C0E90698C762FDF701FBEB6993
:104B3C004E4843F48043EB61EB69C0E9024403F453
:104B4C0080430193019B4A4BC0E90444C0E9003AFD
:104B5C00C0E90844C0E90A47C0E90698FDF7E8FA3D
:104B6C006B69224633436B616B692146334000937A
:104B7C000D20009BFCF704F80D20FCF735F82246BD
:104B8C0021460E20FBF7FCFF0E20FCF72DF83948D0
:104B9C0000F036FE384800F033FE384800F030FEA6
:104BAC00354800F02DFE334800F02AFE6B6AFFF703
:104BBC0061FC0446FFF774FC00FA06F12046FFF78F
:104BCC00D9F92F4800F01CFEFFF754FC800740F188
:104BDC00EE802C4B1E7001F05BFC2B4800F010FE9D
:104BEC0080212A4800F032FA002800F0E2802848A0
:104BFC0000F006FE8021274800F028FA002800F07B
:104C0C00DA80254800F0FCFD00F0D8F9234800F0CC
:104C1C00F7FD00F051FB224800F0F2FD214800F0B6
:104C2C00EFFDFFF783FC3FE000100240000C014059
:104C3C00001001400008014000000140080C002059
:104C4C0000240140940B002000280140380C002067
:104C5C0090D0030000380140540B00200048004065
:104C6C0000E100E0780C002000300140FC0A00203C
:104C7C000038004074840008B6840008C27D000827
:104C8C00D07D000822040020E77D00089809002050
:104C9C00027E000880090020407E0008887E000803
:104CAC009C7E0008B87E0008002840F0868000F04A
:104CBC00A7FB5E4B5E4A93F82A105E48117093F87E
:104CCC002B205D4B1A7000F09BFD00F021FB5B4824
:104CDC0000F096FDFFF766FA594800F091FDFFF7DA
:104CEC002BF9012875D15748504C00F089FDFFF77E
:104CFC00C7FAFFF70CFB544800F082FDE18C002052
:104D0C0002F0C6F800285CD0504800F079FD002075
:104D1C0002F0A2F8002002F017F8E18C012002F05A
:104D2C00B7F8002851D04A4800F06AFD012002F083
:104D3C0093F8012002F008F8464800F061FDFFF7F7
:104D4C0077FD454800F05CFD01F0F4FA434800F0B3
:104D5C0057FD434800F054FD424800F071FD01221C
:104D6C004FF400514048FCF7C1FA404D00F082FD71
:104D7C0000F0F0F92B78002B3DD001F041FA0446FD
:104D8C00287040BB0120FFF707FCFFF7D5F801287E
:104D9C000646EBD1204602F05FF8204601F0D4FF26
:104DAC00304602F059F8304601F0CEFFDEE73048CD
:104DBC0014E730481CE7304824E700F029FB2F4863
:104DCC0081E72F4800F01CFDA7E72E4800F018FDE6
:104DDC00B2E72D48B1E7FFF7AFF801280446C5D17B
:104DEC00002002F009F9002001F0AEFF204602F08D
:104DFC0003F92046D8E7FFF799FB012808BF287074
:104E0C0001F0B8FAFFF798F80128044607D1FFF72C
:104E1C00F9FA002001F098FF204601F095FF0020E0
:104E2C00FFF7BAFBFFF71AFDA0E700BFB00A00209E
:104E3C0020040020CC7E000821040020ED7E000818
:104E4C00FF7E0008147F00082A7F0008437F0008BB
:104E5C00757F0008A77F0008CB7F0008E47F00085F
:104E6C00FA7F00080780000800100140230400208E
:104E7C00F37D0008207E0008637E0008DB7E0008BE
:104E8C005D7F00088F7F0008B97F00087047000025
:104E9C001C222DE9F0418EB0064600210DEB0200DC
:104EAC0002F03DF90021102203A8CDE9011102F016
:104EBC0036F9012E384C67D062D3022E67D000230E
:104ECC0040F22A4204EB8614C4E90133C4E90323FB
:104EDC0063612046FDF77CFB10B1304800F090FC7C
:104EEC004FF4805303A920460393FDF73DFC10B10A
:104EFC002B4800F085FC2046FDF784FB10B12948B7
:104F0C0000F07EFC40F21A2360220025CDE9072335
:104F1C000423CDE90B35244BCDE9095503EB0617DA
:104F2C00DFF8908076B20D9503EB061657F8253016
:104F3C00FF2B09D056F8252007A92046FDF7A8FB22
:104F4C0010B1404600F05CFC0135042DEED120463A
:104F5C00FDF7F3FA0025DFF8608057F82530FF2BBA
:104F6C0008D056F825102046FDF7BCFC10B1404681
:104F7C0000F046FC0135042DEFD10EB0BDE8F081F8
:104F8C004FF0804323609AE7084B236497E7084B64
:104F9C00C4F8803093E700BF580D00200C80000847
:104FAC001F800008328000086C800008000400405C
:104FBC00002C014045800008588000081FB5144B98
:104FCC0000209A6942F400629A619A6902F40062C4
:104FDC000192019ADA6942F00102DA61DA6902F0AF
:104FEC0001020292029ADA6942F00202DA61DB698A
:104FFC0003F002030393039BFFF74AFF0120FFF723
:10500C0047FF022005B05DF804EBFFF741BF00BF7E
:10501C00001002400B4B01EB800153F82110FF29CB
:10502C000ED0094B80011B5809B95A6370470429EB
:10503C0001D19A637047082901D1DA6370471A6469
:10504C00704700BF6C800008580D002038B50D4625
:10505C00012104460175284602F014F820602368EB
:10506C002BB100236560A360E36023612375207D71
:10507C0038BDF8B50B461546044650B30269954247
:10508C0029D8C1684268914224BF0022C260466898
:10509C00C2680068B61AB542E16811D301443246C1
:1050AC00184602F031F8AF1B21683A46304402F042
:1050BC002BF8E760002023695D1B25612075F8BD86
:1050CC0001442A46184602F01FF8E3682B44E360BB
:1050DC00F0E70120F2E70520F0E710B14368006922
:1050EC00181A70472DE9F0410F461546044660B377
:1050FC00FFF7F3FF90422AD3A26863689A4224BF59
:10510C000023A3606668A3682068F61AB542A368FA
:10511C0013D932461844A5EB060801F0F5FF2068B8
:10512C004246B91901F0F0FFC4F808800020236949
:10513C001D4425612075BDE8F08118442A4601F014
:10514C00E3FFA3682B44A360F0E70120F2E70420FF
:10515C00F0E700002DE9F347FEF7F4FE374D064665
:10516C002B681BB9364B1B68002B45D0DFF8E08051
:10517C00344F01220DF107014046FFF77AFF324C04
:10518C0090B92088B0420FD2DFF8C09099F8003067
:10519C00012B09D19DF8071097F800A05C291BD1B1
:1051AC00BAF1000F2BD13B702388B34202D2274BAC
:1051BC001B780BBB01220DF107012548FFF759FFA6
:1051CC00D0B99DF807301F4A5C2B1178104627D1B7
:1051DC0059BB012313700FE0BAF1000F15D06D29E4
:1051EC0005D011B9218089F800300023DBE70023BA
:1051FC00164A2B601370238002B0BDE8F087FEF7CF
:10520C00D1FE238801332380EFE7FEF7CBFE238802
:10521C0001339BB2B3422380ABD389F800A0EBE7F8
:10522C000029E9D023B16D2BE1D000230370E3E713
:10523C0001222380054B1A70F7E700BF20040020E1
:10524C00210400202404002026040020280400202F
:10525C008009002070B50B4B04461B780D4623B11A
:10526C00094B1B780BB901F071F9084B1B7843B94A
:10527C002A462146BDE8704041F288330448FDF7C8
:10528C0003BC70BD22040020210400202004002057
:10529C00540B002007B501220DF107010548FFF75B
:1052AC00E8FE20B99DF8070003B05DF804FB002070
:1052BC00FAE700BF9809002010B5144C38220021E1
:1052CC00204601F02CFFFF2224F8022C40F205525C
:1052DC00E28205224FF69C716277A27764224FF628
:1052EC00B070A284E28421876287DC21A4F840207C
:1052FC00A4F846200122A187E087A4F84210A4F864
:10530C004400A4F8481084F8232010BDB20A0020F1
:10531C0010B53A4C00202178FEF744FEA17801200C
:10532C00FEF740FE21790220FEF73CFEA179032016
:10533C00FEF738FE217A0420FEF734FEA17A052010
:10534C00FEF730FE217B0620FEF72CFEA17B07200A
:10535C00FEF728FE217C0820FEF724FEA17C092004
:10536C00FEF720FE217D0A20FEF71CFEFEF7E4FD71
:10537C00012842D1A17D0B20FEF714FEE17D0C200B
:10538C00FEF710FE217E0D20FEF70CFE617E0E2036
:10539C00FEF708FEA17E0F20FEF704FEE17E102032
:1053AC00FEF700FE217F1120FEF7FCFD617F12202D
:1053BC00FEF7F8FDA17F1320FEF7F4FDE17F14202A
:1053CC00FEF7F0FD94F820101520FEF7EBFD94F895
:1053DC0021101620FEF7E6FD94F822101720FEF798
:1053EC00E1FD94F823101820FEF7DCFD94F824104E
:1053FC001920BDE81040FEF7D5BD10BDB00A002045
:10540C00024A4C210020FEF7FFBE00BFB00A00206C
:10541C00024A4FF480710020FEF70ABFB00A002048
:10542C0038B5894D894C8A4800F0EAF9284600F0D5
:10543C00E7F92188874800F0E3F96188864800F095
:10544C00DFF9A188854800F0DBF9E188844800F099
:10545C00D7F92189834800F0D3F96189824800F09B
:10546C00CFF9A189814800F0CBF9E189804800F09F
:10547C00C7F9218A7F4800F0C3F9618A7E4800F0A1
:10548C00BFF9A18A7D4800F0BBF9A17D7C4800F0F2
:10549C00B7F9E17D7B4800F0B3F9217E7A4800F042
:1054AC00AFF9617E794800F0ABF9A17E784800F045
:1054BC00A7F9E17E774800F0A3F9217F764800F048
:1054CC009FF9617F754800F09BF9A17F744800F04B
:1054DC0097F9E17F734800F093F994F82010724823
:1054EC0000F08EF994F82110704800F089F994F8C6
:1054FC0022106F4800F084F994F823106D4800F0E6
:10550C007FF994F824106C4800F07AF96B4800F09D
:10551C0077F9284600F074F994F82510684800F0E3
:10552C006FF9E18C674800F06BF9218D664800F04B
:10553C0067F994F82A10654800F062F994F82B107A
:10554C00634800F05DF9634800F05AF9624800F0D6
:10555C0057F994F82C10614800F052F994F82D107A
:10556C005F4800F04DF994F82E105E4800F048F9B1
:10557C0094F82F105C4800F043F994F830105B4815
:10558C0000F03EF994F83110594800F039F994F8CC
:10559C003210584800F034F994F83310564800F0A3
:1055AC002FF994F83410554800F02AF994F8351076
:1055BC00534800F025F994F83610524800F020F9C1
:1055CC0094F83710504800F01BF994F838104F48F5
:1055DC0000F016F994F839104D4800F011F94D48C7
:1055EC0000F00EF94C4800F00BF9B4F93A104B48A6
:1055FC0000F006F9B4F93C10494800F001F9B4F98F
:10560C003E10484800F0FCF8B4F94010464800F051
:10561C00F7F8B4F94210454800F0F2F8B4F9441028
:10562C00434800F0EDF8B4F94610424800F0E8F8B1
:10563C00B4F94810404800F0E3F8B4F94A103F4878
:10564C00BDE8384000F0DCB8BC840008B00A00208B
:10565C009C800008A5800008B5800008C180000867
:10566C00CF800008DC800008E8800008F680000885
:10567C00038100080F8100081D8100082A810008A1
:10568C003881000846810008598100086A810008A9
:10569C007A8100088D8100089B810008A98100088F
:1056AC00B7810008CA810008DB810008EB81000883
:1056BC00FE8100080C8200081A820008288200086B
:1056CC003182000843820008568200086982000873
:1056DC007E82000890820008BB8400089982000832
:1056EC00A9820008BC820008D7820008F282000858
:1056FC000D830008278300083C8300084C830008B6
:10570C005F8300087A83000895830008B083000843
:10571C00CA830008DF830008B8840008EB83000804
:10572C00FA83000807840008158400082684000802
:10573C0035840008458400085584000863840008FB
:10574C000021034B40220348196001F0E8BC00BF64
:10575C006C0400202904002008B501F0F7F828B1EA
:10576C00BDE80840017A4068FFF774BD08BD000031
:10577C0019491A4A10B50B6812680C46C0B99BB986
:10578C00072A14D007232360FFF7DAFF144B216894
:10579C00402203EB8111134801F0AFFD1148FAF7D9
:1057AC00CFFC114B186002E0013B9342EBD110BDD2
:1057BC009342FCD0072B05D14AB90A60BDE81040D2
:1057CC00FFF7BEBF581C904201D10860F6E70133C9
:1057DC00082B08BF0023D6E77006002074060020B3
:1057EC0070040020290400206C04002010B504462D
:1057FC00FFF750FD207000B910BD0120FCE7000040
:10580C000FB413B50C4C04AB53F8042B7C2120467D
:10581C00019301F099FE0949204601F04DFD204607
:10582C00FAF78EFC81B22046FFF714FD02B0BDE8FA
:10583C00104004B0704700BF780600207284000846
:10584C000FB413B50A4C04AB53F8042B7C2120463F
:10585C00019301F079FE2046FAF772FC81B22046E2
:10586C00FFF7F8FC02B0BDE8104004B0704700BF71
:10587C00780600202DE9F04F754B8FB018681B7916
:10588C0003908DF81030734B1B7813B1724B1B784F
:10589C00E3B9724C724E13E09DF80B0001F014F852
:1058AC00012816D123683F2B05D85A1C9DF80B10E4
:1058BC0022606C4AD15401210DF10B00FFF7CAFC98
:1058CC000DF10B00FFF792FF0128E5D00FB0BDE8FA
:1058DC00F08F08287ED16448FFF792FF61490B785E
:1058EC0083B1624F62483D68402200EB8510013560
:1058FC0001F003FD072DCABF00233D603B603A68F1
:10590C005C4B1A605C49574801F00CFD00250DF109
:10591C003808594F48F8240D58F825300BB1072D8D
:10592C002CD140225549059801F0D5FC074668B3A7
:10593C0040225349059801F0CEFC002838D04FF096
:10594C0000094FF00C0B4F4B1F68B94536DA0BFBB7
:10595C0009F340229959059803EB060A01F0BBFCA8
:10596C0048B9DAF808304146681E984718B9DAF891
:10597C000400FFF745FF09F10109E6E7394600206D
:10598C0001F0D0FC013548F82500C5E74FF00C0AB2
:10599C003548FFF735FF3B4B1B680193019B9F423A
:1059AC00C6DA0AFB07F39859FFF72AFF0137F5E728
:1059BC000D20FFF7D1FE0E20FFF7CEFEFFF7C0FE45
:1059CC000DF10B000121FFF745FC03A92E48FFF751
:1059DC0037FF75E700283FF473AF07280ED1236813
:1059EC00002B04DD00211F4A013B2360D15407200A
:1059FC00FFF7B2FE0A20FFF7AFFE61E7022816D1CF
:105A0C000B20FFF7A9FE002523680433AB4209D80D
:105A1C0003A8FFF715FF0020FFF7AAFE1148FFF7B8
:105A2C000FFF4DE70C20FFF797FE0135ECE703283D
:105A3C007FF446AF0B20FFF78FFE00252368AB42A7
:105A4C0001DC0120E8E70C20FFF786FE0135F5E7C5
:105A5C000780000820040020210400206C04002092
:105A6C001C8500082904002074840008740600209A
:105A7C007004002070060020007E00087584000869
:105A8C007A840008848400087E84000808B500F03D
:105A9C00C9FC012008BD000010B50020FEF790FAEB
:105AAC00384C20800120FEF78BFA60800220FEF734
:105ABC0087FAA0800320FEF783FAE0800420FEF72B
:105ACC007FFA20810520FEF77BFA60810620FEF725
