:020000040800F2
:1000000000500020C98D00081578000817780008F6
:10001000197800081B7800081D780008000000000F
:100020000000000000000000000000001F78000831
:1000300021780008000000002378000825780008D7
:10004000118E0008118E0008118E0008118E000814
:10005000118E0008118E0008118E0008118E000804
:10006000118E0008118E0008118E0008118E0008F4
:10007000118E00082D7800083D780008118E0008C8
:10008000118E0008118E0008C1790008118E000839
:100090004D780008118E0008118E0008118E00089E
:1000A000118E0008118E0008118E0008118E0008B4
:1000B000118E0008118E0008118E0008118E0008A4
:1000C000118E0008118E0008118E0008118E000894
:1000D000118E0008F94E0008118E0008314F0008FB
:1000E000118E0008118E0008118E0008000000001B
:1000F0000000000000000000000000000000000000
:0C01000000000000000000005FF808F1A3
:1001100010B5054C237833B9044B13B10448AFF341
:1001200000800123237010BD780200200000000031
:1001300040B9000808B5034B1BB103490348AFF3AE
:10014000008008BD000000007C02002040B90008CB
:10015000034613F8012B002AFBD1181A0138704707
:1001600081F0004102E000BF83F0004330B54FEA68
:1001700041044FEA430594EA050F08BF90EA020FD5
:100180001FBF54EA000C55EA020C7FEA645C7FEA68
:10019000655C00F0E2804FEA5454D4EB5555B8BF8B
:1001A0006D420CDD2C4480EA020281EA030382EAFC
:1001B000000083EA010180EA020281EA0303362D8E
:1001C00088BF30BD11F0004F4FEA01314FF4801C61
:1001D0004CEA113102D0404261EB410113F0004F73
:1001E0004FEA03334CEA133302D0524263EB43032A
:1001F00094EA050F00F0A780A4F10104D5F1200EC8
:100200000DDB02FA0EFC22FA05F2801841F1000122
:1002100003FA0EF2801843FA05F359410EE0A5F1F6
:1002200020050EF1200E012A03FA0EFC28BF4CF027
:10023000020C43FA05F3C01851EBE37101F00045DD
:1002400007D54FF0000EDCF1000C7EEB00006EEBEA
:100250000101B1F5801F1BD3B1F5001F0CD3490874
:100260005FEA30004FEA3C0C04F101044FEA4452CB
:1002700012F5800F80F09A80BCF1004F08BF5FEA52
:10028000500C50F1000041EB045141EA050130BD32
:100290005FEA4C0C404141EB010111F4801FA4F1D5
:1002A0000104E9D191F0000F04BF01460020B1FA2A
:1002B00081F308BF2033A3F10B03B3F120020CDA62
:1002C0000C3208DD02F1140CC2F10C0201FA0CF040
:1002D00021FA02F10CE002F11402D8BFC2F1200CA5
:1002E00001FA02F120FA0CFCDCBF41EA0C0190405B
:1002F000E41AA2BF01EB0451294330BD6FEA0404A4
:100300001F3C1CDA0C340EDC04F11404C4F120028E
:1003100020FA04F001FA02F340EA030021FA04F3A0
:1003200045EA030130BDC4F10C04C4F1200220FAF7
:1003300002F001FA04F340EA0300294630BD21FA35
:1003400004F0294630BD94F0000F83F4801306BFFB
:1003500081F480110134013D4EE77FEA645C18BFEF
:100360007FEA655C29D094EA050F08BF90EA020F86
:1003700005D054EA000C04BF1946104630BD91EA7E
:10038000030F1EBF0021002030BD5FEA545C05D181
:100390004000494128BF41F0004130BD14F58004C0
:1003A0003CBF01F5801130BD01F0004545F0FE4134
:1003B00041F470014FF0000030BD7FEA645C1ABF69
:1003C000194610467FEA655C1CBF0B46024650EAA0
:1003D000013406BF52EA033591EA030F41F40021CC
:1003E00030BD00BF90F0000F04BF0021704730B552
:1003F0004FF4806404F132044FF000054FF0000127
:1004000050E700BF90F0000F04BF0021704730B5E7
:100410004FF4806404F1320410F0004548BF4042BC
:100420004FF000013EE700BF42004FEAE2014FEA11
:1004300031014FEA02701FBF12F07F4393F07F4FEC
:1004400081F06051704732F07F4208BF704793F0EF
:100450007F4F04BF41F40021704730B54FF4607402
:1004600001F0004521F000411CE700BF50EA010205
:1004700008BF704730B54FF000050AE050EA0102AE
:1004800008BF704730B511F0004502D5404261EB1E
:1004900041014FF4806404F132045FEA915C3FF45F
:1004A000D8AE4FF003025FEADC0C18BF03325FEAFC
:1004B000DC0C18BF033202EBDC02C2F1200300FAAD
:1004C00003FC20FA02F001FA03FE40EA0E0021FAD2
:1004D00002F11444BDE600BF70B54FF0FF0C4CF4C0
:1004E000E06C1CEA11541DBF1CEA135594EA0C0F72
:1004F00095EA0C0F00F0DEF82C4481EA030621EAAD
:100500004C5123EA4C5350EA013518BF52EA0335E7
:1005100041F4801143F4801338D0A0FB02CE4FF099
:100520000005E1FB02E506F00042E0FB03E54FF0C9
:100530000006E1FB03569CF0000F18BF4EF0010EC1
:10054000A4F1FF04B6F5007F64F5407404D25FEABD
:100550004E0E6D4146EB060642EAC62141EA555170
:100560004FEAC52040EA5E504FEACE2EB4F1FD0CB2
:1005700088BFBCF5E06F1ED8BEF1004F08BF5FEA30
:10058000500E50F1000041EB045170BD06F00046E2
:1005900046EA010140EA020081EA0301B4EB5C048F
:1005A000C2BFD4EB0C0541EA045170BD41F4801187
:1005B0004FF0000E013C00F3AB8014F1360FDEBFAC
:1005C000002001F0004170BDC4F10004203C35DA88
:1005D0000C341BDC04F11404C4F1200500FA05F30B
:1005E00020FA04F001FA05F240EA020001F00042AC
:1005F00021F0004110EBD37021FA04F642EB060122
:100600005EEA430E08BF20EAD37070BDC4F10C044B
:10061000C4F1200500FA04F320FA05F001FA04F20F
:1006200040EA020001F0004110EBD37041F10001FB
:100630005EEA430E08BF20EAD37070BDC4F1200506
:1006400000FA05F24EEA020E20FA04F301FA05F26E
:1006500043EA020321FA04F001F0004121FA04F216
:1006600020EA020000EBD3705EEA430E08BF20EAE6
:10067000D37070BD94F0000F0FD101F00046400020
:1006800041EB010111F4801F08BF013CF7D041EAA2
:10069000060195F0000F18BF704703F000465200A6
:1006A00043EB030313F4801F08BF013DF7D043EA77
:1006B0000603704794EA0C0F0CEA135518BF95EA2D
:1006C0000C0F0CD050EA410618BF52EA4306D1D1B4
:1006D00081EA030101F000414FF0000070BD50EAD3
:1006E000410606BF1046194652EA430619D094EA5D
:1006F0000C0F02D150EA013613D195EA0C0F05D147
:1007000052EA03361CBF104619460AD181EA03019A
:1007100001F0004141F0FE4141F470014FF0000052
:1007200070BD41F0FE4141F4780170BD70B54FF0ED
:10073000FF0C4CF4E06C1CEA11541DBF1CEA13556D
:1007400094EA0C0F95EA0C0F00F0A7F8A4EB05044F
:1007500081EA030E52EA03354FEA013100F0888046
:100760004FEA03334FF0805545EA131343EA12630F
:100770004FEA022245EA111545EA10654FEA0026C4
:100780000EF000419D4208BF964244F1FD0404F57D
:10079000407402D25B084FEA3202B61A65EB0305D9
:1007A0005B084FEA32024FF480104FF4002CB6EB96
:1007B000020E75EB030E22BFB61A754640EA0C0016
:1007C0005B084FEA3202B6EB020E75EB030E22BF56
:1007D000B61A754640EA5C005B084FEA3202B6EB97
:1007E000020E75EB030E22BFB61A754640EA9C0056
:1007F0005B084FEA3202B6EB020E75EB030E22BF26
:10080000B61A754640EADC0055EA060E18D04FEAE3
:10081000051545EA16754FEA06164FEAC30343EA83
:1008200052734FEAC2025FEA1C1CC0D111F4801F50
:100830000BD141EA00014FF000004FF0004CB6E749
:1008400011F4801F04BF01430020B4F1FD0C88BFE8
:10085000BCF5E06F3FF6AFAEB5EB030C04BFB6EBF3
:10086000020C5FEA500C50F1000041EB045170BDE6
:100870000EF0004E4EEA113114EB5C04C2BFD4EB13
:100880000C0541EA045170BD41F480114FF0000E97
:10089000013C90E645EA060E8DE60CEA135594EA13
:1008A0000C0F08BF95EA0C0F3FF43BAF94EA0C0F16
:1008B0000AD150EA01347FF434AF95EA0C0F7FF48B
:1008C00025AF104619462CE795EA0C0F06D152EADF
:1008D00003353FF4FDAE1046194622E750EA4106C3
:1008E00018BF52EA43067FF4C5AE50EA41047FF4D4
:1008F0000DAF52EA43057FF4EBAE12E74FF0FF3C39
:1009000006E000BF4FF0010C02E000BF4FF0010C09
:100910004DF804CD4FEA410C7FEA6C5C4FEA430C82
:1009200018BF7FEA6C5C1BD001B050EA410C0CBFD1
:1009300052EA430C91EA030F02BF90EA020F002033
:10094000704710F1000F91EA030F58BF994208BF9A
:1009500090422CBFD8176FEAE37040F00100704757
:100960004FEA410C7FEA6C5C02D150EA013C07D1AE
:100970004FEA430C7FEA6C5CD6D152EA033CD3D0F9
:100980005DF8040B704700BF8446104662468C46F3
:100990001946634600E000BF01B5FFF7B7FF002826
:1009A00048BF10F1000F01BD4DF808EDFFF7F4FF4F
:1009B0000CBF012000205DF808FB00BF4DF808EDDA
:1009C000FFF7EAFF34BF012000205DF808FB00BFFD
:1009D0004DF808EDFFF7E0FF94BF012000205DF81F
:1009E00008FB00BF4DF808EDFFF7CEFF94BF0120D4
:1009F00000205DF808FB00BF4DF808EDFFF7C4FFCD
:100A000034BF012000205DF808FB00BF4FEA410C15
:100A10007FEA6C5C02D150EA013C0AD14FEA430CF8
:100A20007FEA6C5C02D152EA033C02D14FF0000035
:100A300070474FF0010070474FEA410212F5001273
:100A400015D211D56FF47873B3EB625212D94FEA15
:100A5000C12343F0004343EA505311F0004F23FAFF
:100A600002F018BF404270474FF00000704750EA54
:100A7000013005D111F0004008BF6FF00040704711
:100A80004FF00000704700BF4FEA4102B2F1E0436F
:100A900024BFB3F5001CDCF1FE5C0DD901F0004C65
:100AA0004FEAC0024CEA5070B2F1004F40EB8300B5
:100AB00008BF20F00100704711F0804F21D113F1E1
:100AC0003872BCBF01F00040704741F480114FEA1A
:100AD0005252C2F11802C2F1200C10FA0CF320FAA3
:100AE00002F018BF40F001004FEAC1234FEAD323C0
:100AF00003FA0CFC40EA0C0023FA02F34FEA43032A
:100B0000CCE77FEA625307D150EA01331EBF4FF0B2
:100B1000FE4040F44000704701F0004040F0FE40CD
:100B200040F40000704700BF80F0004002E000BFCA
:100B300081F0004142001FBF5FEA410392EA030FC8
:100B40007FEA226C7FEA236C6AD04FEA1262D2EB12
:100B50001363C1BFD218414048404140B8BF5B4217
:100B6000192B88BF704710F0004F40F4000020F0B0
:100B70007F4018BF404211F0004F41F4000121F0C6
:100B80007F4118BF494292EA030F3FD0A2F1010210
:100B900041FA03FC10EB0C00C3F1200301FA03F14E
:100BA00000F0004302D5494260EB4000B0F5000F71
:100BB00013D3B0F1807F06D340084FEA310102F130
:100BC0000102FE2A51D2B1F1004F40EBC25008BFE2
:100BD00020F0010040EA03007047490040EB0000AC
:100BE00010F4000FA2F10102EDD1B0FA80FCACF1DB
:100BF000080CB2EB0C0200FA0CF0AABF00EBC250DA
:100C000052421843BCBFD0401843704792F0000FC7
:100C100081F4000106BF80F400000132013BB5E71A
:100C20004FEA41037FEA226C18BF7FEA236C21D090
:100C300092EA030F04D092F0000F08BF08467047F5
:100C400090EA010F1CBF0020704712F07F4F04D1C3
:100C5000400028BF40F00040704712F100723CBFD6
:100C600000F50000704700F0004343F0FE4040F400
:100C7000000070477FEA226216BF08467FEA2363BE
:100C80000146420206BF5FEA412390EA010F40F4A9
:100C9000800070474FF0000304E000BF10F00043F5
:100CA00048BF40425FEA000C08BF704743F09643DC
:100CB00001464FF000001CE050EA010208BF7047F7
:100CC0004FF000030AE000BF50EA010208BF70477E
:100CD00011F0004302D5404261EB41015FEA010C93
:100CE00002BF84460146002043F0B64308BFA3F18B
:100CF0008053A3F50003BCFA8CF2083AA3EBC2536D
:100D000010DB01FA02FC634400FA02FCC2F120028B
:100D1000BCF1004F20FA02F243EB020008BF20F0C2
:100D20000100704702F1200201FA02FCC2F1200228
:100D300050EA4C0021FA02F243EB020008BF20EA1D
:100D4000DC7070474FF0FF0C1CEAD0521EBF1CEA4B
:100D5000D15392EA0C0F93EA0C0F6FD01A4480EA39
:100D6000010C400218BF5FEA41211ED04FF0006322
:100D700043EA501043EA5111A0FB01310CF000404E
:100D8000B1F5000F3EBF490041EAD3715B0040EA74
:100D9000010062F17F02FD2A1DD8B3F1004F40EB44
:100DA000C25008BF20F00100704790F0000F0CF017
:100DB000004C08BF49024CEA502040EA51207F3ADB
:100DC000C2BFD2F1FF0340EAC250704740F40000B6
:100DD0004FF00003013A5DDC12F1190FDCBF00F0A7
:100DE00000407047C2F10002410021FA02F1C2F155
:100DF000200200FA02FC5FEA310040F1000053EAF1
:100E00004C0308BF20EADC70704792F0000F00F03E
:100E1000004C02BF400010F4000F013AF9D040EA44
:100E20000C0093F0000F01F0004C02BF490011F4D8
:100E3000000F013BF9D041EA0C018FE70CEAD153D6
:100E400092EA0C0F18BF93EA0C0F0AD030F0004C56
:100E500018BF31F0004CD8D180EA010000F000400A
:100E6000704790F0000F17BF90F0004F084691F0C8
:100E7000000F91F0004F14D092EA0C0F01D1420202
:100E80000FD193EA0C0F03D14B0218BF084608D1CB
:100E900080EA010000F0004040F0FE4040F4000015
:100EA000704740F0FE4040F4400070474FF0FF0CA8
:100EB0001CEAD0521EBF1CEAD15392EA0C0F93EAEF
:100EC0000C0F69D0A2EB030280EA010C49024FEA41
:100ED000402037D04FF0805343EA111143EA1013FA
:100EE0000CF000408B4238BF5B0042F17D024FF4B2
:100EF000000C8B4224BF5B1A40EA0C00B3EB510F8D
:100F000024BFA3EB510340EA5C00B3EB910F24BF75
:100F1000A3EB910340EA9C00B3EBD10F24BFA3EBFA
:100F2000D10340EADC001B0118BF5FEA1C1CE0D1C2
:100F3000FD2A3FF650AF8B4240EBC25008BF20F075
:100F4000010070470CF0004C4CEA50207F32C2BFC9
:100F5000D2F1FF0340EAC250704740F400004FF066
:100F60000003013A37E792F0000F00F0004C02BF97
:100F7000400010F4000F013AF9D040EA0C0093F061
:100F8000000F01F0004C02BF490011F4000F013BBB
:100F9000F9D041EA0C0195E70CEAD15392EA0C0F23
:100FA00008D142027FF47DAF93EA0C0F7FF470AF5B
:100FB000084676E793EA0C0F04D14B023FF44CAF9E
:100FC00008466EE730F0004C18BF31F0004CCAD133
:100FD00030F000427FF45CAF31F000437FF43CAF6F
:100FE0005FE700BF4FF0FF3C06E000BF4FF0010C91
:100FF00002E000BF4FF0010C4DF804CD4FEA400273
:101000004FEA41037FEA226C18BF7FEA236C11D0BC
:1010100001B052EA530C18BF90EA010F58BFB2EB6F
:10102000030088BFC81738BF6FEAE17018BF40F0EF
:10103000010070477FEA226C02D15FEA402C05D1A3
:101040007FEA236CE4D15FEA412CE1D05DF8040B28
:10105000704700BF844608466146FFE70FB5FFF7BB
:10106000C9FF002848BF10F1000F0FBD4DF808ED73
:10107000FFF7F4FF0CBF012000205DF808FB00BF64
:101080004DF808EDFFF7EAFF34BF012000205DF8BE
:1010900008FB00BF4DF808EDFFF7E0FF94BF01200B
:1010A00000205DF808FB00BF4DF808EDFFF7D2FF08
:1010B00094BF012000205DF808FB00BF4DF808ED4B
:1010C000FFF7C8FF34BF012000205DF808FB00BF18
:1010D0004FEA4002B2F1FE4F0FD34FF09E03B3EB45
:1010E00012620DD94FEA002343F0004310F0004F85
:1010F00023FA02F018BF404270474FF000007047DB
:1011000012F1610F01D1420205D110F0004008BF79
:101110006FF0004070474FF00000704742000ED261
:10112000B2F1FE4F0BD34FF09E03B3EB126209D422
:101130004FEA002343F0004323FA02F070474FF0D8
:101140000000704712F1610F01D1420202D14FF04D
:10115000FF3070474FF00000704700BF10B50446E5
:101160000E4B18784FF47A73B3FBF0F30C4A106807
:10117000B0FBF3F000F022FB68B90F2C01D901207D
:101180000AE0002221464FF0FF3000F0D5FA054B6F
:101190001C60002000E0012010BD00BF0000002006
:1011A000780000200400002008B5074A136843F0C7
:1011B00010031360032000F0ADFA0020FFF7CEFF0C
:1011C00006F04AFA002008BD00200240034A1168D8
:1011D000034B1B780B441360704700BF2C060020A4
:1011E00000000020014B1868704700BF2C0600204B
:1011F0000368D86C7047704710B5044603685A6896
:1012000012F0200F18D01A6812F0020F14D0826A60
:1012100012F0100F03D1826A42F4007282629A685F
:1012200002F46022B2F5602F38D0204606F0D0FBE1
:1012300023686FF012021A6023685A6812F0800F58
:1012400022D01A6812F0040F1ED0A26A12F0100FFA
:1012500003D1A26A42F40052A2629A6802F4E04208
:10126000B2F5E04F31D05A6812F4806F05D19A6818
:1012700002F46022B2F5602F24D0204600F048FA34
:1012800023686FF00C021A6023685A6812F0400F4E
:1012900003D01B6813F0010F28D110BD227B002A58
:1012A000C3D15A6822F020025A60A36A23F48073E3
:1012B000A362A36A13F4805FB7D1A36A43F001036A
:1012C000A362B2E7227B002AD7D15A6822F08002BB
:1012D0005A60A36A23F48053A362A36A13F4807F45
:1012E000CBD1A36A43F00103A362C6E7A36A43F428
:1012F0008033A3622046FFF77EFF23686FF0010270
:101300001A60CAE730B482B00023019390F8243009
:10131000012B00F08B800246012380F824304B68BB
:10132000062B29D80568686B03EB8303053B1F2454
:101330009C4020EA04000C6804FA03F303436B6347
:101340000B68092B38D91568E86803EB43031E3B8B
:1013500007249C4020EA04008C6804FA03F303434A
:10136000EB600B68103B012B34D90020002382F87E
:10137000243002B030BC70470C2B0ED80568286BA7
:1013800003EB8303233B1F249C4020EA04000C68EA
:1013900004FA03F303432B63D2E70568E86A03EB1F
:1013A0008303413B1F249C4020EA04000C6804FA9C
:1013B00003F30343EB62C3E71568286903EB4303B8
:1013C00007249C4020EA04008C6804FA03F30343DA
:1013D0002B61C6E713681648834205D0936A43F031
:1013E000200393620120C1E7986810F4000F1BD11D
:1013F000986840F4000098600B68102B01D0002022
:10140000B4E70C4B1B680C49A1FB03139B0C03EBCB
:1014100083035900019102E0019B013B0193019B71
:10142000002BF9D10020A1E700209FE70220A0E7D0
:10143000002401407800002083DE1B4330B583B0D8
:101440000023019303689A6812F0010F2ED19A6865
:1014500042F001029A60174B1B68174AA2FB032354
:101460009B0C019302E0019B013B0193019B002B2C
:10147000F9D10446FFF7B6FE054623689B6813F0D2
:10148000010F11D1FFF7AEFE401B0228F5D9A36A68
:1014900043F01003A362E36A43F00103E362002315
:1014A00084F82430012002E0002000E0002003B096
:1014B00030BD00BF7800002083DE1B4390F824304D
:1014C000012B6FD010B50446012380F82430FFF7BC
:1014D000B5FF0246002860D1A36A23F4706323F0AD
:1014E000010343F48073A362236830498B422CD0FC
:1014F000A16A21F48011A162596811F4806F05D0AE
:10150000A16A21F4405141F48051A162A16A11F411
:10151000805F30D0E16A21F00601E162002184F8A9
:1015200024106FF00201196021684B6843F020031A
:101530004B602368996801F46021B1F5602F1DD0DC
:10154000996841F4801199602AE0A1F580614968A9
:1015500011F4702FCCD0A16A41F48011A16214491A
:10156000496811F4806FD1D0A16A21F4405141F44F
:101570008051A162CAE70021E162CFE70B498B42AB
:1015800004D0996841F4A001996009E0A1F5806157
:10159000496811F4702FD3D1F3E7002384F8243085
:1015A000104610BD02221046704700BF00280140BF
:1015B0000024014038B503689A6812F0010F01D188
:1015C000002038BD04469A6822F001029A60FFF7B5
:1015D00009FE054623689B6813F0010F0ED0FFF744
:1015E00001FE401B0228F5D9A36A43F01003A36251
:1015F000E36A43F00103E3620120E2E70020E0E751
:1016000000287FD038B50446836A002B33D02046AB
:10161000FFF7D0FFA36A13F010036DD100286BD140
:10162000A26A22F4885222F0020242F00202A2626E
:101630006268E1690A43257B42EA4502A168B1F587
:10164000807F21D001291CD0217D01291FD0256850
:10165000696821F469410B436B6021688D682A4BEE
:101660002B4013438B60A368B3F5807F20D0012B00
:101670001ED000211FE0C36280F8243006F00EF86F
:10168000C5E74FF48073DFE74FF48073DCE735B9CB
:10169000A169013943EA413343F40063D7E7A16A02
:1016A00041F02001A162E16A41F00101E162CEE76F
:1016B0002369013B19052568EB6A23F470030B438A
:1016C000EB6223689968114B0B409A420BD0A36AD6
:1016D00023F0120343F01003A362E36A43F0010313
:1016E000E36201200DE00023E362A36A23F0030319
:1016F00043F00103A36204E0A36A43F01003A36272
:10170000012038BD01207047FDF7E1FFFE0E1FFFED
:1017100070470000074AD36823F4E0631B041B0CE6
:10172000000200F4E060184340F0BF6040F4003075
:10173000D060704700ED00E030B4174BDB68C3F3B6
:101740000223C3F10704042C28BF04241D1D062D09
:1017500018D9033B4FF0FF3505FA04F421EA0401E0
:10176000994005FA03F322EA0303194300280BDB2F
:101770000901C9B200F1604000F5614080F8001332
:1017800030BC70470023E5E700F00F000901C9B243
:10179000024B1954F4E700BF00ED00E014ED00E047
:1017A000002807DB00F01F02400901239340024A92
:1017B00042F82030704700BF00E100E00138B0F18E
:1017C000807F0AD2064B5860064AF02182F8231027
:1017D0000020986007221A6070470120704700BF00
:1017E00010E000E000ED00E070B4066CC56B012471
:1017F000B4406C60046863604368102B05D00368D4
:1018000099600368DA6070BC704703689A60036887
:10181000D960F8E760B310B402460168154B0B4479
:101820001548A0FB03031B099B001364134BD363F0
:10183000022382F82130086820F47F5020F0300025
:10184000536894682343D468234314692343546939
:10185000234394692343D469234303430B6000204B
:101860009063012382F8213082F8200010BC704779
:1018700001207047F8FFFDBFCDCCCCCC000002406A
:1018800038B590F82040012C32D0012480F8204057
:1018900090F82140012C04D0002380F82030022051
:1018A00038BD0446022084F821000020A06325688A
:1018B000286820F0010028602046FFF795FFE36AC2
:1018C0005BB12268136843F00E031360226813684B
:1018D00043F0010313600020E2E72268136823F05D
:1018E000040313602268136843F00A031360EDE7F2
:1018F0000220D5E708B590F82130022B03D004234D
:101900008363012008BD0268136823F00E0313608F
:101910000268136823F0010313600368194A9342B5
:1019200014D0143293421FD0143293421ED014327A
:1019300093421ED0143293421ED01432934202D0EE
:101940004FF0807203E04FF4801200E001220E4B52
:101950005A60012380F82130002380F82030436B47
:101960006BB198470020CDE71022F0E74FF480726A
:10197000EDE74FF48052EAE74FF48032E7E70020CA
:10198000C0E700BF080002400000024038B5C36B4A
:101990001A6804682568016C04238B40134235D013
:1019A00015F0040F32D0236813F0200F03D1236801
:1019B00023F0040323600368434A934214D0143293
:1019C000934218D01432934217D01432934217D056
:1019D0001432934217D01432934202D04FF08062F7
:1019E00003E04FF4800200E00422384B5A60C36ADF
:1019F00003B1984738BD4022F7E74FF48062F4E71F
:101A00004FF48042F1E74FF48022EEE702238B404F
:101A100013423CD015F0020F39D0236813F0200F89
:101A200006D1236823F00A032360012380F82130C4
:101A30000368254A934214D0143293421CD01432C6
:101A400093421BD0143293421BD0143293421BD0CA
:101A50001432934202D04FF0007203E04FF40012B0
:101A600000E00222194B5A60002380F82030836A7C
:101A7000002BBFD09847BDE72022F3E74FF4007258
:101A8000F0E74FF40052EDE74FF40032EAE70823A5
:101A900003FA01F11142ADD015F0080FAAD0236866
:101AA00023F00E032360026CC16B012303FA02F2E0
:101AB0004A60836380F82130002380F82030036B74
:101AC000002B97D0984795E708000240000002409D
:101AD000044B0022DA61044A136943F001031361E5
:101AE0000180704730060020002002401A4BDB685E
:101AF00013F0100F27D0194AD36943F00203D361C2
:101B00001023154AD26812F0040F06D01349CA698F
:101B100042F00102CA6143F004030F4AD26912F095
:101B2000010F09D00D49CA6942F00402CA610A498D
:101B3000CA6922F00102CA6140F20112934204D044
:101B4000054AD36070470023DBE7034AD36923F0DB
:101B50000103D361704700BF00200240300600201F
:101B60000A4B1B6913F0800F0DD0084B084A5A60CE
:101B700002F188325A601B6913F0800F01D00120F6
:101B80007047002070470020704700BF00200240CF
:101B900023016745034A136943F080031361002062
:101BA000704700BF0020024038B50446FFF71AFB1B
:101BB0000546174BDB6813F0010F0AD0B4F1FF3F65
:101BC000F7D00CB3FFF70EFB401BA042F1D9032066
:101BD00019E00F4BDB6813F0200F02D00C4B2022D2
:101BE000DA600B4BDB6813F0100F09D1084BDB698F
:101BF00013F0010F04D1064BDB6813F0040F05D07E
:101C0000FFF774FF012038BD0320FCE70020FAE74E
:101C1000002002402DE9F843234C247E012C41D0C2
:101C20001E4690460F4604461F4B01221A764CF280
:101C30005030FFF7B9FF034670BB012C29D0022CAE
:101C400024D04FF0040900244C4525D22101C1F1D4
:101C50002002A1F1200328FA01F106FA02F2114351
:101C600026FA03F3194389B207EB4400FFF730FF6C
:101C70004CF25030FFF798FF0C4B1D6925F0010521
:101C80001D61034640B90134E4B2DDE74FF00209BB
:101C9000D9E74FF00109D6E7034A0021117618462B
:101CA000BDE8F8830223FAE7300600200020024056
:101CB000064B0022DA61064B1A6942F004021A61EF
:101CC0001A6942F040021A61704700BF30060020D6
:101CD00000200240064B0022DA61064B1A6942F0EE
:101CE00002021A6158611A6942F040021A61704793
:101CF0003006002000200240264B1B7E012B46D0E0
:101D000070B50E460446234B01221A760368022B57
:101D100020D04CF25030FFF747FF90BB4FF0FF331D
:101D20003360A5680122E168A36803EB8123AB421D
:101D300028D92846FFF7CEFF4CF25030FFF734FF8A
:101D4000154A136923F0020313610246B8B905F579
:101D50008065E8E74CF25030FFF726FF08B101221A
:101D600010E00120FFF7A4FF4CF25030FFF71CFFFA
:101D7000024609490B6923F004030B6102E0356058
:101D800000E00122034B00211976104670BD0222AB
:101D9000104670473006002000200240F0B482B0A8
:101DA00000263246A2E0002D5AD0012D00D1CE6887
:101DB000FF2B69D88446FF2B69D89500DCF80040DA
:101DC0000F27AF4024EA070406FA05F52C43CCF8A8
:101DD00000404C6814F0805F00F087805F4CA5697C
:101DE00045F00105A561A46904F001040194019C7A
:101DF0009508AF1C5A4C54F8274002F00307BF0067
:101E00004FF00F0C0CFA07FC24EA0C0C554CA042C6
:101E100043D004F58064A04200F0818004F5806422
:101E2000A0427ED004F58064A04234D0042435E082
:101E30004D4FBD4214D00BD94C4FBD4210D007F5C9
:101E40008037BD420CD0A7F58017BD42B0D107E066
:101E5000A7F58017BD4203D007F58037BD42A7D153
:101E60008D687DB1012D08D044610826A0E7CE68B9
:101E700008369DE7CE680C369AE70461082697E796
:101E8000002695E7042693E700F1040C93E7A2F1FE
:101E90000805AD0092E7032400E00024BC4044EABA
:101EA0000C0402352E4F47F825404C6814F4803F4F
:101EB00039D02F4D2C681C432C604C6814F4003F23
:101EC00037D02B4D6C681C436C604C6814F4801F39
:101ED00035D0274DAC681C43AC604C6814F4001F2F
:101EE00033D0234DEC682343EB6001320B6833FAA7
:101EF00002F430D00124944023409C42F5D14D6837
:101F0000122DB7D094D8022DB1D07FF64CAF032D4F
:101F1000B6D0112D7FF44CAFCE68043648E70124CB
:101F2000BCE70224BAE7124D2C6824EA03042C60B3
:101F3000C3E70F4D6C6824EA03046C60C5E70C4DE1
:101F4000AC6824EA0304AC60C7E7094DEC6824EAF6
:101F50000303EB60C9E702B0F0BC70470010024019
:101F60000000014000080140000021100000311075
:101F7000000401408368194201D10020704701200C
:101F8000704712B90904016170470161704790F808
:101F90002832012B0DD010B50446012380F82832D9
:101FA00080F82410006802F0CAF8002084F82802A3
:101FB00010BD0220704770B511F0800F23D101F0E1
:101FC00007056D0105F5947404440544002685F861
:101FD000296101F0070121702261E370627802B18A
:101FE000E181022B1AD090F82832012B19D0054636
:101FF000012380F828322146006801F076FE002097
:1020000085F8280270BD01F007056D0105F128046F
:1020100004440544012685F82960DAE7002323718A
:10202000E1E70220EEE770B501F007056C0104F569
:10203000947101440444C4F83C2105F10A025201A0
:10204000861883500023736084F8293184F828515E
:1020500025B1006802F093F8002070BD006802F01E
:102060008EF8F9E770B501F007056C0104F128015D
:1020700001440444E263AA1C5201861883500023E1
:102080007360012384F8293084F8285025B1006852
:1020900002F075F8002070BD006802F070F8F9E7F2
:1020A000F8B504462068B0F8443013F4004F00F04F
:1020B000AD81B0F844309BB213F00F0540F0CD80F5
:1020C00013F0100F58D003889BB213F4006F40F048
:1020D000898013F4004FE5D0038823F070031B05BB
:1020E0001B0D43F0800303802068B0F8503094F853
:1020F000282103EBC203063300EB4303B3F800349B
:10210000C3F30903C4F844318BB1D4F83C1171B165
:10211000B4F82E2102F0C3F9D4F84421D4F83C31AC
:102120001344C4F83C310021204605F070FD2368BB
:10213000B3F850201344D4F83821002A74D1B3F8EE
:102140000C2492B222F4F84292B2A3F80C24B3F811
:102150000C2442F40042A3F80C24226813889BB29A
:1021600023F4804323F0700383F4405343F400438B
:1021700043F08003138095E703889BB223F4E14387
:1021800023F070036FEA43436FEA53439BB203802B
:102190002268B2F8503094F8281003EBC1030233E0
:1021A00002EB4303B3F80034C3F309036364E26B47
:1021B0001344E3630021204605F033FD94F82430F6
:1021C000002B3FF46FAF236C002B7FF46BAF94F8C0
:1021D0002430226843F08003A2F84C30002384F8B6
:1021E00024305FE7B0F8503094F8282103EBC203A5
:1021F000063300EB4303B3F80034C3F30903C4F818
:102200004431B4F82E2104F50C7102F048F922682B
:10221000138823F070031B051B0D43F0800313800C
:10222000204605F0ECFC3DE73E2A09D8510812F0A3
:10223000010F00D00131890289B2A3F80C148CE798
:10224000510912F01F0F00D101396FEAC1626FEA24
:10225000524292B2A3F80C247FE730F82560B6B260
:1022600016F4004F33D116F0800F3FF41BAF2268F5
:1022700032F825309BB223F4E14323F070036FEA78
:1022800043436FEA53439BB222F825302268B2F8E9
:10229000503004EB451090F8281003EBC1030233D3
:1022A00002EB4303B3F80024C2F30902AB1C5B0149
:1022B000E1184A60C16B0A44C263E358002B40F046
:1022C0009D8090F82810204605F0ABFCEAE630F837
:1022D000253023F070031B051B0D43F0800320F80D
:1022E000253004EB451393F83431D3B92068B0F8A6
:1022F000503004EB451292F8282103EBC203063359
:1023000000EB4303B3F80074C7F309078FB304EB82
:1023100045113B46B1F82E21D1F83C1102F0BFF82F
:1023200027E0206804EB451393F8282130F8223089
:1023300013F4804F43D0B0F8503003EBC2030233A4
:1023400000EB4303B3F80074C7F309076FBB2268BF
:1023500004EB451393F8281132F821309BB223F493
:10236000E04323F0700343F4004343F0C00322F83A
:10237000213005F10A035B01E1184A683A444A60DA
:1023800004EB4511D1F83C213A44C1F83C21E35813
:102390001BB1D1F838118F4228D204EB451393F8C2
:1023A0002811204605F033FC5DE704EB45113B4660
:1023B000B1F83021D1F83C1102F071F8C7E7B0F85C
:1023C000503003EBC203063300EB4303B3F8007451
:1023D000C7F30907002FBAD004EB45113B46B1F80B
:1023E0003221D1F83C1102F05AF8B0E704EB451164
:1023F00091F828112046FFF716FE34E704EB451547
:1024000095F828102046FFF72DFE4BE60020F8BD7A
:1024100010B50446006801F098FE10F4004F45D155
:10242000206801F092FE10F4806F43D1206801F023
:102430008CFE10F4804F08D02268B2F844309BB272
:1024400023F480439BB2A2F84430206801F07DFE63
:1024500010F4005F08D02268B2F844309BB223F435
:1024600000539BB2A2F84430206801F06EFE10F4D5
:10247000805F30D1206801F068FE10F4006F49D110
:10248000206801F062FE10F4007F6DD1206801F039
:102490005CFE10F4807F08D02268B2F844309BB212
:1024A00023F480739BB2A2F8443010BD2046FFF79E
:1024B000F7FDB5E72268B2F844309BB223F480639D
:1024C0009BB2A2F84430204605F0BAFB002120461A
:1024D000FFF75DFDAAE72268B2F840309BB223F017
:1024E00004039BB2A2F840302268B2F840309BB29D
:1024F00023F008039BB2A2F84030204605F0C2FB4F
:102500002268B2F844309BB223F480539BB2A2F805
:102510004430AFE72268B2F8403043F00803A2F835
:1025200040302268B2F844309BB223F400639BB27F
:10253000A2F844302268B2F8403043F00403A2F815
:102540004030206801F001FE10F4805F08D022685E
:10255000B2F844309BB223F480539BB2A2F84430CB
:10256000204605F07FFB8BE72268B2F844309BB22F
:1025700023F400739BB2A2F84430204605F05AFBC6
:1025800084E738B501F0070543689D422CD811F067
:10259000800F1AD14B0103F59471014403440022CA
:1025A00083F8292101238B700D7090F82832012BBC
:1025B0001CD00446012380F82832006801F049FD50
:1025C00065B1002084F828020FE06B0103F12801B7
:1025D00001440344012283F82920E3E704F50C7148
:1025E000206801F0B5FDECE7012038BD0220FCE7D2
:1025F00001F00F0243689A422DD810B511F0800FF8
:102600001ED101F007035B0103F5947202440344F9
:10261000002483F829410023937001F0070313700D
:1026200090F82832012B18D00446012380F8283274
:102630001146006801F032FD002084F8280210BD28
:1026400001F007035B0103F1280202440344012463
:1026500083F82940DFE7012070470220EFE7000000
:1026600082B0084B1B68084AA2FB03235B0A00FBED
:1026700003F0019000BF019B5A1E0192002BF9D17B
:1026800002B0704778000020D34D6210002800F09F
:10269000F58170B582B00446036813F0010F2CD0A9
:1026A000AB4B5B6803F00C03042B1DD0A84B5B689D
:1026B00003F00C03082B12D06368B3F5803F41D0C0
:1026C000002B55D103F1804303F504331A6822F43B
:1026D00080321A601A6822F480221A6037E09C4B1C
:1026E0005B6813F4803FE7D0994B1B6813F4003FFD
:1026F00003D06368002B00F0C381236813F0020F3E
:1027000076D0934B5B6813F00C0F5FD0904B5B68F7
:1027100003F00C03082B54D02369002B00F08A80AF
:102720008C4B01221A60FEF75DFD0546884B1B6845
:1027300013F0020F75D1FEF755FD401B0228F5D9A5
:102740000320A0E1824A136843F480331360636876
:1027500043B3FEF747FD05467D4B1B6813F4003F6E
:10276000CBD1FEF73FFD401B6428F5D903208AE159
:10277000B3F5A02F09D0764B1A6822F480321A6084
:102780001A6822F480221A60E1E703F18043A3F57E
:102790003C331A6842F480221A601A6842F480328C
:1027A0001A60D4E7FEF71EFD0546694B1B6813F45B
:1027B000003FA2D0FEF716FD401B6428F5D9032088
:1027C00061E1634B5B6813F4803FA5D1604B1B68EC
:1027D00013F0020F04D02369012B01D0012052E134
:1027E0005B4A136823F0F803616943EAC10313608D
:1027F000236813F0080F32D0A369002B5BD0564B2F
:1028000001221A60FEF7EEFC0546514B5B6A13F09D
:10281000020F21D1FEF7E6FC401B0228F5D9032068
:1028200031E14B4A136823F0F803616943EAC103BD
:102830001360DDE7474B00221A60FEF7D3FC054624
:10284000434B1B6813F0020FD2D0FEF7CBFC401BAA
:102850000228F5D9032016E10120FFF701FF2368C4
:1028600013F0040F00F09880394BDB6913F0805FA0
:1028700033D1374BDA6942F08052DA61DB6903F019
:1028800080530193019B0125344B1B6813F4807F17
:1028900025D0E368012B36D0002B4CD103F18043C7
:1028A00003F504331A6A22F001021A621A6A22F04E
:1028B00004021A622CE0284B00221A60FEF792FCF8
:1028C0000546234B5B6A13F0020FC8D0FEF78AFC63
:1028D000401B0228F5D90320D5E00025D4E71F4A84
:1028E000136843F480731360FEF77CFC06461B4BB1
:1028F0001B6813F4807FCCD1FEF774FC801B642826
:10290000F5D90320BFE0124A136A43F001031362B2
:10291000E3687BB3FEF766FC06460D4B1B6A13F0BB
:10292000020F38D1FEF75EFC801B41F288339842DB
:10293000F3D90320A7E0052B12D0054B1A6A22F029
:1029400001021A621A6A22F004021A62E0E700BF6A
:1029500000100240000042428004424200700040E9
:102960004C4B1A6A42F004021A621A6A42F00102DF
:102970001A62CDE7FEF736FC0646464B1B6A13F09B
:10298000020F08D0FEF72EFC801B41F288339842DC
:10299000F3D9032077E0E5B9E369002B72D03D4A13
:1029A000526802F00C02082A56D0022B17D03A4B7C
:1029B00000221A60FEF716FC0446364B1B6813F023
:1029C000007F47D0FEF70EFC001B0228F5D903203C
:1029D00059E0304AD36923F08053D361DCE72E4BB2
:1029E00000221A60FEF7FEFB05462A4B1B6813F017
:1029F000007F06D0FEF7F6FB401B0228F5D9032026
:102A000041E0236AB3F5803F1AD022494B6823F492
:102A10007413226A606A024313434B601E4B012207
:102A20001A60FEF7DFFB04461A4B1B6813F0007FA9
:102A30000ED1FEF7D7FB001B0228F5D9032022E0B8
:102A4000144A536823F40033A1680B435360DCE756
:102A5000002018E0002016E0012B16D00D4B5B681B
:102A600003F48031226A914201D001200BE003F48B
:102A70007013626A93420AD0012004E0012070477B
:102A8000012000E0002002B070BD0120FBE7002023
:102A9000F9E700BF001002406000424210B487B066
:102AA000164C94E80F000DF1180C0CE90F00238A66
:102AB000ADF80430124B5B6803F00C02082A1AD1FF
:102AC000C3F38342624412F8102C13F4803F05D103
:102AD0000C4800FB02F007B010BC7047084B5B6865
:102AE000C3F34043634413F8143C074800FB02F06F
:102AF000B0FBF3F0EFE70448EDE700BF58B900087A
:102B00000010024000093D0000127A00002800F089
:102B1000A38070B50446524B1B6803F007038B4239
:102B20000CD24F4A136823F007030B43136013685A
:102B300003F007038B4201D0012070BD236813F01E
:102B4000020F17D013F0040F04D0464A536843F421
:102B5000E0635360236813F0080F04D0414A5368C0
:102B600043F4605353603F4A536823F0F003A06876
:102B7000034353600D46236813F0010F31D063689F
:102B8000012B20D0022B25D0364A126812F0020FFA
:102B900064D034494A6822F0030213434B60FEF7C5
:102BA00021FB06462F4B5B6803F00C036268B3EB16
:102BB000820F16D0FEF716FB801B41F28833984235
:102BC000F0D90320B9E7274A126812F4003FE0D198
:102BD0000120B2E7234A126812F0007FD9D1012008
:102BE000ABE71F4B1B6803F00703AB420CD91C4A31
:102BF000136823F007032B431360136803F00703E4
:102C0000AB4201D0012098E7236813F0040F06D0EF
:102C1000144A536823F4E063E1680B43536023686C
:102C200013F0080F07D00F4A536823F4605321694B
:102C300043EAC1035360FFF731FF0A4B5B68C3F3FC
:102C40000313094AD35CD840084B1860084B186836
:102C5000FEF784FA002070E70120704701206CE73E
:102C60000020024000100240ECC90008780000205B
:102C700004000020014B1868704700BF7800002056
:102C800008B5FFF7F7FF044B5B68C3F30223034A61
:102C9000D35CD84008BD00BF00100240FCC900084A
:102CA00008B5FFF7E7FF044B5B68C3F3C223034A91
:102CB000D35CD84008BD00BF00100240FCC900082A
:102CC00070B582B00446036813F0010F34D03E4B58
:102CD000DB6913F0805F48D13B4BDA6942F08052E8
:102CE000DA61DB6903F080530193019B0125374BC7
:102CF0001B6813F4807F3AD0334B1B6A13F4407384
:102D000011D0626802F440729A420CD02E4A136AC3
:102D100023F440702E4901260E6000260E601062DA
:102D200013F0010F37D1284A136A23F44073616806
:102D30000B431362002D3FD1236813F0020F06D01E
:102D4000214A536823F44043A1680B43536023682E
:102D500013F0100F35D01C4A536823F48003E16848
:102D60000B435360002002B070BD0025BFE7174A37
:102D7000136843F480731360FEF734FA0646134B6E
:102D80001B6813F4807FB7D1FEF72CFA801B6428F0
:102D9000F5D90320E7E7FEF725FA06460A4B1B6A3A
:102DA00013F0020FBFD1FEF71DFA801B41F28833EA
:102DB0009842F3D90320D6E7D36923F08053D36137
:102DC000BAE70020CFE700BF0010024000700040CB
:102DD00040044242F8B505460F4616461C462B688D
:102DE0009B6837EA03030CBF01230023B34237D0AB
:102DF000B4F1FF3FF3D0FEF7F5F9069BC01AA042ED
:102E000001D2002CEBD12A68536823F0E003536011
:102E10006B68B3F5827F0BD0AB6AB3F5005F14D05B
:102E2000012385F85130002385F85030032018E045
:102E3000AB68B3F5004F02D0B3F5806FECD12A68D0
:102E4000136823F040031360E6E72A68136823F44D
:102E5000005313602A68136843F400531360DFE7DC
:102E60000020F8BD10B582B0044600920B46002247
:102E70008021FFF7AFFF034610B9184602B010BD1E
:102E8000636D43F0200363650323F6E77047002872
:102E900039D010B504460023836290F85130002BDE
:102EA0002CD0022384F851302268136823F04003A9
:102EB00013606368A2681343E268134322691343F3
:102EC00062691343A26902F400721343E269134377
:102ED000226A1343A16A22680B431360638B226842
:102EE00003F0040353602268D36923F40063D361C1
:102EF00000206065012384F8513010BD80F8503007
:102F0000FFF7C4FFCDE7012070472DE9F04182B003
:102F100090F85040012C00F0C3801D4617468846AB
:102F20000446012380F85030FEF75CF9064694F819
:102F30005130DBB2012B09D00220012384F851303B
:102F4000002384F8503002B0BDE8F081B8F1000FE2
:102F500000F09880002F00F09780032384F8513010
:102F600000236365C4F83080A786E786A363A38740
:102F7000E38763642364A368B3F5004F1CD0236820
:102F80001A6812F0400F03D11A6842F040021A602A
:102F9000E368B3F5006F15D063680BB1012F49D119
:102FA000226B236812781A73236B01332363E38E39
:102FB000013B9BB2E3863DE02268136843F4804303
:102FC0001360DCE763680BB1012F15D1226B236816
:102FD0001288DA60236B02332363E38E013B9BB2DA
:102FE000E38609E0FEF7FEF8801BA84202D3B5F1A4
:102FF000FF3F4BD1002D4BD0E38E9BB2002B2CD04A
:1030000023689A6812F0020FECD0226B1288DA6003
:10301000236B02332363E38E013B9BB2E386EBE732
:10302000FEF7E0F8801BA84202D3B5F1FF3F31D193
:10303000002D31D0E38E9BB27BB123689A6812F0E9
:10304000020FEDD0226B12781A73236B01332363C6
:10305000E38E013B9BB2E386ECE7324629462046ED
:10306000FFF700FF08B120236365A36833B901931C
:103070002368DA6801929B680193019B636D6BB9C9
:1030800000205AE7012058E7012056E7032054E7C3
:10309000032052E7032050E703204EE701204CE7CE
:1030A000022050E790F85030012B5FD010B5044655
:1030B000012380F8503090F85130DBB2012B05D05D
:1030C0000223002284F85020184610BD002949D060
:1030D000002A49D0032380F851300023436501635F
:1030E0008286C2868363436403648387C38783685D
:1030F000B3F5004F1CD0A36C1E4ADA62A36C1E4AC3
:103100009A62A36C1D4A1A63A36C00225A63226858
:10311000E38E0C32216BA06CFEF7B2FB034668B164
:10312000636D43F010036365012384F85130C8E7F1
:103130000268136843F480431360DCE72268116877
:1031400011F0400F03D1116841F040011160216876
:103150004A6842F020024A6021684A6842F002024E
:103160004A60AEE70123ACE70123AAE70223184631
:10317000704700BF85310008B33100089131000865
:103180007047704708B5406AFFF7FBFF08BD7047FE
:1031900008B5406A0268536823F003035360436D27
:1031A00043F010034365012380F85130FFF7EFFF30
:1031B00008BD30B583B00546446AFEF713F82B68A6
:1031C0001B6813F0200F23D12268536823F02003DB
:1031D00053602268536823F002035360024664215F
:1031E0002046FFF73FFE18B1636D43F0200363658F
:1031F000A36833B901932368DA6801929B6801934D
:10320000019B0023E386012384F85130636D23B9C9
:103210002046FFF7B5FF03B030BD2046FFF7B7FFEC
:10322000F9E7000070B4036A23F001030362036A44
:103230004268846924F073040D6845EA040623F0AB
:1032400002048B6823430D4DA84209D00B4DA842C0
:103250000DD0426086614A684263036270BC704769
:1032600023F00803CC68234323F00403EEE722F4A1
:1032700040724C6914438A692243EAE7002C0140FA
:1032800030B4036A23F480730362036A4268C4693A
:1032900024F073040D682C4323F400738D6843EA13
:1032A00005230F4DA84209D00D4DA8420ED0426013
:1032B000C4614A68C263036230BC704723F4006390
:1032C000CD6843EA052323F48063EDE722F44052FE
:1032D0004D6942EA05128D6942EA0512E7E700BF2F
:1032E000002C014030B4036A23F480530362036A64
:1032F0004468C26922F4E6420D6842EA052223F4DA
:1033000000538D6843EA0533074DA84206D0446058
:10331000C2614A680264036230BC704724F480448E
:103320004D6944EA8514F2E7002C014010B4036AA9
:10333000046A24F001040462846924F0F00444EA7D
:10334000021223F00A030B438261036210BC704730
:1033500010B4036A23F0100303628469036A24F43F
:10336000704444EA023223F0A00343EA011382616D
:10337000036210BC7047836823F07003194341F067
:103380000701816070477047022380F83D30026872
:10339000936803F00703062B03D0136843F001037F
:1033A0001360012380F83D30002070477047000013
:1033B00003681B4A90420AD0B0F1804F07D0A2F5B3
:1033C0009432904203D002F58062904203D123F000
:1033D00070034A681343124A90420AD0B0F1804FFA
:1033E00007D0A2F59432904203D002F58062904259
:1033F00003D123F44073CA68134323F080034A695E
:10340000134303608B68C3620B688362044B98426A
:1034100002D00123436170470B690363F9E700BFE2
:10342000002C0140A8B110B5044690F83D305BB1C6
:10343000022384F83D30211D2068FFF7B9FF0123E6
:1034400084F83D30002010BD80F83C30FFF79BFF32
:10345000EEE701207047A8B110B5044690F83D3062
:103460005BB1022384F83D30211D2068FFF7A0FFE7
:10347000012384F83D30002010BD80F83C30FFF778
:1034800095FFEEE70120704730B4036A23F0100384
:103490000362036A4468826922F4E6420D6842EAE4
:1034A000052223F020038D6843EA05130E4DA84240
:1034B00009D00D4DA8420ED0446082614A688263F3
:1034C000036230BC704723F08003CD6843EA0513E4
:1034D00023F04003EDE724F440644D6944EA850499
:1034E0008D6944EA8504E7E7002C014038B590F87F
:1034F0003C30012B66D00D460446012380F83C3059
:10350000022380F83D300C2A1AD8DFE802F00719B0
:103510001919201919193419191947000068FFF7EA
:1035200081FE2268936943F00803936122689369DE
:1035300023F0040393612268936929690B43936123
:10354000012384F83D30002084F83C0038BD006839
:10355000FFF79AFF2268936943F40063936122683E
:10356000936923F48063936122689369296943EA2C
:1035700001239361E4E70068FFF782FE2268D369C4
:1035800043F00803D3612268D36923F00403D361B5
:103590002268D36929690B43D361D1E70068FFF73B
:1035A000A1FE2268D36943F40063D3612268D36922
:1035B00023F48063D3612268D369296943EA012334
:1035C000D361BDE70220C1E710B4846824F47F44CE
:1035D00042EA03230B432343836010BC704790F8F7
:1035E0003C30012B66D010B50446012380F83C30F6
:1035F000022380F83D300268936823F47F4323F070
:10360000770393600B68402B4AD013D9602B3DD0D1
:103610001ED9702B28D0B3F5005F30D1CB684A6833
:1036200089680068FFF7D0FF2268936843F48043FD
:10363000936024E0102B06D004D9202B03D0302B2C
:1036400001D01CE0DBB919462068FFF794FE16E0B4
:10365000502B14D1CA6849680068FFF767FE5021F3
:103660002068FFF788FE0AE0CB684A68896800682E
:10367000FFF7AAFF2268936843F077039360012362
:1036800084F83D30002084F83C0010BDCA684968C9
:103690000068FFF75DFE60212068FFF76CFEEEE733
:1036A000CA6849680068FFF741FE40212068FFF7BB
:1036B00062FEE4E70220704710B401F01F0101230D
:1036C00003FA01F4036A23EA04030362036A8A40EB
:1036D0001343036210BC704710B504460122006812
:1036E000FFF7EAFF23680A4A93420BD022689368E7
:1036F00003F00703062B03D0136843F001031360A4
:10370000002010BD5A6C42F400425A64EEE700BF3C
:10371000002C01400268D36823F49073D3600268E0
:10372000536923F001035361202380F83A30704736
:1037300090F83930DBB2212B2AD18368B3F5805F52
:1037400016D0036A5A1C02621A7803685A60C38C46
:10375000013B9BB2C384EBB90268D36823F08003BA
:10376000D3600268D36843F04003D3600020704701
:10377000036A1B880268C3F30803536003691BB91B
:10378000036A02330362E2E7036A01330362DEE79E
:10379000022070470020704738B50446026813695C
:1037A00023F44053C1680B431361836802691343D8
:1037B00042691A430168CB6823F4B05323F00C0329
:1037C0001343CB600268536923F4407381690B4350
:1037D00053610268214B9A421FD0FFF751FA00EB68
:1037E000800000EB800063689B00B0FBF3F01C4D91
:1037F000A5FB00325109642202FB1102130132338E
:10380000A5FB03235B0903F0F00202EB011203F0B6
:103810000F03216813448B6038BDFFF741FA00EBBA
:10382000800000EB800063689B00B0FBF3F00C4D60
:10383000A5FB00325109642202FB1102130132334D
:10384000A5FB03235B0903F0F00202EB011203F076
:103850000F03216813448B60DEE700BF003801408E
:103860001F85EB512DE9F04105460F461646984657
:10387000069C2B681B6837EA03030CBF0123002357
:10388000B3421DD1B4F1FF3FF3D02CB1FDF7AAFC38
:10389000A0EB0800A042ECD92A68D36823F4D073C7
:1038A000D3602A68536923F001035361202385F80C
:1038B000393085F83A30002385F83830032000E0AD
:1038C0000020BDE8F08158B310B5044690F83930B7
:1038D0000BB3242384F839302268D36823F40053CF
:1038E000D3602046FFF758FF2268136923F4904302
:1038F00013612268536923F02A0353612268D36855
:1039000043F40053D3600020E063202384F839306F
:1039100084F83A3010BD80F8383003F011FFD8E752
:1039200001207047002830D010B5044690F8393097
:1039300033B3242384F839302268D36823F4005346
:10394000D3602046FFF728FF2268136923F49043D1
:1039500013612268536923F022035361226853697B
:1039600043F0080353612268D36843F40053D360E3
:103970000020E063202384F8393084F83A3010BD09
:1039800080F8383003F0DCFED3E7012070472DE9E2
:10399000F04182B01E4690F83930DBB2202B55D171
:1039A00004460D469046002955D0002A55D090F87F
:1039B0003830012B53D0012380F838300023C36303
:1039C000212380F83930FDF70DFC0746A4F8248048
:1039D000A4F8268010E000963B4600228021204675
:1039E000FFF740FF00283CD12B882268C3F308036F
:1039F00053602369C3B90235E38C9BB2B3B1E38C46
:103A0000013B9BB2E384A368B3F5805FE3D00096EB
:103A10003B46002280212046FFF724FF18BB2A786E
:103A200023685A600135E7E70135E5E700963B4634
:103A3000002240212046FFF715FF0346A8B92022A7
:103A400084F83920002284F8382000E00223184648
:103A500002B0BDE8F0810123F9E70123F7E7022373
:103A6000F5E70323F3E70323F1E70323EFE790F8F8
:103A70003A30DBB2202B20D109B312B390F83830A2
:103A8000012B20D081628285C2850023C36322225C
:103A900080F83A2080F838300168CA6842F48072B1
:103AA000CA6001684A6942F001024A610168CA6855
:103AB00042F02002CA601846704702207047012079
:103AC00070470120704702207047704708B50168B1
:103AD000CB6823F04003CB60202380F83930FFF718
:103AE000F4FF002008BD08B590F83A30DBB2222B75
:103AF00045D18368B3F5805F0ED0036903BB0368CB
:103B00005A68836A591C81621A70C38D013B9BB24B
:103B1000C385F3B1002033E0826A036943B90368C7
:103B20005B68C3F308031380836A02338362ECE7A4
:103B300003685B68DBB21380836A01338362E4E766
:103B400003685B68826A511C816203F07F03137013
:103B5000DBE70268D36823F02003D3600268D368F0
:103B600023F48073D3600268536923F00103536127
:103B7000202380F83A3001F0E3F9002000E0022031
:103B800008BD704710B5044602681368D1685269D1
:103B900013F00F0005D113F0200F02D011F0200F09
:103BA00053D1002867D012F0010202D111F4907FA6
:103BB00061D013F0010F06D011F4807F03D0E06BC9
:103BC00040F00100E06313F0040F04D01AB1E06B81
:103BD00040F00200E06313F0020F04D01AB1E06B72
:103BE00040F00400E06313F0080F04D01AB1E26B58
:103BF00042F00802E263E26B002A48D013F0200F83
:103C000002D011F0200F24D123685B6903F0400338
:103C1000E26B12F0080F00D13BB32046FFF77AFDAC
:103C200023685A6912F0400F1BD05A6922F04002F3
:103C30005A61636B8BB11A4A5A63606BFDF75AFE87
:103C400028B3606B436B984721E02046FFF74BFF9A
:103C50001DE02046FFF747FFD6E72046FFF791FF1C
:103C600015E02046FFF78DFF11E02046FFF789FFA2
:103C70000023E3630BE013F0800F02D011F0800FFC
:103C800006D113F0400F02D011F0400F04D110BD47
:103C90002046FFF74DFDFAE72046FFF717FFF6E74E
:103CA000A53C000808B5406A0023C385C384FFF71C
:103CB00068FF08BD90F83830012B14D0012380F83C
:103CC0003830242380F839300268D36823F00C039D
:103CD00043F00403D360202380F83930002380F8B8
:103CE0003830184670470220704730B403460C78CD
:103CF00030F8242092B222F4EC4222F0700292B208
:103D0000C87803285AD8DFE800F04D55025100204A
:103D100048F280052A4323F824200C7833F8242025
:103D200092B222F4E04222F0700222432A4323F8A6
:103D300024200A7B002A40F0B1804A78002A4ED025
:103D4000B3F850201A440C7802EB0412CC886408B3
:103D50006400A2F800440C7833F8242012F0400FDD
:103D60000CD033F8242092B222F4E04222F0700208
:103D700042F4004242F0C00223F82420CA78012A0B
:103D80001ED0097833F8212092B222F4E04222F0CA
:103D9000400282F0200242F4004242F0800223F806
:103DA000212060E042F400720020B1E742F4C062DA
:103DB0000020ADE742F480620020A9E70120A7E7D8
:103DC000097833F8212092B222F4E04222F0400236
:103DD00042F4004242F0800223F8212043E0B3F88D
:103DE00050201A440C7802EB0412CC88640864005A
:103DF000A2F80844B3F850201A440C7802EB0412DD
:103E00000C6994BBB2F80C44A4B224F4F844A4B2F4
:103E1000A2F80C44B2F80C4444F40044A2F80C4458
:103E20000C7833F8242012F4804F0CD033F824207F
:103E300092B222F4E04222F0700242F4404242F098
:103E4000800223F82420097833F8212092B222F44A
:103E5000804222F0700282F4405242F4004242F06A
:103E6000800223F8212030BC70473E2C09D8650819
:103E700014F0010F00D00135AD02ADB2A2F80C5420
:103E8000CEE7650914F01F0F00D1013D6FEAC5644C
:103E90006FEA5444A4B2A2F80C44C1E70C7833F89A
:103EA000242092B222F4E04222F0700242F4014255
:103EB00042F0800223F82420B3F850201A440C78F2
:103EC00002EB04120C8964086400A2F80044B3F801
:103ED00050201A440C7802EB04124C8964086400E8
:103EE000A2F808444A78002A4ED10C7833F82420EE
:103EF00012F4804F0CD033F8242092B222F4E04226
:103F000022F0700242F4404242F0800223F8242062
:103F10000C7833F8242012F0400F0CD033F8242012
:103F200092B222F4E04222F0700242F4004242F0E7
:103F3000C00223F824200C7833F8242092B222F413
:103F4000E04222F0700242F4004242F0C00223F844
:103F500024200D7833F8252092B222F4804222F0FA
:103F6000700282F4405248F28004224323F8252054
:103F7000097833F8212092B222F4E04222F0400284
:103F8000224323F821206EE70C7833F8242012F422
:103F9000804F0CD033F8242092B222F4E04222F079
:103FA000700242F4404242F0800223F824200C7850
:103FB00033F8242012F0400F0CD033F8242092B2B2
:103FC00022F4E04222F0700242F4004242F0C002C9
:103FD00023F824200C7833F8242092B222F4E04213
:103FE00022F0700242F4404242F0800223F8242082
:103FF000CA78012A1ED00C7833F8242092B222F419
:10400000E04222F0400282F0200242F4004242F0FC
:10401000800223F82420097833F8212092B222F478
:10402000804222F0700242F4004242F0800223F803
:10403000212018E70C7833F8242092B222F4E042D1
:1040400022F0400242F4004242F0800223F8242091
:10405000E1E74B788BB90A7830F822309BB223F431
:10406000804323F0700383F4805343F4004343F010
:10407000800320F82230002070470A7830F8223080
:104080009BB223F4E04323F0400383F0100343F496
:10409000004343F0800320F82230ECE70B7B002B39
:1040A0004BD14B7833B30A7830F8223013F0400FFD
:1040B0000CD030F822309BB223F4E04323F070039D
:1040C00043F4004343F0C00320F82230CB78012BA7
:1040D00033D00A7830F822309BB223F4E04323F047
:1040E000400383F0200343F4004343F0800320F8AF
:1040F000223022E00A7830F8223013F4804F0CD0BE
:1041000030F822309BB223F4E04323F0700343F4F1
:10411000404343F0800320F822300A7830F8223000
:104120009BB223F4804323F0700383F4405343F4A1
:10413000004343F0800320F822300020704711B97B
:104140008023A0F84C3000207047B0F8440070473E
:104150000020704701335B0800EB420202F58062E9
:1041600063B110B40C78487844EA002422F8044B78
:104170000231013B002BF5D110BC7047704770B580
:104180004E78012E33D08A690B699A4240F2FC8046
:10419000D21A8A610A7B002A40F01381B0F85020BD
:1041A00002440C7802EB0412002B40F0F180B2F8CC
:1041B0000C349BB223F4F8439BB2A2F80C34B2F84F
:1041C0000C3443F40043A2F80C340A7830F822305F
:1041D0009BB223F4804323F0700383F4405343F4F1
:1041E000004343F0800320F82230002070BD8A692C
:1041F0000B699A4222D9D21A8A610C4605460A7B7B
:1042000002B30A7830F8221011F0400F72D0002E5D
:1042100040D1B0F85010014401EB02120BBBB2F8D0
:104220000C1489B221F4F84189B2A2F80C14B2F846
:104230000C1441F40041A2F80C1433E000238B610C
:104240001346DAE79EB23346CA884969FFF782FF10
:10425000B5F850302B44227803EB0213A3F8046422
:1042600037E03E2B09D8590813F0010F00D0013177
:10427000890289B2A2F80C1414E0590913F01F0F37
:1042800000D101396FEAC1616FEA514189B2A2F8E8
:104290000C1407E0B0F85010014401EB021299B27F
:1042A000A2F80C1462899BB261692846FFF752FF9D
:1042B0006378002B57D1227835F822309BB223F453
:1042C000E04323F0700343F4004343F0C00325F8B8
:1042D0002230227835F822309BB223F4E04323F0D9
:1042E000400383F0300343F4004343F0800325F898
:1042F00022307AE76EBBB0F85010014401EB021295
:1043000073B9B2F8041489B221F4F84189B2A2F861
:104310000414B2F8041441F40041A2F8041420E09B
:104320003E2B09D8590813F0010F00D00131890242
:1043300089B2A2F8041414E0590913F01F0F00D138
:1043400001396FEAC1616FEA514189B2A2F80414E0
:1043500007E0B0F85010014401EB021299B2A2F844
:10436000041422899FE7012BB3D1227835F822303B
:104370009BB223F4E04323F0700343F4404343F043
:10438000800325F82230A4E700238B61134601E760
:104390003E2B09D85C0813F0010F00D00134A402B1
:1043A000A4B2A2F80C4410E75C0913F01F0F00D16F
:1043B000013C6FEAC4646FEA5444A4B2A2F80C440E
:1043C00003E7A6B9B0F8502002440C7802EB0412BF
:1043D00033BBB2F80444A4B224F4F844A4B2A2F863
:1043E0000444B2F8044444F40044A2F804444A7873
:1043F000002A47D1B0F8502002440C7802EB041296
:104400003BBBB2F80C349BB223F4F8439BB2A2F846
:104410000C34B2F80C3443F40043A2F80C34D4E664
:104420003E2B09D85C0813F0010F00D00134A40220
:10443000A4B2A2F80444DAE75C0913F01F0F00D11C
:10444000013C6FEAC4646FEA5444A4B2A2F8044485
:10445000CDE73E2B09D85C0813F0010F00D00134E2
:10446000A402A4B2A2F80C44AFE65C0913F01F0F3B
:1044700000D1013C6FEAC4636FEA53439BB2A2F8D8
:104480000C34A2E6012A7FF4A0AEB0F8502002441A
:104490000C7802EB04129BB2A2F80C3495E630B40F
:1044A0005D0800EB420202F5806207E032F8044B3F
:1044B000A4B20C70240A4C700231013D002DF5D1DC
:1044C00013F0010F01D013880B7030BC704708B592
:1044D000D0F8B43233B11B68984708B9002008BD42
:1044E0000220FCE70220FAE708B5D0F8B4325B6896
:1044F0009847002008BD38B5044600F52A752846BF
:1045000000F02FF90123C4F89432B4F8AE32C4F8A5
:10451000983294F8A81201F01F03012B0ED03BB182
:10452000022B10D001F08001204603F0BCFB03E019
:104530002946204600F0C3FA002038BD294620460F
:1045400000F0F1FAF8E72946204600F01CFBF3E7FB
:1045500038B50446A1BB1046D4F89432032B03D0DF
:10456000052B24D0002037E0D4F86031D4F8642142
:1045700093420DD99B1AC4F860319A4206D99AB277
:104580000146204600F01BFC002025E092B2F7E730
:10459000D4F8B4321B692BB194F89C22032A01D1C0
:1045A00020469847204600F012FC002014E0002529
:1045B000C4F894522946204603F075FB28460BE0C8
:1045C0000A46D0F8B4329B693BB190F89C1203299B
:1045D00005D111469847002038BD0220FCE7022093
:1045E000FAE710B50446002953D11046D4F89432A6
:1045F000022B0CD0042B00D01BB98021204603F0E5
:1046000052FB94F8A032012B3FD000204DE0236AEA
:10461000626A93421DD8E169B1FBF2F302FB131306
:104620002BB98A4203D8D4F8983299421FD3D4F8D0
:10463000B432DB682BB194F89C22032A01D12046C6
:1046400098478021204603F02EFB204600F0CAFB4D
:10465000D7E79A1A226292B20146204600F0A7FBE1
:1046600000231A461946204603F050FBC9E70022F2
:104670001146204600F09BFB0021C4F898120B461F
:104680000A46204603F042FBBBE7002084F8A00264
:104690000BE00A46D0F8B4325B693BB190F89C124B
:1046A000032905D111469847002010BD0220FCE7E0
:1046B0000220FAE770B5044640230022114603F0B9
:1046C000E7FA0125C4F858514026C4F8646133461E
:1046D00000228021204603F0DBFAA561666284F89F
:1046E0009C520023C4F894326360C4F8A432D4F816
:1046F000B8322BB1D4F8B4325B6800212046984719
:10470000002070BD01740020704790F89C3280F842
:104710009D32042380F89C320020704790F89C3230
:10472000042B01D00020704790F89D3280F89C3215
:10473000F8E708B590F89C32032B01D0002008BDA3
:10474000D0F8B432DB69002BF8D09847F6E708B50B
:104750004B88012B00D008BDC0F8A43200F037FB15
:10476000F9E70B7803704B7843708B78CA7803EBCA
:10477000022343800B794A7903EB022383808B79F0
:10478000CA7903EB0223C380704710B50446802129
:1047900003F089FA0021204603F085FA10BD30B5F8
:1047A00083B005460C460023ADF806304A88130A4C
:1047B000013B062B00F2A480DFE803F004182CA2D2
:1047C000A2869300D0F8B0321B680DF10601007C80
:1047D0009847BDF806201AB1E388002B40F094807A
:1047E000E388002B00F09A8003B030BD037C43B90E
:1047F000D0F8B4329B6A0DF106009847022343704B
:10480000E7E7D0F8B432DB6A0DF1060098470223DF
:104810004370DEE7D2B2052A52D8DFE802F0031077
:104820001D2A3744D0F8B0325B6823B10DF1060180
:10483000007C9847CDE72146FFF7A7FFD4E7D0F8E3
:10484000B0329B6823B10DF10601007C9847C0E7A8
:104850002146FFF79AFFC7E7D0F8B032DB6823B1F3
:104860000DF10601007C9847B3E72146FFF78DFF65
:10487000BAE7D0F8B0321B6923B10DF10601007C14
:104880009847A6E72146FFF780FFADE7D0F8B032A2
:104890005B6923B10DF10601007C984799E7214639
:1048A000FFF773FFA0E7D0F8B0329B6923B10DF199
:1048B0000601007C98478CE72146FFF766FF93E7E7
:1048C0002146FFF762FF8FE7037C33B9D0F8B4329B
:1048D0005B6B0DF1060098477BE72146FFF755FF1C
:1048E00082E7037C43B9D0F8B4321B6B0DF10600AC
:1048F0009847072343706CE72146FFF746FF73E7AD
:104900002146FFF742FF6FE79A4228BF1A46ADF8EB
:1049100006200146284600F03DFA61E7284600F0EF
:1049200056FA61E738B504468B88F3B9CB88E3B90A
:104930004B887F2B19D803F07F0590F89C32032B0E
:104940000CD080F89E52294603F0D0F9204600F0A2
:104950003EFA35B1022384F89C3209E0FFF715FFD7
:1049600006E0012384F89C3202E02046FFF70DFFA9
:1049700038BD000038B504460D468978284B1970BB
:1049800001290ED890F89C32022B0ED0032B21D097
:104990002946FFF7FAFE224B19782046FFF7A4FDBF
:1049A00002E02946FFF7F1FE38BD81B141600323E3
:1049B00080F89C32FFF78BFD022803D0204600F0E0
:1049C00006FAF1E729462046FFF7DFFEECE700F0A4
:1049D000FEF9E9E789B1436899421DD0D9B2FFF7E2
:1049E00083FD0F4B197861602046FFF770FD0228A8
:1049F0000DD0204600F0EBF9D6E7022380F89C3278
:104A00004160FFF771FD204600F0E1F9CCE729464F
:104A10002046FFF7BAFEC7E700F0D9F9C4E700BFA8
:104A20009402002008B5CB88012B0BD190F89C3262
:104A30009BB1022B09D9032B0FD10122011D00F0DC
:104A4000A9F901E0FFF7A1FE08BD0146002341F8E6
:104A5000083F012200F09EF9F6E7FFF796FEF3E724
:104A600008B590F89C32013B022B12D8CB88022B60
:104A70000CD10123C360D0F8A4320BB10323C3606F
:104A8000022200F10C0100F085F908BDFFF77DFE60
:104A9000FBE7FFF77AFEF8E708B590F89C32013B98
:104AA000022B09D84B88012B00D008BD0023C0F889
:104AB000A43200F08CF9F8E7FFF767FEF5E708B5D8
:104AC0000B7803F06003202B05D0402B03D043B1BB
:104AD000FFF75BFE03E0D0F8B4329B6898470020F4
:104AE00008BD4B78092B1BD8DFE803F011171A1407
:104AF0001A08051A0E0BFFF752FEF0E7FFF712FF38
:104B0000EDE7FFF737FFEAE7FFF78CFFE7E7FFF78F
:104B1000A7FFE4E7FFF71BFEE1E7FFF7BDFFDEE7D6
:104B2000FFF733FEDBE738B505460C460B7803F09C
:104B30006003202B06D0402B04D01BB1FFF725FECD
:104B4000002038BD95F89C32013B022B16D8237902
:104B5000012B0ED8D5F8B4329B68214628469847D9
:104B6000E388002BECD10028EAD1284600F02FF989
:104B7000E6E721462846FFF708FEE1E721462846FA
:104B8000FFF703FEDCE738B504468A880B7803F0AC
:104B90006003202B08D0D0B2402B05D05BB120465B
:104BA000FFF7F3FD002005E0D4F8B4329B682046FF
:104BB0009847002038BD202B05D1D4F8B4329B682B
:104BC00020469847F6E74B78012B32D0002B5ED079
:104BD000032B40F0D88094F89C32022B06D0032B94
:104BE00016D02046FFF7D1FD0020E3E708B180286A
:104BF00004D12046FFF7C9FD0020DBE7014620462F
:104C000003F051F88021204603F04DF80020D1E751
:104C10004B8823B918B1802801D0CB8823B1204616
:104C200000F0D5F80020C5E70146204603F03BF828
:104C3000F5E794F89C32022B06D0032B16D02046C1
:104C4000FFF7A3FD0020B5E708B1802804D1204676
:104C5000FFF79BFD0020ADE70146204603F023F857
:104C60008021204603F01FF80020A3E74B88002B8B
:104C700040F08E8010F07F0F04D1204600F0A7F89E
:104C8000002097E70146204603F015F8F5E794F871
:104C90009C32022B06D0032B2AD02046FFF775FD4D
:104CA000002087E708B1802813D112F0800F15D1BA
:104CB00000F07F0000EB8000830003F5A871214421
:104CC000043100250D600222204600F063F82846DA
:104CD00070E72046FFF759FD00206BE700F07F00EA
:104CE00000EB8000830003F1100121440431E8E768
:104CF00052B2002A1FDB00F00F0303EB83039D0079
:104D00002544D5F8583123B3002A27DB00F07F0271
:104D100002EB8202930003F5A8752544043508B11F
:104D2000802825D100232B6002222946204600F04E
:104D300031F800203EE700F00F0303EB83039D00F2
:104D40002544AB69002BDFD12046FFF71EFD002074
:104D500030E72046FFF719FD00202BE700F07F0227
:104D600002EB8202930003F1100525440435D6E7D7
:104D70000146204602F0A7FF10B101232B60D3E7C4
:104D800000232B60D0E72046FFF7FFFC002011E74F
:104D900000200FE710B513460222C0F89422C36129
:104DA00003620A46002102F0A9FF002010BD08B5E9
:104DB00013460A46002102F0A1FF002008BD08B5F5
:104DC00013460A46002102F0A1FF002008BD08B5E5
:104DD0000423C0F8943200231A46194602F08EFFCD
:104DE000002008BD08B50523C0F8943200231A46F8
:104DF000194602F08BFF002008BD0000014B18602F
:104E0000704700BF98020020014B1868704700BF30
:104E100098020020014B1878704700BF95020020CF
:104E2000014B1860704700BFA0020020014B1868BA
:104E3000704700BFA002002010B5084B186808B1E9
:104E400004F026F8064B1C68204604F019F8034BC2
:104E500018602246002104F02EF810BD9C020020AC
:104E6000A002002010B504460846FFF7C7FF14F063
:104E7000010F02D0084B01221A70074B1B78012B3F
:104E800005D11A20FFF7CCFFFFF7D6FF10BD0B208E
:104E9000FFF7C6FFF8E700BF95020020044B1B6830
:104EA00023B1044A1268824200D91954704700BFE6
:104EB0009C020020A0020020064B1B682BB1064A72
:104EC0001268824203D9185C7047002070470020A6
:104ED000704700BF9C020020A0020020044B1B680A
:104EE000834203D9034B53F82000704700207047DA
:104EF000A00200200800002000B583B00A4B1B6808
:104F00001A6812F0020F09D0002201921A68019269
:104F10005B680193019B054B01221A700248FEF762
:104F200031FE03B05DF804FB10090020B40200203C
:104F300008B50248FEF726FE08BD00BF3408002071
:104F400010B582B00368444A934204D0434A934266
:104F50006DD002B010BD424B1B788DF80730414B2D
:104F60001B78002B35D0404A13780133DBB2137025
:104F70001378DBB22C2B19D000233C4A13703C4A27
:104F80001380384A1370FCF72DF93A4B18609DF8DE
:104F9000073003F0FF02CBB1172A2FD00122334B89
:104FA0001A702F493448FEF762FDD2E713460022FB
:104FB0001A70324A1378B3FA83F35B0913701278CC
:104FC0004FF400512E48FCF7DCFFD5E72D4B0022B3
:104FD0001A702C4B1B7833B9254B1B889BB22A4A7D
:104FE000126893420ED2224A138801339BB2138077
:104FF00001221B492048FEF73AFDAAE7214B012276
:105000001A70E6E71A4B1C88A4B2FFF70FFF1E4B7D
:105010001B6818448442E6D2154B18881A4B1B684B
:10502000C01A9DF807100138FFF738FFDBE7174B70
:105030001B7853B101221649164801F030FA0122BB
:1050400013491548FEF713FD83E701221049134861
:1050500001F025FAF3E700BF0038014000480040A6
:10506000A4020020B4020020AD0200207000002045
:10507000A6020020A802002010090020AC02002097
:1050800000100140AE020020B0020020C402002047
:10509000A5020020500600203408002068060020E9
:1050A00008B5002280210348FCF76BFF0248FEF799
:1050B00001FE08BD000C01401009002008B530B900
:1050C000094B1A68D36823F40053D36008BDFFF777
:1050D0009BFE064B1860FFF7E3FF012204490248DC
:1050E000FEF7C5FCF2E700BF10090020B002002067
:1050F000A402002008B50120FFF7E0FF01220249C9
:105100000248FEF7B4FC08BDA502002034080020C8
:1051100030B587B004460D46FCF722FD0495012307
:105120000293A40244F0006403940023019305A9B0
:1051300001A8FCF7E1FD38B9FCF72CFD059BB3F1A4
:10514000FF3F06D0002002E0FCF724FD002007B05E
:1051500030BD0120FBE730B40C4607E0850245F086
:105160000065655D03F8015B0134A4B25518AC42DB
:10517000F4DB012030BC704708B501213F20FFF768
:10518000C7FF08BD0144B1F5807F0BDD00207047EB
:10519000830003F1006303F57C431B6842F8043B82
:1051A000013080B28142F3DC0120704770B50144C8
:1051B000B1F5807F02DD0026304670BD1546FFF751
:1051C000DBFF06460028F7D0FCF7CAFC0024FF2CC2
:1051D00012D8A1002A68002301F1006101F57C4189
:1051E0000220FCF717FD18B904350134A4B2EEE72C
:1051F000FCF7D0FC0026DFE7FCF7CCFCDCE7000086
:10520000002305E0044A054942F823100133DBB2CC
:105210003F2BF7D9704700BF80060020B0BA0008C6
:1052200038B50D4609B9012403E00C460AE0013403
:10523000E4B20C4B53F824301B690BB13E2CF6D969
:105240003F2C09D0074B43F82400C21C21460648D6
:1052500001F0D6FD204638BD044801F0D1FD2C46B2
:10526000F8E700BF80060020D4BA0008C4BA0008DE
:1052700008B5002002F084FF002002F089FF002022
:1052800002F0FCFE002002F001FF002003F0E4FA2F
:10529000002003F035FA002003F0B4F9002003F0F9
:1052A00003F9002002F076FE002002F00BFE08BD9C
:1052B00008B5FFF7DDFF08BD2B4B53F820301B6905
:1052C000002B3DD010B50446284B1B78032B16D07D
:1052D000274B1A78244B53F822100B691BB100227C
:1052E000C96802209847224B19781F4B53F8212098
:1052F0000332204801F084FD1C4B03221A701E4B20
:1053000000221A601A4B19781C4A11701C704CB399
:10531000154B53F824301C69DA6800210846A04771
:1053200098B9124B00221A70114B19780E4B53F892
:1053300021200332124801F063FD0D4B187810BD97
:105340000028BFD00A4B18787047094C2178064BCB
:1053500053F8212003320B4801F052FD074B1B7814
:105360002370EAE72046EAE780060020B602002024
:10537000B5020020E4BA0008B8020020BC020020F8
:1053800000BB00081CBB000870B5104C104D2B78FA
:1053900054F823301E690022D9680220B0472978CA
:1053A00054F8212003320B4801F02AFD0A4B032256
:1053B0001A702B7854F82330987820B9074B187856
:1053C000FFF77AFF70BDFFF777FFFBE7800600204D
:1053D000B5020020E4BA0008B6020020BC0200209A
:1053E0001E4B1B78002B37D010B51D4A52F82330C6
:1053F0005A78012A16D0022A1CD0184B1A78184B5A
:1054000053F822301C69DA68164B19680120A0474E
:1054100001281ED0144B01221A70124A136801335E
:10542000136010BDDA680F4B1B689A42E5D1FFF795
:10543000ABFFF6E7D9680B4A12689142DDD1002430
:10544000084A14601B69224620469847064B1C7088
:10545000D3E7FFF799FFE4E7704700BFB5020020EC
:1054600080060020B8020020B602002000000000E4
:10547000F8B50D46FBF712FC2149FBF717FD044672
:105480002846FBF707FCFAF7CFFF06460F462046F3
:10549000FAF7CAFF02460B4600201A49FBF746F905
:1054A00004460D4614A3D3E9002330463946FBF7E2
:1054B0003DF922462B4604F0E7FA0FA3D3E9002377
:1054C000FBF70AF8FBF7E0FAFAF7AEFF04F05CFA34
:1054D000FBF7DAFA04460C49FBF7F0FD30B900217E
:1054E0002046FBF7CDFD10B1002400E0064C20461D
:1054F000FBF714FEC0B2F8BD0000000000E06F40F2
:105500000000C8420000F03F00007F432DE9F04F4B
:1055100087B001217E20FFF7FBFD049018B90498A5
:1055200007B0BDE8F08FFCF71BFBDC2301930023E1
:105530000593059B032B78D8059B9946032B07D829
:10554000DFE803F0025A5F64394BB3F94A30019344
:105550004FF0000847464E4645463F2F60D8ECB214
:105560002146DDF804804046FFF782FFC0B24FEAD3
:10557000102B4FEA006A611CC9B2CDF80480404686
:10558000FFF776FFC0B24FF000094FEA00481AEB70
:1055900008024BEB0903CDE90223A11CC9B2019813
:1055A000FFF766FFC0B24FF000094FEA0028DDE9BF
:1055B000022312EB080243EB090390469946E11CD3
:1055C000C9B20198FFF754FFC3B2002404352DB2CD
:1055D00007EB8611890013EB080344EB09041A4614
:1055E000234601F1006101F5FC310220FCF712FBBA
:1055F00088B90137FFB2B0E70D4BB3F950300193D2
:10560000A6E70B4BB3F956300193A1E7084BB3F96A
:10561000583001939CE7FCF7BDFA002304937EE722
:10562000059B0133DBB2059383E7FCF7B3FA76E71A
:105630008007002000B583B001EB00210DF10703C6
:10564000012289B27E20FFF786FD9DF8070003B096
:105650005DF804FB10B54FF480410848FCF78AFC64
:1056600050B100244FF400410448FCF783FC08B912
:1056700044F00204204610BD0124F3E7001001406D
:1056800010B54FF400411F48FCF774FCC0B3002470
:1056900008211D48FCF76EFC08B944F002041021F3
:1056A0001948FCF767FC08B944F004044FF4807112
:1056B0001548FCF75FFC08B944F008044FF400718A
:1056C0001148FCF757FC08B944F010044FF480511E
:1056D0000D48FCF74FFC08B944F020044FF400518A
:1056E0000948FCF747FC08B944F040044FF48041F6
:1056F0000548FCF73FFC08B944F08004204610BD83
:105700000124C5E700080140000C014008B5202134
:105710000348FCF72FFC08B1002008BD0120FCE77E
:10572000000801402DE9F84307468946144698468B
:1057300000F092FE064600F08FFE00FB07F0184DC9
:10574000A5FB0030C309174A108800FB03F0B0FB2B
:10575000F6F0A0EB0900FBF7A1FA81462046FBF723
:105760009DFA01464846FBF7EDFA0F49FBF79EFB11
:10577000FBF7AEFC04B239464046FFF75BFF04FB83
:1057800000F085FB00350544C017D0EBE51005D4CB
:10579000B04200D9304680B2BDE8F8830020F7E778
:1057A00081808080BE0200200000C84238B5AC4B2A
:1057B0001B7803B138BD0446AA4B1B681D78002036
:1057C000FFF77AFB854200D1A4B10020FFF774FBFC
:1057D000044600F041FE00FB04F0A34CA4FB0030A3
:1057E000C009A24B18809F4B1C680020FFF764FB88
:1057F000207001249B4B1B685D780120FFF75CFB48
:10580000854200D1ACB10120FFF756FB9849002337
:10581000B1F94820B1F94610FFF784FF0246002194
:10582000084600F0F1FD8F4B1D680120FFF744FB97
:1058300068708C4B1B689D780220FFF73DFB85420A
:1058400000D1ACB10220FFF737FB89490123B1F940
:105850004E20B1F94C10FFF765FF024601210020F0
:1058600000F0D2FD7F4B1D680220FFF725FBA870DA
:105870007C4B1B68DD780320FFF71EFB854200D1BF
:10588000ACB10320FFF718FB79490223B1F954208A
:10589000B1F95210FFF746FF02460221002000F046
:1058A000B3FD704B1D680320FFF706FBE8706D4BDE
:1058B0001B681D790420FFF7FFFA854200D1ACB1C7
:1058C0000420FFF7F9FA6A490023B1F94820B1F939
:1058D0004610FFF727FF02460021012000F094FD4B
:1058E000604B1D680420FFF7E7FA28715D4B1B68C9
:1058F0005D790520FFF7E0FA854200D1ACB10520C3
:10590000FFF7DAFA5A490123B1F94E20B1F94C10E8
:10591000FFF708FF02460121084600F075FD514BD4
:105920001D680520FFF7C8FA68714E4B1B689D790A
:105930000620FFF7C1FA854200D1ACB10620FFF77F
:10594000BBFA4B490223B1F95420B1F95210FFF7C9
:10595000E9FE02460221012000F056FD414B1D6880
:105960000620FFF7A9FAA8713E4B1B68DD790720D6
:10597000FFF7A2FA854200D1ACB10720FFF79CFAED
:105980003B490023B1F94820B1F94610FFF7CAFEA0
:1059900002460021022000F037FD324B1D6807202F
:1059A000FFF78AFAE8712F4B1B681D7A0820FFF772
:1059B00083FA854200D1ACB10820FFF77DFA2C496B
:1059C0000123B1F94E20B1F94C10FFF7ABFE0246AE
:1059D0000121022000F018FD224B1D680820FFF76E
:1059E0006BFA28721F4B1B685D7A0920FFF764FA77
:1059F000854200D1ACB10920FFF75EFA1C490223B1
:105A0000B1F95420B1F95210FFF78CFE0246022181
:105A1000084600F0F9FC134B1D680920FFF74CFA0B
:105A20006872104B1B689D7A0A20FFF745FA854281
:105A300002D1002C3FF4BEAE0A20FFF73DFA03234B
:105A400064220021FFF76EFE02460321022000F0CF
:105A5000DBFC044B1C680A20FFF72EFAA072A9E6B3
:105A6000BD020020C002002081808080BE02002094
:105A70008007002038B50D4B186808B103F008FA0C
:105A8000FFF7D4F903F0FCF90546084C2060FFF756
:105A9000CDF902460021284603F00DFA2368FF22C3
:105AA0001A700120FFF782FE38BD00BFC00200203F
:105AB00010B5FFF7AFF9012800D010BD0B20FFF79C
:105AC000FBF90B4B93F83030B0FBF3F0C0B2094B4D
:105AD0001B68DB7A8342F0D0FFF7EEFB04460146F9
