:020000040800F2
:1000000000500020117500080D6700080F670008F8
:10001000116700081367000815670008000000005A
:10002000000000000000000000000000176700084A
:1000300019670008000000001B6700081D67000822
:100040005975000859750008597500085975000858
:100050005975000859750008597500085975000848
:100060005975000859750008597500085975000838
:1000700059750008216700082D67000859750008A8
:1000800059750008597500088568000859750008F9
:100090003967000859750008597500085975000836
:1000A00059750008597500085975000859750008F8
:1000B00059750008597500085975000859750008E8
:1000C00059750008597500085975000859750008D8
:1000D00059750008BD43000859750008ED43000834
:1000E000597500085975000859750008000000008E
:1000F0000000000000000000000000000000000000
:0C01000000000000000000005FF808F1A3
:1001100010B5054C237833B9044B13B10448AFF341
:1001200000800123237010BD680200200000000041
:10013000A8A0000808B5034B1BB103490348AFF35F
:10014000008008BD000000006C020020A8A000088C
:10015000034613F8012B002AFBD1181A0138704707
:1001600081F0004102E000BF83F0004330B54FEA68
:1001700041044FEA430594EA050F08BF90EA020FD5
:100180001FBF54EA000C55EA020C7FEA645C7FEA68
:10019000655C00F0E2804FEA5454D4EB5555B8BF8B
:1001A0006D420CDD2C4480EA020281EA030382EAFC
:1001B000000083EA010180EA020281EA0303362D8E
:1001C00088BF30BD11F0004F4FEA01314FF4801C61
:1001D0004CEA113102D0404261EB410113F0004F73
:1001E0004FEA03334CEA133302D0524263EB43032A
:1001F00094EA050F00F0A780A4F10104D5F1200EC8
:100200000DDB02FA0EFC22FA05F2801841F1000122
:1002100003FA0EF2801843FA05F359410EE0A5F1F6
:1002200020050EF1200E012A03FA0EFC28BF4CF027
:10023000020C43FA05F3C01851EBE37101F00045DD
:1002400007D54FF0000EDCF1000C7EEB00006EEBEA
:100250000101B1F5801F1BD3B1F5001F0CD3490874
:100260005FEA30004FEA3C0C04F101044FEA4452CB
:1002700012F5800F80F09A80BCF1004F08BF5FEA52
:10028000500C50F1000041EB045141EA050130BD32
:100290005FEA4C0C404141EB010111F4801FA4F1D5
:1002A0000104E9D191F0000F04BF01460020B1FA2A
:1002B00081F308BF2033A3F10B03B3F120020CDA62
:1002C0000C3208DD02F1140CC2F10C0201FA0CF040
:1002D00021FA02F10CE002F11402D8BFC2F1200CA5
:1002E00001FA02F120FA0CFCDCBF41EA0C0190405B
:1002F000E41AA2BF01EB0451294330BD6FEA0404A4
:100300001F3C1CDA0C340EDC04F11404C4F120028E
:1003100020FA04F001FA02F340EA030021FA04F3A0
:1003200045EA030130BDC4F10C04C4F1200220FAF7
:1003300002F001FA04F340EA0300294630BD21FA35
:1003400004F0294630BD94F0000F83F4801306BFFB
:1003500081F480110134013D4EE77FEA645C18BFEF
:100360007FEA655C29D094EA050F08BF90EA020F86
:1003700005D054EA000C04BF1946104630BD91EA7E
:10038000030F1EBF0021002030BD5FEA545C05D181
:100390004000494128BF41F0004130BD14F58004C0
:1003A0003CBF01F5801130BD01F0004545F0FE4134
:1003B00041F470014FF0000030BD7FEA645C1ABF69
:1003C000194610467FEA655C1CBF0B46024650EAA0
:1003D000013406BF52EA033591EA030F41F40021CC
:1003E00030BD00BF90F0000F04BF0021704730B552
:1003F0004FF4806404F132044FF000054FF0000127
:1004000050E700BF90F0000F04BF0021704730B5E7
:100410004FF4806404F1320410F0004548BF4042BC
:100420004FF000013EE700BF42004FEAE2014FEA11
:1004300031014FEA02701FBF12F07F4393F07F4FEC
:1004400081F06051704732F07F4208BF704793F0EF
:100450007F4F04BF41F40021704730B54FF4607402
:1004600001F0004521F000411CE700BF50EA010205
:1004700008BF704730B54FF000050AE050EA0102AE
:1004800008BF704730B511F0004502D5404261EB1E
:1004900041014FF4806404F132045FEA915C3FF45F
:1004A000D8AE4FF003025FEADC0C18BF03325FEAFC
:1004B000DC0C18BF033202EBDC02C2F1200300FAAD
:1004C00003FC20FA02F001FA03FE40EA0E0021FAD2
:1004D00002F11444BDE600BF70B54FF0FF0C4CF4C0
:1004E000E06C1CEA11541DBF1CEA135594EA0C0F72
:1004F00095EA0C0F00F0DEF82C4481EA030621EAAD
:100500004C5123EA4C5350EA013518BF52EA0335E7
:1005100041F4801143F4801338D0A0FB02CE4FF099
:100520000005E1FB02E506F00042E0FB03E54FF0C9
:100530000006E1FB03569CF0000F18BF4EF0010EC1
:10054000A4F1FF04B6F5007F64F5407404D25FEABD
:100550004E0E6D4146EB060642EAC62141EA555170
:100560004FEAC52040EA5E504FEACE2EB4F1FD0CB2
:1005700088BFBCF5E06F1ED8BEF1004F08BF5FEA30
:10058000500E50F1000041EB045170BD06F00046E2
:1005900046EA010140EA020081EA0301B4EB5C048F
:1005A000C2BFD4EB0C0541EA045170BD41F4801187
:1005B0004FF0000E013C00F3AB8014F1360FDEBFAC
:1005C000002001F0004170BDC4F10004203C35DA88
:1005D0000C341BDC04F11404C4F1200500FA05F30B
:1005E00020FA04F001FA05F240EA020001F00042AC
:1005F00021F0004110EBD37021FA04F642EB060122
:100600005EEA430E08BF20EAD37070BDC4F10C044B
:10061000C4F1200500FA04F320FA05F001FA04F20F
:1006200040EA020001F0004110EBD37041F10001FB
:100630005EEA430E08BF20EAD37070BDC4F1200506
:1006400000FA05F24EEA020E20FA04F301FA05F26E
:1006500043EA020321FA04F001F0004121FA04F216
:1006600020EA020000EBD3705EEA430E08BF20EAE6
:10067000D37070BD94F0000F0FD101F00046400020
:1006800041EB010111F4801F08BF013CF7D041EAA2
:10069000060195F0000F18BF704703F000465200A6
:1006A00043EB030313F4801F08BF013DF7D043EA77
:1006B0000603704794EA0C0F0CEA135518BF95EA2D
:1006C0000C0F0CD050EA410618BF52EA4306D1D1B4
:1006D00081EA030101F000414FF0000070BD50EAD3
:1006E000410606BF1046194652EA430619D094EA5D
:1006F0000C0F02D150EA013613D195EA0C0F05D147
:1007000052EA03361CBF104619460AD181EA03019A
:1007100001F0004141F0FE4141F470014FF0000052
:1007200070BD41F0FE4141F4780170BD70B54FF0ED
:10073000FF0C4CF4E06C1CEA11541DBF1CEA13556D
:1007400094EA0C0F95EA0C0F00F0A7F8A4EB05044F
:1007500081EA030E52EA03354FEA013100F0888046
:100760004FEA03334FF0805545EA131343EA12630F
:100770004FEA022245EA111545EA10654FEA0026C4
:100780000EF000419D4208BF964244F1FD0404F57D
:10079000407402D25B084FEA3202B61A65EB0305D9
:1007A0005B084FEA32024FF480104FF4002CB6EB96
:1007B000020E75EB030E22BFB61A754640EA0C0016
:1007C0005B084FEA3202B6EB020E75EB030E22BF56
:1007D000B61A754640EA5C005B084FEA3202B6EB97
:1007E000020E75EB030E22BFB61A754640EA9C0056
:1007F0005B084FEA3202B6EB020E75EB030E22BF26
:10080000B61A754640EADC0055EA060E18D04FEAE3
:10081000051545EA16754FEA06164FEAC30343EA83
:1008200052734FEAC2025FEA1C1CC0D111F4801F50
:100830000BD141EA00014FF000004FF0004CB6E749
:1008400011F4801F04BF01430020B4F1FD0C88BFE8
:10085000BCF5E06F3FF6AFAEB5EB030C04BFB6EBF3
:10086000020C5FEA500C50F1000041EB045170BDE6
:100870000EF0004E4EEA113114EB5C04C2BFD4EB13
:100880000C0541EA045170BD41F480114FF0000E97
:10089000013C90E645EA060E8DE60CEA135594EA13
:1008A0000C0F08BF95EA0C0F3FF43BAF94EA0C0F16
:1008B0000AD150EA01347FF434AF95EA0C0F7FF48B
:1008C00025AF104619462CE795EA0C0F06D152EADF
:1008D00003353FF4FDAE1046194622E750EA4106C3
:1008E00018BF52EA43067FF4C5AE50EA41047FF4D4
:1008F0000DAF52EA43057FF4EBAE12E74FF0FF3C39
:1009000006E000BF4FF0010C02E000BF4FF0010C09
:100910004DF804CD4FEA410C7FEA6C5C4FEA430C82
:1009200018BF7FEA6C5C1BD001B050EA410C0CBFD1
:1009300052EA430C91EA030F02BF90EA020F002033
:10094000704710F1000F91EA030F58BF994208BF9A
:1009500090422CBFD8176FEAE37040F00100704757
:100960004FEA410C7FEA6C5C02D150EA013C07D1AE
:100970004FEA430C7FEA6C5CD6D152EA033CD3D0F9
:100980005DF8040B704700BF8446104662468C46F3
:100990001946634600E000BF01B5FFF7B7FF002826
:1009A00048BF10F1000F01BD4DF808EDFFF7F4FF4F
:1009B0000CBF012000205DF808FB00BF4DF808EDDA
:1009C000FFF7EAFF34BF012000205DF808FB00BFFD
:1009D0004DF808EDFFF7E0FF94BF012000205DF81F
:1009E00008FB00BF4DF808EDFFF7CEFF94BF0120D4
:1009F00000205DF808FB00BF4DF808EDFFF7C4FFCD
:100A000034BF012000205DF808FB00BF4FEA410C15
:100A10007FEA6C5C02D150EA013C0AD14FEA430CF8
:100A20007FEA6C5C02D152EA033C02D14FF0000035
:100A300070474FF0010070474FEA410212F5001273
:100A400015D211D56FF47873B3EB625212D94FEA15
:100A5000C12343F0004343EA505311F0004F23FAFF
:100A600002F018BF404270474FF00000704750EA54
:100A7000013005D111F0004008BF6FF00040704711
:100A80004FF00000704700BF4FEA4102B2F1E0436F
:100A900024BFB3F5001CDCF1FE5C0DD901F0004C65
:100AA0004FEAC0024CEA5070B2F1004F40EB8300B5
:100AB00008BF20F00100704711F0804F21D113F1E1
:100AC0003872BCBF01F00040704741F480114FEA1A
:100AD0005252C2F11802C2F1200C10FA0CF320FAA3
:100AE00002F018BF40F001004FEAC1234FEAD323C0
:100AF00003FA0CFC40EA0C0023FA02F34FEA43032A
:100B0000CCE77FEA625307D150EA01331EBF4FF0B2
:100B1000FE4040F44000704701F0004040F0FE40CD
:100B200040F40000704700BF80F0004002E000BFCA
:100B300081F0004142001FBF5FEA410392EA030FC8
:100B40007FEA226C7FEA236C6AD04FEA1262D2EB12
:100B50001363C1BFD218414048404140B8BF5B4217
:100B6000192B88BF704710F0004F40F4000020F0B0
:100B70007F4018BF404211F0004F41F4000121F0C6
:100B80007F4118BF494292EA030F3FD0A2F1010210
:100B900041FA03FC10EB0C00C3F1200301FA03F14E
:100BA00000F0004302D5494260EB4000B0F5000F71
:100BB00013D3B0F1807F06D340084FEA310102F130
:100BC0000102FE2A51D2B1F1004F40EBC25008BFE2
:100BD00020F0010040EA03007047490040EB0000AC
:100BE00010F4000FA2F10102EDD1B0FA80FCACF1DB
:100BF000080CB2EB0C0200FA0CF0AABF00EBC250DA
:100C000052421843BCBFD0401843704792F0000FC7
:100C100081F4000106BF80F400000132013BB5E71A
:100C20004FEA41037FEA226C18BF7FEA236C21D090
:100C300092EA030F04D092F0000F08BF08467047F5
:100C400090EA010F1CBF0020704712F07F4F04D1C3
:100C5000400028BF40F00040704712F100723CBFD6
:100C600000F50000704700F0004343F0FE4040F400
:100C7000000070477FEA226216BF08467FEA2363BE
:100C80000146420206BF5FEA412390EA010F40F4A9
:100C9000800070474FF0000304E000BF10F00043F5
:100CA00048BF40425FEA000C08BF704743F09643DC
:100CB00001464FF000001CE050EA010208BF7047F7
:100CC0004FF000030AE000BF50EA010208BF70477E
:100CD00011F0004302D5404261EB41015FEA010C93
:100CE00002BF84460146002043F0B64308BFA3F18B
:100CF0008053A3F50003BCFA8CF2083AA3EBC2536D
:100D000010DB01FA02FC634400FA02FCC2F120028B
:100D1000BCF1004F20FA02F243EB020008BF20F0C2
:100D20000100704702F1200201FA02FCC2F1200228
:100D300050EA4C0021FA02F243EB020008BF20EA1D
:100D4000DC7070474FF0FF0C1CEAD0521EBF1CEA4B
:100D5000D15392EA0C0F93EA0C0F6FD01A4480EA39
:100D6000010C400218BF5FEA41211ED04FF0006322
:100D700043EA501043EA5111A0FB01310CF000404E
:100D8000B1F5000F3EBF490041EAD3715B0040EA74
:100D9000010062F17F02FD2A1DD8B3F1004F40EB44
:100DA000C25008BF20F00100704790F0000F0CF017
:100DB000004C08BF49024CEA502040EA51207F3ADB
:100DC000C2BFD2F1FF0340EAC250704740F40000B6
:100DD0004FF00003013A5DDC12F1190FDCBF00F0A7
:100DE00000407047C2F10002410021FA02F1C2F155
:100DF000200200FA02FC5FEA310040F1000053EAF1
:100E00004C0308BF20EADC70704792F0000F00F03E
:100E1000004C02BF400010F4000F013AF9D040EA44
:100E20000C0093F0000F01F0004C02BF490011F4D8
:100E3000000F013BF9D041EA0C018FE70CEAD153D6
:100E400092EA0C0F18BF93EA0C0F0AD030F0004C56
:100E500018BF31F0004CD8D180EA010000F000400A
:100E6000704790F0000F17BF90F0004F084691F0C8
:100E7000000F91F0004F14D092EA0C0F01D1420202
:100E80000FD193EA0C0F03D14B0218BF084608D1CB
:100E900080EA010000F0004040F0FE4040F4000015
:100EA000704740F0FE4040F4400070474FF0FF0CA8
:100EB0001CEAD0521EBF1CEAD15392EA0C0F93EAEF
:100EC0000C0F69D0A2EB030280EA010C49024FEA41
:100ED000402037D04FF0805343EA111143EA1013FA
:100EE0000CF000408B4238BF5B0042F17D024FF4B2
:100EF000000C8B4224BF5B1A40EA0C00B3EB510F8D
:100F000024BFA3EB510340EA5C00B3EB910F24BF75
:100F1000A3EB910340EA9C00B3EBD10F24BFA3EBFA
:100F2000D10340EADC001B0118BF5FEA1C1CE0D1C2
:100F3000FD2A3FF650AF8B4240EBC25008BF20F075
:100F4000010070470CF0004C4CEA50207F32C2BFC9
:100F5000D2F1FF0340EAC250704740F400004FF066
:100F60000003013A37E792F0000F00F0004C02BF97
:100F7000400010F4000F013AF9D040EA0C0093F061
:100F8000000F01F0004C02BF490011F4000F013BBB
:100F9000F9D041EA0C0195E70CEAD15392EA0C0F23
:100FA00008D142027FF47DAF93EA0C0F7FF470AF5B
:100FB000084676E793EA0C0F04D14B023FF44CAF9E
:100FC00008466EE730F0004C18BF31F0004CCAD133
:100FD00030F000427FF45CAF31F000437FF43CAF6F
:100FE0005FE700BF4FF0FF3C06E000BF4FF0010C91
:100FF00002E000BF4FF0010C4DF804CD4FEA400273
:101000004FEA41037FEA226C18BF7FEA236C11D0BC
:1010100001B052EA530C18BF90EA010F58BFB2EB6F
:10102000030088BFC81738BF6FEAE17018BF40F0EF
:10103000010070477FEA226C02D15FEA402C05D1A3
:101040007FEA236CE4D15FEA412CE1D05DF8040B28
:10105000704700BF844608466146FFE70FB5FFF7BB
:10106000C9FF002848BF10F1000F0FBD4DF808ED73
:10107000FFF7F4FF0CBF012000205DF808FB00BF64
:101080004DF808EDFFF7EAFF34BF012000205DF8BE
:1010900008FB00BF4DF808EDFFF7E0FF94BF01200B
:1010A00000205DF808FB00BF4DF808EDFFF7D2FF08
:1010B00094BF012000205DF808FB00BF4DF808ED4B
:1010C000FFF7C8FF34BF012000205DF808FB00BF18
:1010D0004FEA4002B2F1FE4F0FD34FF09E03B3EB45
:1010E00012620DD94FEA002343F0004310F0004F85
:1010F00023FA02F018BF404270474FF000007047DB
:1011000012F1610F01D1420205D110F0004008BF79
:101110006FF0004070474FF00000704742000ED261
:10112000B2F1FE4F0BD34FF09E03B3EB126209D422
:101130004FEA002343F0004323FA02F070474FF0D8
:101140000000704712F1610F01D1420202D14FF04D
:10115000FF3070474FF00000704700BF38B50E4BAE
:10116000054618784FF47A73B3FBF0F30B4A106816
:10117000B0FBF3F000F0C8FA044658B90F2D09D8B7
:10118000024629464FF0FF3000F07CFA2046044B1F
:101190001D6038BD0120FCE7000000207400002025
:1011A00004000020074A08B51368032043F0100329
:1011B000136000F055FA0020FFF7D0FF05F0CAF9E0
:1011C000002008BD00200240034A044B11681B7830
:1011D0000B441360704700BFD805002000000020BA
:1011E000014B1868704700BFD80500200368D86C11
:1011F00070477047036810B55A680446900627D5B3
:101200001A68910724D5A26AD2065EBFA26A42F488
:101210000072A2629A6802F46022B2F5602F10D1C7
:10122000227B72B95A6822F020025A60A36A23F422
:101230008073A362A36ADB045EBFA36A43F0010369
:10124000A362204605F024FB6FF0120223681A60A7
:1012500023685A68100630D51A6851072DD5A26A3E
:10126000D2065EBFA26A42F40052A2629A6802F4F9
:10127000E042B2F5E04F0AD05A68500516D49A6899
:1012800002F46022B2F5602F10D1227B72B95A6845
:1012900022F080025A60A36A23F48053A362A36AF7
:1012A000D9055EBFA36A43F00103A362204600F0A4
:1012B000D5F96FF00C0223681A6023685A68520649
:1012C0000DD51B68DB070AD5A36A204643F480339B
:1012D000A362FFF78EFF6FF0010223681A6010BD52
:1012E000002373B5019390F82430012B6DD00123B6
:1012F0004D6880F82430062D026805EB85030C68E4
:1013000023D81F26556B053B9E4025EA060504FAA7
:1013100003F32B435363092C8B6804EB44054FF014
:1013200007012AD9D6681E3DA94026EA0101AB4033
:101330000B43D360A4F11003012B26D90023002214
:1013400080F82420184602B070BD0C2D4FF01F0508
:1013500009D8166B233B9D4026EA050504FA03F3E2
:101360002B431363D7E7D66A413B9D4026EA050528
:1013700004FA03F32B43D362CDE71669A94026EAAA
:101380000101AB400B431361D4E7114B9A4216D1D4
:1013900093681B02D2D49368102C43F4000393602B
:1013A000CCD10C4B0C4A1B68B3FBF2F20A2353431B
:1013B0000193019B002BC1D0019B013BF8E7836A9D
:1013C00043F0200383620123B9E70223BAE700BF99
:1013D000002401407400002040420F00002373B538
:1013E0000193036804469A68D20702D5002002B030
:1013F00070BD9A6842F001029A60124B124A1B6853
:10140000B3FBF2F30193019BC3B9FFF7E9FE064674
:1014100023689D6815F00105E8D1FFF7E1FE801B08
:101420000228F5D9A36A84F8245043F01003A3627C
:10143000E36A012043F00103E362D8E7019B013B2B
:10144000E0E700BF7400002040420F0090F8243015
:1014500010B5012B044658D0012380F82430FFF743
:10146000BDFF00284DD1A36A294A23F4706323F0FD
:10147000010343F48073A3622368934204D1254996
:101480004A6812F4702F32D1A26A22F48012A2624A
:101490005A68520541BFA26A22F4405242F4805277
:1014A000A262A26A12F480521CBFE26A22F0060213
:1014B000E262002284F824206FF002021A605A6867
:1014C00042F020025A609A6802F46022B2F5602F5E
:1014D00013D10F4A934205D1A2F58062526812F4EB
:1014E000702F0AD19A6842F4A0029A6010BDA26AD5
:1014F00042F48012A2624A68CBE79A6842F48012F2
:10150000F3E7002384F82430F0E70220EEE700BF81
:10151000002801400024014038B5036804469A6859
:10152000D20701D4002038BD9A6822F001029A60E7
:10153000FFF756FE054623689B68DB07F2D5FFF7E9
:101540004FFE401B0228F6D9A36A012043F0100386
:10155000A362E36A43F00103E362E4E770B5044683
:10156000002870D0836A23B9C36280F8243005F064
:1015700013F82046FFF7D0FFA36A13F0100FA36AF9
:1015800063D1002861D1E16923F48853626823F0B4
:10159000020343F002030A43A168A362237BB1F56F
:1015A000807F42EA430237D0012914BF06464FF438
:1015B0008076257D012D06D183BBA369013B46EAD8
:1015C000433545F400662368B1F5807F5D6825F4F6
:1015D000694545EA06055D609E681E4D05EA0605FB
:1015E00045EA02059D6001D0012920D12169013918
:1015F0000905DD6A25F470052943D9629968164BFF
:101600000B409A4215D10023E362A36A23F003033F
:1016100043F00103A36270BD0E46CAE7A36A43F01C
:101620002003A362E36A43F00103E362CBE70021F6
:10163000DFE7A36A23F0120343F01003A362E36A17
:1016400043F00103E3620120E5E743F01003A362E6
:10165000F9E700BFFDF7E1FFFE0E1FFF7047000036
:10166000074A0002D36800F4E06023F4E0631B043F
:101670001B0C43F0BF6343F400330343D360704754
:1016800000ED00E0174B70B5DC684FF0FF36C4F397
:101690000224C4F10705042D04F1040328BF042526
:1016A000062B98BF002406FA05F388BF033C21EA05
:1016B0000303A34006FA04F422EA0404002843EAE0
:1016C0000403A8BF00F160404FEA0313B8BF064A05
:1016D000DBB2ABBF00F5614000F00F0080F80033D3
:1016E000135470BD00ED00E014ED00E0002808DBAD
:1016F0000123420900F01F0003FA00F0014B43F8F8
:101700002200704700E100E00138B0F1807F0AD28A
:10171000F021064B064A586082F823100020072269
:1017200098601A6070470120704700BF10E000E029
:1017300000ED00E010B530B314220168134B0B44E8
:10174000B3FBF2F39B000364114B0A68C363D0E957
:1017500001342343C46822F47F522343046922F0F6
:10176000300223434469234384692343C4692343E8
:1017700013430B600122002380F82120836380F84B
:101780002030184610BD0120FCE700BFF8FFFDBF68
:1017900000000240F0B590F82040012C35D0012423
:1017A00090F8215080F82040A5424FF000064FF0FD
:1017B000020428D180F8214004688663266826F058
:1017C00001062660D0E90F67BD407560636043681D
:1017D0000568102BC36A0BBFA260A160E160E260E4
:1017E0004BB1236843F00E03002023602B6843F0C5
:1017F00001032B60F0BD236823F0040323602368FA
:1018000043F00A03F0E780F820600220F2E70000CE
:1018100090F8213010B5022B03D0042383630120FC
:1018200010BD03681A6822F00E021A601A6822F0CE
:1018300001021A60184A93421FD0143293421ED0FC
:10184000143293421DD0143293421DD0143293426D
:101850001DD0143293420CBF4FF480134FF08073AD
:101860000E4A00245360012380F82130436B80F836
:1018700020407BB198472046D2E70123F0E71023B0
:10188000EEE74FF48073EBE74FF48053E8E74FF453
:101890008033E5E71846C3E7080002400000024035
:1018A00070B40425C66B026C346803689540254209
:1018B000196832D04D0730D51A6896065EBF1A688F
:1018C00022F004021A603E4A934219D01432934225
:1018D00018D01432934217D01432934217D01432D6
:1018E000934217D0143293420CBF4FF480034FF051
:1018F0008063344A5360C36A002B5ED070BC1847C3
:101900000423F6E74023F4E74FF48063F1E74FF454
:101910008043EEE74FF48023EBE702259540254214
:1019200035D08D0733D51A68940606D41A6822F08C
:101930000A021A60012280F82120214A934219D01C
:101940001432934218D01432934217D01432934277
:1019500017D01432934217D0143293420CBF4FF475
:1019600000134FF00073174A5360002380F82030B3
:10197000836AC1E70223F6E72023F4E74FF40073FC
:10198000F1E74FF40053EEE74FF40033EBE708259F
:101990009540254211D009070FD5196821F00E0195
:1019A0001960012303FA02F27260836380F8213028
:1019B000002380F82030036B9EE770BC704700BFA7
:1019C0000800024000000240114AD36813F01003DF
:1019D00005D01049CB6943F00203CB611023D268D4
:1019E000500706D50B4943F00403CA6942F00102CF
:1019F000CA61074AD169C90708D50648C16941F0DB
:101A00000401C161D16921F00101D161D360704746
:101A100000200240E0050020064B186910F080000D
:101A200007D0054A5A6002F188325A601869C0F33B
:101A3000C01070470020024023016745034A002080
:101A4000136943F080031361704700BF0020024018
:101A5000F8B50646FFF7C4FB114C07462546E36878
:101A6000D80712D4E368990644BF2023E360EB68EB
:101A7000DA0606D4EB69DB0703D4E86810F004004B
:101A800007D0FFF7A1FF012003E0731CE7D00EB9D8
:101A90000320F8BDFFF7A4FBC01BB042DFD9F7E776
:101AA000002002402DE9F84F244C1E46237E0546B7
:101AB000012B0F4690463FD001234CF25030237645
:101AC000FFF7C6FFA0BB012D03D0022D0CBF0225DE
:101AD00004254FF00009CB46DFF864A04FEA091354
:101AE000C3F12001A3F1200206FA01F128FA03F361
:101AF000C4F81CB00B4326FA02F21343DAF81020A4
:101B00009BB242F00102CAF810204CF2503027F884
:101B10001930FFF79DFFDAF8103023F00103CAF8FF
:101B2000103028B909F101095FFA89F39D42D5D82F
:101B300000232376BDE8F88F0220FBE7E0050020B4
:101B4000002002400022064BDA61064B1A6942F07F
:101B500004021A611A6942F040021A61704700BF1C
:101B6000E0050020002002400022064BDA61064B0F
:101B70001A6942F002021A6158611A6942F0400281
:101B80001A617047E0050020002002402DE9F04175
:101B9000224D07462B7E8846012B3DD00124036849
:101BA0002C76022B4CF2503013D1FFF751FF20B1AD
:101BB000012000232B76BDE8F081FFF7C3FF4CF234
:101BC0005030FFF745FF164A136923F004031361F1
:101BD000EFE7FFF73DFF0028EAD14FF0FF33C8F8E9
:101BE00000302046BE680E4CD7E9023203EB822358
:101BF000B342DED93046FFF7B7FF4CF25030FFF763
:101C000027FF236923F00203236110B1C8F80060A5
:101C1000CFE706F58066E7E70220CCE7E005002085
:101C2000002002402DE9F74F00242646654BDFF8DF
:101C3000A4C1DFF8A4E10A6832FA06F502D103B0C4
:101C4000BDE8F08F4FF0010808FA06F802EA080232
:101C500090457ED14D68122D00F0A98000F282805F
:101C6000022D00F0A18076D8002D00F08880012D93
:101C700000F098804FF00F09FF2A93BF824606F1CB
:101C80008045083DD0F800B092BFB500D0F804B050
:101C9000AD0009FA05F82BEA080804FA05F588BF33
:101CA00000F1040A48EA0505CAF80050D1F804A07A
:101CB0001AF0805F4DD0444F26F00308BD6908F14B
:101CC000804845F00105BD61BD6908F5803805F023
:101CD0000105019506F0030B019D4FEA8B0BD8F827
:101CE000085009FA0BF925EA0909384DA84263D0D2
:101CF00005F58065A84261D005F58065A8425FD0F2
:101D000005F58065A8420CBF0325042505FA0BF5EF
:101D100045EA0905C8F808501D681AF4803F14BF49
:101D2000154395431D605D681AF4003F14BF1543C9
:101D300095435D609D681AF4801F14BF1543954359
:101D40009D60DD681AF4001F14BF2A4325EA0202D1
:101D5000DA6001366FE7032D22D0112D8AD1CC68CD
:101D6000043487E71A4FBD4209D012D8DFF86C90CF
:101D70004D4504D009F580394D457FF47BAF8C6823
:101D8000C4B1012C0CBFC0F81080C0F81480082426
:101D900070E76545F3D07545F1D0DFF84490EBE787
:101DA000002467E7CC6865E7CC68083462E7CC6854
:101DB0000C345FE704245DE70025A7E70125A5E7CC
:101DC0000225A3E700040140001002400008014082
:101DD000000021100000311000003210000011102E
:101DE000000022108368194214BF012000207047B0
:101DF0000AB1016170470904FBE790F8282210B589
:101E0000012A04460BD0012280F8282284F82410ED
:101E1000006801F01EFE002084F8280210BD022098
:101E2000FCE770B5044601F0070511F0800F4FEA9A
:101E3000451014BF00F1280100F5947104EB000671
:101E400017BF01200020091986F8290004BF0919CD
:101E500086F829010A614A780D70CB7002B1CD81F4
:101E6000022B04BF00230B7194F82832012B09D0F8
:101E70000123206884F8283201F032FC002084F825
:101E8000280270BD0220FCE770B5002601F00701B2
:101E90004D01441984F8281105F594710144C4F8E2
:101EA0003C21C4F84031C4F8446184F829610068D9
:101EB00001F0EAFD304670BD01F0070170B54D013B
:101EC0004419C4E90F230026012384F8281005F1E2
:101ED00028010144666484F82930006801F0D4FDCB
:101EE000304670BD2DE9F84F0446006801F0B7FD9B
:101EF00002040BD5DFF80C94DFF80CA4DFF80CB467
:101F00002068B0F844301B0400F19E80206801F086
:101F1000A6FD43050FD522682046B2F8443023F4CD
:101F200080631B041B0CA2F8443004F0BCFD0021AC
:101F30002046FFF762FF206801F091FD470408D5B5
:101F40002268B2F8443023F480431B041B0CA2F82F
:101F50004430206801F083FD860408D52268B2F879
:101F6000443023F400531B041B0CA2F844302068B7
:101F700001F075FDC5041CD522682046B2F840303A
:101F800023F004031B041B0CA2F84030B2F84030CD
:101F900023F008031B041B0CA2F8403004F0A6FD3C
:101FA0002268B2F8443023F480531B041B0CA2F8BF
:101FB0004430206801F053FD000524D52068B0F8B6
:101FC000403043F00803A0F84030B0F8443023F428
:101FD00000631B041B0CA0F84430B0F8403043F001
:101FE0000403A0F8403001F03AFDC10408D522688E
:101FF000B2F8443023F480531B041B0CA2F8443085
:10200000204604F063FD206801F029FD82050BD510
:1020100022682046B2F8443023F400731B041B0CE2
:10202000A2F8443004F03BFD206801F018FDC30520
:1020300008D52268B2F8443023F480731B041B0CCB
:10204000A2F84430BDE8F88FB0F8441089B211F01E
:102050000F0640F0B18011F0100103882AD109EA7F
:10206000030343F400430380B0F8503094F8282071
:1020700003EBC20300EB4300B0F80434E26BC3F39C
:10208000090363641344E363204604F001FD94F8FC
:102090002430002B3FF434AF226C002A7FF430AFA1
:1020A00094F82430216843F08003A1F84C3084F880
:1020B000242025E79BB213F4006520D0B0F85030FF
:1020C00094F8282104F50C7103EBC20300EB4303E1
:1020D000B3F80C34B4F82E21C3F30903C4F8443127
:1020E00001F0A6FD22682046138823F070031B052B
:1020F0001B0D43F08003138004F0BCFC00E71F04B9
:102100007FF5FEAE038823F070031B051B0D43F023
:1021100080030380B0F8503094F8282103EBC20309
:1021200000EB4303B3F80C34C3F30903C4F84431A0
:102130008BB1D4F83C1171B1B4F82E2101F078FDC7
:10214000D4F83C31D4F8442129461344C4F83C3136
:10215000204604F095FC2168D4F83851B1F850308D
:1021600001F20C409BB2BDB9C25A22F4F8421204EB
:10217000120CC252C25A4AEA020292B2C2520B88EE
:1021800023F4804323F0700383F4405343F400436B
:1021900043F080030B80B3E63E2D05D86A08EE07B6
:1021A00048BF01329202E8E76A09ED0608BF02F172
:1021B000FF324AEA8222E0E730F826801FFA88F8E8
:1021C00018F4004F3CD030F82630770123F070032C
:1021D0001B051B0D43F0800320F82630E11991F810
:1021E000343100F58062002B50D1B0F8503091F8B6
:1021F0002851063303EBC50332F81350C5F3090524
:1022000035B1B1F82E212B46D1F83C1101F010FD6B
:10221000E119D1F84431D1F83C212B44C1F84431C3
:10222000D1F840312A44C1F83C211BB1D1F8380122
:1022300085425DD2274497F82811204604F020FCFF
:1022400018F0800F3FF45CAE2368204633F8262058
:1022500009EA020242F4004223F82620B3F8502093
:1022600004EB461696F82810023202EBC10203EB8B
:102270004203B3F80024F36BC2F3090272641A44F8
:10228000336CF263D3BB04F003FC39E691F82831D8
:1022900030F82350DB0015F4804FB0F850502B4439
:1022A0001BD0023332F81350C5F3090535B12B4664
:1022B000B1F83021D1F83C1101F0BAFCE31993F8E0
:1022C0002811226832F821300BEA030343F400435B
:1022D00043F0C00322F821309AE7063332F8135056
:1022E000C5F30905002DE9D02B46B1F83221E1E70D
:1022F00091F828112046FFF7C7FDA1E7FFF7DCFDA5
:10230000FEE500BF0F8FFFFF0080FFFF8F8FFFFFF5
:1023100038B5436801F007059D42044628D80B06EE
:102320001DD501226B0103F128010344014483F808
:10233000292001230D708B7094F828229A4219D01D
:1023400084F82832206801F025FB25B904F50C71CA
:10235000206801F087FB002084F8280238BD0022A5
:102360004B0103F594710344014483F82921E0E70C
:102370000120F3E70220F1E738B5436801F00F02CE
:102380009A42044627D801F0070211F0800F4FEA65
:10239000421314BF03F1280103F5947118444FF060
:1023A000000515BF012300230919091914BF80F87E
:1023B000293080F829318D700A7094F82832012B69
:1023C0000BD00123206884F8283201F0FFFA284658
:1023D00084F8285238BD0120FCE70220FAE700000B
:1023E0002DE9F341054608B901203CE00368DB070D
:1023F00010D42B689F075DD42B68190700F19480D7
:102400002B685A0700F1BE80E869002840F02C8153
:10241000002028E08F4C636803F00C03042B07D0E6
:10242000636803F00C03082B09D16368DE0306D54B
:1024300023689C03DDD56B68002BDAD1D4E76B6889
:10244000B3F5803F12D1236843F480332360FEF755
:10245000C7FE064623689803CBD4FEF7C1FE801B57
:102460006428F7D9032002B0BDE8F0819BB9236846
:1024700023F480332360236823F480232360FEF752
:10248000AFFE064623689903B3D5FEF7A9FE801B6D
:102490006428F7D9E6E7B3F5A02F236803D143F406
:1024A00080232360CFE723F480332360236823F461
:1024B0008023CBE7674C636813F00C0F07D0636889
:1024C00003F00C03082B10D16368DA030DD42368E2
:1024D0009B0702D52B69012B86D123686A6923F0FB
:1024E000F80343EAC203236086E72A695A4B6AB1BC
:1024F00001221A60FEF774FE064623689F07ECD49B
:10250000FEF76EFE801B0228F7D9ABE71A60FEF7D4
:1025100067FE0646236898077FF56EAFFEF760FEFC
:10252000801B0228F6D99DE7AA694A4C4B4BDAB1C9
:1025300001221A60FEF754FE0646636A9B070DD51A
:102540004FF4FA52464B1B68B3FBF2F3019300BF02
:10255000019B5A1E0192002BF9D151E7FEF740FE74
:10256000801B0228E9D97DE71A60FEF739FE06468E
:10257000636A9F077FF544AFFEF732FE801B022897
:10258000F6D96FE7334CE369D80024D40127E36917
:1025900043F08053E361E36903F080530093009BB1
:1025A000304E3368D90518D5EB68012B26D1236A44
:1025B00043F001032362FEF713FE41F288368046A2
:1025C000236A9B073FD5002F3FF41EAFE36923F03A
:1025D0008053E36118E70027E2E7336843F4807330
:1025E0003360FEF7FDFD80463368DA05DCD4FEF784
:1025F000F7FDA0EB08006428F6D933E7ABB9236AEE
:1026000041F2883823F001032362236A23F0040394
:102610002362FEF7E5FD0646236A9807D3D5FEF749
:10262000DFFD801B4045F7D91CE7052B236A03D14A
:1026300043F004032362BAE723F001032362236A11
:1026400023F00403B6E7FEF7CBFDA0EB0800B04291
:10265000B6D907E70010024000004242800442421F
:1026600074000020007000402A4B5A681C4602F09B
:102670000C02082A3DD00023274E022833602BD1BC
:10268000FEF7AEFD0746236899011FD42B6AB3F508
:10269000803F05D16268A96822F400320A43626073
:1026A000696A62680B4322F4741213436360012366
:1026B0003360FEF795FD054623689A013FF5A8AE05
:1026C000FEF78EFD401B0228F6D9CBE6FEF788FD0B
:1026D000C01B0228D7D9C5E6FEF782FD0546236850
:1026E0009B017FF595AEFEF77BFD401B0228F6D9D6
:1026F000B8E601283FF4B7AE58682B6A00F4803280
:102700009A427FF471AE6B6A00F47010C01A18BF61
:102710000120A8E6001002406000424230B5184B8C
:1027200087B002AC03F110052246186859680833D7
:1027300003C2AB421446F7D140F201231149ADF870
:1027400004304B6803F00C02082A17D1C3F383420C
:1027500006A80244DB0312F8102C0CD54B680A487B
:10276000C3F34043504306AA134413F8143CB0FB90
:10277000F3F007B030BD05485043FAE70248F8E7E8
:10278000C0A000080010024000127A0000093D00BD
:102790002DE9F0410D46044610B90120BDE8F08155
:1027A000444A136803F007038B4228D321688E073D
:1027B00030D4CA0743D43F4A136803F00703AB423F
:1027C00065D822683C4D12F0040F6CD1130706D572
:1027D0006B68226923F4605343EAC2036B60FFF71E
:1027E0009DFF6B68354AC3F30313D35CD840344B69
:1027F0001860344B1868FEF7B1FC0020CEE7136870
:1028000023F007030B431360136803F007038B42A5
:10281000C3D1CBE7284B11F0040F1EBF5A6842F416
:10282000E0625A60080742BF5A6842F460525A6038
:102830005A68A06822F0F00202435A60B9E7626861
:102840001D4E012A33681AD113F4003FA5D07368D6
:1028500041F2883823F0030313437360FEF7C0FC92
:1028600007467368626803F00C03B3EB820FA2D0D3
:10287000FEF7B6FCC01B4045F3D903208EE7022AC1
:1028800002D113F0007FE1E713F0020FDEE71368D7
:1028900023F007032B431360136803F00703AB42D5
:1028A0007FF47BAF8DE76B68E16823F4E0630B4353
:1028B0006B608BE70020024000100240E2AE00088F
:1028C0007400002004000020044B054A5B68C3F339
:1028D0000223D35C034A1068D840704700100240BE
:1028E000F2AE000874000020044B054A5B68C3F395
:1028F000C223D35C034A1068D840704700100240DE
:10290000F2AE00087400002003682DE9F341D907F6
:10291000054620D5354CE369DA0032D40127E36956
:1029200043F08053E361E36903F080530193019B1B
:102930002F4E3368DB0526D5236A13F4407336D156
:10294000236A6A6823F44073134323621FB1E36967
:1029500023F08053E3612868830706D5234AA968DA
:10296000536823F440430B43536010F010001BD016
:102970001E4AE9685368002023F480030B43536028
:1029800012E00027D4E7336843F480733360FEF726
:1029900027FC80463368D805CED4FEF721FCA0EB97
:1029A00008006428F6D9032002B0BDE8F0816A6807
:1029B00002F440729A42C3D001200E4A236A10608A
:1029C000002023F4407110602162D907B8D5FEF7CA
:1029D00007FC41F288380646236A9A07B0D4FEF70E
:1029E000FFFB801B4045F7D9DDE700BF0010024028
:1029F0000070004040044242F8B504460E461546B9
:102A00001F4621688A6836EA020301D000202DE0C3
:102A10006B1CF7D0FEF7E4FBC01B8542F1D823689E
:102A20005A6822F0E0025A606268B2F5827F0AD1E9
:102A3000A268B2F5004F02D0B2F5806F03D11A68D8
:102A400022F040021A60A26AB2F5005F07D11A684C
:102A500022F400521A601A6842F400521A600123EC
:102A600084F851300023032084F85030F8BD10B5AD
:102A700013460A4680210446FFF7BEFF20B103201B
:102A8000636D43F02003636510BD704710B50446C5
:102A9000002834D00023836290F8513003F0FF0205
:102AA0001BB980F85020FFF7F0FF0223226884F85A
:102AB00051301368A16923F040031360D4E9013059
:102AC0000343E06803432069034360690343E0690B
:102AD0000343206A0343A06A034301F40070090C16
:102AE000034301F0040113605160D369002023F413
:102AF0000063D3610123606584F8513010BD01206B
:102B0000FCE72DE9F3411E4690F850300446012BB6
:102B10000D46904600F09C80012380F85030FEF76F
:102B20005FFB074694F85100C0B2012840F08E8048
:102B3000002D5ED0B8F1000F5BD00323002084F895
:102B40005130A3686065A063A4F83680A087E08751
:102B5000C4E910002068B3F5004F08BF036825637F
:102B600008BF43F48043A4F8348008BF03600368BF
:102B7000E2685B065EBF036843F040030360B2F5A2
:102B8000006F63683ED113B1B8F1010F07D135F87A
:102B9000023BC3602563E38E013B9BB2E386E38E79
:102BA0009BB2A3B93A4631462046FFF760FF0028A2
:102BB00049D1A36833B901932368DA6801929B680D
:102BC0000193019B606D003018BF012011E0226865
:102BD0009368980705D5236B33F8021BD1602363F4
:102BE000D9E7FEF7FDFAC01BB042D8D3711CD6D08E
:102BF0000320012384F85130002384F8503002B0C0
:102C0000BDE8F08113B1B8F1010F08D12B7803733F
:102C1000236B01332363E38E013B9BB2E386E38E98
:102C20009BB2002BBED023689A68920703D5226B13
:102C300012781A73ECE7FEF7D3FAC01BB042EED35A
:102C4000731CECD0D4E720236365B2E70220D0E701
:102C50000220D4E790F8503010B5012B04464ED036
:102C6000012380F8503090F85100C0B2984244D10E
:102C700000292DD0002A2BD0032384F851300023C3
:102C80006365A363E286C4E91033E387A387A3687F
:102C9000A2862268B3F5004F08BF1368216304BF02
:102CA00043F480431360A06C164B0C32C362164B86
:102CB0008362164B036300234363E38EFEF76AFDD2
:102CC00050B10120636D43F01003636584F8510037
:102CD000002384F8503010BD23681A6852065EBF86
:102CE0001A6842F040021A605A6842F020025A60A4
:102CF0005A6842F002025A60EAE70220E8E702203E
:102D0000E9E700BF152D0008432D0008212D00081C
:102D10007047704708B5406AFFF7FBFF08BD704772
:102D2000406A08B50268536823F003035360436D9B
:102D300043F010034365012380F85130FFF7EFFFA4
:102D400008BD37B50546446AFEF74AFA2B680246C5
:102D50001B689B0626D423682046596821F0200171
:102D60005960596821F0020159606421FFF77FFE24
:102D700018B1636D43F020036365A36833B9019311
:102D80002368DA6801929B680193019B0023E38624
:102D9000012384F85130636D23B12046FFF7BFFF54
:102DA00003B030BD2046FFF7B3FFF9E7036A70B503
:102DB00023F001030362036A446882690D6822F00C
:102DC00073022A438D6823F002032B430A4DA84265
:102DD0000BD1CD6823F008032B4324F44074D1E9D0
:102DE0000556354323F004032C43446082614A684E
:102DF0004263036270BD00BF002C0140036A70B5DE
:102E000023F480730362036A4468C2690D6822F088
:102E100073022A438D6823F4007343EA05230B4DA4
:102E2000A8420DD1CD6823F4006343EA052324F4BE
:102E30004054D1E90556354323F4806344EA051430
:102E40004460C2614A68C263036270BD002C0140E5
:102E5000036A30B523F480530362036A4468C2698D
:102E60000D6822F4E64242EA05228D6823F40053FD
:102E700043EA0533064DA84202BF4D6924F480445D
:102E800044EA85144460C2614A680264036230BD4A
:102E9000002C01407047022380F83D3003689A6897
:102EA00002F00702062A1EBF1A6842F001021A60E9
:102EB000012380F83D300020704770471A4A0368AC
:102EC00090420AD0B0F1804F07D0A2F594329042E0
:102ED00003D002F58062904215D14A6823F0700356
:102EE0001343114A90420AD0B0F1804F07D0A2F5A7
:102EF0009432904203D002F58062904203D1CA68B6
:102F000023F4407313434A6923F08003134303609F
:102F10008B68C3620B688362034B984204BF0B69E2
:102F20000363012343617047002C014010B5044640
:102F3000A0B190F83D3003F0FF021BB980F83C20AF
:102F4000FFF7A8FF0223206884F83D30211DFFF71A
:102F5000B5FF0123002084F83D3010BD0120FCE7BF
:102F600010B50446A0B190F83D3003F0FF021BB944
:102F700080F83C20FFF7A1FF0223206884F83D3051
:102F8000211DFFF79BFF0123002084F83D3010BD79
:102F90000120FCE7036A70B523F010030362036AA3
:102FA000446882690D6822F4E64242EA05228D688F
:102FB00023F0200343EA05130B4DA8420DD1CD6841
:102FC00023F0800343EA051324F44064D1E9055655
:102FD000354323F0400344EA8504446082614A6833
:102FE0008263036270BD00BF002C014038B590F8C9
:102FF0003C300446012B4FF0020025D0012384F819
:103000003D0084F83C300C2A18D8DFE802F007179E
:1030100017171E1717172F17171740002068FFF7ED
:10302000C5FE236809699A6942F008029A619A69A3
:1030300022F004029A619A690A439A6101230020EE
:1030400084F83D3084F83C0038BD2068FFF7A2FFCB
:10305000236809699A6942F400629A619A6922F4C4
:1030600080629A619A6942EA0122E6E72068FFF7E6
:10307000C5FE23680969DA6942F00802DA61DA6993
:1030800022F00402DA61DA690A43DA61D6E72068DD
:10309000FFF7DEFE23680969DA6942F40062DA614B
:1030A000DA6922F48062DA61DA6942EA0122ECE745
:1030B00010B584680A4324F47F4442EA032323437F
:1030C000836010BD90F83C3070B5012B04464FF082
:1030D000020019D0012384F83D00206884F83C30B8
:1030E000836823F47F4323F0770383600B68402BCE
:1030F00065D015D8102B0CD007D853B10123002070
:1031000084F83D3084F83C0070BD202B01D0302B7A
:10311000F4D1826843F0070322F0700213431AE0EF
:10312000602B34D019D8502BE8D14A68CE68016A98
:10313000056A21F00A0125F00105056283690A4349
:1031400023F0F00343EA061383610262836823F0ED
:10315000700343F057038360D0E7702B0CD0B3F5B6
:10316000005FCBD1CB68D1E90121FFF7A1FF226835
:10317000936843F4804308E0CB68D1E90121FFF76D
:1031800097FF2268936843F077039360B6E74D6832
:10319000CE68016A21F0100101628269036A22F49B
:1031A000704223F0A00343EA051342EA063282612B
:1031B0000362836823F0700343F06703CBE74A6838
:1031C000CE68016A056A21F00A0125F00105056251
:1031D00083690A4323F0F00343EA06138361026222
:1031E000836823F0700343F04703B4E710B501246C
:1031F000036A01F01F018C4023EA04030362036A9F
:103200008A401A43026210BD10B5044601220068CC
:10321000FFF7ECFF2368094A0020934202BF5A6C73
:1032200042F400425A649A6802F00702062A1EBF5E
:103230001A6842F001021A6010BD00BF002C014064
:10324000FFF7E2BF0368DA6822F49072DA605A6925
:1032500022F001025A61202380F83A3070470000C2
:1032600038B505460368C1681A69192422F440522A
:103270000A431A6182680069D9680243686921F4C7
:10328000B05121F00C0102430A43DA605A69A9697E
:1032900022F440720A435A610D4A934214D1FFF757
:1032A00023FB60436C686422A400B0FBF4F0B0FB25
:1032B000F2F102FB11031B013233B3FBF2F32C6872
:1032C00003EB0113A36038BDFFF7FEFAE9E700BF87
:1032D00000380140F8B504460E4617461D462168E1
:1032E0000B6836EA030301D1002014E06B1CF7D011
:1032F00095B923680320DA6822F4D072DA605A693B
:1033000022F001025A61202384F8393084F83A30DF
:10331000002384F83830F8BDFDF762FFC01B8542FA
:10332000DDD2E6E710B5044640B390F8393003F03B
:10333000FF021BB980F8382003F07EF924232268AD
:1033400084F83930D368204623F40053D360FFF764
:1033500087FF236800201A6922F490421A615A6993
:1033600022F02A025A61DA6842F40052DA6020231D
:10337000E06384F8393084F83A3010BD0120FCE76E
:1033800010B5044660B390F8393003F0FF021BB962
:1033900080F8382003F050F92423226884F839306B
:1033A000D368204623F40053D360FFF759FF236806
:1033B00000201A6922F490421A615A6922F022020E
:1033C0005A615A6942F008025A61DA6842F40052BE
:1033D000DA602023E06384F8393084F83A3010BD95
:1033E0000120FCE72DE9F0411F4690F839300446F2
:1033F000202B0D4690464CD1002948D0002A46D0BB
:1034000090F83830012B44D0012380F83830002365
:10341000C363212380F83930FDF7E2FE0646A4F8A5
:103420002480A4F82680E38C9BB263B93B463246E5
:1034300040212046FFF74EFFA0B9202384F8380032
:1034400084F839300FE0E38C3246013B9BB2E384D1
:10345000A3688021B3F5805F20463B460ED1FFF77D
:1034600039FF10B10320BDE8F0812B882268C3F337
:1034700008035360236943B90235D4E7FFF72AFFF5
:103480000028EFD123682A785A600135CBE7012064
:10349000E9E70220E7E790F83A30202B20D1E9B1A4
:1034A000E2B190F83830012B1AD0C2858285002312
:1034B0002222C36380F83A2002688162D16880F8D2
:1034C000383041F48071D1605169184641F00101F2
:1034D0005161D16841F02001D160704701207047EF
:1034E00002207047704790F83A3010B5222B33D144
:1034F00081680469B1F5805F836A026823D15268EC
:10350000ECB9C2F3080223F8022B8362C48D013C9C
:10351000A4B2C4858CB90368DA6822F02002DA60AC
:10352000DA6822F48072DA605A6922F001025A6184
:10353000202380F83A3000F05FFF00200DE0D2B287
:1035400023F8012BE1E7591C526881620CB91A700B
:10355000DCE702F07F02FAE7022010BD70470000AE
:10356000036870B51A6804461607D9685D6907D103
:10357000960658D58D0656D5BDE87040FFF7B3BF07
:1035800015F0010502D111F4907F4CD0D30705D579
:10359000CE0542BFE36B43F00103E363500704D55C
:1035A0001DB1E36B43F00203E363930704D51DB140
:1035B000E36B43F00403E363160704D51DB1E36B2B
:1035C00043F00803E363E36B43B3950604D5880631
:1035D00002D52046FFF787FF236820465D69E26B2E
:1035E000110702D415F0400519D0FFF72BFE236810
:1035F0005A6952060FD55A69606B22F040025A612F
:1036000048B1264B4363FEF703F938B1606BBDE860
:103610007040436B18472046FFF7A0FF70BDFFF7CF
:103620009DFFE563FAE7160628D50D0626D594F822
:103630003920212AF2D1A168226AB1F5805F18D120
:103640001188C1F308015960216981B902322262EF
:10365000E28C013A92B2E284002ADFD1DA6822F0E9
:103660008002DA60DA6842F04002DA60D6E70132BE
:10367000EDE7511C216212785A60E9E75006CDD57A
:103680004A06CBD5DA68204622F04002DA602023D1
:1036900084F83930FFF726FFC0E700BFA1360008E5
:1036A00008B50023406AC385C384FFF757FF08BDF0
:1036B00090F83830012B11D02423026880F839307B
:1036C000D36823F00C0343F00403D360202380F875
:1036D0003930002380F83830184670470220704790
:1036E000F0B50C78034630F82420C87822F4EC4278
:1036F00022F07002032803D8DFE800F04249444674
:10370000012048F280052A4323F824200E789E4A9F
:1037100033F82640354314402C4323F826400D7BD4
:103720000C78002D40F08280CD884E786D086D00B9
:1037300003EB041476B3B3F850603444A4F8005497
:103740000D7833F82540670608D533F82540224028
:1037500042F4004242F0C00223F82520CA780C78D7
:10376000012A33F82410894A02EA010218BF82F0C4
:10377000200242F4004242F0800223F82420F0BDEF
:1037800042F400720020BCE742F4C062FAE742F45F
:103790008062F7E7B3F850200E691444A4F8085487
:1037A0000A78B3F8504003EB0212A4B202F20C42C2
:1037B00056BB155B25F4F8452D042D0C1553155BF0
:1037C00045F4004515530C7833F8242057040BD5E5
:1037D00033F8242022F0F0021205120D42F4404288
:1037E00042F0800223F82420097833F8212022F4C3
:1037F000804222F0700282F4405242F4004242F0D1
:10380000800223F82120BAE73E2E06D87508F60775
:1038100048BF0135AD02ADB2D4E77709F5065C4D7E
:1038200008BF07F1FF3745EA8725F4E733F824504E
:10383000154045F4014545F0800523F824500C78E7
:103840000D89B3F8506003EB04146D08B6B204F5AB
:1038500080646D00A5530C784D89B3F8506003EB7C
:1038600004146D0804F581646D00B6B2A5534C785C
:103870000D78002C43D133F82540660408D533F881
:103880002540224042F4404242F0800223F82520A5
:103890000C7833F8242055060BD533F8242022F079
:1038A000F0021205120D42F4004242F0C00223F869
:1038B00024200C7833F8242022F0F0021205120D97
:1038C00042F4004242F0C00223F8242048F280046F
:1038D0000D7833F8252022F4804222F0700282F421
:1038E0004052224323F82520097833F8212022F47E
:1038F000E04222F04002144323F821403FE733F82E
:103900002540640408D533F82540224042F4404263
:1039100042F0800223F825200C7833F82420520648
:103920000BD533F8242022F0F0021205120D42F4D8
:10393000004242F0C00223F824200C7833F82420FF
:1039400022F0F0021205120D42F4404242F08002D1
:1039500023F82420CA780C78012A33F824500B4A23
:1039600002EA050218BF82F0200242F4004242F04F
:10397000800223F82420097833F8212022F0F00275
:103980009204920C39E700BF8F8FFFFFBF8FFFFFBC
:103990000080FFFF4B780A787BB130F8223023F4A7
:1039A000E04323F0400383F0100343F4004343F06B
:1039B000800320F822300020704730F8223023F4B2
:1039C000804323F0700383F48053EEE70B7B23BB2B
:1039D0004B780A781BB330F822305B060BD530F8F1
:1039E000223023F0F0031B051B0D43F4004343F08A
:1039F000C00320F82230CB78012B0ED00A7830F8A3
:103A0000223023F4E04323F0400383F0200343F407
:103A1000004343F0800320F822300020704730F844
:103A200022305B040BD530F8223023F0F0031B0565
:103A30001B0D43F4404343F0800320F822300A7802
:103A400030F8223023F4804323F0700383F4405392
:103A5000DDE711B98023A0F84C3000207047B0F8A2
:103A6000440070470020704700EB4202013302F52A
:103A700080625B0802EB83039A4200D1704731F801
:103A8000020B22F8040BF7E770B50D46497804469F
:103A90000129AA692B69287B5DD19A429DBF002329
:103AA000AB611346D21A88BFAA6169699EB2E8B9B0
:103AB0003346EA882046FFF7D7FFB4F850102A783B
:103AC00004F2044312010B44D6522A7834F822300F
:103AD00023F4E04323F0400383F0300343F4004336
:103AE00043F0800324F82230002070BD2B7834F896
:103AF0002320B4F8500052064BBF04F20C4204F2EB
:103B00000442121812184FEA03134BBFD652D65272
:103B10006A892A8933462046FFF7A6FF6B782A7800
:103B200063B934F8223023F0F0031B051B0D43F476
:103B3000004343F0C00324F82230C6E7012BC4D170
:103B400034F8223023F0F0031B051B0D43F44043EF
:103B500043F08003EFE79A4293BF0023D21AAA6191
:103B6000AB6198BF13462A7890B9B4F8501004F2AC
:103B70000C4001441201002B3BD18B5A23F4F84333
:103B80001B041B0C8B528B5A43F400438B5239E0BD
:103B900081B9B4F8501004F2044001441201B3B9E1
:103BA000885A20F4F8400004000C8852885A40F4E7
:103BB0000040885269782A780029D6D0012921D17D
:103BC000B4F8500004F20C41014412012CE03E2BE9
:103BD00006D85808DE0748BF0130800280B2E8E707
:103BE0005E09D806114808BF06F1FF3640EA862074
:103BF000F4E73E2B10D85808DE0748BF013080029A
:103C000080B288522A7834F8223023F4804323F09B
:103C1000700383F4405361E75809DB06034B08BF88
:103C200000F1FF3043EA80239BB2AFE70080FFFF43
:103C300000EB4202F0B502F580625D0808461746C7
:103C40002E46023036B9DB0744BF32F8253001F882
:103C50001530F0BD37F8044B013EA4B200F8024C19
:103C6000240A00F8014CECE708B5D0F8B4320BB9DF
:103C7000022008BD1B6898470028FAD0F8E708B56D
:103C8000D0F8B4325B689847002008BD38B500F51D
:103C90002A750446284600F0E1FA012394F8A81298
:103CA000C4F89432B4F8AE32C4F8983201F01F036D
:103CB000012B0ED007D3022B10D001F0800120463B
:103CC00002F028FF03E02946204600F0F5F8002026
:103CD00038BD2946204600F013FAF8E72946204669
:103CE00000F033FAF3E770B50546164649BBD0F845
:103CF0009432032B1ED1D0F86031D0F86421934266
:103D00000BD99B1A9A42C0F860318CBF9AB292B21A
:103D1000314600F0CCFA002070BDD0F8B4321B69F7
:103D200023B190F89C22032A00D19847284600F03E
:103D3000C6FAF0E7052BEED1C5F8941202F0EAFEC0
:103D4000E9E7D0F8B4329B692BB190F89C22032AA2
:103D500001D19847DFE70220DEE770B5134604463D
:103D60000E46002947D1D0F89422022A3CD1D0E94E
:103D70000852954213D9AA1A0262194692B200F06B
:103D80008EFA33461A461946204602F00BFF94F885
:103D9000A0320020012B01D184F8A00270BDC369BC
:103DA000B3FBF2F502FB153565B99A420AD8D0F893
:103DB0009822934206D22A4600F071FAC4F898522B
:103DC0002B46DFE7D4F8B432DB682BB194F89C22A1
:103DD000032A01D1204698478021204602F09AFE0E
:103DE000204600F077FAD2E732F00403CFD18021E9
:103DF00002F090FECBE7D0F8B4325B6933B190F8B3
:103E00009C22032A02D198470020C7E70220C5E779
:103E1000002270B50446012540261146402302F0D9
:103E200069FE33468021C4F85851C4F86461002209
:103E3000204602F05FFE0021D4F8B832A561666228
:103E400084F89C52C4F894126160C4F8A41223B19F
:103E5000D4F8B43220465B689847002070BD0174E6
:103E60000020704790F89C3280F89D32042380F83F
:103E70009C320020704790F89C32042B04BF90F8CD
:103E80009D3280F89C320020704708B590F89C2243
:103E9000032A04D1D0F8B432DB6903B1984700207B
:103EA00008BD10B50446802102F034FE2046BDE86E
:103EB0001040002102F02EBE37B50B78044603F007
:103EC0006003202B0D4612D0402B10D0002B5BD16D
:103ED0004B78092B58D8DFE813F0E90005015700AB
:103EE000FE005700840013005700D200A000D4F851
:103EF000B43229469B6820469847002003B030BD65
:103F00000023ADF806304B881A0A013A062A3BD83E
:103F1000DFE802F004202D3A3A525C00D0F8B032CB
:103F20001B680DF10601207C9847BDF8062052B1B0
:103F3000EB8843B19A4228BF1A4601462046ADF8A5
:103F4000062000F09FF9EB88002BD6D1204600F028
:103F5000B6F9D2E7027CD0F8B43232B99B6A0DF1DF
:103F60000600984702234370DFE7DB6AF7E7DBB21E
:103F7000052B09D8DFE803F0030C1014181CD0F847
:103F8000B0325B68002BCCD12046FFF78AFFB4E744
:103F9000D0F8B0329B68F5E7D0F8B032DB68F1E7D3
:103FA000D0F8B0321B69EDE7D0F8B0325B69E9E7D1
:103FB000D0F8B0329B69E5E7037C002BE4D1D0F860
:103FC000B4320DF106005B6B9847AEE7037C002B23
:103FD000DAD1D0F8B4320DF106001B6B98470723F5
:103FE000C1E78B88002BCFD1CB88002BCCD14D885B
:103FF0007F2DC9D890F89C32032BC5D0E9B280F848
:104000009E1202F0B3FD204600F059F91DB10223C3
:1040100084F89C3271E70123FAE78978374D01294A
:104020002970B1D890F89C32022B08D0032B14D001
:10403000FFF737FF29782046FFF721FE5DE70029CB
:1040400084D001210323416080F89C322046FFF791
:104050000BFE02287FF47AAF96E731B90223416064
:1040600080F89C32FFF70BFE70E7416801293FF4AE
:104070006DAFC9B2FFF703FE29786160E6E7CA8831
:10408000012A81D190F89C32002B3FF47DAF022BA6
:1040900004D9032B7FF478AF011D03E00146002310
:1040A00041F8083F204600F0EDF826E790F89C32F2
:1040B000013B022B3FF668AFCB88022B7FF464AF45
:1040C0000123C360D0F8A4320BB10323C3600222E2
:1040D00004F10C01E6E74B88012B7FF40EAFC4F826
:1040E000A43233E790F89C32013B022B3FF64CAFF1
:1040F0004B88012B7FF401AF0023F0E784020020FE
:1041000038B50B78044603F06003202B0D4602D02F
:10411000402B00D0ABB994F89C32013B022B10D855
:104120002B79012B0DD8D4F8B43229469B68204650
:104130009847EB881BB910B9204600F0C0F8002062
:1041400038BD2046FFF7ADFEF9E738B50A780446DA
:1041500002F06002202A0B4614D0402A12D06AB91D
:104160005A788D88012AE9B220D036D3032A05D1A6
:1041700090F89C22022A27D0032A0BD02046FFF772
:1041800090FE05E0D4F8B422194692682046904784
:10419000002038BD5A882AB94A0603D0DB880BB9FB
:1041A00002F0B8FC204600F08AF8F1E790F89C2273
:1041B000022A09D0032AE1D15B88002BE8D14D0601
:1041C000F0D002F0B5FCEDE74B06D7D002F0A2FC30
:1041D0008021204602F09EFCDAE790F89C32022B08
:1041E00018D0032BCAD1142301F00F0215F0800F51
:1041F00003FB02021FD09269002ABFD001F07F05A5
:1042000005FB0335054411F07F031FD12B6002220B
:1042100029460CE04A06B1D12B064FF000034FF0BF
:1042200002024CBF00F1140100F5AA710B60204698
:1042300000F028F8ACE7D2F85821002A9ED001F00F
:104240007F0503FB050505F5AA75DCE7204602F0AE
:104250007DFC08B10123D9E72860D8E70B7803700B
:104260004B784370CA788B7803EB022343804A79FA
:104270000B7903EB02238380CA798B7903EB02234A
:10428000C38070471346022210B5C0F89422C0E9DB
:1042900007330A46002102F077FC002010BD08B564
:1042A00013460A46002102F06FFC002008BD08B545
:1042B00013460A46002102F075FC002008BD08B52F
:1042C0000423C0F8943200231A46194602F05CFC1D
:1042D000002008BD08B50523C0F8943200231A4613
:1042E000194602F05FFC002008BD0000014B186871
:1042F000704700BF88020020014B1878704700BF4C
:1043000085020020014B1868704700BF9002002012
:1043100010B5064C206808B103F05EF9044B01218A
:10432000186803F01FF9206010BD00BF8C02002048
:104330009002002010F0010F18BF0122064B1960F7
:10434000064B18BF1A701B78012B14BF0B221A22C0
:10435000034B1A60FFF7DCBF8802002085020020B3
:1043600090020020044B1B6823B1044A1268824269
:1043700088BF1954704700BF8C02002090020020B3
:10438000054B1B682BB1054A1268824201D9185CA3
:1043900070470020704700BF8C0200209002002070
:1043A000044B1B68834286BF034B53F82000002058
:1043B000704700BF9002002008000020094B82B027
:1043C0001B681A68920709D5002201921A680192A7
:1043D00001225B680193019B034B1A70014802B0F4
:1043E000FFF7BEB8B4080020A00200200148FFF784
:1043F000B7B800BFD80700200368374A73B59342A7
:1044000056D1364B364D1B78364C8DF807302B780D
:104410006BB3354A13780133DBB2137013782C2B4E
:104420000DD100231370314A4FF4005113783048F6
:10443000B3FA83F35B0913701278FDF7D9FC0023FC
:104440002C490B7023802B709DF8072002F0FF038E
:104450005AB1172B4FF0010227D00A701F49264886
:1044600002B0BDE87040FFF716B8244A1370234B22
:104470001B78A3B9224D23882A689A420FD8268830
:10448000FFF740FF2B68B6B21844864207D2208857
:104490002B689DF80710C01A0138FFF763FF2388C7
:1044A000012201339BB22380D8E7144B1A70DEE758
:1044B000144A93420DD1144B01221B78134933B196
:1044C000134801F0DFF8012210491248C8E71248EA
:1044D000F7E702B070BD00BF003801409402002031
:1044E000A0020020960200209902002098020020DD
:1044F0000010014070000020B40800209A02002043
:104500009C02002000480040B002002095020020DC
:1045100000060020D80700201806002008B505482E
:1045200000228021FDF764FCBDE808400248FFF747
:10453000BFB800BF000C0140B408002008B5FFF769
:10454000D5FE054B1860FFF7E9FFBDE808400122E2
:1045500002490348FEF79FBF9C02002094020020FE
:10456000B408002008B5FFF7E9FFBDE808400122C4
:1045700001490248FEF78FBF95020020D8070020AE
:1045800030B50446A40287B044F000640D46FDF740
:1045900043FA01230494002401A902A8059503937A
:1045A0000294FDF7F3FA38B9FDF748FA0198431C75
:1045B0005842584107B030BDFDF740FA2046F9E7B0
:1045C000800210B540F00060CC1A0A44191989B273
:1045D000914201DB012010BD095C03F8011BF5E7E6
:1045E00001217F20FFF7CCBF0144B1F5807F0BDDB7
:1045F00000207047830003F1006303F5FE331B685E
:10460000013042F8043B80B28142F3DC0120704764
:104610000144B1F5807FF8B5164602DD002420463E
:10462000F8BDFFF7DDFF04460028F7D0FDF7F4F9E9
:10463000094D0A4F043E56F8042F00232946022054
:10464000FDF730FA10B1FDF7F9F9E7E70435BD429F
:10465000F1D1FDF7F3F9E2E700FC010800000208E0
:104660000023044A044942F823100133402BFAD1B5
:10467000704700BF30060020ECA1000810B50E4ABC
:10468000C1B9012352F82310DCB2096941B10133E9
:10469000402BF7D1094801F095FB0024204610BDBE
:1046A0003F2CF7D042F824002146C21C044801F0F8
:1046B00089FBF3E70C46F5E73006002000A200086E
:1046C0000EA2000808B5002002F078FB002002F0DE
:1046D0007BFB002002F006FB002002F009FB00201B
:1046E00002F02EFD002002F091FCBDE80840002001
:1046F00002F014BCFFF7E6BF2DE9F041224C05465D
:1047000054F82030214E1B6903B970BB204F3B7811
:10471000032B11D0337854F823100B691BB10022FE
:10472000C9680220984731781A4854F8212003328A
:1047300001F048FB03233B700021174BDFF8648036
:1047400019603378357088F800307DB154F8253021
:104750000846D3E90325A847317850B954F82120F9
:10476000387003320D4801F02DFB35782846BDE83E
:10477000F08154F821200A48033201F023FB98F815
:1047800000303370F1E700BF30060020A1020020A6
:10479000A20200201CA20008A402002037A20008E8
:1047A00050A20008A802002070B5104D104C2B78C4
:1047B000002254F823300220D9681E69B0472978B6
:1047C0000C4854F82120033201F0FCFA03220A4B72
:1047D0001A702B7854F82330987818B1BDE87040DF
:1047E000FFF78ABF054B1878F8E700BFA102002049
:1047F000300600201CA20008A2020020A80200200F
:10480000F8B5174E337853B3164F174C57F823307B
:1048100021685878DA68012805D191420FD1BDE8A6
:10482000F840FFF7C1BF022809D1914207D1002506
:104830001B6925602A46284698470C4B1D70337823
:10484000216857F823300120D3E90325A847012820
:10485000E5D00122054B1A70236813442360F8BD8C
:10486000A102002030060020A4020020A2020020A5
:1048700070B50E46FCF712FA1F49FCF717FBFBF761
:10488000D3FD02460B4600201C49FBF74FFF0446B0
:104890000D463046FCF7FEF9FBF7C6FD14A3D3E93D
:1048A0000023FBF743FF22462B4603F09FFC10A397
:1048B000D3E90023FBF710FEFCF7E6F8FBF7B4FDA5
:1048C00003F014FCFCF7E0F80D490446FCF7F6FB96
:1048D00050B900212046FCF7D3FB00B1002420464C
:1048E000FCF71CFCC0B270BD054CF8E7AFF30080CC
:1048F0000000000000E06F400000C8420000F03FF0
:1049000000007F432DE9F74F01217E20FFF738FE9D
:10491000814600285ED0FDF77FF80027DFF8E080B1
:10492000FBB2022B5AD0032B5BD0012B14BFB8F97A
:104930003E50B8F944504FF0000A07F5002404F542
:10494000FC7424025FFA8AF631462846FFF790FF8E
:10495000711C8346C9B22846FFF78AFF5FFA8BFBBA
:104960004FEA1B234FEA0B625FFA80FB4FEA0B40D2
:104970004FEA1B4112EB000B43EB010CB11CC9B217
:104980002846CDE900BCFFF773FFF11C8346C9B28E
:104990002846FFF76DFF00215FFA8BF2C0B24FEAA5
:1049A000126C4FEA022BDDE9002312184B410AF189
:1049B000040A12EB0B021FFA8AF643EB0C032146A2
:1049C00002200FFA86FAFDF76DF868B1FDF736F8A8
:1049D0004FF00009484603B0BDE8F08FB8F94A50DF
:1049E000A9E7B8F94C50A6E7B6F5807F04F10404B6
:1049F000A8D10137042F93D1FDF720F8EAE700BFD3
:104A00003007002007B501EB00210DF1070301225B
:104A100089B27E20FFF7D4FD9DF8070003B05DF852
:104A200004FB000010B54FF480410848FDF7DAF9A7
:104A3000B0FA80F44FF4004104486409FDF7D2F95C
:104A400008B944F00204204610BD00BF0010014028
:104A500010B54FF400411F48FDF7C4F9B0FA80F4D7
:104A600008211D486409FDF7BDF908B944F00204A6
:104A700010211948FDF7B6F908B944F004044FF4C1
:104A800080711548FDF7AEF908B944F008044FF4F9
:104A900000711148FDF7A6F908B944F010044FF46D
:104AA00080510D48FDF79EF908B944F020044FF4F9
:104AB00000510948FDF796F908B944F040044FF455
:104AC00080410548FDF78EF908B944F0800420467E
:104AD00010BD00BF00080140000C014008B52021B6
:104AE0000348FDF77FF9B0FA80F0400908BD00BF28
:104AF000000801402DE9F84340F23445FF260746FF
:104B00006843B0FBF6F49846124B91461888604310
:104B1000B0FBF5F0401AFCF7C1F804464846FCF734
:104B2000BDF801462046FCF70DF90B49FCF7BEF92C
:104B3000FCF7CEFA394604B24046FFF763FF604304
:104B400090FBF6F0A842A8BF284620EAE07080B2A9
:104B5000BDE8F883AA0200200000C84270B59D4C51
:104B60000546236800201E78FFF70AFC864200D124
:104B700085B10020FFF704FC40F234435843FF2383
:104B8000B0FBF3F0944B256818800020FFF7F8FB8A
:104B900028700125236801205E78FFF7F1FB86422B
:104BA00000D1A5B10120FFF7EBFB8C490023B1F93F
:104BB0003C20B1F93A10FFF79DFF0021024608465C
:104BC00000F0F8FC01202668FFF7DAFB707023681C
:104BD00002209E78FFF7D4FB864200D1A5B10220C7
:104BE000FFF7CEFB7D490123B1F94220B1F9401016
:104BF000FFF780FF01210246002000F0DBFC0220CD
:104C00002668FFF7BDFBB07023680320DE78FFF74E
:104C1000B7FB864200D1A5B10320FFF7B1FB6F4976
:104C20000223B1F94820B1F94610FFF763FF0221D2
:104C30000246002000F0BEFC03202668FFF7A0FB20
:104C4000F070236804201E79FFF79AFB864200D19A
:104C5000A5B10420FFF794FB60490023B1F93C2083
:104C6000B1F93A10FFF746FF00210246012000F09B
:104C7000A1FC04202668FFF783FB30712368052020
:104C80005E79FFF77DFB864200D1A5B10520FFF7D5
:104C900077FB52490123B1F94220B1F94010FFF7E7
:104CA00029FF01210246084600F084FC0520266801
:104CB000FFF766FB7071236806209E79FFF760FBA3
:104CC000864200D1A5B10620FFF75AFB43490223D3
:104CD000B1F94820B1F94610FFF70CFF0221024656
:104CE000012000F067FC06202668FFF749FBB07141
:104CF00023680720DE79FFF743FB864200D1A5B188
:104D00000720FFF73DFB35490023B1F93C20B1F9FD
:104D10003A10FFF7EFFE00210246022000F04AFCA5
:104D200007202668FFF72CFBF071236808201E7A05
:104D3000FFF726FB864200D1A5B10820FFF720FB34
:104D400026490123B1F94220B1F94010FFF7D2FE04
:104D500001210246022000F02DFC08202668FFF702
:104D60000FFB3072236809205E7AFFF709FB864249
:104D700000D1A5B10920FFF703FB18490223B1F9BF
:104D80004820B1F94610FFF7B5FE02210246084659
:104D900000F010FC09202668FFF7F2FA7072236811
:104DA0000A209E7AFFF7ECFA864200D18DB10A20E4
:104DB000FFF7E6FA032364220021FFF79BFE03219D
:104DC0000246022000F0F6FB0A202468FFF7D8FA1A
:104DD000A07270BDAC020020AA02002030070020A3
:104DE00010B5094C206808B102F0F6FBFFF78AFA0B
:104DF0000121084402F0B6FBFF230370206001206C
:104E0000BDE81040FFF7AABEAC02002038B5FFF79E
:104E100073FA012816D10B20FFF7B2FA0A4B0B4D9B
:104E200093F82530B0FBF3F02B68C0B2DB7A8342F5
:104E300008D0FFF761FC044601460B20FFF792FA09
:104E40002B68DC7238BD00BF30070020AC020020A8
:104E500030B5102495B0224600210CA802F0CFFBFB
:104E6000142200210DEB020002F0C9FB22460021B2
:104E700001A802F0C4FB02254FF480330922CDE9DA
:104E80001153CDE90A2301224FF4E0130AA80E9230
:104E900010921393FDF7A4FA0F230024CDE90535F2
:104EA0004FF48063294605A8CDE907430994FDF72F
:104EB0006FFC122301934FF4004301A8CDE90334A2
:104EC000FDF722FD15B030BD2DE9F04F00248BB069
:104ED000C34DFCF767F9FFF7BBFF0894AB690127E7
:104EE00002264FF0800843F01003AB61AB6906A9BE
:104EF00003F010030293029BAB69BA4843F020030E
:104F0000AB61AB694FF4005903F020030393039B9B
:104F1000AB694FF0030A43F00403AB61AB6948F29D
:104F2000200B03F004030493049BAB6943F00803D4
:104F3000AB61AB69CDE9068703F008030593059BD8
:104F40000996FCF76FFE22464146A648FCF750FF43
:104F50004FF4404306A9A448CDE906340894FCF771
:104F600061FE06A9A048CDE906970996FCF75AFE0E
:104F700040F2CE7306A99D48CDE90636CDF824A0AF
:104F8000FCF750FE06A99748CDE906A6CDF824A067
:104F9000FCF748FE06A99548CDE906B40897FCF74A
:104FA00041FE47F2183306A98E48CDE9063408972A
:104FB000FCF738FE06A98B48CDE906B6CDF824A04B
:104FC000FCF730FE4FF480634FF4602A06A9854851
:104FD000CDE90637CDE90846FCF724FE844A854E24
:104FE0005368494643F0E0633B4353607E482246A2
:104FF000FCF7FEFE804B30463360B460347334758A
:1050000074603761CDE906440894C6F81CA0FCF72B
:10501000A5FA06A93046794ECDE906470894FCF773
:105020005FF9774B30463360B46034733475746025
:105030003761CDE906440894C6F81CA0FCF78EFA47
:10504000042330460C2606A9CDE906370894FCF760
:1050500047F96C486C4B6D4AC0E90249C0E900232E
:10506000C0E905640461C461FEF78AF9224621465D
:105070002520FCF707FB2520FCF738FB4FF4E13334
:1050800063486449C0E90446C0E90013C0E902442A
:10509000C0E90644FEF746F95F4B0A26C3F80480D0
:1050A0004FF482794FF400782027AB695B4843F4D2
:1050B0008053AB61AB69C0E9024403F480530693AB
:1050C000069B574BC0E90444C0E90039C0E90844D5
:1050D0008462C662C0E90687FDF7D8FCEB695148D7
:1050E00043F48043EB61EB69C0E90A4603F4804373
:1050F0000193019B4C4BC0E90244C0E90039C0E96F
:105100000444C0E90844C0E90687FDF7BFFC6B69A9
:10511000224643F001036B616B69214603F00103F2
:1051200000930D20009BFCF7ADFA0D20FCF7DEFA92
:10513000224621460E20FCF7A5FA0E20FCF7D6FAEF
:1051400041F28834394E304600F05CFE013CFAD121
:10515000374800F037FE374800F034FE364800F09C
:1051600031FE344800F02EFE314800F02BFE6B6A11
:10517000FFF758FC0446FFF76BFC41002046FFF7A1
:10518000D9F82E4800F01EFE80212D4800F02EFA9E
:10519000002800F0E0802B4800F014FE80212A480F
:1051A00000F024FA002800F0D880284800F00AFE19
:1051B000FFF7D8F9264800F005FE00F0CFF92548A2
:1051C00000F000FE00F038FB234800F0FBFD234810
:1051D00000F0F8FDFFF782FC002840F0C0803FE0BF
:1051E00000100240000C0140001001400008014086
:1051F000000001408408002000240140180800201D
:1052000000280140B408002090D00300003801407D
:10521000D80700200048004000E100E0F40800202A
:10522000003001408007002000380040AEB3000885
:105230002FA9000872A9000870A200087EA2000829
:105240001806002095A2000800060020D3A200083E
:105250001BA3000830A3000844A3000861A30008B2
:1052600000F08CFB5B4B5C4A93F82A105B48117092
:1052700093F82B205A4B1A7000F0A4FD00F006FBA7
:10528000584800F09FFDFFF737F8012875D15648C0
:10529000504C00F097FDFFF7E3F9FFF72BFA534866
:1052A00000F090FDE18C002002F064F800285CD052
:1052B0004F4800F087FD002002F040F8002001F088
:1052C000C3FFE18C012002F055F8002851D0494875
:1052D00000F078FD012002F031F8012001F0B4FF68
:1052E000454800F06FFDFFF77BFD444800F06AFD84
:1052F00001F012FB424800F065FD424800F062FDFB
:10530000414800F07FFD01224FF400513F48FCF777
:105310006FFD3F4D00F090FD00F0ECF92B78002B75
:105320003DD001F05FFA0446287040BB0120FFF732
:1053300015FCFEF7E1FF01280646EBD1204601F0FF
:10534000FDFF204601F080FF304601F0F7FF3046B8
:1053500001F07AFFDEE72F481EE72F4826E7FFF728
:10536000D1FA00F01DFB2D4886E72D4800F02AFDFC
:10537000A7E72C4800F026FDB2E72B48B1E7FEF77F
:10538000BBFF01280446C5D1002002F0A5F800208B
:1053900001F05AFF204602F09FF82046D8E7FFF7B9
:1053A0009DFB012808BF287001F0D6FAFEF7A4FF84
:1053B0000128044607D1FFF723FA002001F044FF3B
:1053C000204601F041FF0020FFF7C8FBFFF71EFD5C
:1053D000A0E700BF30070020B002002075A300083E
:1053E000B102002096A30008A8A30008BEA30008ED
:1053F000D7A3000809A400083BA400085FA4000884
:1054000078A400088EA400089BA4000800100140A6
:10541000B2020020B3A20008F6A2000884A300088C
:10542000F1A3000823A400084DA400087047000061
:105430001C222DE9F0418EB0064600210DEB020042
:1054400002F0DDF80021102203A8CDE9011102F0DD
:10545000D6F8012E384C67D062D3022E67D00023D5
:1054600040F22A4204EB8614C4E90133C4E9032361
:1054700063612046FDF75AFD10B1304800F0A2FCF0
:105480004FF4805303A920460393FDF71BFE10B190
:105490002B4800F097FC2046FDF762FD10B129482B
:1054A00000F090FC40F21A2360220025CDE907238A
:1054B0000423CDE90B35244BCDE9095503EB061741
:1054C000DFF8908076B20D9503EB061657F825307D
:1054D000FF2B09D056F8252007A92046FDF786FDA9
:1054E00010B1404600F06EFC0135042DEED120468F
:1054F000FDF7D1FC0025DFF8608057F82530FF2B41
:1055000008D056F825102046FDF79AFE10B1404607
:1055100000F058FC0135042DEFD10EB0BDE8F0814C
:105520004FF0804323609AE7084B236497E7084BCA
:10553000C4F8803093E700BFD4090020A0A400087D
:10554000B3A40008C6A4000800A500080004004099
:10555000002C0140D9A40008ECA400081FB5144B8E
:1055600000209A6942F400629A619A6902F400622A
:105570000192019ADA6942F00102DA61DA6902F015
:1055800001020292029ADA6942F00202DA61DB69F0
:1055900003F002030393039BFFF74AFF0120FFF789
:1055A00047FF022005B05DF804EBFFF741BF00BFE5
:1055B000001002400B4B01EB800153F82110FF2932
:1055C0000ED0094B80011B5809B95A637047042952
:1055D00001D19A637047082901D1DA6370471A64D0
:1055E000704700BF00A50008D409002038B50D465B
:1055F000012104460175284601F0B4FF20602368AC
:105600002BB100236560A360E36023612375207DD7
:1056100038BDF8B50B461546044650B302699542AD
:1056200029D8C1684268914224BF0022C2604668FE
:10563000C2680068B61AB542E16811D30144324627
:10564000184601F0D1FFAF1B21683A46304401F003
:10565000CBFFE760002023695D1B25612075F8BD45
:1056600001442A46184601F0BFFFE3682B44E3607B
:10567000F0E70120F2E70520F0E710B14368006988
:10568000181A70472DE9F0410F461546044660B3DD
:10569000FFF7F3FF90422AD3A26863689A4224BFBF
:1056A0000023A3606668A3682068F61AB542A36861
:1056B00013D932461844A5EB060801F095FF20687F
:1056C0004246B91901F090FFC4F808800020236910
:1056D0001D4425612075BDE8F08118442A4601F07B
:1056E00083FFA3682B44A360F0E70120F2E70420C6
:1056F000F0E700002DE9F347FEF704FE374D0646BC
:105700002B681BB9364B1B68002B45D0DFF8E080B7
:10571000344F01220DF107014046FFF77AFF324C6A
:1057200090B92088B0420FD2DFF8C09099F80030CD
:10573000012B09D19DF8071097F800A05C291BD117
:10574000BAF1000F2BD13B702388B34202D2274B12
:105750001B780BBB01220DF107012548FFF759FF0C
:10576000D0B99DF807301F4A5C2B1178104627D11D
:1057700059BB012313700FE0BAF1000F15D06D294A
:1057800005D011B9218089F800300023DBE7002320
:10579000164A2B601370238002B0BDE8F087FEF735
:1057A000E1FD238801332380EFE7FEF7DBFD23884B
:1057B00001339BB2B3422380ABD389F800A0EBE75F
:1057C0000029E9D023B16D2BE1D000230370E3E77A
:1057D00001222380054B1A70F7E700BFB0020020BA
:1057E000B1020020B3020020B4020020B602002063
:1057F00000060020054B0A461B782BB9014641F2F2
:1058000088330348FDF7EEBD704700BFB0020020AB
:10581000D807002007B501220DF107010548FFF761
:10582000F8FE20B99DF8070003B05DF804FB0020E6
:10583000FAE700BF1806002010B5134C38220021EB
:10584000204601F0DCFEFF2224F8022C0922A2846B
:10585000E2844FF69C722287DC2264214FF6B070FE
:10586000A287A4F84220A4F84820A4F84A200122E4
:105870006187E087A4F84010A4F84400A4F846101B
:1058800084F8232010BD00BF3207002010B53A4C29
:1058900000202178FEF766FDA1780120FEF762FD69
:1058A00021790220FEF75EFDA1790320FEF75AFD63
:1058B000217A0420FEF756FDA17A0520FEF752FD5D
:1058C000217B0620FEF74EFDA17B0720FEF74AFD57
:1058D000217C0820FEF746FDA17C0920FEF742FD51
:1058E000217D0A20FEF73EFDFEF706FD012842D18C
:1058F000A17D0B20FEF736FDE17D0C20FEF732FD89
:10590000217E0D20FEF72EFD617E0E20FEF72AFD82
:10591000A17E0F20FEF726FDE17E1020FEF722FD7E
:10592000217F1120FEF71EFD617F1220FEF71AFD78
:10593000A17F1320FEF716FDE17F1420FEF712FD74
:1059400094F820101520FEF70DFD94F82110162074
:10595000FEF708FD94F822101720FEF703FD94F8D7
:1059600023101820FEF7FEFC94F824101920BDE83F
:105970001040FEF7F7BC10BD3007002008B5064AFE
:105980004E210020FEF730FE20B9BDE80840034854
:1059900000F018BA08BD00BF3007002030A500088D
:1059A00008B5064A4E210020FEF732FE20B9BDE8B8
:1059B0000840034800F006BA08BD00BF30070020C9
:1059C00019A9000870B5904D904E2846904C00F0F3
:1059D000F9F9904800F0F6F9304600F0F3F9218823
:1059E0008D4800F0EFF961888C4800F0EBF9A18850
:1059F0008B4800F0E7F9E1888A4800F0E3F9218953
:105A0000894800F0DFF96189884800F0DBF9A18955
:105A1000874800F0D7F9E189864800F0D3F9218A58
:105A2000854800F0CFF9618A844800F0CBF9A18A5B
:105A3000834800F0C7F9A17D824800F0C3F9E17DF9
:105A4000814800F0BFF9217E804800F0BBF9617EFB
:105A50007F4800F0B7F9A17E7E4800F0B3F9E17EFF
:105A60007D4800F0AFF9217F7C4800F0ABF9617F01
:105A70007B4800F0A7F9A17F7A4800F0A3F9E17F05
:105A8000794800F09FF994F82010784800F09AF9CE
:105A900094F82110764800F095F994F82210754892
:105AA00000F090F994F82310734800F08BF994F803
:105AB0002410724800F086F9284600F083F97048F7
:105AC00000F080F9304600F07DF994F825106D481B
:105AD00000F078F9E18C6C4800F074F9218D6B4886
