:020000040800F2
:1000000000500020993000084D2C00084F2C0008AB
:10001000512C0008532C0008552C0008000000004B
:10002000000000000000000000000000572C000845
:10003000592C0008000000005B2C00085D2C000813
:10004000E1300008E1300008E1300008E13000084C
:10005000E1300008E1300008E1300008E13000083C
:10006000E1300008E1300008E1300008E13000082C
:10007000E1300008E1300008E1300008E13000081C
:10008000E1300008E1300008E1300008E13000080C
:10009000612C0008E1300008E1300008E130000880
:1000A000E1300008E1300008E1300008E1300008EC
:1000B000E1300008E1300008E1300008E1300008DC
:1000C000E1300008E1300008E1300008E1300008CC
:1000D000E1300008E1300008E1300008E1300008BC
:1000E000E1300008E1300008E130000800000000C5
:1000F0000000000000000000000000000000000000
:0C01000000000000000000005FF808F1A3
:10010C0010B5054C237833B9044B13B10448AFF345
:10011C0000800123237010BD7C0100200000000032
:10012C003C31000808B5034B1BB103490348AFF33E
:10013C00008008BD00000000800100203C31000858
:10014C0038B50E4B054618784FF47A73B3FBF0F3C1
:10015C000B4A1068B0FBF3F000F0B4F9044658B940
:10016C000F2D09D8024629464FF0FF3000F068F9F0
:10017C00044B20461D6038BD012038BD0000002016
:10018C001801002004000020074A08B5136803205A
:10019C0043F01003136000F041F90020FFF7D0FF8B
:1001AC0002F072FC002008BD00200240034A044B00
:1001BC0011681B780B441360704700BFBC03002010
:1001CC0000000020014B1868704700BFBC030020E2
:1001DC00002373B5019390F82430012B74D00123C4
:1001EC004D6880F82430062D02684FEA85030C68B0
:1001FC0025D82B441F25566B053B9D4026EA05054B
:10020C0004FA03F32B435363092C4FEA44038D6820
:10021C002FD907262344D1681E3B9E4021EA0601B4
:10022C0005FA03F30B43D360A4F11003012B2BD974
:10023C000023002280F82420184602B070BD0C2D3B
:10024C000BD82B441F25166B233B9D4026EA050536
:10025C0004FA03F32B431363D6E72B441F25D66A0A
:10026C00413B9D4026EA050504FA03F32B43D36278
:10027C00CAE70726116923449E4021EA060105FAC4
:10028C0003F30B431361CFE7104B9A4216D19368DB
:10029C001B02CDD49368102C43F400039360C7D198
:1002AC000B4B0C4A1B68B3FBF2F20A23534301932A
:1002BC00019B002BBCD0019B013BF8E7836A43F008
:1002CC00200383620123B4E70223B5E70024014035
:1002DC001801002040420F0038B5036804469A68A4
:1002EC00D20701D4002038BD9A6822F001029A602E
:1002FC00FFF768FF054623689B68DB07F2D5FFF71D
:10030C0061FF401B0228F6D9A36A012043F01003B9
:10031C00A362E36A43F00103E36238BD70B504469F
:10032C00002871D0836A23B9C36280F8243002F0AC
:10033C00CDFB2046FFF7D0FFA36A13F0100FA36A82
:10034C0064D1002862D1E16923F48853626823F0F8
:10035C00020343F002030A43A168A362237BB1F5B5
:10036C00807F42EA430238D0012914BF06464FF47D
:10037C008076257D012D07D1002B30D1A369013B5F
:10038C0046EA433545F400662368B1F5807F5D6825
:10039C0025F4694545EA06055D609E681D4D05EA34
:1003AC00060545EA02059D6001D0012920D121698D
:1003BC0001390905DD6A25F470052943D96299686C
:1003CC00154B0B409A4215D10023E362A36A23F02C
:1003DC00030343F00103A36270BD0E46C9E7A36A91
:1003EC0043F02003A362E36A43F00103E362CBE72B
:1003FC000021DFE7A36A23F0120343F01003A3628A
:10040C00E36A43F00103E362012070BD43F0100383
:10041C00A362F9E7FDF7E1FFFE0E1FFF074A00029A
:10042C00D36800F4E06023F4E0631B041B0C43F07E
:10043C00BF6343F400330343D360704700ED00E027
:10044C00174B30B5DC68C4F30224C4F10703251D37
:10045C00042B28BF0423062D4FF0010598BF002460
:10046C0005FA03F303F1FF3388BF033C1940A140A5
:10047C0005FA04F4013C2240002842EA01024FEA4A
:10048C000212A9BF00F16040064BD2B200F56140E8
:10049C00BBBF00F00F00D2B280F800231A5430BD5D
:1004AC0000ED00E014ED00E0002808DB0123420918
:1004BC0000F01F0003FA00F0014B43F822007047D4
:1004CC0000E100E00138B0F1807F0AD2F021064B48
:1004DC00064A586082F823100020072298601A60A0
:1004EC0070470120704700BF10E000E000ED00E015
:1004FC002DE9F74F00242646664BDFF8A8E1DFF81C
:10050C00A8C10A6832FA06F502D103B0BDE8F08F33
:10051C004FF0010808FA06F802EA080290457FD16C
:10052C004D68122D00F0AA8000F28380022D00F09D
:10053C00A28077D8002D00F08980012D00F09980E1
:10054C004FF00F09FF2A93BF824606F18045083D04
:10055C00D0F800B092BFB500D0F804B0AD0009FAE5
:10056C0005F82BEA080804FA05F588BF00F1040A1F
:10057C0048EA0505CAF80050D1F804A01AF0805FCB
:10058C004ED0454D444FAD6926F0030845F00105AA
:10059C00BD61BD6908F1804805F00105019508F5BC
:1005AC00803806F0030B019D4FEA8B0BD8F80850EE
:1005BC0009FA0BF925EA0909384DA84263D005F56B
:1005CC008065A84261D005F58065A8425FD005F52D
:1005DC008065A8420CBF0325042505FA0BF545EAF6
:1005EC000905C8F808501D681AF4803F14BF15435C
:1005FC0095431D605D681AF4003F14BF1543954385
:10060C005D609D681AF4801F14BF154395439D606F
:10061C00DD681AF4001F14BF2A4325EA0202DA60CF
:10062C0001366EE7032D22D0112D89D1CC6804340C
:10063C0086E71B4FBD4209D012D8DFF870904D45AC
:10064C0004D009F580394D457FF47AAF8C68C4B17C
:10065C00012C0CBFC0F81080C0F8148008246FE780
:10066C007545F3D06545F1D0DFF84490EBE70024F5
:10067C0066E7CC6864E7CC68083461E7CC680C3476
:10068C005EE704245CE70025A7E70125A5E7022522
:10069C00A3E700BF00040140001002400008014025
:1006AC000000211000003110000032100000111069
:1006BC00000022100AB1016170470904FBE738B54C
:1006CC000446D8B14CF6CC4203681A6045F2555238
:1006DC001A6042685A6082689A60FFF773FD05469B
:1006EC002368D86818B94AF6AA221A6038BDFFF7F1
:1006FC0069FD401B3028F3D9032038BD012038BDDB
:10070C00F0B5044687B010B390F8293203F0FF021D
:10071C001BB980F8282202F017FB254603236E46EE
:10072C0055F8100B84F8293200F07AFF0FCD0FC664
:10073C002B6825463360271D97E80E0055F8100BE3
:10074C0000F05EFF064620B1022384F82932012511
:10075C0048E00146206800F06DFF30464FF0010E76
:10076C006168C3B2994200F1010017D8002210460B
:10077C00D3B2994202F101021DD86E460FCD0FC6BD
:10078C002B68336097E80E00206800F055FF0123BA
:10079C00054600B3022284F82922D8E704EB431261
:1007AC0082F829E082F82830D38682F82B60966391
:1007BC00D6631664D5E704EB431686F828310A3362
:1007CC005B0186F8290186F82B01C6F83801C6F8BA
:1007DC003C01E050CCE784F8240084F829322068EE
:1007EC0001F010FA284607B0F0BD90F8283210B589
:1007FC00012B04460ED0012180F8281202F0CDFB0B
:10080C00206801F0FDF9206800F001FF002084F859
:10081C00280210BD022010BD90F8282210B5012A24
:10082C0004460BD0012280F8282284F8241000689A
:10083C0001F0E0F9002084F8280210BD022010BD60
:10084C0070B511F0800F044601F007004FEA401517
:10085C001FD0012605F128012544214485F8296083
:10086C000A614A78C0B20870CB7002B1C881022B01
:10087C0004BF00230B7194F82832012B11D00123F3
:10088C00206884F8283200F0F3FE002084F8280257
:10089C0070BD002605F594712544214485F8296125
:1008AC00DEE7022070BD01F0070311F0800F10B5D8
:1008BC004FEA4312044615D002F1280101440244C8
:1008CC00012082F829000B7094F82832012B11D0EA
:1008DC000123206884F8283201F042F8002084F8C3
:1008EC00280210BD02F5947101440244002082F8E4
:1008FC002901E8E7022010BD70B5002601F00701C0
:10090C004D01441984F8281105F594710144C4F87B
:10091C003C21C4F84031C4F8446184F82961006872
:10092C0001F088F9304670BD01F0070100EB411170
:10093C00D1F84401704701F0070170B54D0144191D
:10094C0023640026012384F8281005F128010144B2
:10095C00E263666484F82930006801F06BF9304674
:10096C0070BD00002DE9F84F0446006801F04CF909
:10097C00020400F11082206801F046F943050FD5FE
:10098C0022682046B2F8443023F480631B041B0C0D
:10099C00A2F8443002F00FFA00212046FFF73CFF8A
:1009AC00206801F031F9470408D52268B2F84430C8
:1009BC0023F480431B041B0CA2F84430206801F084
:1009CC0023F9860408D52268B2F8443023F4005386
:1009DC001B041B0CA2F84430206801F015F9C50467
:1009EC001CD522682046B2F8403023F004031B04C7
:1009FC001B0CA2F84030B2F8403023F008031B0463
:100A0C001B0CA2F8403002F0F9F92268B2F844301D
:100A1C0023F480531B041B0CA2F84430206801F013
:100A2C00F3F8000526D52068B0F840309BB243F0AF
:100A3C000803A0F84030B0F8443023F400631B04E2
:100A4C001B0CA0F84430B0F840309BB243F00403C8
:100A5C00A0F8403001F0D8F8C10408D52268B2F8EB
:100A6C00443023F480531B041B0CA2F84430204662
:100A7C0002F0B4F9206801F0C7F882050BD52268A2
:100A8C002046B2F8443023F400731B041B0CA2F86C
:100A9C00443002F08CF9206801F0B6F8C30508D593
:100AAC002268B2F8443023F480731B041B0CA2F8A8
:100ABC004430BDE8F88FB0F8441089B211F00F063D
:100ACC0040F0B780038811F010019BB22CD103EADF
:100ADC00090343F400430380B0F8503094F8282005
:100AEC009BB203EBC20300EB4300B0F80434E26B9F
:100AFC00C3F3090363641344E363204602F050F923
:100B0C0094F8243053B1226C42B994F82430216803
:100B1C0043F08003A1F84C3084F824202068B0F80E
:100B2C0044301B04C7D426E713F4006521D0B0F879
:100B3C00503094F828219BB203EBC20300EB430323
:100B4C00B3F80C34B4F82E21C3F30903C4F84431C0
:100B5C0004F50C7101F056F922682046138823F035
:100B6C0070031B051B0D43F08003138002F00AF980
:100B7C00D4E71F04D2D5038823F070031B051B0D8B
:100B8C0043F080030380B0F8503094F828219BB2D6
:100B9C0003EBC20300EB4303B3F80C34C3F30903B8
:100BAC00C4F844318BB1D4F83C1171B1B4F82E2196
:100BBC0001F028F9D4F83C31D4F8442129461344E7
:100BCC00C4F83C31204602F0E3F82168D4F83851DF
:100BDC00B1F8503001F20C409BB2CDB9C25A22F49C
:100BEC00F8421204120CC252C25A92B242F400429F
:100BFC00C2520B8823F4804323F070031B041B0C9C
:100C0C0083F4405343F4004343F080030B8085E7A7
:100C1C003E2D06D86A08EE0748BF0132920292B206
:100C2C00E6E76A09ED0608BF02F1FF324AEA8222C2
:100C3C00F5E730F826801FFA88F818F4004F3DD0FD
:100C4C0030F82630770123F070031B051B0D43F0A1
:100C5C00800320F82630E11991F83431002B58D15B
:100C6C00B0F8503091F828219BB2063303EBC20345
:100C7C0000EB4303B3F80054C5F3090535B1B1F8E3
:100C8C002E212B46D1F83C1101F0BCF8E119D1F81A
:100C9C004431D1F83C212B44C1F84431D1F84031D6
:100CAC002A44C1F83C211BB1D1F83801854269D2E4
:100CBC00274497F82811204602F06AF818F0800FA4
:100CCC003FF42CAF2168204631F8262092B202EA7C
:100CDC00090242F4004221F82620B1F8503004EB0E
:100CEC00461696F828209BB2023303EBC20301EBA5
:100CFC004303B3F80024F36BC2F3090272641A4481
:100D0C00336CF26396F82810002B41D102F048F8AE
:100D1C0004E791F8283130F82320DB0012F4804FDF
:100D2C00B0F8502092B21FD00232134400EB4303B0
:100D3C00B3F80054C5F3090535B12B46B1F8302191
:100D4C00D1F83C1101F05EF8E31993F828112268F0
:100D5C0032F821309BB203EA0B0343F4004343F017
:100D6C00C00322F8213091E70632134400EB430311
:100D7C00B3F80054C5F30905002DE5D02B46B1F8A6
:100D8C003221DDE791F828112046FFF7B5FD95E7F4
:100D9C00FFF7D1FDC2E6DFF80C90DFF80CA0DFF80E
:100DAC000CB0BBE60F8FFFFF0080FFFF8F8FFFFFA4
:100DBC0038B5436801F007059D42044628D80B0658
:100DCC001DD501226B0103F128010344014483F872
:100DDC00292001230D708B7094F828229A4219D087
:100DEC0084F82832206800F09AFE25B904F50C71BD
:100DFC00206800F00DFF002084F8280238BD002286
:100E0C004B0103F594710344014483F82921E0E775
:100E1C00012038BD022038BD38B5436801F00F02FF
:100E2C009A42044626D801F0070311F0800F4FEACE
:100E3C00431217D002F1280101440244012082F828
:100E4C00290000250B708D7094F82832012B13D0DB
:100E5C000123206884F8283200F081FE84F828529F
:100E6C00284638BD02F5947101440244002082F8F2
:100E7C002901E6E7012038BD022038BD11F0800FB2
:100E8C001BBF01F0070100EB411000EB41102830B3
:100E9C0008BF00F594701AB90273C3800020704724
:100EAC00012203811B0C02734381F7E72DE9F34107
:100EBC00054608B901203CE00368DB0710D42B6819
:100ECC009F075DD42B68190700F194802B685A0793
:100EDC0000F1BE80E869002840F02C81002028E059
:100EEC008F4C636803F00C03042B07D0636803F08A
:100EFC000C03082B09D16368DE0306D523689C0319
:100F0C00DDD56B68002BDAD1D4E76B68B3F5803F85
:100F1C0012D1236843F480332360FFF753F906465C
:100F2C0023689803CBD4FFF74DF9801B6428F7D9BD
:100F3C00032002B0BDE8F0819BB9236823F4803311
:100F4C002360236823F480232360FFF73BF90646D4
:100F5C0023689903B3D5FFF735F9801B6428F7D9BB
:100F6C00E6E7B3F5A02F236803D143F48023236075
:100F7C00CFE723F480332360236823F48023CBE76B
:100F8C00674C636813F00C0F07D0636803F00C0315
:100F9C00082B10D16368DA030DD423689B0702D5A4
:100FAC002B69012B86D123686A6923F0F80343EA85
:100FBC00C203236086E72A695A4B6AB101221A6080
:100FCC00FFF700F9064623689F07ECD4FFF7FAF801
:100FDC00801B0228F7D9ABE71A60FFF7F3F8064637
:100FEC00236898077FF56EAFFFF7ECF8801B02289B
:100FFC00F6D99DE7AA694A4C4B4BDAB101221A602B
:10100C00FFF7E0F80646636A9B070DD54FF4FA52DA
:10101C00464B1B68B3FBF2F3019300BF019B5A1EB6
:10102C000192002BF9D151E7FFF7CCF8801B022875
:10103C00E9D97DE71A60FFF7C5F80646636A9F0792
:10104C007FF544AFFFF7BEF8801B0228F6D96FE797
:10105C00334CE369D80024D40127E36943F080536F
:10106C00E361E36903F080530093009B304E3368D7
:10107C00D90518D5EB68012B26D1236A43F001035F
:10108C002362FFF79FF841F288368046236A9B075C
:10109C003FD5002F3FF41EAFE36923F08053E3618B
:1010AC0018E70027E2E7336843F480733360FFF7F7
:1010BC0089F880463368DA05DCD4FFF783F8A0EBB7
:1010CC0008006428F6D933E7ABB9236A41F28838B3
:1010DC0023F001032362236A23F004032362FFF746
:1010EC0071F80646236A9807D3D5FFF76BF8801B77
:1010FC004045F7D91CE7052B236A03D143F00403C1
:10110C002362BAE723F001032362236A23F004036A
:10111C00B6E7FFF757F8A0EB0800B042B6D907E7DF
:10112C00001002400000424280044242180100209C
:10113C00007000402A4B5A681C4602F00C02082A28
:10114C003DD00023274E022833602BD1FFF73AF80D
:10115C000746236899011FD42B6AB3F5803F05D14C
:10116C006268A96822F400320A436260696A6268A4
:10117C000B4322F474121343636001233360FFF7B3
:10118C0021F8054623689A013FF5A8AEFFF71AF837
:10119C00401B0228F6D9CBE6FFF714F8C01B022837
:1011AC00D7D9C5E6FFF70EF8054623689B017FF5F6
:1011BC0095AEFFF707F8401B0228F6D9B8E60128D0
:1011CC003FF4B7AE58682B6A00F480329A427FF431
:1011DC0071AE6B6A00F47010C01A18BF0120A8E63B
:1011EC00001002406000424230B5194B87B002AC8F
:1011FC0003F11005224618685968083303C2AB4244
:10120C001446F7D101238DF80430022311498DF8CF
:10121C0005304B6803F00C02082A17D1C3F3834244
:10122C0006A80244DB0312F8102C0CD54B680A48B4
:10123C00C3F34043504306AA134413F8143CB0FBC9
:10124C00F3F007B030BD05485043FAE70248F8E721
:10125C00543100080010024000127A0000093D00D1
:10126C002DE9F0410D46044610B90120BDE8F0818E
:10127C00454A136803F007038B4229D321688E0774
:10128C0031D4CA0744D4404A136803F007039D4283
:10129C0067D322683D4D12F0040F6ED1130706D5AB
:1012AC006B68226923F4605343EAC2036B60FFF757
:1012BC009BFF6B68364AC3F30313D35CD840354BA2
:1012CC001860354B1868FEF73BFF0020BDE8F08135
:1012DC00136823F007030B431360136803F0070331
:1012EC009942C2D1CAE7294B11F0040F1EBF5A68AC
:1012FC0042F4E0625A60080742BF5A6842F46052F6
:10130C005A605A68A06822F0F00202435A60B8E7AB
:10131C0062681E4E012A33681BD113F4003FA4D01F
:10132C00736841F2883823F0030313437360FEF7AC
:10133C0049FF07467368626803F00C03B3EB820F36
:10134C00A1D0FEF73FFFC01B4045F3D90320BDE8F9
:10135C00F081022A02D113F0007FE0E713F0020FB4
:10136C00DDE7136823F007032B431360136803F0C6
:10137C0007039D427FF479AF8BE76B68E16823F438
:10138C00E0630B436B6089E70020024000100240D1
:10139C00643100081801002004000020044B054AA9
:1013AC005B68C3F30223D35C034A1068D8407047D0
:1013BC00001002407431000818010020044B054A4B
:1013CC005B68C3F3C223D35C034A1068D8407047F0
:1013DC0000100240743100081801002003682DE948
:1013EC00F341D907054620D5354CE369DA0032D4F0
:1013FC000127E36943F08053E361E36903F0805311
:10140C000193019B2F4E3368DB0526D5236A13F419
:10141C00407336D1236A6A6823F440731343236202
:10142C001FB1E36923F08053E3612868830706D575
:10143C00234AA968536823F440430B43536010F0CC
:10144C0010001BD01E4AE9685368002023F4800367
:10145C000B43536012E00027D4E7336843F48073E6
:10146C003360FEF7AFFE80463368D805CED4FEF766
:10147C00A9FEA0EB08006428F6D9032002B0BDE851
:10148C00F0816A6802F440729342C3D001200E4A84
:10149C00236A1060002023F4407110602162D90788
:1014AC00B8D5FEF78FFE41F288380646236A9A07B4
:1014BC00B0D4FEF787FE801B4045F7D9DDE700BFAF
:1014CC0000100240007000404004424238B505460E
:1014DC000368C1681A69192422F440520A431A613C
:1014EC0082680069D9680243686921F4B05121F01F
:1014FC000C0102430A43DA605A69A96922F440726A
:10150C000A435A610D4A934214D1FFF757FF6043C7
:10151C006C686422A400B0FBF4F0B0FBF2F402FBA4
:10152C0014031B013233B3FBF2F3296803EB0413EE
:10153C008B6038BDFFF732FFE9E700BF0038014090
:10154C0010B5044640B390F8393003F0FF021BB9D4
:10155C0080F8382001F00AFB2423226884F8393003
:10156C00D368204623F40053D360FFF7AFFF236802
:10157C0000201A6922F490421A615A6922F02A0258
:10158C005A61DA6842F40052DA602023E06384F88E
:10159C00393084F83A3010BD012010BD10B5044626
:1015AC0060B390F8393003F0FF021BB980F8382093
:1015BC0001F0DCFA2423226884F83930D368204601
:1015CC0023F40053D360FFF781FF236800201A69CE
:1015DC0022F490421A615A6922F022025A615A6925
:1015EC0042F008025A61DA6842F40052DA602023B1
:1015FC00E06384F8393084F83A3010BD012010BD16
:10160C0084B001A880E80E0004B000207047B0F848
:10161C0040309BB243F43F43A0F840300020704769
:10162C00B0F8403023F47C535B045B0CA0F84030E2
:10163C00002070470020704784B010B503AC84E8DC
:10164C000E00BDE8104000220123A0F84030A0F8A5
:10165C004020A0F84420A0F85020B0F8403004B04E
:10166C009BB243F43F43A0F8403010467047000053
:10167C00F0B50D78034630F82520C87822F4EC42FA
:10168C0022F070021204120C03284ED8DFE800F08E
:10169C00024A044742F40072002048F280042243BC
:1016AC0023F825200E78AB4D33F82620344392B224
:1016BC002A40224323F826200C7B0A78002C40F089
:1016CC0088804E78CC8896B3B3F8506003EB021246
:1016DC0024F00104B6B202F58062A4B294530C78E3
:1016EC0033F82420560609D533F8242092B22A4028
:1016FC0042F4004242F0C00223F82420CA78097850
:10170C00012A33F82120944C92B202EA040201D04F
:10171C0082F0200242F4004242F08002CBE042F41C
:10172C00C062B9E742F48062B6E70120B5E7B3F8CE
:10173C00505003EB021224F00104ADB202F58162A9
:10174C00A4B254530A78B3F850600D6903EB02123B
:10175C00B6B202F20C425DBB945B24F4F844240450
:10176C00240C9453945B6FEA44446FEA5444A4B23F
:10177C0094530C7833F8242055040DD533F82420D9
:10178C0022F4E04222F070021204120C42F44042A5
:10179C0042F0800223F82420097833F8212022F427
:1017AC00804222F070021204120C82F44052B1E713
:1017BC003E2D05D86C08ED0748BF0134A402D6E7CE
:1017CC006F09EC06654C08BF07F1FF3744EA872424
:1017DC00CDE733F82240A4B22C4044F4014444F049
:1017EC00800423F822400A780C89B3F8506003EB8C
:1017FC00021224F00104B6B202F58062A4B2945332
:10180C000A784C89B3F8506003EB021224F00104FF
:10181C0002F58162A4B2B6B294534A780C78002ACD
:10182C004CD133F82420520409D533F8242092B239
:10183C002A4042F4404242F0800223F824200C78E3
:10184C0033F8242057060DD533F8242022F4E04237
:10185C0022F070021204120C42F4004242F0C00258
:10186C0023F824200C7833F8242022F4E04222F0D0
:10187C0070021204120C42F4004242F0C00223F82F
:10188C00242048F280040D7833F8252022F480427D
:10189C0022F070021204120C82F44052224323F8FC
:1018AC002520097833F8212022F4E04222F040026E
:1018BC001204120C224323F82120F0BD33F824200B
:1018CC00560409D533F8242092B22A4042F44042FF
:1018DC0042F0800223F824200C7833F8242052069E
:1018EC000DD533F8242022F4E04222F070021204C9
:1018FC00120C42F4004242F0C00223F824200C786F
:10190C00154D33F8242022F4E04222F07002120428
:10191C00120C42F4404242F0800223F82420CA7890
:10192C000C78012A33F8242092B202EA050218BF7F
:10193C0082F0200242F4004242F0800223F824207C
:10194C00097833F8212022F4804222F0700212042C
:10195C00120CDFE68F8FFFFFBF8FFFFF0080FFFFB2
:10196C0010B50C7B4B780A78002C3DD113B330F8B2
:10197C0022305C060DD530F8223023F4E04323F0FE
:10198C0070031B041B0C43F4004343F0C00320F80A
:10199C0022300A7830F8223023F4E04323F040035D
:1019AC001B041B0C43F4004343F0800320F822304B
:1019BC00002010BD30F822305B040DD530F82230F9
:1019CC0023F4E04323F070031B041B0C43F440434B
:1019DC0043F0800320F822300A7830F8223023F4C8
:1019EC00804323F07003DBE7002B4ED130F822301C
:1019FC005C040DD530F8223023F4E04323F070035F
:101A0C001B041B0C43F4404343F0800320F82230AA
:101A1C000A7830F822305B060DD530F8223023F4EA
:101A2C00E04323F070031B041B0C43F4004343F00E
:101A3C00C00320F822300A7830F8223023F4E04337
:101A4C0023F070031B041B0C43F4004343F0C0034E
:101A5C0020F8223048F280020C7830F8243023F43D
:101A6C00804323F070031B041B0C134320F8243019
:101A7C00097830F8213023F4E04323F040031B04B1
:101A8C001B0C134320F8213092E730F822305C0411
:101A9C000DD530F8223023F4E04323F070031B04FF
:101AAC001B0C43F4404343F0800320F822300A78A7
:101ABC0030F822305B060DD530F8223023F4E043A9
:101ACC0023F070031B041B0C43F4004343F0C003CE
:101ADC0020F822300A7830F8223023F4E04323F047
:101AEC0070031B041B0C43F4404343F0800320F8A9
:101AFC00223048F280020C7830F8243023F4E04392
:101B0C0023F040031B041B0C134320F824300978EA
:101B1C0030F8213023F4804323F07003AFE74B7887
:101B2C000A788BB130F8223023F4E04323F04003E1
:101B3C001B041B0C83F0100343F4004343F080039D
:101B4C0020F822300020704730F8223023F48043F4
:101B5C0023F070031B041B0C83F48053ECE70B7B0A
:101B6C0043BB4B780A783BB330F822305B060DD57B
:101B7C0030F8223023F4E04323F070031B041B0CD9
:101B8C0043F4004343F0C00320F82230CB78012B00
:101B9C0010D00A7830F8223023F4E04323F04003CD
:101BAC001B041B0C83F0200343F4004343F080031D
:101BBC0020F822300020704730F822305B040DD51D
:101BCC0030F8223023F4E04323F070031B041B0C89
:101BDC0043F4404343F0800320F822300A7830F875
:101BEC00223023F4804323F070031B041B0C83F47A
:101BFC004053D9E711B98023A0F84C30002070472E
:101C0C000020704700207047B0F8440080B2704745
:101C1C000020704700EB4202013302F580625B0842
:101C2C0002EB83039A4200D1704731F8020B22F881
:101C3C00040BF7E770B50D46497804460129AA69EB
:101C4C002B69287B66D19A429DBF0023AB6113465A
:101C5C00D21A88BFAA619EB208BB3346EA8869696A
:101C6C002046FFF7D7FFB4F850302A7899B204F227
:101C7C00044312010B44D6522A7834F8223023F450
:101C8C00E04323F040031B041B0C83F0300343F4AC
:101C9C00004343F0800324F82230002070BD2B78E1
:101CAC00204634F823201B0112F0400FB4F85020CA
:101CBC0091B215BF04F20C4204F2044252185218AD
:101CCC0015BFD652D6526A892A8933466969FFF7FD
:101CDC00A1FF6B782A7873B934F8223023F4E043EF
:101CEC0023F070031B041B0C43F4004343F0C003AC
:101CFC0024F82230C0E7012BBED134F8223023F473
:101D0C00E04323F070031B041B0C43F4404343F0EB
:101D1C008003EDE79A4293BF0023D21AAA61AB610C
:101D2C0098BF13462A78B0B9B4F85000120181B2AA
:101D3C0004F20C400844002B44D1835A23F4F8439A
:101D4C001B041B0C8352835A6FEA43436FEA5343C1
:101D5C009BB283523FE0A1B9B4F85000120181B29A
:101D6C0004F204400844E3B9815A21F4F84109040F
:101D7C00090C8152815A6FEA41416FEA514189B293
:101D8C00815269782A780029CED0012923D1B4F860
:101D9C005010120188B204F20C4101449BB28B52D8
:101DAC0019E03E2B05D85908DE0748BF01318902DE
:101DBC00E5E75E09D906124908BF06F1FF3641EA8C
:101DCC008621DCE73E2B12D85908DE0748BF0131CB
:101DDC00890289B281522A7834F8223023F4804364
:101DEC0023F070031B041B0C83F440534FE7590979
:101DFC00DB06034B08BF01F1FF3143EA8123A7E760
:101E0C000080FFFF00EB4202F0B502F580625D0836
:101E1C00084617462E46023036B9DB0744BF32F867
:101E2C00253001F81530F0BD37F8044B013EA4B253
:101E3C0000F8024C240A00F8014CECE7D0F8BC3254
:101E4C0010B5D0F8B8425BB194F80002FF2807D067
:101E5C009B6894F8012221469847FF2384F80032AE
:101E6C00002010BD43230380004870474000002031
:101E7C0043230380004870478400002043230380E1
:101E8C0000487047D40000200A23038000487047A4
:101E9C00C800002038B50546D0F8B84201F074F8F7
:101EAC00D5F8B832C4F80C024BB1D5F8BC3204F5F5
:101EBC000371DB68D4F804029847002038BD022077
:101ECC0038BDF8B5D0F8B862CEB1142303FB0103CA
:101EDC00DA6982B1D0F8C04204EB4114A56BB2FBB5
:101EEC00F5F405FB142434B9DC612246234601F0D9
:101EFC002FF82046F8BD0020C6F81402F8BD0220C9
:101F0C00F8BD2DE9F7434FF000080A78054612F0AA
:101F1C0060040E46D0F8B8728DF80580ADF80680D6
:101F2C0028D0202C47D1CC884B78E4B1120611D59F
:101F3C00D0F8BC223946D2F8089018462246C84739
:101F4C00F2883946284600F02EFC4446204603B061
:101F5C00BDE8F08387F8003287F801422246394603
:101F6C0000F036FCF1E7D0F8BC2218469568224602
:101F7C00A847EBE74F780A2F0DD00B2F15D0D7B908
:101F8C0090F89C32032B14D102220DF1060100F0C3
:101F9C000AFC3C46DAE790F89C32032B09D101226B
:101FAC000DF1050100F0FFFBD0E790F89C32032BFC
:101FBC00CCD03146284600F0CFFB0224C6E738B51A
:101FCC0004460025812100F07BFF0121E5622046BB
:101FDC0000F076FFC4F86C518221204600F070FFAF
:101FEC00D4F8B83225644BB1D4F8BC325B6898474E
:101FFC00D4F8B80200F0D0FFC4F8B852002038BDB5
:10200C00037C2DE9F0410446CBBB4FF40073022254
:10201C008121012500F044FF4FF40073E56229464D
:10202C000222204600F03CFFC4F86C510125082325
:10203C0003228221204600F033FF25644FF4077001
:10204C0000F0A6FF0646C4F8B80258B30027D4F82F
:10205C00BC321B68984794F81080C6F81472C6F806
:10206C001872B8F1000F13D14FF40073D6F8042294
:10207C002946204600F07AFF4046BDE8F081012554
:10208C0040230222812100F00BFFE5624023C6E7CA
:10209C004023D6F804222946204600F067FF384634
:1020AC00BDE8F0812846BDE8F08119B1C0F8BC123A
:1020BC000020704702207047D0F8B8320020C3F8D7
:1020CC000812C3F810227047D0F8B8320020C3F8B9
:1020DC0004127047D0F8B82210B562B1047C44B930
:1020EC004FF40073D2F80422012100F03FFF0020CE
:1020FC0010BD4023F6E7022010BD08B580B1D0F822
:10210C00B43213B10023C0F8B43209B1C0F8B01224
:10211C000123027080F89C3200F074FE002008BD90
:10212C00022008BD19B1C0F8B4120020704702207B
:10213C00704708B500F0A6FE002008BD08B5D0F821
:10214C00B4320BB9022008BD1B6898470028F9D19E
:10215C0008BD08B5D0F8B4325B689847002008BDBC
:10216C0038B500F52A750446284600F0E1FA01233B
:10217C0094F8A812C4F89432B4F8AE32C4F8983279
:10218C0001F01F03012B0ED007D3022B10D001F04E
:10219C008001204600F0A2FE03E02946204600F014
:1021AC00F5F8002038BD2946204600F013FAF8E770
:1021BC002946204600F033FAF3E770B5054616467B
:1021CC0049BBD0F89432032B1ED1D0F86031D0F833
:1021DC00642193420BD99B1A9A42C0F860318CBF90
:1021EC009AB292B2314600F002FB002070BDD0F8DA
:1021FC00B4321B6923B190F89C22032A00D1984772
:10220C00284600F0FCFAF0E7052BEED1C5F8941245
:10221C0000F064FEE9E7D0F8B4329B692BB190F87A
:10222C009C22032A01D19847DFE7022070BD70B5CC
:10223C00134604460E46002947D1D0F89422022AB0
:10224C003CD1056A426A954213D9AA1A0262194610
:10225C0092B200F0B5FA33461A461946204600F001
:10226C0085FE94F8A0320020012B3AD184F8A0020C
:10227C0070BDC369B3FBF2F502FB153565B99A4223
:10228C000AD8D0F89822934206D22A4600F098FA3F
:10229C00C4F898522B46DFE7D4F8B432DB682BB184
:1022AC0094F89C22032A01D120469847802120468D
:1022BC0000F014FE204600F0ADFAD2E732F0040331
:1022CC00CFD1802100F00AFECBE7D0F8B4325B69A5
:1022DC0033B190F89C22032A02D19847002070BD9C
:1022EC00022070BD002270B504460125402611461F
:1022FC00402300F0D5FD33468021C4F85851C4F872
:10230C0064610022204600F0CBFD0021D4F8B832E5
:10231C00A561666284F89C52C4F894126160C4F89A
:10232C00A41223B1D4F8B43220465B68984700203D
:10233C0070BD01740020704790F89C3280F89D327B
:10234C00042380F89C320020704790F89C32042BB8
:10235C0004BF90F89D3280F89C320020704708B57D
:10236C0090F89C22032A04D1D0F8B432DB6903B173
:10237C009847002008BD10B50446802100F0AEFD42
:10238C002046BDE81040002100F0A8BD37B50B7801
:10239C00044603F06003202B0D4612D0402B10D0C6
:1023AC00002B5CD14B78092B58D8DFE813F0E900EF
:1023BC0005015700FE005700840013005700D2009F
:1023CC00A000D4F8B43229469B68204698470020D8
:1023DC0003B030BD0023ADF806304B881A0A013A21
:1023EC00062A3BD8DFE802F004202D3A3A525C0072
:1023FC00D0F8B0321B680DF10601207C9847BDF86F
:10240C00062052B1EB8843B19A4228BF1A460146C6
:10241C002046ADF8062000F0C6F9EB88002BD6D18B
:10242C00204600F0ECF9D2E7027CD0F8B43232B995
:10243C009B6A0DF10600984702234370DFE7DB6AC5
:10244C00F7E7DBB2052B09D8DFE803F0030C101417
:10245C00181CD0F8B0325B68002BCCD12046FFF7AB
:10246C008AFFB4E7D0F8B0329B68F5E7D0F8B03209
:10247C00DB68F1E7D0F8B0321B69EDE7D0F8B03289
:10248C005B69E9E7D0F8B0329B69E5E7037C002B88
:10249C00E4D1D0F8B4320DF106005B6B9847AEE78F
:1024AC00037C002BDAD1D0F8B4320DF106001B6B93
:1024BC0098470723C1E78B88002BCFD1CB88002B03
:1024CC00CCD14D887F2DC9D890F89C32E9B2032B22
:1024DC00C4D080F89E1200F02DFD204600F08FF93C
:1024EC001DB1022384F89C3271E70123FAE7897845
:1024FC00374D01292970B1D890F89C32022B08D0A5
:10250C00032B14D0FFF737FF29782046FFF721FE65
:10251C005DE7002984D001210323416080F89C32BF
:10252C002046FFF70BFE02287FF47AAF96E731B90D
:10253C000223416080F89C32FFF70BFE70E7416884
:10254C0001293FF46DAFC9B2FFF703FE2978616032
:10255C00E6E7CA88012A81D190F89C32002B3FF41F
:10256C007DAF022B04D9032B7FF478AF011D03E060
:10257C000146002341F8083F204600F014F926E7F5
:10258C0090F89C32013B022B3FF668AFCB88022BB4
:10259C007FF464AF0123C360D0F8A4320BB10323E2
:1025AC00C360022204F10C01E6E74B88012B7FF497
:1025BC000EAFC4F8A43233E790F89C32013B022BE7
:1025CC003FF64CAF4B88012B7FF401AF0023F0E7B3
:1025DC009801002038B50B78044603F06003202BDB
:1025EC000D4602D0402B00D0B3B994F89C32013B7D
:1025FC00022B10D82B79012B0DD8D4F8B4322946E4
:10260C009B6820469847EB881BB910B9204600F010
:10261C00F6F8002038BD2046FFF7ADFEF9E738B5D7
:10262C000A78044602F06002202A0B4613D0402A96
:10263C0011D06AB95D788A88012DD1B21FD035D3FB
:10264C00032D05D190F89C22022A26D0032A0AD009
:10265C00FFF791FE05E0D4F8B422194692682046A3
:10266C009047002038BD5A882AB94A0603D0DB8827
:10267C000BB900F033FC204600F0C1F8F1E790F8FC
:10268C009C22022A09D0032AE2D15B88002BE8D1D4
:10269C004D06F0D000F030FCEDE74B0616D000F004
:1026AC001DFC8021204600F019FCDAE790F89C32E2
:1026BC00022B0DD0032BCBD1142312F0800F01F081
:1026CC000F0203FB020214D09269EAB92046BFE75D
:1026DC004906FBD113064FF000034FF002024CBF2A
:1026EC0000F1140100F5AA710B60204600F05BF8B4
:1026FC00B7E7D2F85821002AE8D001F07F0503FB98
:10270C00050505F5AA7504E001F07F0505FB033509
:10271C00054411F07F0303D12B6002222946E4E724
:10272C00204600F0F7FB08B10123F5E72860F4E739
:10273C000B7803704B784370CA788B7803EB0223C9
:10274C0043804A790B7903EB02238380CA798B7916
:10275C0003EB0223C380704710B50446802100F0C0
:10276C00BDFB2046BDE81040002100F0B7BB30B5E2
:10277C0088B105462B1A15F8014BDBB2002CF9D1A8
:10278C0001335B0013800B7003234B700223013861
:10279C0010F8015F05B930BD5A1CCD54D2B20233CA
:1027AC00DBB28C54F4E71346022210B5C0F8942225
:1027BC00C3610A460362002100F0CAFB002010BD71
:1027CC0008B513460A46002100F0C2FB002008BDE4
:1027DC001346032210B5C0F89422C0F85C310A46A7
:1027EC00C0F86031002100F0C1FB002010BD08B51D
:1027FC0013460A46002100F0B9FB002008BD08B5BD
:10280C000423C0F8943200231A46194600F0A0FBAA
:10281C00002008BD08B50523C0F8943200231A46E1
:10282C00194600F0A3FB002008BD282230B595B056
:10283C000DEB0200002100F073FC142200210DEBC3
:10284C00020000F06DFC0021102201A800F068FCD1
:10285C0009230A934FF48033012202250B93129320
:10286C004FF4E0130AA80E92109213931195FEF7F1
:10287C001DFB0F23002405934FF48063294605A804
:10288C000893069507940994FEF7EAFC122301932A
:10289C004FF4004301A803930494FEF79FFD15B079
:1028AC0030BD000080B588B0FDF76EFCFFF7BDFFB2
:1028BC00102200210DEB020000F032FC624B802153
:1028CC009A69624842F010029A619A69002402F0F7
:1028DC0010020092009A9A69022542F020029A6135
:1028EC009A6948F2200702F020020192019A9A6933
:1028FC00032642F004029A619A6902F004020292E1
:10290C00029A9A6942F008029A619B69002203F0CC
:10291C0008030393039BFDF7CDFE4FF4604304A91A
:10292C004B48049305940694FDF7E2FD40F2CE73F8
:10293C0004A94848049305950795FDF7D9FD04A90A
:10294C004448049705940694FDF7D2FD04A93F482A
:10295C00049605950795FDF7CBFD47F2183304A9AE
:10296C003A48049305940694FDF7C2FD04A9374830
:10297C00049705950796FDF7BBFD012680234FF4C0
:10298C00602704A931480493059607950694FDF732
:10299C00AFFD314A314D5368284643F0E063334371
:1029AC0053602F4B2E612B60AC602C732C75EF6138
:1029BC006C60049405940694FDF7B0FC04A92846B9
:1029CC00284D059604940694FDF702FC264B2846E8
:1029DC002B602E61AC602C732C75EF616C600494D1
:1029EC0005940694FDF79AFC042304A92846049345
:1029FC0005960694FDF7ECFB1C481D4B4FF4E13695
:102A0C0080E8180040F6FF730C258360FDF757FE35
:102A1C001848194B846080E84800C4600461456123
:102A2C008461C461FEF7BAFD1448154B846080E8DC
:102A3C004800C460046145618461C461FEF780FD97
:102A4C0000F034F9FEE700BF00100240000C01401A
:102A5C000010014000080140000001403C0400202F
:102A6C000024014000040020002801403004002014
:102A7C00003000406C04002000380140C0030020EE
:102A8C0000480040704700000E4B82B09A6942F03B
:102A9C0001029A619A6902F001020092009ADA69C5
:102AAC0042F08052DA61DB69074A03F080530193EC
:102ABC00019B536823F0E06343F00073536002B052
:102ACC00704700BF001002400000014030B51024D8
:102ADC00054689B0224600210DEB040000F020FBD6
:102AEC002B681E4A93421DD11D4B0DEB04019A69B4
:102AFC0042F400729A619A6902F400720092009A90
:102B0C009A6942F004029A619B6903F004030193F1
:102B1C00019B01230493032305931248FDF7E8FC62
:102B2C0009B030BD104A9342FAD10D4B04A99A69F1
:102B3C0042F480629A619A6902F480620292029A6B
:102B4C009A6942F004029A619B69049403F00403AD
:102B5C000393039B03230593DFE700BF002401408D
:102B6C00001002400008014000280140102210B55E
:102B7C00044688B00DEB0200002100F0D1FA236866
:102B8C002A4A934225D12A4B04A99A69294842F42E
:102B9C0080429A619A6902F480420092009A9A6982
:102BAC0042F008029A619B6903F008030193019BB0
:102BBC00402304931223059303230793FDF798FCFA
:102BCC001D4A536843F0E06343F00403536008B0BC
:102BDC0010BD1A4A9342FAD1154B04A9DA6915486B
:102BEC0042F48022DA61DA6902F480220292029ABB
:102BFC009A6942F008029A619B6903F008030393F7
:102C0C00039B4FF4806304930223059303230793E0
:102C1C00FDF76EFC4FF400630493002304A90548F0
:102C2C0005930693FDF764FCD1E700BF0038014023
:102C3C0000100240000C0140000001400048004020
:102C4C007047FEE7FEE7FEE7FEE770477047704708
:102C5C00FDF7ACBA0148FDF785BE00BF400F002060
:102C6C000F4B1A6842F001021A6059680D4A0A406B
:102C7C005A601A6822F0847222F480321A601A6840
:102C8C0022F480221A605A6822F4FE025A604FF431
:102C9C001F029A604FF00062034B9A60704700BFAE
:102CAC00001002400000FFF800ED00E008B5002223
:102CBC000E490F48FFF721FA08B1FFF7E3FE0D4963
:102CCC000B48FFF72FFA08B1FFF7DCFE0A4908485A
:102CDC00FFF7EBF908B1FFF7D5FE0548FFF729FA26
:102CEC0018B1BDE80840FFF7CDBE08BD2C0100208F
:102CFC00AC040020080000201C01002000207047BC
:102D0C000020704710B5054C01462046FFF7DCF952
:102D1C002046FFF7DFF9002010BD00BFAC040020F7
:102D2C0010B5064C002206492046FFF7C5F90549A7
:102D3C002046FFF7C9F9002010BD00BFAC040020ED
:102D4C00580B00207007002007B50D4B02689A4203
:102D5C0012D103F5DA33DA69142042F40002DA6195
:102D6C000022DB69114603F400030193019BFDF77C
:102D7C0067FB1420FDF798FB03B05DF804FB00BF64
:102D8C00005C004000F50C71D0F86802FFF7E8B960
:102D9C0000EB4113D3F83C21D0F86802FFF70DBAD1
:102DAC0000EB4113DA6BD0F86802FFF740BAD0F8A9
:102DBC006802FFF7D4BA836810B5022B044601D021
:102DCC00FFF760FED4F868020121FFF7B2FAD4F8DD
:102DDC006802BDE81040FFF785BA000010B5044644
:102DEC00D0F86802FFF7A8FAA36923B1024A136965
:102DFC0043F00603136110BD00ED00E0D0F868024B
:102E0C00FFF7A3BA0223082210B51C4904461C483C
:102E1C0080E80E000023C4F8C002C0F86842836149
:102E2C00C3610362FDF76CFC08B1FFF72BFE0022B7
:102E3C0018231146D4F8C002FEF720F858230022BC
:102E4C008021D4F8C002FEF719F8C023002281219A
:102E5C00D4F8C002FEF712F84FF488730022012157
:102E6C00D4F8C002FEF70AF84FF4807300228221D6
:102E7C00D4F8C002FEF702F8002010BD005C004040
:102E8C00400F002008B5D0F8C002FDF7AEFC0328B7
:102E9C009ABF024B185C022008BD00BF7C310008B1
:102EAC0010B51C46D0F8C00213462246FDF7C8FCEC
:102EBC0003289ABF014B185C022010BD7C3100081E
:102ECC0008B5D0F8C002FDF7EEFC03289ABF024B00
:102EDC00185C022008BD00BF7C31000808B5D0F892
:102EEC00C002FDF765FF03289ABF024B185C022055
:102EFC0008BD00BF7C31000808B5D0F8C002FDF752
:102F0C008BFF03289ABF024B185C022008BD00BF40
:102F1C007C3100080A06D0F8C03245BF01F07F01B1
:102F2C0003EB411303EB411393F82A0058BF93F8BA
:102F3C002A01704708B5D0F8C002FDF76DFC0328D4
:102F4C009ABF024B185C022008BD00BF7C31000800
:102F5C0008B5D0F8C002FDF7EEFC03289ABF024B6F
:102F6C00185C022008BD00BF7C31000808B5D0F801
:102F7C00C002FDF7C1FC03289ABF024B185C02206B
:102F8C0008BD00BF7C310008D0F8C002FDF7CCBCF6
:102F9C00004870479C01002070477047122301487D
:102FAC000B80704748010020042301480B807047B8
:102FBC005C010020002330B51D46DCB2A24200D8D3
:102FCC0030BD040F092C94BF3034373401F8134052
:102FDC0001EB4304000165700133EEE71A2310B5D1
:102FEC000B80094B186808331B68C0180AD0074BB4
:102FFC0008221C680649FFF7DDFF0422054920461C
:10300C00FFF7D8FF044810BDE8F7FF1FECF7FF1FD0
:10301C0062010020720100206001002010B5044CF8
:10302C000A4604482146FFF7A2FB204610BD00BF0C
:10303C00AC1100209931000810B5044C0A46044824
:10304C002146FFF794FB204610BD00BFAC110020B9
:10305C00AC31000810B5044C0A4604482146FFF771
:10306C0086FB204610BD00BFAC110020803100084B
:10307C0010B5044C0A4604482146FFF778FB20465D
:10308C0010BD00BFAC1100208B310008002103E003
:10309C000B4B5B58435004310A480B4B42189A4275
:1030AC00F6D30A4A02E0002342F8043B084B9A424A
:1030BC00F9D3FFF7D5FD00F00FF8FFF7F3FB7047DE
:1030CC00C4310008000000207C0100207C0100209D
:1030DC00AC130020FEE7000070B500250C4E0D4C23
:1030EC00A41BA410A54209D100F022F800250A4E19
:1030FC000A4CA41BA410A54205D170BD56F825306E
:10310C0098470135EEE756F8253098470135F2E738
:10311C00BC310008BC310008BC310008C0310008CB
:10312C0003460244934200D1704703F8011BF9E7B0
:10313C00F8B500BFF8BC08BC9E467047F8B500BF98
:08314C00F8BC08BC9E46704768
:1031540002030405060708090A0B0C0D0E0F1010D4
:103164000000000000000000010203040607080933
:103174000000000001020304000201024344432052
:10318400436F6E6669670043444320496E746572F9
:10319400666163650053544D6963726F656C656362
:1031A40074726F6E69637300444D585F4354524C9C
:0831B4005F5541525400000078
:0431BC0031010008D5
:0431C0000D010008F5
:1031C40001000000100000000D200008CB1F0008C3
:1031D4000F1F000800000000491E0008CF1E000851
:1031E400A11E000800000000000000000000000014
:1031F4007D1E0008711E0008891E0008951E000827
:1032040009024300020100C0320904000001020265
:103214000100052400100105240100010424020218
:1032240005240600010705820308001009040100B3
:10323400020A0000000705010240000007058102A0
:103244004000000009024300020100C032090400EA
:1032540000010202010005240010010524010001FF
:103264000424020205240600010705820308001055
:1032740009040100020A000000070501020002001F
:1032840007058102000200000A0600020000004057
:103294000100000009074300020104C032090400D0
:1032A40000010202010005240010010524010001AF
:1032B4000424020205240600010705820308001005
:1032C40009040100020A0000000705010240000091
:1032D40007058102400000000024F4002D2D0008A1
:1032E400092D00080D2D0008112D0008A92F000834
:1032F400B52F00082930000845300008E92F0008E0
:10330400613000087D300008120100020202004012
:10331400830440570002010203010000040309046E
:103324001A0300000000000000000000000000007C
:0C3334000000000000000000000000008D
:040000050800309926
:00000001FF
