:020000040800F2
:1000000000500020F95E0008995900089B5900082B
:100010009D5900089F590008A159000800000000E0
:10002000000000000000000000000000A3590008CC
:10003000A559000800000000A7590008A9590008A8
:10004000415F0008415F0008415F0008415F000810
:10005000415F0008415F0008415F0008415F000800
:10006000415F0008415F0008415F0008415F0008F0
:10007000415F0008AD590008415F0008415F00087A
:10008000415F0008415F0008055B0008415F000810
:10009000B9590008415F0008415F0008415F00084E
:1000A000415F0008415F0008415F0008415F0008B0
:1000B000415F0008415F0008415F0008415F0008A0
:1000C000415F0008415F0008415F0008415F000890
:1000D000415F0008A13B0008415F0008415F000844
:1000E000415F0008415F0008415F00080000000018
:1000F0000000000000000000000000000000000000
:0C01000000000000000000005FF808F1A3
:10010C0010B5054C237833B9044B13B10448AFF345
:10011C0000800123237010BD680200200000000045
:10012C00A86A000808B5034B1BB103490348AFF399
:10013C00008008BD000000006C020020A86A0008C6
:10014C00034613F8012B002AFBD1181A013870470B
:10015C0080F0004002E000BF81F0004142001FBF70
:10016C005FEA410392EA030F7FEA226C7FEA236C79
:10017C006AD04FEA1262D2EB1363C1BFD21841406E
:10018C0048404140B8BF5B42192B88BF704710F004
:10019C00004F40F4000020F07F4018BF404211F0A7
:1001AC00004F41F4000121F07F4118BF494292EA0F
:1001BC00030F3FD0A2F1010241FA03FC10EB0C003B
:1001CC00C3F1200301FA03F100F0004302D54942C8
:1001DC0060EB4000B0F5000F13D3B0F1807F06D375
:1001EC0040084FEA310102F10102FE2A51D2B1F16D
:1001FC00004F40EBC25008BF20F0010040EA030062
:10020C007047490040EB000010F4000FA2F101020E
:10021C00EDD1B0FA80FCACF1080CB2EB0C0200FA98
:10022C000CF0AABF00EBC25052421843BCBFD040E6
:10023C001843704792F0000F81F4000106BF80F460
:10024C0000000132013BB5E74FEA41037FEA226C23
:10025C0018BF7FEA236C21D092EA030F04D092F0EE
:10026C00000F08BF0846704790EA010F1CBF002022
:10027C00704712F07F4F04D1400028BF40F000407F
:10028C00704712F100723CBF00F50000704700F09F
:10029C00004343F0FE4040F4000070477FEA2262C6
:1002AC0016BF08467FEA23630146420206BF5FEA97
:1002BC00412390EA010F40F4800070474FF0000397
:1002CC0004E000BF10F0004348BF40425FEA000C5E
:1002DC0008BF704743F0964301464FF000001CE006
:1002EC0050EA010208BF70474FF000030AE000BF5C
:1002FC0050EA010208BF704711F0004302D540429A
:10030C0061EB41015FEA010C02BF8446014600200B
:10031C0043F0B64308BFA3F18053A3F50003BCFA26
:10032C008CF2083AA3EBC25310DB01FA02FC6344D3
:10033C0000FA02FCC2F12002BCF1004F20FA02F2DA
:10034C0043EB020008BF20F00100704702F12002CD
:10035C0001FA02FCC2F1200250EA4C0021FA02F22E
:10036C0043EB020008BF20EADC7070474FF0FF0C33
:10037C001CEAD0521EBF1CEAD15392EA0C0F93EA2E
:10038C000C0F6FD01A4480EA010C400218BF5FEAD0
:10039C0041211ED04FF0006343EA501043EA511143
:1003AC00A0FB01310CF00040B1F5000F3EBF49003D
:1003BC0041EAD3715B0040EA010062F17F02FD2A41
:1003CC001DD8B3F1004F40EBC25008BF20F0010024
:1003DC00704790F0000F0CF0004C08BF49024CEA3B
:1003EC00502040EA51207F3AC2BFD2F1FF0340EACD
:1003FC00C250704740F400004FF00003013A5DDC3E
:10040C0012F1190FDCBF00F000407047C2F100027E
:10041C00410021FA02F1C2F1200200FA02FC5FEA6B
:10042C00310040F1000053EA4C0308BF20EADC70B5
:10043C00704792F0000F00F0004C02BF400010F427
:10044C00000F013AF9D040EA0C0093F0000F01F0D4
:10045C00004C02BF490011F4000F013BF9D041EAF6
:10046C000C018FE70CEAD15392EA0C0F18BF93EAF8
:10047C000C0F0AD030F0004C18BF31F0004CD8D122
:10048C0080EA010000F00040704790F0000F17BFA9
:10049C0090F0004F084691F0000F91F0004F14D0EF
:1004AC0092EA0C0F01D142020FD193EA0C0F03D147
:1004BC004B0218BF084608D180EA010000F000404A
:1004CC0040F0FE4040F40000704740F0FE4040F425
:1004DC00400070474FF0FF0C1CEAD0521EBF1CEAC4
:1004EC00D15392EA0C0F93EA0C0F69D0A2EB0302E2
:1004FC0080EA010C49024FEA402037D04FF080537C
:10050C0043EA111143EA10130CF000408B4238BF40
:10051C005B0042F17D024FF4000C8B4224BF5B1A4E
:10052C0040EA0C00B3EB510F24BFA3EB510340EA9C
:10053C005C00B3EB910F24BFA3EB910340EA9C004A
:10054C00B3EBD10F24BFA3EBD10340EADC001B01BA
:10055C0018BF5FEA1C1CE0D1FD2A3FF650AF8B425E
:10056C0040EBC25008BF20F0010070470CF0004C6B
:10057C004CEA50207F32C2BFD2F1FF0340EAC25096
:10058C00704740F400004FF00003013A37E792F057
:10059C00000F00F0004C02BF400010F4000F013AB5
:1005AC00F9D040EA0C0093F0000F01F0004C02BFB0
:1005BC00490011F4000F013BF9D041EA0C0195E719
:1005CC000CEAD15392EA0C0F08D142027FF47DAFB2
:1005DC0093EA0C0F7FF470AF084676E793EA0C0FA2
:1005EC0004D14B023FF44CAF08466EE730F0004CA0
:1005FC0018BF31F0004CCAD130F000427FF45CAF30
:10060C0031F000437FF43CAF5FE700BF4FEA40029C
:10061C00B2F1FE4F0FD34FF09E03B3EB12620DD924
:10062C004FEA002343F0004310F0004F23FA02F08E
:10063C0018BF404270474FF00000704712F1610F35
:10064C0001D1420205D110F0004008BF6FF000400C
:10065C0070474FF00000704738B50E4B05461878C0
:10066C004FF47A73B3FBF0F30B4A1068B0FBF3F062
:10067C0000F0C8FA044658B90F2D09D8024629468D
:10068C004FF0FF3000F07CFA2046044B1D6038BD63
:10069C000120FCE700000020740000200400002072
:1006AC00074A08B51368032043F01003136000F0E9
:1006BC0055FA0020FFF7D0FF05F08CF8002008BD9C
:1006CC0000200240034A044B11681B780B44136052
:1006DC00704700BFB005002000000020014B1868D7
:1006EC00704700BFB00500200368D86C7047704796
:1006FC00036810B55A680446900627D51A68910706
:10070C0024D5A26AD2065EBFA26A42F40072A2622B
:10071C009A6802F46022B2F5602F10D1227B72B974
:10072C005A6822F020025A60A36A23F48073A362F1
:10073C00A36ADB045EBFA36A43F00103A3622046F5
:10074C0005F0E0F96FF0120223681A6023685A680A
:10075C00100630D51A6851072DD5A26AD2065EBF95
:10076C00A26A42F40052A2629A6802F4E042B2F524
:10077C00E04F0AD05A68500516D49A6802F46022E9
:10078C00B2F5602F10D1227B72B95A6822F0800228
:10079C005A60A36A23F48053A362A36AD9055EBF8F
:1007AC00A36A43F00103A362204600F0D5F96FF071
:1007BC000C0223681A6023685A6852060DD51B6810
:1007CC00DB070AD5A36A204643F48033A362FFF704
:1007DC008EFF6FF0010223681A6010BD002373B501
:1007EC00019390F82430012B6DD001234D6880F8D3
:1007FC002430062D026805EB85030C6823D81F26D0
:10080C00556B053B9E4025EA060504FA03F32B4382
:10081C005363092C8B6804EB44054FF007012AD96C
:10082C00D6681E3DA94026EA0101AB400B43D360BC
:10083C00A4F11003012B26D90023002280F82420D8
:10084C00184602B070BD0C2D4FF01F0509D8166B61
:10085C00233B9D4026EA050504FA03F32B4313635F
:10086C00D7E7D66A413B9D4026EA050504FA03F317
:10087C002B43D362CDE71669A94026EA0101AB40B0
:10088C000B431361D4E7114B9A4216D193681B02A8
:10089C00D2D49368102C43F400039360CCD10C4B4E
:1008AC000C4A1B68B3FBF2F20A2353430193019BDE
:1008BC00002BC1D0019B013BF8E7836A43F0200376
:1008CC0083620123B9E70223BAE700BF0024014089
:1008DC007400002040420F00002373B5019303689D
:1008EC0004469A68D20702D5002002B070BD9A68FF
:1008FC0042F001029A60124B124A1B68B3FBF2F3EE
:10090C000193019BC3B9FFF7E9FE064623689D6876
:10091C0015F00105E8D1FFF7E1FE801B0228F5D99F
:10092C00A36A84F8245043F01003A362E36A012005
:10093C0043F00103E362D8E7019B013BE0E700BF12
:10094C007400002040420F0090F8243010B5012BA9
:10095C00044658D0012380F82430FFF7BDFF00284F
:10096C004DD1A36A294A23F4706323F0010343F4A5
:10097C008073A3622368934204D125494A6812F418
:10098C00702F32D1A26A22F48012A2625A685205E8
:10099C0041BFA26A22F4405242F48052A262A26A7F
:1009AC0012F480521CBFE26A22F00602E2620022BC
:1009BC0084F824206FF002021A605A6842F0200278
:1009CC005A609A6802F46022B2F5602F13D10F4A74
:1009DC00934205D1A2F58062526812F4702F0AD1AD
:1009EC009A6842F4A0029A6010BDA26A42F4801286
:1009FC00A2624A68CBE79A6842F48012F3E70023BC
:100A0C0084F82430F0E70220EEE700BF0028014014
:100A1C000024014038B5036804469A68D20701D413
:100A2C00002038BD9A6822F001029A60FFF756FE4A
:100A3C00054623689B68DB07F2D5FFF74FFE401B8A
:100A4C000228F6D9A36A012043F01003A362E36ADB
:100A5C0043F00103E362E4E770B50446002870D06C
:100A6C00836A23B9C36280F8243004F0D5FE204693
:100A7C00FFF7D0FFA36A13F0100FA36A63D100280D
:100A8C0061D1E16923F48853626823F0020343F0D7
:100A9C0002030A43A168A362237BB1F5807F42EA7B
:100AAC00430237D0012914BF06464FF48076257DCA
:100ABC00012D06D183BBA369013B46EA433545F4BE
:100ACC0000662368B1F5807F5D6825F4694545EAC9
:100ADC0006055D609E681E4D05EA060545EA0205A1
:100AEC009D6001D0012920D1216901390905DD6AF8
:100AFC0025F470052943D9629968164B0B409A422C
:100B0C0015D10023E362A36A23F0030343F001032E
:100B1C00A36270BD0E46CAE7A36A43F02003A3622A
:100B2C00E36A43F00103E362CBE70021DFE7A36A4A
:100B3C0023F0120343F01003A362E36A43F00103B2
:100B4C00E3620120E5E743F01003A362F9E700BF7D
:100B5C00FDF7E1FFFE0E1FFF70470000074A000281
:100B6C00D36800F4E06023F4E0631B041B0C43F037
:100B7C00BF6343F400330343D360704700ED00E0E0
:100B8C00174B70B5DC684FF0FF36C4F30224C4F188
:100B9C000705042D04F1040328BF0425062B98BF78
:100BAC00002406FA05F388BF033C21EA0303A340A3
:100BBC0006FA04F422EA0404002843EA0403A8BF5A
:100BCC0000F160404FEA0313B8BF064ADBB2ABBF7B
:100BDC0000F5614000F00F0080F80033135470BD35
:100BEC0000ED00E014ED00E0002808DB01234209D1
:100BFC0000F01F0003FA00F0014B43F8220070478D
:100C0C0000E100E00138B0F1807F0AD2F021064B00
:100C1C00064A586082F823100020072298601A6058
:100C2C0070470120704700BF10E000E000ED00E0CD
:100C3C0010B530B314220168134B0B44B3FBF2F321
:100C4C009B000364114B0A68C363D0E9013423434E
:100C5C00C46822F47F522343046922F030022343F8
:100C6C004469234384692343C469234313430B60BE
:100C7C000122002380F82120836380F8203018465D
:100C8C0010BD0120FCE700BFF8FFFDBF00000240D3
:100C9C00F0B590F82040012C35D0012490F821506B
:100CAC0080F82040A5424FF000064FF0020428D1F6
:100CBC0080F8214004688663266826F001062660C9
:100CCC00D0E90F67BD407560636043680568102B01
:100CDC00C36A0BBFA260A160E160E2604BB1236804
:100CEC0043F00E03002023602B6843F001032B60BC
:100CFC00F0BD236823F004032360236843F00A0348
:100D0C00F0E780F820600220F2E7000090F8213034
:100D1C0010B5022B03D004238363012010BD03689C
:100D2C001A6822F00E021A601A6822F001021A6088
:100D3C00184A93421FD0143293421ED0143293425D
:100D4C001DD0143293421DD0143293421DD0143254
:100D5C0093420CBF4FF480134FF080730E4A002463
:100D6C005360012380F82130436B80F820407BB125
:100D7C0098472046D2E70123F0E71023EEE74FF423
:100D8C008073EBE74FF48053E8E74FF48033E5E7EB
:100D9C001846C3E7080002400000024070B4042566
:100DAC00C66B026C3468036895402542196832D0D2
:100DBC004D0730D51A6896065EBF1A6822F00402F9
:100DCC001A603E4A934219D01432934218D014320E
:100DDC00934217D01432934217D01432934217D047
:100DEC00143293420CBF4FF480034FF08063344AAB
:100DFC005360C36A002B5ED070BC18470423F6E71F
:100E0C004023F4E74FF48063F1E74FF48043EEE7BF
:100E1C004FF48023EBE702259540254235D08D0712
:100E2C0033D51A68940606D41A6822F00A021A609E
:100E3C00012280F82120214A934219D01432934286
:100E4C0018D01432934217D01432934217D0143264
:100E5C00934217D0143293420CBF4FF400134FF04F
:100E6C000073174A5360002380F82030836AC1E76F
:100E7C000223F6E72023F4E74FF40073F1E74FF475
:100E8C000053EEE74FF40033EBE70825954025427D
:100E9C0011D009070FD5196821F00E011960012333
:100EAC0003FA02F27260836380F82130002380F829
:100EBC002030036B9EE770BC704700BF08000240F7
:100ECC0000000240114AD36813F0100305D01049FA
:100EDC00CB6943F00203CB611023D268500706D5CF
:100EEC000B4943F00403CA6942F00102CA61074A84
:100EFC00D169C90708D50648C16941F00401C1612F
:100F0C00D16921F00101D161D3607047002002400A
:100F1C00B8050020064B186910F0800007D0054A70
:100F2C005A6002F188325A601869C0F3C0107047D9
:100F3C000020024023016745034A0020136943F057
:100F4C0080031361704700BF00200240F8B50646CD
:100F5C00FFF7C4FB114C07462546E368D80712D4AB
:100F6C00E368990644BF2023E360EB68DA0606D4F5
:100F7C00EB69DB0703D4E86810F0040007D0FFF737
:100F8C00A1FF012003E0731CE7D00EB90320F8BDCC
:100F9C00FFF7A4FBC01BB042DFD9F7E700200240EB
:100FAC002DE9F84F244C1E46237E0546012B0F4697
:100FBC0090463FD001234CF250302376FFF7C6FF0A
:100FCC00A0BB012D03D0022D0CBF022504254FF030
:100FDC000009CB46DFF864A04FEA0913C3F12001E6
:100FEC00A3F1200206FA01F128FA03F3C4F81CB0AD
:100FFC000B4326FA02F21343DAF810209BB242F0AC
:10100C000102CAF810204CF2503027F81930FFF7C3
:10101C009DFFDAF8103023F00103CAF8103028B91C
:10102C0009F101095FFA89F39D42D5D80023237693
:10103C00BDE8F88F0220FBE7B80500200020024035
:10104C000022064BDA61064B1A6942F004021A615F
:10105C001A6942F040021A61704700BFB8050020BF
:10106C00002002400022064BDA61064B1A6942F05E
:10107C0002021A6158611A6942F040021A61704703
:10108C00B8050020002002402DE9F041224D074612
:10109C002B7E8846012B3DD0012403682C76022B35
:1010AC004CF2503013D1FFF751FF20B10120002337
:1010BC002B76BDE8F081FFF7C3FF4CF25030FFF701
:1010CC0045FF164A136923F004031361EFE7FFF79A
:1010DC003DFF0028EAD14FF0FF33C8F8003020461E
:1010EC00BE680E4CD7E9023203EB8223B342DED941
:1010FC003046FFF7B7FF4CF25030FFF727FF23695C
:10110C0023F00203236110B1C8F80060CFE706F5A5
:10111C008066E7E70220CCE7B805002000200240FB
:10112C002DE9F74F00242646654BDFF8A4C1DFF804
:10113C00A4E10A6832FA06F502D103B0BDE8F08FDB
:10114C004FF0010808FA06F802EA080290457ED131
:10115C004D68122D00F0A98000F28280022D00F063
:10116C00A18076D8002D00F08880012D00F09880A9
:10117C004FF00F09FF2A93BF824606F18045083DC8
:10118C00D0F800B092BFB500D0F804B0AD0009FAA9
:10119C0005F82BEA080804FA05F588BF00F1040AE3
:1011AC0048EA0505CAF80050D1F804A01AF0805F8F
:1011BC004DD0444F26F00308BD6908F1804845F036
:1011CC000105BD61BD6908F5803805F00105019583
:1011DC0006F0030B019D4FEA8B0BD8F8085009FA67
:1011EC000BF925EA0909384DA84263D005F580654D
:1011FC00A84261D005F58065A8425FD005F58065F1
:10120C00A8420CBF0325042505FA0BF545EA090590
:10121C00C8F808501D681AF4803F14BF1543954355
:10122C001D605D681AF4003F14BF154395435D6063
:10123C009D681AF4801F14BF154395439D60DD68AB
:10124C001AF4001F14BF2A4325EA0202DA600136A1
:10125C006FE7032D22D0112D8AD1CC68043487E797
:10126C001A4FBD4209D012D8DFF86C904D4504D00E
:10127C0009F580394D457FF47BAF8C68C4B1012CE6
:10128C000CBFC0F81080C0F81480082470E76545C6
:10129C00F3D07545F1D0DFF84490EBE7002467E715
:1012AC00CC6865E7CC68083462E7CC680C345FE73F
:1012BC0004245DE70025A7E70125A5E70225A3E7A0
:1012CC000004014000100240000801400000211001
:1012DC00000031100000321000001110000022102C
:1012EC008368194214BF0120002070470AB10161C4
:1012FC0070470904FBE790F8282210B5012A044630
:10130C000BD0012280F8282284F82410006801F008
:10131C007CFE002084F8280210BD0220FCE770B58A
:10132C00044601F0070511F0800F4FEA451014BF79
:10133C0000F1280100F5947104EB000617BF0120A1
:10134C000020091986F8290004BF091986F829011B
:10135C000A614A780D70CB7002B1CD81022B04BFAB
:10136C0000230B7194F82832012B09D0012320683B
:10137C0084F8283201F090FC002084F8280270BD1B
:10138C000220FCE770B5002601F007014D0144195D
:10139C0084F8281105F594710144C4F83C21C4F873
:1013AC004031C4F8446184F82961006801F048FEBA
:1013BC00304670BD01F0070170B54D014419C4E908
:1013CC000F230026012384F8281005F1280101447D
:1013DC00666484F82930006801F032FE304670BD36
:1013EC002DE9F84F0446006801F015FE02040BD5F8
:1013FC00DFF80C94DFF80CA4DFF80CB42068B0F81C
:10140C0044301B0400F19E80206801F004FE43056B
:10141C000FD522682046B2F8443023F480631B04B5
:10142C001B0CA2F8443004F078FC00212046FFF796
:10143C0062FF206801F0EFFD470408D52268B2F87E
:10144C00443023F480431B041B0CA2F84430206866
:10145C0001F0E1FD860408D52268B2F8443023F48B
:10146C0000531B041B0CA2F84430206801F0D3FD80
:10147C00C5041CD522682046B2F8403023F0040382
:10148C001B041B0CA2F84030B2F8403023F00803C8
:10149C001B041B0CA2F8403004F062FC2268B2F86A
:1014AC00443023F480531B041B0CA2F844302068F6
:1014BC0001F0B1FD000524D52068B0F8403043F0B0
:1014CC000803A0F84030B0F8443023F400631B0448
:1014DC001B0CA0F84430B0F8403043F00403A0F8E3
:1014EC00403001F098FDC10408D52268B2F84430B0
:1014FC0023F480531B041B0CA2F84430204604F048
:10150C001FFC206801F087FD82050BD52268204660
:10151C00B2F8443023F400731B041B0CA2F84430C3
:10152C0004F0F7FB206801F076FDC30508D52268AE
:10153C00B2F8443023F480731B041B0CA2F8443023
:10154C00BDE8F88FB0F8441089B211F00F0640F0E6
:10155C00B18011F0100103882AD109EA030343F486
:10156C0000430380B0F8503094F8282003EBC203FA
:10157C0000EB4300B0F80434E26BC3F3090363647B
:10158C001344E363204604F0BDFB94F82430002B95
:10159C003FF434AF226C002A7FF430AF94F824303F
:1015AC00216843F08003A1F84C3084F8242025E70F
:1015BC009BB213F4006520D0B0F8503094F8282179
:1015CC0004F50C7103EBC20300EB4303B3F80C34CA
:1015DC00B4F82E21C3F30903C4F8443101F004FE1E
:1015EC0022682046138823F070031B051B0D43F063
:1015FC008003138004F078FB00E71F047FF5FEAE38
:10160C00038823F070031B051B0D43F0800303803C
:10161C00B0F8503094F8282103EBC20300EB4303DD
:10162C00B3F80C34C3F30903C4F844318BB1D4F8C8
:10163C003C1171B1B4F82E2101F0D6FDD4F83C3137
:10164C00D4F8442129461344C4F83C31204604F014
:10165C0051FB2168D4F83851B1F8503001F20C40EC
:10166C009BB2BDB9C25A22F4F8421204120CC252F7
:10167C00C25A4AEA020292B2C2520B8823F4804345
:10168C0023F0700383F4405343F4004343F080038E
:10169C000B80B3E63E2D05D86A08EE0748BF013231
:1016AC009202E8E76A09ED0608BF02F1FF324AEA46
:1016BC008222E0E730F826801FFA88F818F4004FF1
:1016CC003CD030F82630770123F070031B051B0D3E
:1016DC0043F0800320F82630E11991F8343100F5FD
:1016EC008062002B50D1B0F8503091F8285106335D
:1016FC0003EBC50332F81350C5F3090535B1B1F846
:10170C002E212B46D1F83C1101F06EFDE119D1F8D8
:10171C004431D1F83C212B44C1F84431D1F840314B
:10172C002A44C1F83C211BB1D1F8380185425DD265
:10173C00274497F82811204604F0DCFA18F0800FA3
:10174C003FF45CAE2368204633F8262009EA0202F7
:10175C0042F4004223F82620B3F8502004EB46163E
:10176C0096F82810023202EBC10203EB4203B3F8E5
:10177C000024F36BC2F3090272641A44336CF263F3
:10178C00D3BB04F0BFFA39E691F8283130F8235076
:10179C00DB0015F4804FB0F850502B441BD00233B3
:1017AC0032F81350C5F3090535B12B46B1F8302189
:1017BC00D1F83C1101F018FDE31993F828112268B7
:1017CC0032F821300BEA030343F4004343F0C00327
:1017DC0022F821309AE7063332F81350C5F3090585
:1017EC00002DE9D02B46B1F83221E1E791F8281110
:1017FC002046FFF7C7FDA1E7FFF7DCFDFEE500BFC4
:10180C000F8FFFFF0080FFFF8F8FFFFF38B54368FE
:10181C0001F007059D42044628D80B061DD5012270
:10182C006B0103F128010344014483F829200123AF
:10183C000D708B7094F828229A4219D084F82832B3
:10184C00206801F083FB25B904F50C71206801F0C8
:10185C00E5FB002084F8280238BD00224B0103F57B
:10186C0094710344014483F82921E0E70120F3E754
:10187C000220F1E738B5436801F00F029A420446A2
:10188C0027D801F0070211F0800F4FEA421314BF62
:10189C0003F1280103F5947118444FF0000515BFAE
:1018AC00012300230919091914BF80F8293080F885
:1018BC0029318D700A7094F82832012B0BD001233A
:1018CC00206884F8283201F05DFB284684F8285201
:1018DC0038BD0120FCE70220FAE700002DE9F341B6
:1018EC00054608B901203CE00368DB0710D42B68DF
:1018FC009F075DD42B68190700F194802B685A0759
:10190C0000F1BE80E869002840F02C81002028E01E
:10191C008F4C636803F00C03042B07D0636803F04F
:10192C000C03082B09D16368DE0306D523689C03DE
:10193C00DDD56B68002BDAD1D4E76B68B3F5803F4B
:10194C0012D1236843F480332360FEF7C7FE0646AA
:10195C0023689803CBD4FEF7C1FE801B6428F7D90B
:10196C00032002B0BDE8F0819BB9236823F48033D7
:10197C002360236823F480232360FEF7AFFE064622
:10198C0023689903B3D5FEF7A9FE801B6428F7D909
:10199C00E6E7B3F5A02F236803D143F4802323603B
:1019AC00CFE723F480332360236823F48023CBE731
:1019BC00674C636813F00C0F07D0636803F00C03DB
:1019CC00082B10D16368DA030DD423689B0702D56A
:1019DC002B69012B86D123686A6923F0F80343EA4B
:1019EC00C203236086E72A695A4B6AB101221A6046
:1019FC00FEF774FE064623689F07ECD4FEF76EFED6
:101A0C00801B0228F7D9ABE71A60FEF767FE064683
:101A1C00236898077FF56EAFFEF760FE801B0228E7
:101A2C00F6D99DE7AA694A4C4B4BDAB101221A60F0
:101A3C00FEF754FE0646636A9B070DD54FF4FA5227
:101A4C00464B1B68B3FBF2F3019300BF019B5A1E7C
:101A5C000192002BF9D151E7FEF740FE801B0228C2
:101A6C00E9D97DE71A60FEF739FE0646636A9F07DF
:101A7C007FF544AFFEF732FE801B0228F6D96FE7E4
:101A8C00334CE369D80024D40127E36943F0805335
:101A9C00E361E36903F080530093009B304E33689D
:101AAC00D90518D5EB68012B26D1236A43F0010325
:101ABC002362FEF713FE41F288368046236A9B07A9
:101ACC003FD5002F3FF41EAFE36923F08053E36151
:101ADC0018E70027E2E7336843F480733360FEF7BE
:101AEC00FDFD80463368DA05DCD4FEF7F7FDA0EB8C
:101AFC0008006428F6D933E7ABB9236A41F2883879
:101B0C0023F001032362236A23F004032362FEF70C
:101B1C00E5FD0646236A9807D3D5FEF7DFFD801B4B
:101B2C004045F7D91CE7052B236A03D143F0040386
:101B3C002362BAE723F001032362236A23F0040330
:101B4C00B6E7FEF7CBFDA0EB0800B042B6D907E72D
:101B5C000010024000004242800442427400002007
:101B6C00007000402A4B5A681C4602F00C02082AEE
:101B7C003DD00023274E022833602BD1FEF7AEFD5B
:101B8C000746236899011FD42B6AB3F5803F05D112
:101B9C006268A96822F400320A436260696A62686A
:101BAC000B4322F474121343636001233360FEF77A
:101BBC0095FD054623689A013FF5A8AEFEF78EFD0C
:101BCC00401B0228F6D9CBE6FEF788FDC01B022885
:101BDC00D7D9C5E6FEF782FD054623689B017FF544
:101BEC0095AEFEF77BFD401B0228F6D9B8E601281E
:101BFC003FF4B7AE58682B6A00F480329A427FF4F7
:101C0C0071AE6B6A00F47010C01A18BF0120A8E600
:101C1C00001002406000424230B5184B87B002AC55
:101C2C0003F11005224618685968083303C2AB4209
:101C3C001446F7D140F201231149ADF804304B683A
:101C4C0003F00C02082A17D1C3F3834206A80244FE
:101C5C00DB0312F8102C0CD54B680A48C3F3404335
:101C6C00504306AA134413F8143CB0FBF3F007B02E
:101C7C0030BD05485043FAE70248F8E7C06A00084F
:101C8C000010024000127A0000093D002DE9F041DD
:101C9C000D46044610B90120BDE8F081444A136892
:101CAC0003F007038B4228D321688E0730D4CA0770
:101CBC0043D43F4A136803F00703AB4265D822684C
:101CCC003C4D12F0040F6CD1130706D56B682269DA
:101CDC0023F4605343EAC2036B60FFF79DFF6B680C
:101CEC00354AC3F30313D35CD840344B1860344BE0
:101CFC001868FEF7B1FC0020CEE7136823F0070349
:101D0C000B431360136803F007038B42C3D1CBE77B
:101D1C00284B11F0040F1EBF5A6842F4E0625A605F
:101D2C00080742BF5A6842F460525A605A68A06869
:101D3C0022F0F00202435A60B9E762681D4E012A94
:101D4C0033681AD113F4003FA5D0736841F2883878
:101D5C0023F0030313437360FEF7C0FC074673685C
:101D6C00626803F00C03B3EB820FA2D0FEF7B6FC53
:101D7C00C01B4045F3D903208EE7022A02D113F091
:101D8C00007FE1E713F0020FDEE7136823F007038F
:101D9C002B431360136803F00703AB427FF47BAF54
:101DAC008DE76B68E16823F4E0630B436B608BE7B2
:101DBC000020024000100240FA7800087400002055
:101DCC0004000020044B054A5B68C3F30223D35C78
:101DDC00034A1068D8407047001002400A79000886
:101DEC0074000020044B054A5B68C3F3C223D35C28
:101DFC00034A1068D8407047001002400A79000866
:101E0C007400002003682DE9F341D907054620D55D
:101E1C00354CE369DA0032D40127E36943F080538F
:101E2C00E361E36903F080530193019B2F4E336808
:101E3C00DB0526D5236A13F4407336D1236A6A680E
:101E4C0023F44073134323621FB1E36923F08053DF
:101E5C00E3612868830706D5234AA968536823F4ED
:101E6C0040430B43536010F010001BD01E4AE9682E
:101E7C005368002023F480030B43536012E00027C7
:101E8C00D4E7336843F480733360FEF727FC804655
:101E9C003368D805CED4FEF721FCA0EB08006428EB
:101EAC00F6D9032002B0BDE8F0816A6802F44072F2
:101EBC009A42C3D001200E4A236A1060002023F4FA
:101ECC00407110602162D907B8D5FEF707FC41F2CA
:101EDC0088380646236A9A07B0D4FEF7FFFB801BAE
:101EEC004045F7D9DDE700BF00100240007000400C
:101EFC0040044242F8B504460E4615461F4621687A
:101F0C008A6836EA020301D000202DE06B1CF7D062
:101F1C00FEF7E4FBC01B8542F1D823685A6822F017
:101F2C00E0025A606268B2F5827F0AD1A268B2F50B
:101F3C00004F02D0B2F5806F03D11A6822F0400234
:101F4C001A60A26AB2F5005F07D11A6822F4005237
:101F5C001A601A6842F400521A60012384F8513056
:101F6C000023032084F85030F8BD10B513460A4600
:101F7C0080210446FFF7BEFF20B10320636D43F0C0
:101F8C002003636510BD704710B50446002834D09B
:101F9C000023836290F8513003F0FF021BB980F8E4
:101FAC005020FFF7F0FF0223226884F851301368A9
:101FBC00A16923F040031360D4E901300343E068C6
:101FCC0003432069034360690343E0690343206AC8
:101FDC000343A06A034301F40070090C034301F0AE
:101FEC00040113605160D369002023F40063D361B2
:101FFC000123606584F8513010BD0120FCE72DE908
:10200C00F3411E4690F850300446012B0D46904685
:10201C0000F09C80012380F85030FEF75FFB0746F0
:10202C0094F85100C0B2012840F08E80002D5ED093
:10203C00B8F1000F5BD00323002084F85130A36863
:10204C006065A063A4F83680A087E087C4E910001F
:10205C002068B3F5004F08BF0368256308BF43F43D
:10206C008043A4F8348008BF03600368E2685B0611
:10207C005EBF036843F040030360B2F5006F636812
:10208C003ED113B1B8F1010F07D135F8023BC36053
:10209C002563E38E013B9BB2E386E38E9BB2A3B92F
:1020AC003A4631462046FFF760FF002849D1A36825
:1020BC0033B901932368DA6801929B680193019B01
:1020CC00606D003018BF012011E0226893689807FA
:1020DC0005D5236B33F8021BD1602363D9E7FEF7D8
:1020EC00FDFAC01BB042D8D3711CD6D003200123FB
:1020FC0084F85130002384F8503002B0BDE8F081F0
:10210C0013B1B8F1010F08D12B780373236B013392
:10211C002363E38E013B9BB2E386E38E9BB2002BE1
:10212C00BED023689A68920703D5226B12781A7373
:10213C00ECE7FEF7D3FAC01BB042EED3731CECD025
:10214C00D4E720236365B2E70220D0E70220D4E76E
:10215C0090F8503010B5012B04464ED0012380F876
:10216C00503090F85100C0B2984244D100292DD083
:10217C00002A2BD0032384F8513000236365A3631A
:10218C00E286C4E91033E387A387A368A28622689A
:10219C00B3F5004F08BF1368216304BF43F48043B9
:1021AC001360A06C164B0C32C362164B8362164B39
:1021BC00036300234363E38EFEF76AFD50B10120F5
:1021CC00636D43F01003636584F85100002384F8B9
:1021DC00503010BD23681A6852065EBF1A6842F070
:1021EC0040021A605A6842F020025A605A6842F063
:1021FC0002025A60EAE70220E8E70220E9E700BFA2
:10220C001D2200084B220008292200087047704745
:10221C0008B5406AFFF7FBFF08BD7047406A08B578
:10222C000268536823F003035360436D43F01003BB
:10223C004365012380F85130FFF7EFFF08BD37B538
:10224C000546446AFEF74AFA2B6802461B689B0651
:10225C0026D423682046596821F02001596059681A
:10226C0021F0020159606421FFF77FFE18B1636D04
:10227C0043F020036365A36833B901932368DA68DC
:10228C0001929B680193019B0023E386012384F850
:10229C005130636D23B12046FFF7BFFF03B030BD53
:1022AC002046FFF7B3FFF9E7036A70B523F001038B
:1022BC000362036A446882690D6822F073022A4340
:1022CC008D6823F002032B430A4DA8420BD1CD6835
:1022DC0023F008032B4324F44074D1E9055635430D
:1022EC0023F004032C43446082614A684263036216
:1022FC0070BD00BF002C0140036A70B523F48073DD
:10230C000362036A4468C2690D6822F073022A43AF
:10231C008D6823F4007343EA05230B4DA8420DD1BD
:10232C00CD6823F4006343EA052324F44054D1E937
:10233C000556354323F4806344EA05144460C261B6
:10234C004A68C263036270BD002C0140036A30B559
:10235C0023F480530362036A4468C2690D6822F453
:10236C00E64242EA05228D6823F4005343EA053322
:10237C00064DA84202BF4D6924F4804444EA8514FA
:10238C004460C2614A680264036230BD002C0140A3
:10239C007047022380F83D3003689A6802F0070208
:1023AC00062A1EBF1A6842F001021A60012380F847
:1023BC003D300020704770471A4A036890420AD09B
:1023CC00B0F1804F07D0A2F59432904203D002F5C1
:1023DC008062904215D14A6823F070031343114A6E
:1023EC0090420AD0B0F1804F07D0A2F594329042BF
:1023FC0003D002F58062904203D1CA6823F4407383
:10240C0013434A6923F08003134303608B68C36250
:10241C000B688362034B984204BF0B69036301236F
:10242C0043617047002C014010B50446A0B190F8F0
:10243C003D3003F0FF021BB980F83C20FFF7A8FFEA
:10244C000223206884F83D30211DFFF7B5FF0123DE
:10245C00002084F83D3010BD0120FCE710B5044687
:10246C00A0B190F83D3003F0FF021BB980F83C207E
:10247C00FFF7A1FF0223206884F83D30211DFFF7F0
:10248C009BFF0123002084F83D3010BD0120FCE7A8
:10249C00036A70B523F010030362036A446882690F
:1024AC000D6822F4E64242EA05228D6823F02003EF
:1024BC0043EA05130B4DA8420DD1CD6823F08003E0
:1024CC0043EA051324F44064D1E90556354323F05F
:1024DC00400344EA8504446082614A688263036273
:1024EC0070BD00BF002C014038B590F83C3004465C
:1024FC00012B4FF0020025D0012384F83D0084F815
:10250C003C300C2A18D8DFE802F0071717171E17F3
:10251C0017172F17171740002068FFF7C5FE236801
:10252C0009699A6942F008029A619A6922F00402D8
:10253C009A619A690A439A610123002084F83D301C
:10254C0084F83C0038BD2068FFF7A2FF23680969B6
:10255C009A6942F400629A619A6922F480629A61E3
:10256C009A6942EA0122E6E72068FFF7C5FE236874
:10257C000969DA6942F00802DA61DA6922F00402C8
:10258C00DA61DA690A43DA61D6E72068FFF7DEFE22
:10259C0023680969DA6942F40062DA61DA6922F4C3
:1025AC008062DA61DA6942EA0122ECE710B58468EC
:1025BC000A4324F47F4442EA03232343836010BD7F
:1025CC0090F83C3070B5012B04464FF0020019D046
:1025DC00012384F83D00206884F83C30836823F4A0
:1025EC007F4323F0770383600B68402B65D015D8AD
:1025FC00102B0CD007D853B10123002084F83D30A8
:10260C0084F83C0070BD202B01D0302BF4D18268B3
:10261C0043F0070322F0700213431AE0602B34D00E
:10262C0019D8502BE8D14A68CE68016A056A21F0A6
:10263C000A0125F00105056283690A4323F0F003C2
:10264C0043EA061383610262836823F0700343F04C
:10265C0057038360D0E7702B0CD0B3F5005FCBD160
:10266C00CB68D1E90121FFF7A1FF2268936843F4FD
:10267C00804308E0CB68D1E90121FFF797FF22687E
:10268C00936843F077039360B6E74D68CE68016AB0
:10269C0021F0100101628269036A22F4704223F076
:1026AC00A00343EA051342EA06328261036283689F
:1026BC0023F0700343F06703CBE74A68CE68016AE6
:1026CC00056A21F00A0125F00105056283690A43B8
:1026DC0023F0F00343EA061383610262836823F05C
:1026EC00700343F04703B4E710B50124036A01F00B
:1026FC001F018C4023EA04030362036A8A401A43D5
:10270C00026210BD10B5044601220068FFF7ECFF11
:10271C002368094A0020934202BF5A6C42F40042DB
:10272C005A649A6802F00702062A1EBF1A6842F021
:10273C0001021A6010BD00BF002C0140FFF7E2BF80
:10274C000368DA6822F49072DA605A6922F00102A6
:10275C005A61202380F83A307047000038B505469E
:10276C000368C1681A69192422F440520A431A6199
:10277C0082680069D9680243686921F4B05121F07C
:10278C000C0102430A43DA605A69A96922F44072C7
:10279C000A435A610D4A934214D1FFF723FB60435D
:1027AC006C686422A400B0FBF4F0B0FBF2F102FB05
:1027BC0011031B013233B3FBF2F32C6803EB01134F
:1027CC00A36038BDFFF7FEFAE9E700BF003801400F
:1027DC00F8B504460E4617461D4621680B6836EAC6
:1027EC00030301D1002014E06B1CF7D095B92368CA
:1027FC000320DA6822F4D072DA605A6922F00102FE
:10280C005A61202384F8393084F83A30002384F854
:10281C003830F8BDFDF762FFC01B8542DDD2E6E71C
:10282C0010B5044640B390F8393003F0FF021BB9E1
:10283C0080F8382003F040F82423226884F83930DB
:10284C00D368204623F40053D360FFF787FF236837
:10285C0000201A6922F490421A615A6922F02A0265
:10286C005A61DA6842F40052DA602023E06384F89B
:10287C00393084F83A3010BD0120FCE710B504461D
:10288C0060B390F8393003F0FF021BB980F83820A0
:10289C0003F012F82423226884F83930D3682046D8
:1028AC0023F40053D360FFF759FF236800201A6903
:1028BC0022F490421A615A6922F022025A615A6932
:1028CC0042F008025A61DA6842F40052DA602023BE
:1028DC00E06384F8393084F83A3010BD0120FCE70D
:1028EC002DE9F0411F4690F839300446202B0D4657
:1028FC0090464CD1002948D0002A46D090F8383068
:10290C00012B44D0012380F838300023C3632123EA
:10291C0080F83930FDF7E2FE0646A4F82480A4F8CE
:10292C002680E38C9BB263B93B463246402120465D
:10293C00FFF74EFFA0B9202384F8380084F8393013
:10294C000FE0E38C3246013B9BB2E384A368802109
:10295C00B3F5805F20463B460ED1FFF739FF10B12F
:10296C000320BDE8F0812B882268C3F30803536071
:10297C00236943B90235D4E7FFF72AFF0028EFD1CA
:10298C0023682A785A600135CBE70120E9E7022059
:10299C00E7E72DE9F0411F4690F83A300446202B2A
:1029AC000D46904652D100294ED0002A4CD090F8BA
:1029BC003830012B4AD0012380F838300023C36310
:1029CC00222380F83A30FDF789FE0646A4F82C80C5
:1029DC00A4F82E80E08D80B228B9202384F838002A
:1029EC0084F83A300FE0E38D3246013B9BB2E3852D
:1029FC00A3682021B3F5805F20463B4616D1FFF734
:102A0C00E7FE10B10320BDE8F081226923683AB9D2
:102A1C005A682B46C2F3080223F8022B1D46D9E74D
:102A2C005A682B46D2B223F8012BF7E7FFF7D0FEFA
:102A3C000028E7D1226821696B1C526809B92A70F9
:102A4C00ECE702F07F02FAE70120DCE70220DAE78C
:102A5C0090F83A30202B20D1E9B1E2B190F838301F
:102A6C00012B1AD0C285828500232222C36380F8F1
:102A7C003A2002688162D16880F8383041F4807164
:102A8C00D1605169184641F001015161D16841F0A2
:102A9C002001D160704701207047022070477047B9
:102AAC0090F83A3010B5222B33D181680469B1F516
:102ABC00805F836A026823D15268ECB9C2F30802C2
:102ACC0023F8022B8362C48D013CA4B2C4858CB95B
:102ADC000368DA6822F02002DA60DA6822F4807285
:102AEC00DA605A6922F001025A61202380F83A30E8
:102AFC0001F068F800200DE0D2B223F8012BE1E7D9
:102B0C00591C526881620CB91A70DCE702F07F0222
:102B1C00FAE7022010BD7047036870B51A680446C6
:102B2C001607D9685D6907D1960658D58D0656D516
:102B3C00BDE87040FFF7B4BF15F0010502D111F4E8
:102B4C00907F4CD0D30705D5CE0542BFE36B43F045
:102B5C000103E363500704D51DB1E36B43F002039B
:102B6C00E363930704D51DB1E36B43F00403E36304
:102B7C00160704D51DB1E36B43F00803E363E36B65
:102B8C0043B3950604D5880602D52046FFF788FF87
:102B9C00236820465D69E26B110702D415F04005ED
:102BAC0019D0FFF7CDFD23685A6952060FD55A6923
:102BBC00606B22F040025A6148B1264B4363FEF72A
:102BCC00A5F838B1606BBDE87040436B18472046E0
:102BDC00FFF7A1FF70BDFFF79EFFE563FAE716064E
:102BEC0028D50D0626D594F83920212AF2D1A168D2
:102BFC00226AB1F5805F18D11188C1F308015960C0
:102C0C00216981B902322262E28C013A92B2E284E9
:102C1C00002ADFD1DA6822F08002DA60DA6842F04A
:102C2C004002DA60D6E70132EDE7511C21621278DE
:102C3C005A60E9E75006CDD54A06CBD5DA6820466E
:102C4C0022F04002DA60202384F83930FFF727FFA6
:102C5C00C0E700BF652C000808B50023406AC38597
:102C6C00C384FFF758FF08BD90F83830012B11D002
:102C7C002423026880F83930D36823F00C0343F026
:102C8C000403D360202380F83930002380F83830D7
:102C9C001846704702207047F0B50C78034630F8A0
:102CAC002420C87822F4EC4222F07002032803D8C6
:102CBC00DFE800F042494446012048F280052A43EF
:102CCC0023F824200E789E4A33F8264035431440CE
:102CDC002C4323F826400D7B0C78002D40F082808D
:102CEC00CD884E786D086D0003EB041476B3B3F801
:102CFC0050603444A4F800540D7833F8254067062E
:102D0C0008D533F82540224042F4004242F0C0027C
:102D1C0023F82520CA780C78012A33F82410894A24
:102D2C0002EA010218BF82F0200242F4004242F093
:102D3C00800223F82420F0BD42F400720020BCE78E
:102D4C0042F4C062FAE742F48062F7E7B3F850202D
:102D5C000E691444A4F808540A78B3F8504003EBF5
:102D6C000212A4B202F20C4256BB155B25F4F845D4
:102D7C002D042D0C1553155B45F4004515530C789B
:102D8C0033F8242057040BD533F8242022F0F0021A
:102D9C001205120D42F4404242F0800223F8242026
:102DAC00097833F8212022F4804222F0700282F458
:102DBC00405242F4004242F0800223F82120BAE74C
:102DCC003E2E06D87508F60748BF0135AD02ADB2E8
:102DDC00D4E77709F5065C4D08BF07F1FF3745EAE4
:102DEC008725F4E733F82450154045F4014545F0A8
:102DFC00800523F824500C780D89B3F8506003EB50
:102E0C0004146D08B6B204F580646D00A5530C78FB
:102E1C004D89B3F8506003EB04146D0804F581641C
:102E2C006D00B6B2A5534C780D78002C43D133F815
:102E3C002540660408D533F82540224042F4404230
:102E4C0042F0800223F825200C7833F82420550614
:102E5C000BD533F8242022F0F0021205120D42F4A7
:102E6C00004242F0C00223F824200C7833F82420CE
:102E7C0022F0F0021205120D42F4004242F0C002A0
:102E8C0023F8242048F280040D7833F8252022F40E
:102E9C00804222F0700282F44052224323F8252013
:102EAC00097833F8212022F4E04222F04002144346
:102EBC0023F821403FE733F82540640408D533F864
:102ECC002540224042F4404242F0800223F8252063
:102EDC000C7833F8242052060BD533F8242022F03A
:102EEC00F0021205120D42F4004242F0C00223F827
:102EFC0024200C7833F8242022F0F0021205120D55
:102F0C0042F4404242F0800223F82420CA780C7824
:102F1C00012A33F824500B4A02EA050218BF82F04A
:102F2C00200242F4004242F0800223F82420097867
:102F3C0033F8212022F0F0029204920C39E700BF02
:102F4C008F8FFFFFBF8FFFFF0080FFFF4B780A784A
:102F5C007BB130F8223023F4E04323F0400383F0BC
:102F6C00100343F4004343F0800320F82230002088
:102F7C00704730F8223023F4804323F0700383F43D
:102F8C008053EEE70B7B23BB4B780A781BB330F8EE
:102F9C0022305B060BD530F8223023F0F0031B05F2
:102FAC001B0D43F4004343F0C00320F82230CB78D0
:102FBC00012B0ED00A7830F8223023F4E04323F0B2
:102FCC00400383F0200343F4004343F0800320F8D4
:102FDC0022300020704730F822305B040BD530F8DB
:102FEC00223023F0F0031B051B0D43F4404343F048
:102FFC00800320F822300A7830F8223023F4804302
:10300C0023F0700383F44053DDE711B98023A0F85B
:10301C004C3000207047B0F84400704700207047D7
:10302C0000EB4202013302F580625B0802EB830382
:10303C009A4200D1704731F8020B22F8040BF7E7E3
:10304C0070B50D46497804460129AA692B69287B7D
:10305C005DD19A429DBF0023AB611346D21A88BF43
:10306C00AA6169699EB2E8B93346EA882046FFF73F
:10307C00D7FFB4F850102A7804F2044312010B4421
:10308C00D6522A7834F8223023F4E04323F040035C
:10309C0083F0300343F4004343F0800324F82230E0
:1030AC00002070BD2B7834F82320B4F85000520661
:1030BC004BBF04F20C4204F20442121812184FEAED
:1030CC0003134BBFD652D6526A892A8933462046FF
:1030DC00FFF7A6FF6B782A7863B934F8223023F017
:1030EC00F0031B051B0D43F4004343F0C00324F80D
:1030FC002230C6E7012BC4D134F8223023F0F00380
:10310C001B051B0D43F4404343F08003EFE79A4249
:10311C0093BF0023D21AAA61AB6198BF13462A78D9
:10312C0090B9B4F8501004F20C4001441201002B79
:10313C003BD18B5A23F4F8431B041B0C8B528B5A38
:10314C0043F400438B5239E081B9B4F8501004F2C7
:10315C00044001441201B3B9885A20F4F840000429
:10316C00000C8852885A40F40040885269782A78BA
:10317C000029D6D0012921D1B4F8500004F20C4119
:10318C00014412012CE03E2B06D85808DE0748BF3C
:10319C000130800280B2E8E75E09D806114808BF0A
:1031AC0006F1FF3640EA8620F4E73E2B10D858088B
:1031BC00DE0748BF0130800280B288522A7834F88A
:1031CC00223023F4804323F0700383F4405361E7EF
:1031DC005809DB06034B08BF00F1FF3043EA80239C
:1031EC009BB2AFE70080FFFF00EB4202F0B502F5A7
:1031FC0080625D08084617462E46023036B9DB075A
:10320C0044BF32F8253001F81530F0BD37F8044BC7
:10321C00013EA4B200F8024C240A00F8014CECE781
:10322C0008B5D0F8B4320BB9022008BD1B6898471A
:10323C000028FAD0F8E708B5D0F8B4325B689847A4
:10324C00002008BD38B500F52A750446284600F064
:10325C00E1FA012394F8A812C4F89432B4F8AE320F
:10326C00C4F8983201F01F03012B0ED007D3022BA8
:10327C0010D001F08001204602F086FD03E02946C3
:10328C00204600F0F5F8002038BD2946204600F015
:10329C0013FAF8E72946204600F033FAF3E770B545
:1032AC000546164649BBD0F89432032B1ED1D0F8F4
:1032BC006031D0F8642193420BD99B1A9A42C0F822
:1032CC0060318CBF9AB292B2314600F0CCFA002039
:1032DC0070BDD0F8B4321B6923B190F89C22032A3C
:1032EC0000D19847284600F0C6FAF0E7052BEED13E
:1032FC00C5F8941202F048FDE9E7D0F8B4329B69A6
:10330C002BB190F89C22032A01D19847DFE70220C9
:10331C00DEE770B5134604460E46002947D1D0F8B7
:10332C009422022A3CD1D0E90852954213D9AA1A08
:10333C000262194692B200F08EFA33461A461946CA
:10334C00204602F069FD94F8A0320020012B01D137
:10335C0084F8A00270BDC369B3FBF2F502FB15350E
:10336C0065B99A420AD8D0F89822934206D22A46D6
:10337C0000F071FAC4F898522B46DFE7D4F8B43257
:10338C00DB682BB194F89C22032A01D12046984784
:10339C008021204602F0F8FC204600F077FAD2E7B4
:1033AC0032F00403CFD1802102F0EEFCCBE7D0F851
:1033BC00B4325B6933B190F89C22032A02D198474E
:1033CC000020C7E70220C5E7002270B5044601259E
:1033DC0040261146402302F0C7FC33468021C4F836
:1033EC005851C4F864610022204602F0BDFC002153
:1033FC00D4F8B832A561666284F89C52C4F8941271
:10340C006160C4F8A41223B1D4F8B43220465B68CE
:10341C009847002070BD01740020704790F89C32D2
:10342C0080F89D32042380F89C320020704790F87D
:10343C009C32042B04BF90F89D3280F89C32002003
:10344C00704708B590F89C22032A04D1D0F8B43206
:10345C00DB6903B19847002008BD10B504468021F4
:10346C0002F092FC2046BDE81040002102F08CBC1A
:10347C0037B50B78044603F06003202B0D4612D0B1
:10348C00402B10D0002B5BD14B78092B58D8DFE8A0
:10349C0013F0E90005015700FE00570084001300EB
:1034AC005700D200A000D4F8B43229469B682046BD
:1034BC009847002003B030BD0023ADF806304B8890
:1034CC001A0A013A062A3BD8DFE802F004202D3A0A
:1034DC003A525C00D0F8B0321B680DF10601207C2A
:1034EC009847BDF8062052B1EB8843B19A4228BFE9
:1034FC001A4601462046ADF8062000F09FF9EB88ED
:10350C00002BD6D1204600F0B6F9D2E7027CD0F8D9
:10351C00B43232B99B6A0DF106009847022343700E
:10352C00DFE7DB6AF7E7DBB2052B09D8DFE803F04E
:10353C00030C1014181CD0F8B0325B68002BCCD1E3
:10354C002046FFF78AFFB4E7D0F8B0329B68F5E766
:10355C00D0F8B032DB68F1E7D0F8B0321B69EDE798
:10356C00D0F8B0325B69E9E7D0F8B0329B69E5E797
:10357C00037C002BE4D1D0F8B4320DF106005B6B68
:10358C009847AEE7037C002BDAD1D0F8B4320DF1BA
:10359C0006001B6B98470723C1E78B88002BCFD104
:1035AC00CB88002BCCD14D887F2DC9D890F89C327C
:1035BC00032BC5D0E9B280F89E1202F011FC204614
:1035CC0000F059F91DB1022384F89C3271E70123F4
:1035DC00FAE78978374D01292970B1D890F89C32D7
:1035EC00022B08D0032B14D0FFF737FF2978204685
:1035FC00FFF721FE5DE7002984D001210323416000
:10360C0080F89C322046FFF70BFE02287FF47AAF3D
:10361C0096E731B90223416080F89C32FFF70BFE2C
:10362C0070E7416801293FF46DAFC9B2FFF703FEA3
:10363C0029786160E6E7CA88012A81D190F89C322A
:10364C00002B3FF47DAF022B04D9032B7FF478AF12
:10365C00011D03E00146002341F8083F204600F01D
:10366C00EDF826E790F89C32013B022B3FF668AF51
:10367C00CB88022B7FF464AF0123C360D0F8A43253
:10368C000BB10323C360022204F10C01E6E74B8863
:10369C00012B7FF40EAFC4F8A43233E790F89C32C0
:1036AC00013B022B3FF64CAF4B88012B7FF401AF53
:1036BC000023F0E78402002038B50B78044603F0B1
:1036CC006003202B0D4602D0402B00D0ABB994F8F0
:1036DC009C32013B022B10D82B79012B0DD8D4F83E
:1036EC00B43229469B6820469847EB881BB910B921
:1036FC00204600F0C0F8002038BD2046FFF7ADFE94
:10370C00F9E738B50A78044602F06002202A0B4625
:10371C0014D0402A12D06AB95A788D88012AE9B29D
:10372C0020D036D3032A05D190F89C22022A27D028
:10373C00032A0BD02046FFF790FE05E0D4F8B42204
:10374C001946926820469047002038BD5A882AB9FD
:10375C004A0603D0DB880BB902F016FB204600F0BA
:10376C008AF8F1E790F89C22022A09D0032AE1D1C9
:10377C005B88002BE8D14D06F0D002F013FBEDE78F
:10378C004B06D7D002F000FB8021204602F0FCFA59
:10379C00DAE790F89C32022B18D0032BCAD11423F1
:1037AC0001F00F0215F0800F03FB02021FD092698B
:1037BC00002ABFD001F07F0505FB0335054411F04D
:1037CC007F031FD12B60022229460CE04A06B1D19F
:1037DC002B064FF000034FF002024CBF00F1140116
:1037EC0000F5AA710B60204600F028F8ACE7D2F87F
:1037FC005821002A9ED001F07F0503FB050505F535
:10380C00AA75DCE7204602F0DBFA08B10123D9E700
:10381C002860D8E70B7803704B784370CA788B78A4
:10382C0003EB022343804A790B7903EB0223838059
:10383C00CA798B7903EB0223C380704713460222AB
:10384C0010B5C0F89422C0E907330A46002102F0F3
:10385C00D5FA002010BD08B513460A46002102F027
:10386C00CDFA002008BD08B513460A46002102F027
:10387C00D3FA002008BD08B50423C0F89432002305
:10388C001A46194602F0BAFA002008BD08B50523FD
:10389C00C0F8943200231A46194602F0BDFA0020F3
:1038AC0008BD000070B5124B1A6893681B06FCD457
:1038BC00104EFCF713FF33689842FAD30E4C0F4DA1
:1038CC0021682A880A48FEF743FCFCF707FF0C4BDB
:1038DC0006302168306018682A88814207BF881832
:1038EC00206020608118BDE8704002F063BB00BF0F
:1038FC00280A00208C020020D8050020DC050020BE
:10390C00E4050020F0B5114D114C02EB4202276882
:10391C00AE1800EBC000AA5C01303A5472783C1827
:10392C006270B27801EB4101A2706A18695C03EB1A
:10393C004303E1705178217192786271EA18EB5C63
:10394C00A3715378E37193782372F0BDD06A0008A9
:10395C00D805002070B50021922449252426094B56
:10396C0009481B6801330288033302EB42028A4286
:10397C0000DC70BD03F8034C03F8025C03F8016C27
:10398C000131F0E7D8050020E80500202DE9F743C8
:10399C0006460025023000EBC6001F4B1F4F84B2B9
:1039AC00DFF8908060001D703C80C8F80050ADF8C6
:1039BC00045002F0EFFA1A4BB9461860194FD0B107
:1039CC00C8F800000570204400F8015C3E80FFF749
:1039DC00C1FF1023144C154A2046C4E90023802350
:1039EC00C4E903354FF48053A560C4E90555E36180
:1039FC00FDF71EF930B10020A9F80000388003B0A3
:103A0C00BDE8F0830A486423012201A98464606242
:103A1C00FEF7F5FA0120F2E7DF050020DC050020B7
:103A2C00E4050020E8050020800A00203000024058
:103A3C00280A0020D8050020204A10B51388642BD2
:103A4C0002D00133138010BD00241480FFF782FFD5
:103A5C0023462246FF212046FFF754FF2346FF2230
:103A6C0021460120FFF74EFFFF232246214602206C
:103A7C00FFF748FFFF23224619460320FFF742FFBA
:103A8C00FF2321461A460420FFF73CFFFF22234662
:103A9C0011460520FFF736FFFF2306201A4619466C
:103AAC00FFF730FF064A07491388098801339BB298
:103ABC009942138008BF1480C5E700BF880200201C
:103ACC0086020020E8050020014B1868704700BFF3
:103ADC0094020020014B1878704700BF9002002020
:103AEC00014B1868704700BF9C02002038B5084C89
:103AFC00206808B102F056FA064B1D68284602F001
:103B0C0049FA2A4620600021BDE8384002F05DBA2F
:103B1C00980200209C020020022814BF0B221A22BB
:103B2C00034B1960034B1870034B1A60FFF7DEBF91
:103B3C0094020020900200209C020020044B1B6881
:103B4C0023B1044A1268824288BF1954704700BFDF
:103B5C00980200209C020020054B1B682BB1054AE3
:103B6C001268824201D9185C70470020704700BF70
:103B7C00980200209C020020044B1B68834286BFE5
:103B8C00034B53F820000020704700BF9C0200201C
:103B9C0008000020094882B003681A68920709D50A
:103BAC00002201921A68019201225B680193019B29
:103BBC00034B1A7002B0FEF7AFBF00BFE80900203C
:103BCC00AC02002002682E4B73B59A4256D12D4B95
:103BDC002D4D1B782D4C8DF807302B786BB32C4A60
:103BEC0013780133DBB2137013782C2B0DD1002317
:103BFC001370284A4FF4005113782748B3FA83F313
:103C0C005B0913701278FDF771FB002323490B70CD
:103C1C0023802B709DF8072002F0FF035AB1172B5D
:103C2C004FF0010227D00A7016491D4802B0BDE8BA
:103C3C007040FEF70DBF1B4A13701A4B1B78A3B9CB
:103C4C00194D23882A689A420FD82688FFF748FF17
:103C5C002B68B6B21844864207D220882B689DF890
:103C6C000710C01A0138FFF769FF238801220133BE
:103C7C009BB22380D8E70B4B1A70DEE702B070BD05
:103C8C0000380140A0020020AC020020A20200205B
:103C9C00A5020020A40200200010014070000020AA
:103CAC00E8090020A6020020A802002008B505485B
:103CBC0000228021FDF71AFBBDE808400248FEF700
:103CCC00D3BF00BF000C0140E809002008B5FFF786
:103CDC00FBFE054B1860FFF7E9FFBDE80840012229
:103CEC0002490348FEF7B4BEA8020020A00200203F
:103CFC00E8090020FFF7EABF30B50446A40287B0FC
:103D0C0044F000640D46FDF705F9012304940024EA
:103D1C0001A902A8059503930294FDF7B5F938B9EA
:103D2C00FDF70AF90198431C5842584107B030BDC1
:103D3C00FDF702F92046F9E701217F20FFF7DCBFF0
:103D4C000144B1F5807F0BDD00207047830003F147
:103D5C00006303F5FE331B68013042F8043B80B26C
:103D6C008142F3DC012070470144B1F5807FF8B546
:103D7C00164602DD00242046F8BDFFF7DDFF0446A1
:103D8C000028F7D0FDF7C6F8094D0A4F043E56F847
:103D9C00042F002329460220FDF702F910B1FDF78C
:103DAC00CBF8E7E70435BD42F1D1FDF7C5F8E2E702
:103DBC0000FC0108000002080022014B1A60704749
:103DCC00B0020020054A136883424FF0000015BF73
:103DDC000133106013600120704700BFB002002057
:103DEC000130FFF7ABBEFFF7B7BE000030B50C25B6
:103DFC0085B001AC84E80700074A13780133DBB2C5
:103E0C001370064A05FB032594E8070085E80700B4
:103E1C00184605B030BD00BFB4020020EC050020F0
:103E2C0008B500F067F900F079F900F0D9F8BDE8B1
:103E3C00084000F0E9B8FFF7F3BF00002DE9F041AE
:103E4C00154B04461B78154E834222D3144DDFF8D4
:103E5C005C802B78032B0BD00C22337802FB038372
:103E6C009F682FB1596800220220B84703232B709A
:103E7C0000270C4B32781F600B4B34701A700C23DC
:103E8C0003FB0484A36823B162683946384698471B
:103E9C002F703078BDE8F081B4020020B50200200C
:103EAC00B6020020B8020020BC020020EC05002065
:103EBC000C2070B50D4D0E4C297800FB01418E681D
:103ECC001EB1002249680220B0470322094B1A7028
:103EDC000C222B7802FB0343D87818B1BDE8704054
:103EEC00FFF7ACBF044B1878F8E700BFB502002011
:103EFC00EC050020B6020020BC02002070B51A4E62
:103F0C003378002B2FD00C22184D194C02FB035385
:103F1C0059782268012906D15B68934211D1BDE81A
:103F2C007040FFF7C5BF02290BD15968914208D1E7
:103F3C0000229B6822600BB11046984700220D4B63
:103F4C001A700C223378216802FB03539D6825B14B
:103F5C005A680120A8470128E1D00122054B1A70AC
:103F6C0023681344236070BDB5020020EC050020CB
:103F7C00B8020020B6020020012870B50CD004D382
:103F8C0002280CBF0120032070BD0024134B1C70B1
:103F9C00FFF712FF2046F7E7104C0F202578FFF7AC
:103FAC0022FF284483B2FF2B8CBFFF2320704FF0DD
:103FBC000E0088BF2370FFF716FF05B2092DA8BFAE
:103FCC0009250026F0B2854206F1010601DA02202D
:103FDC00DAE72178FFF704FFF4E700BFEC080020D4
:103FEC00002384B002938DF807308DF805308DF8DE
:103FFC000430044B039304AB13E9070004B0FFF740
:10400C00F5BE00BF853F00080A2384B0029300234D
:10401C0001228DF807308DF80430054B8DF8052002
:10402C00039304AB13E9070004B0FFF7DFBE00BF36
:10403C00853F00080128F8B512D003D3022851D0CF
:10404C0003200CE00B2001F0A5FF0024284BC0E955
:10405C000044C0F807401860FFF7AEFE2046F8BDDC
:10406C000D20FFF7C0FEFFF7ADFE08B90220F6E702
:10407C001F4E0027354633680F20DC5DFFF7B3FE7B
:10408C00FF38044424B2336824EAE474DC55013765
:10409C000A2FF0D10E20FFF7A6FE092828BF092011
:1040AC00C4B20C20FFF79FFE33689A7A98B10AB914
:1040BC0001349C729A7A013AFF2100249A722B687F
:1040CC009A7A99542B68E0B2195D0134FFF788FE97
:1040DC000A2CF7D1CAE7A24204BFFF229A729A7A3D
:1040EC000132E9E7024B186801F05CFF0120B6E7EA
:1040FC00EC080020002384B002938DF807308DF873
:10410C0005308DF80430044B039304AB13E907001E
:10411C0004B0FFF76BBE00BF414000080A2384B017
:10412C000293002301228DF807308DF80430054BE3
:10413C008DF80520039304AB13E9070004B0FFF7D7
:10414C0055BE00BF4140000810B54FF480410848EF
:10415C00FDF7C6F8B0FA80F44FF400410448640946
:10416C00FDF7BEF808B944F00204204610BD00BFAC
:10417C000010014010B54FF400411F48FDF7B0F896
:10418C00B0FA80F408211D486409FDF7A9F808B9B4
:10419C0044F0020410211948FDF7A2F808B944F0C4
:1041AC0004044FF480711548FDF79AF808B944F0EF
:1041BC0008044FF400711148FDF792F808B944F067
:1041CC0010044FF480510D48FDF78AF808B944F0FB
:1041DC0020044FF400510948FDF782F808B944F067
:1041EC0040044FF480410548FDF77AF808B944F0D3
:1041FC008004204610BD00BF00080140000C0140A7
:10420C0008B520210348FDF76BF8B0FA80F040099F
:10421C0008BD00BF0008014070B540F23444FF23D4
:10422C006043B0FBF3F316460E4A10885843B0FBBC
:10423C00F4F0401AFCF746F805463046FCF742F815
:10424C0001462846FCF792F80749FCF743F9FCF7BE
:10425C00DDF900B2A042A8BF204620EAE07080B28F
:10426C0070BD00BFBE0200200000C842F8B5B64CBD
:10427C000546236800201E78FFF76EFC864200D1AD
:10428C0085B10020FFF768FC40F234435843FF230C
:10429C00B0FBF3F0AD4B256818800020FFF75CFCF9
:1042AC0028700125236801205E78FFF755FC8642B3
:1042BC0000D1ADB10120FFF74FFCA549B1F93C305D
:1042CC00B1F93A20B1F93810FFF7A6FF00210246E8
:1042DC00084600F04FFC01202668FFF73DFC70708B
:1042EC00236802209E78FFF737FC864200D1ADB1DF
:1042FC000220FFF731FC9649B1F94230B1F9402068
:10430C00B1F93E10FFF788FF01210246002000F0B2
:10431C0031FC02202668FFF71FFCB07023680320D5
:10432C00DE78FFF719FC864200D1ADB10320FFF710
:10433C0013FC8749B1F94830B1F94620B1F9441062
:10434C00FFF76AFF02210246002000F013FC032055
:10435C002668FFF701FCF070236804201E79FFF734
:10436C00FBFB864200D1ADB10420FFF7F5FB784989
:10437C00B1F93C30B1F93A20B1F93810FFF74CFFE4
:10438C0000210246012000F0F5FB04202668FFF70F
:10439C00E3FB3071236805205E79FFF7DDFB864275
:1043AC0000D1ADB10520FFF7D7FB6949B1F9423017
:1043BC00B1F94020B1F93E10FFF72EFF0121024662
:1043CC00084600F0D7FB05202668FFF7C5FB707187
:1043DC00236806209E79FFF7BFFB864200D1ADB162
:1043EC000620FFF7B9FB5A49B1F94830B1F946201C
:1043FC00B1F94410FFF710FF02210246012000F032
:10440C00B9FB06202668FFF7A7FBB07123680720CD
:10441C00DE79FFF7A1FB864200D1ADB10720FFF793
:10442C009BFB4B49B1F93C30B1F93A20B1F938104A
:10443C00FFF7F2FE00210246022000F09BFB072052
:10444C002668FFF789FBF071236808201E7AFFF7B6
:10445C0083FB864200D1ADB10820FFF77DFB3C49C0
:10446C00B1F94230B1F94020B1F93E10FFF7D4FE5A
:10447C0001210246022000F07DFB08202668FFF790
:10448C006BFB3072236809205E7AFFF765FB86426E
:10449C0000D1ADB10920FFF75FFB2D49B1F94830D0
:1044AC00B1F94620B1F94410FFF7B6FE02210246DD
:1044BC00084600F05FFB09202668FFF74DFB707281
:1044CC0023680A209E7AFFF747FB864200D18DB104
:1044DC000A20FFF741FBDC2364220021FFF79CFE3E
:1044EC0003210246022000F045FB0A202668FFF754
:1044FC0033FBB072FFF7EEFA022824D123680B20AD
:10450C00DF7AFFF729FB124E96F82530B0FBF3F05B
:10451C00C0B2874200D1B5B10B20FFF71DFB96F856
:10452C002530B0FBF3F0C0B2FFF788FC01460B203E
:10453C00FFF704FB0B20FFF70FFB96F825302268E2
:10454C00B0FBF3F0D072F8BDC0020020BE02002018
:10455C00F008002038B50D4C206808B101F022FDA0
:10456C00FFF7BEFA013001F015FD05462060FFF79C
:10457C00B7FA00210246284601F027FDFF222368E6
:10458C0001201A70BDE83840FFF770BEC002002051
:10459C0030B5102495B0224600210CA801F015FD71
:1045AC00142200210DEB020001F00FFD2246002128
:1045BC0001A801F00AFD02254FF480330922CDE950
:1045CC001153CDE90A2301224FF4E0130AA80E92ED
:1045DC0010921393FDF782F90F230024CDE90535D2
:1045EC004FF48063294605A8CDE907430994FDF7EC
:1045FC004DFB122301934FF4004301A8CDE9033482
:10460C00FDF700FC15B030BD00242DE98048BE4DEF
:10461C008BB0FCF745F8FFF7BBFF0894AB6901279B
:10462C0002264FF0800843F01003AB61AB6906A97A
:10463C0003F010030293029BAB69B44843F02003D0
:10464C00AB61AB694FF4005903F020030393039B58
:10465C00AB694FF0030A43F00403AB61AB6948F25A
:10466C00200B03F004030493049BAB6943F0080391
:10467C00AB61AB69099603F008030593059BCDE983
:10468C000687FCF74DFD22464146A048FCF72EFE5E
:10469C004FF4404306A99E48CDE906340894FCF734
:1046AC003FFD06A99A480996CDE90697FCF738FD17
:1046BC0040F2CE7306A99748CDE90636CDF824A072
:1046CC00FCF72EFD06A99148CDE906A6CDF824A04D
:1046DC00FCF726FD06A98F48CDE906B40897FCF730
:1046EC001FFD47F2183306A98848CDE90634089710
:1046FC00FCF716FD06A98548CDE906B6CDF824A031
:10470C00FCF70EFD4FF480634FF4602A06A97F4836
:10471C00CDE90846CDE90637FCF702FD7E4A7F4E0F
:10472C005368494643F0E0633B4353607848224664
:10473C00FCF7DCFD7A4B30463360B460347334756F
:10474C007460CDE906440894C6F81CA03761FCF7E8
:10475C0083F906A93046734ECDE906470894FCF759
:10476C003DF8714B30463360B4603473347574600B
:10477C00CDE906440894C6F81CA03761FCF76CF927
:10478C00042330460C2606A9CDE906370894FCF71D
:10479C0025F86648664B674AC0E90564C0E9002302
:1047AC00C0E902490461C461FEF768F8224621465B
:1047BC002520FCF7E5F92520FCF716FA4FF4E13338
:1047CC005D485E49C0E90446C0E90013C0E90244F3
:1047DC00C0E90644FEF724F8594B5A48C3F8048044
:1047EC00AB69594E43F48053AB61AB694FF4007C19
:1047FC0003F480530693069B4FF48273C0E9006365
:10480C002023C0E906C30A23C0E90244C0E90444DA
:10481C00C0E908448462C362FDF7B6FB6B692246AB
:10482C003B436B616B6921463B4001930D20019B1F
:10483C00FCF7A6F90D20FCF7D7F9444800F06EFC04
:10484C00434800F06BFC434800F068FC404800F023
:10485C0065FC3E4800F062FC6B6A00F05FF93E4874
:10486C0000F05CFCFFF770FC0446FFF783FC01468C
:10487C002046FFF751F9394800F050FC00F0B2F92E
:10488C00FFF7BEFC002840F0908000F055FA344849
:10489C0000F044FC00F0D8F9324800F03FFCFFF780
:1048AC0029FA314800F03AFCFFF754FE2F4800F08B
:1048BC0035FC01F06BF92E4800F030FCFFF70AF9DB
:1048CC00022878D1FFF7B7FA2A4800F027FC2A4BC8
:1048DC00D88CFFF75BF800286BD0284800F01EFC42
:1048EC00FFF738F8264800F019FC264800F016FCB3
:1048FC00254800F033FC01224FF400510448FCF72A
:10490C00F5FC224C44E000BF00100240000C0140BA
:10491C00001001400008014000000140B8090020CF
:10492C00002401407C09002000280140E8090020F7
:10493C0090D00300003801403C09002000480040A2
:10494C0000E100E0280A002000300140517400080A
:10495C0092740008EB6E0008F96E00080D6F0008E9
:10496C00246F0008456F0008576F00086C6F000833
:10497C00856F00089B6F0008F0080020A76F0008E7
:10498C00C16F0008FD6F00080A700008C402002007
:10499C0000F0FEFB237883B101F05EF82070002854
:1049AC00F6D10120FFF762FCF2E700F0CDF90C48DC
:1049BC006EE70C4897E70C4895E7FFF721FC0128B8
:1049CC0008BF207001F002F9FFF784F8022805D126
:1049DC00FFF794FAFFF730F8FEF764FF0020E1E7E9
:1049EC00336F0008D36F0008EB6F000870470000AE
:1049FC001C222DE9F0418EB0064600210DEB020081
:104A0C0001F0E3FA0021102203A8CDE9011101F015
:104A1C00DCFA012E384C67D062D3022E67D000230B
:104A2C0040F22A4204EB8614C4E90133C4E903239F
:104A3C0063612046FDF7F8FC10B1304800F06EFBC6
:104A4C004FF4805303A920460393FDF7B9FD10B131
:104A5C002B4800F063FB2046FDF700FD10B1294800
:104A6C0000F05CFB40F21A2360220025CDE90723FD
:104A7C000423CDE90B35244BCDE9095503EB06177F
:104A8C00DFF8908076B20D9503EB061657F82530BB
:104A9C00FF2B09D056F8252007A92046FDF724FD49
:104AAC0010B1404600F03AFB0135042DEED1204602
:104ABC00FDF76FFC0025DFF8608057F82530FF2BE1
:104ACC0008D056F825102046FDF738FE10B14046A8
:104ADC0000F024FB0135042DEFD10EB0BDE8F081C0
:104AEC004FF0804323609AE7084B236497E7084B09
:104AFC00C4F8803093E700BFC40A00200F70000890
:104B0C002270000835700008707000080004004026
:104B1C00002C0140487000085B7000081FB5144B56
:104B2C0000209A6942F400629A619A6902F4006268
:104B3C000192019ADA6942F00102DA61DA6902F053
:104B4C0001020292029ADA6942F00202DA61DB692E
:104B5C0003F002030393039BFFF74AFF0120FFF7C7
:104B6C0047FF022005B05DF804EBFFF741BF00BF23
:104B7C00001002400B4B01EB800153F82110FF2970
:104B8C000ED0094B80011B5809B95A637047042990
:104B9C0001D19A637047082901D1DA6370471A640E
:104BAC00704700BF70700008C40A00200A4641F22A
:104BBC00883301460148FDF793BE00BF3C09002035
:104BCC0007B5002301220DF107010548FDF7E1FEB1
:104BDC0020B99DF8070003B05DF804FB0020FAE74C
:104BEC003C09002010B5174C36220021204601F05C
:104BFC00ECF9FF2224F8022C40F60A22A31E1A8399
:104C0C000A229A76DA7783F8202083F8212064220E
:104C1C004FF69C71DA841A855A87A3F84020A3F8C2
:104C2C00462004224FF6B0701987DC2183F825202A
:104C3C009987D887A3F84210A3F84400A3F848102A
:104C4C0010BD00BFF208002010B53A4C00202178AE
:104C5C00FEF774FFA1780120FEF770FF2179022086
:104C6C00FEF76CFFA1790320FEF768FF217A042080
:104C7C00FEF764FFA17A0520FEF760FF217B06207A
:104C8C00FEF75CFFA17B0720FEF758FF217C082074
:104C9C00FEF754FFA17C0920FEF750FF217D0A206E
:104CAC00FEF74CFFFEF716FF022842D1A17D0B2028
:104CBC00FEF744FFE17D0C20FEF740FF217E0D2026
:104CCC00FEF73CFF617E0E20FEF738FFA17E0F2021
:104CDC00FEF734FFE17E1020FEF730FF217F11201C
:104CEC00FEF72CFF617F1220FEF728FFA17F132017
:104CFC00FEF724FFE17F1420FEF720FF94F820102C
:104D0C001520FEF71BFF94F821101620FEF716FF56
:104D1C0094F822101720FEF711FF94F82310182096
:104D2C00FEF70CFF94F824101920BDE81040FEF794
:104D3C0005BF10BDF0080020024A4A210020FEF7F2
:104D4C00FFBF00BFF0080020024A4FF48071002022
:104D5C00FFF70AB8F008002038B5844D844C85481C
:104D6C0000F0DCF9284600F0D9F92188824800F0DF
:104D7C00D5F96188814800F0D1F9A188804800F00C
:104D8C00CDF9E1887F4800F0C9F921897E4800F00F
:104D9C00C5F961897D4800F0C1F9A1897C4800F012
:104DAC00BDF9E1897B4800F0B9F9218A7A4800F015
:104DBC00B5F9618A794800F0B1F9A18A784800F018
:104DCC00ADF9A17D774800F0A9F9E17D764800F0B6
:104DDC00A5F9217E754800F0A1F9617E744800F0B8
:104DEC009DF9A17E734800F099F9E17E724800F0BC
:104DFC0095F9217F714800F091F9617F704800F0BE
:104E0C008DF9A17F6F4800F089F9E17F6E4800F0C1
:104E1C0085F994F820106D4800F080F994F8211071
:104E2C006B4800F07BF994F822106A4800F076F990
:104E3C0094F82310684800F071F994F8241067482E
:104E4C0000F06CF9664800F069F9284600F066F944
:104E5C0094F82510634800F061F9E18C624800F089
:104E6C005DF9218D614800F059F9614800F056F95F
:104E7C00604800F053F994F82A105F4800F04EF99E
:104E8C0094F82B105D4800F049F994F82C105C480C
:104E9C0000F044F994F82D105A4800F03FF994F8BA
:104EAC002E10594800F03AF994F82F10574800F09A
:104EBC0035F994F83010564800F030F994F8311068
:104ECC00544800F02BF994F83210534800F026F9AE
:104EDC0094F83310514800F021F994F834105048EC
:104EEC0000F01CF994F835104E4800F017F994F8BE
:104EFC0036104D4800F012F994F837104B4800F07A
:104F0C000DF94B4800F00AF94A4800F007F9B4F9DA
:104F1C003810494800F002F9B4F93A10474800F04B
:104F2C00FDF8B4F93C10464800F0F8F8B4F93E101E
:104F3C00444800F0F3F8B4F94010434800F0EEF8A0
:104F4C00B4F94210414800F0E9F8B4F94410404873
:104F5C0000F0E4F8B4F946103E4800F0DFF8B4F97C
:104F6C0048103D48BDE8384000F0D8B898740008A7
:104F7C00F0080020A0700008A9700008B9700008A3
:104F8C00C5700008D3700008E0700008EC700008D1
:104F9C00FA700008077100081371000821710008ED
:104FAC002E7100083C7100084A7100085D71000800
:104FBC006E7100087E710008917100089F710008E5
:104FCC00AD710008BB710008CE710008DF710008DC
:104FDC00EF71000802720008107200081E720008BF
:104FEC002C72000835720008477200085A720008CB
:104FFC006D720008977400087672000886720008BB
:10500C0099720008B4720008CF720008EA720008A6
:10501C000473000819730008297300083C73000816
:10502C0057730008727300088D730008A77300088B
:10503C00BC73000894740008C8730008D773000888
:10504C00E4730008F273000803740008127400087B
:10505C002274000832740008407400080021034BCD
:10506C0040220348196000F0B0BF00BF08030020C5
:10507C00C502002008B500F025FF28B1BDE80840A6
:10508C00017A4068FFF792BD08BD000019491A4A21
:10509C0010B50B6812680C46C0B99BB9072A14D01E
:1050AC0007232360FFF7DAFF144B2168402203EB40
:1050BC008111134801F069F81148FBF741F8114BC5
:1050CC00186002E0013B9342EBD110BD9342FCD03F
:1050DC00072B05D14AB90A60BDE81040FFF7BEBFE7
:1050EC00581C904201D10860F6E70133082B08BF29
:1050FC000023D6E70C050020100500200C0300202F
:10510C00C50200200803002010B50446FFF758FD27
:10511C00207000B910BD0120FCE700000FB413B5DE
:10512C000C4C04AB53F8042B7C212046019301F06A
:10513C0053F90949204601F007F82046FBF700F81F
:10514C0081B22046FFF732FD02B0BDE8104004B03A
:10515C00704700BF140500204F7400080FB413B53E
:10516C000A4C04AB53F8042B7C212046019301F02C
:10517C0033F92046FAF7E4FF81B22046FFF716FD1B
:10518C0002B0BDE8104004B0704700BF1405002009
:10519C002DE9F04F724B8FB018681B79714C724E21
:1051AC0003908DF810300DF10B00FFF7ADFF0128C7
:1051BC0002D00FB0BDE8F08F9DF80B0000F03AFE66
:1051CC0001280ED123683F2B05D85A1C9DF80B10D3
:1051DC002260664AD15401210DF10B00FFF7E6FC69
:1051EC00E1E708287ED16248FFF798FF5F490B780A
:1051FC0083B1604F60483D68402200EB851001355B
:10520C0000F0C3FF072DCABF00233D603B603A6826
:10521C005A4B1A605A49554800F0CCFF00250DF145
:10522C003808574F48F8240D58F825300BB1072D86
:10523C002CD140225349059800F095FF074668B3DE
:10524C0040225149059800F08EFF002838D04FF0CD
:10525C0000094FF00C0B4D4B1F68B94536DA0BFBB0
:10526C0009F340229959059803EB060A00F07BFFDD
:10527C0048B9DAF808304146681E984718B9DAF888
:10528C000400FFF74BFF09F10109E6E7394600205E
:10529C0000F090FF013548F82500C5E74FF00C0AE7
:1052AC003348FFF73BFF394B1B680193019B9F422F
:1052BC00C6DA0AFB07F39859FFF730FF0137F5E719
:1052CC000D20FFF7D7FE0E20FFF7D4FEFFF7C6FE2A
:1052DC000DF10B000121FFF769FC03A92C48FFF726
:1052EC003DFF60E700283FF45EAF07280ED123682E
:1052FC00002B04DD00211D4A013B2360D154072003
:10530C00FFF7B8FE0A20FFF7B5FE4CE7022816D1CE
:10531C000B20FFF7AFFE002523680433AB4209D8FE
:10532C0003A8FFF71BFF0020FFF7B0FE0F48FFF7A5
:10533C0015FF38E70C20FFF79DFE0135ECE703283D
:10534C007FF431AF0B20FFF795FE00252368AB42AD
:10535C0001DC0120E8E70C20FFF78CFE0135F5E7B6
:10536C000A7000080803002014750008C50200200C
:10537C0051740008100500200C0300200C050020BF
:10538C002E7A0008527400085774000860740008E4
:10539C005B74000808B500F071FC012008BD00002A
:1053AC0010B50020FEF7D8FB384C20800120FEF70A
:1053BC00D3FB60800220FEF7CFFBA0800320FEF71A
:1053CC00CBFBE0800420FEF7C7FB20810520FEF715
:1053DC00C3FB60810620FEF7BFFBA0810720FEF710
:1053EC00BBFBE0810820FEF7B7FB20820920FEF70B
:1053FC00B3FB60820A20FEF7AFFBA082FEF76AFBCC
:10540C00022840D10B20FEF7A7FBA0750C20FEF75D
:10541C00A3FBE0750D20FEF79FFB20760E20FEF718
:10542C009BFB60760F20FEF797FBA0761020FEF713
:10543C0093FBE0761120FEF78FFB20771220FEF70E
:10544C008BFB60771320FEF787FBA0771420FEF709
:10545C0083FBE0771520FEF77FFB84F820001620F5
:10546C00FEF77AFB84F821001720FEF775FB84F811
:10547C0022001820FEF770FB84F823001920FEF799
:10548C006BFB84F82400012010BD00BFF008002045
:10549C0008B5FEF71FFB012808D003D3022807D05C
:1054AC00012008BD0348FFF739FEF9E70248FAE787
:1054BC000248F8E7D5740008EF740008FC74000883
:1054CC0008B5FFF741FC012008BD08B5FFF744FC07
:1054DC00012008BD08B5FEF7F7FA01460248FFF7B0
:1054EC001DFE012008BD00BFC2740008F7B5FEF711
:1054FC00EBFA01461648FFF711FEFEF7F1FA0146EA
:10550C001448FFF70BFEFEF7E5FA01461248FFF7C9
:10551C0005FE1248FFF702FE0024114DFEF7E0FADB
:10552C00A04202D8012003B0F0BDFEF7CDFA061957
:10553C002046FEF721FB07462046FEF70DFB2146D1
:10554C0000903B4632462846FFF7E8FD0134E5E77C
:10555C00C2740008647400087B740008847400082A
:10556C00A0740008052870B50C4635D1486800F0C9
:10557C00E2FC054618B1012817D001252AE0A068E5
:10558C0000F0D9FC154D85F82E00E06800F0D3FC36
:10559C0085F82F00206900F0CEFC85F82C0060699E
:1055AC0000F0C9FC85F82D00E7E7A06800F0C3FC0B
:1055BC000A4E86F83500E06800F0BDFC86F836002F
:1055CC00206900F0B8FC86F83300606900F0B3FC89
:1055DC0086F83400284670BD0025FBE7F008002053
:1055EC00042870B50C462BD1486800F0A4FC054685
:1055FC0018B1012812D0012520E0A06800F09BFC16
:10560C00104D85F82A00E06800F095FC85F82B0019
:10561C00206900F090FC85F83000ECE7A06800F001
:10562C008AFC084E86F83100E06800F084FC86F8AD
:10563C003200206900F07FFC86F83700284670BDE8
:10564C000025FBE7F0080020022838B50C4618D1DD
:10565C00486800F070FC0C4D38B102280BD0A068E3
:10566C0000F069FCA5F8420003E0A06800F063FCC0
:10567C00A887012038BDA06800F05DFCA5F84800A3
:10568C00F7E70020F6E700BFF0080020022838B545
:10569C000C4617D1486800F04EFC0B4D30B1022877
:1056AC000AD0A06800F047FCE88703E0A06800F08F
:1056BC0042FC2887012038BDA06800F03CFCA5F80E
:1056CC004400F7E70020F6E7F0080020022838B580
:1056DC000C4618D1486800F02EFC0C4D38B102284D
:1056EC000BD0A06800F027FCA5F8400003E0A068F0
:1056FC0000F021FC6887012038BDA06800F01BFC7D
:10570C00A5F84600F7E70020F6E700BFF0080020F8
:10571C0010B5486800F00FFCC0B20428074C02D04A
:10572C00431E012B03D884F82500012010BD04482A
:10573C00FFF7F4FC042384F82530F6E7F00800208A
:10574C00E0750008012810B5044605D149680348E6
:10575C00FFF7E4FC204610BD0024FBE7F3750008BE
:10576C00022838B50C460CD1486800F0E4FB05461D
:10577C00A06800F0E0FBC1B22846FEF7DFF901207B
:10578C0038BD0020FCE7012810B5044608D1486854
:10579C0000F0D1FBC1B20020FEF7D0F9204610BDBD
:1057AC000024FBE7032870B50C4611D1486800F0C3
:1057BC00C2FB0546A06800F0BEFB0646E06800F0A0
:1057CC00BAFBF1B282B2E8B2FFF7D4F9012070BD96
:1057DC000020FCE70E4B82B09A6942F001029A61FC
:1057EC009A6902F001020092009ADA6942F0805242
:1057FC00DA61DB69074A03F080530193019B53681C
:10580C0023F0E06343F00073536002B0704700BFB5
:10581C00001002400000014030B51024054689B04C
:10582C00224600210DEB040000F0CFFB2B681E4A32
:10583C0093421DD11D4B0DEB04019A6942F4007289
:10584C009A619A6902F400720092009A9A6942F085
:10585C0004029A619B69012203F004030193019BEA
:10586C000323CDE904231248FBF75AFC09B030BDE1
:10587C00104A9342FAD10D4B04A99A6942F4806202
:10588C009A619A6902F480620292029A9A6942F0D1
:10589C0004029A619B69049403F004030393039B31
:1058AC0003230593DFE700BF0024014000100240F2
:1058BC000008014000280140102210B5044688B0B1
:1058CC000DEB0200002100F080FB23682A4A934272
:1058DC0025D12A4B40209A6904A942F480429A614E
:1058EC009A6902F480420092009A9A6942F0080286
:1058FC009A619B6903F008030193019B1223CDE984
:10590C00040303231E480793FBF70AFC1D4A536844
:10591C0043F0E06343F00403536008B010BD1A4A2F
:10592C009342FAD1154B04A9DA69154842F4802246
:10593C00DA61DA6902F480220292029A9A6942F0E0
:10594C0008029A619B694FF4806203F00803039389
:10595C00039B0223CDE9042303230793FBF7E0FB0E
:10596C0000234FF400610648CDE9041304A9069303
:10597C00FBF7D6FBD1E700BF003801400010024016
:10598C00000C014000000140004800407047FEE759
:10599C00FEE7FEE7FEE7704770477047FAF792BEE6
:1059AC000148FBF7FBB900BF800A00200148FBF758
:1059BC0017BD00BFA40B002008B50A4B024619689E
:1059CC0009B9094919606946186802448A4206D91E
:1059DC0000F0B6FA0C2303604FF0FF3008BD1A60DC
:1059EC0008BD00BF94050020140E00200F4B1A6850
:1059FC0042F001021A6059680D4A0A405A601A684E
:105A0C0022F0847222F480321A601A6822F4802206
:105A1C001A605A6822F4FE025A604FF41F029A6010
:105A2C004FF00062034B9A60704700BF00100240B9
:105A3C000000FFF800ED00E038B50024054D2B19EF
:105A4C00285D002259780234FFF794F8142CF6D113
:105A5C0038BD00BF790000202DE9F041214A224BCE
:105A6C0011781C881D46164641B11CB9204614708D
:105A7C00BDE8F081013C1C800120F9E7BCB94EF671
:105A8C0060231A4F2B80FFF7D7FF194B387840F261
:105A9C00344203EB4001497813F81000FFF76AF821
:105AAC003B780133DBB20A2B14BF3B703C702B8864
:105ABC00104C013B2B80FEF7A3FB94F800800746AB
:105ACC00B8F1000F0BD1012809D12070FFF7B4FFFA
