:020000040800F2
:1000000000500020E956000895510008975100085B
:10001000995100089B5100089D5100080000000004
:100020000000000000000000000000009F510008D8
:10003000A151000800000000A3510008A5510008CC
:100040003157000831570008315700083157000870
:100050003157000831570008315700083157000860
:100060003157000831570008315700083157000850
:100070003157000831570008315700083157000840
:100080003157000831570008F55200083157000871
:10009000A9510008315700083157000831570008AE
:1000A0003157000831570008315700083157000810
:1000B0003157000831570008315700083157000800
:1000C00031570008315700083157000831570008F0
:1000D000315700088D3400083157000831570008A7
:1000E0003157000831570008315700080000000060
:1000F0000000000000000000000000000000000000
:0C01000000000000000000005FF808F1A3
:10010C0010B5054C237833B9044B13B10448AFF345
:10011C0000800123237010BD680200200000000045
:10012C009862000808B5034B1BB103490348AFF3B1
:10013C00008008BD000000006C02002098620008DE
:10014C00034613F8012B002AFBD1181A013870470B
:10015C00D0400B1CD1409C46203AD340184352420D
:10016C00634693401843704780F0004002E000BFA4
:10017C0081F0004142001FBF5FEA410392EA030F86
:10018C007FEA226C7FEA236C6AD04FEA1262D2EBD0
:10019C001363C1BFD218414048404140B8BF5B42D5
:1001AC00192B88BF704710F0004F40F4000020F06E
:1001BC007F4018BF404211F0004F41F4000121F084
:1001CC007F4118BF494292EA030F3FD0A2F10102CE
:1001DC0041FA03FC10EB0C00C3F1200301FA03F10C
:1001EC0000F0004302D5494260EB4000B0F5000F2F
:1001FC0013D3B0F1807F06D340084FEA310102F1EE
:10020C000102FE2A51D2B1F1004F40EBC25008BF9F
:10021C0020F0010040EA03007047490040EB000069
:10022C0010F4000FA2F10102EDD1B0FA80FCACF198
:10023C00080CB2EB0C0200FA0CF0AABF00EBC25097
:10024C0052421843BCBFD0401843704792F0000F85
:10025C0081F4000106BF80F400000132013BB5E7D8
:10026C004FEA41037FEA226C18BF7FEA236C21D04E
:10027C0092EA030F04D092F0000F08BF08467047B3
:10028C0090EA010F1CBF0020704712F07F4F04D181
:10029C00400028BF40F00040704712F100723CBF94
:1002AC0000F50000704700F0004343F0FE4040F4BE
:1002BC00000070477FEA226216BF08467FEA23637C
:1002CC000146420206BF5FEA412390EA010F40F467
:1002DC00800070474FF0000304E000BF10F00043B3
:1002EC0048BF40425FEA000C08BF704743F096439A
:1002FC0001464FF000001CE050EA010208BF7047B5
:10030C004FF000030AE000BF50EA010208BF70473B
:10031C0011F0004302D5404261EB41015FEA010C50
:10032C0002BF84460146002043F0B64308BFA3F148
:10033C008053A3F50003BCFA8CF2083AA3EBC2532A
:10034C0010DB01FA02FC634400FA02FCC2F1200249
:10035C00BCF1004F20FA02F243EB020008BF20F080
:10036C000100704702F1200201FA02FCC2F12002E6
:10037C0050EA4C0021FA02F243EB020008BF20EADB
:10038C00DC7070474FF0FF0C1CEAD0521EBF1CEA09
:10039C00D15392EA0C0F93EA0C0F6FD01A4480EAF7
:1003AC00010C400218BF5FEA41211ED04FF00063E0
:1003BC0043EA501043EA5111A0FB01310CF000400C
:1003CC00B1F5000F3EBF490041EAD3715B0040EA32
:1003DC00010062F17F02FD2A1DD8B3F1004F40EB02
:1003EC00C25008BF20F00100704790F0000F0CF0D5
:1003FC00004C08BF49024CEA502040EA51207F3A99
:10040C00C2BFD2F1FF0340EAC250704740F4000073
:10041C004FF00003013A5DDC12F1190FDCBF00F064
:10042C0000407047C2F10002410021FA02F1C2F112
:10043C00200200FA02FC5FEA310040F1000053EAAE
:10044C004C0308BF20EADC70704792F0000F00F0FC
:10045C00004C02BF400010F4000F013AF9D040EA02
:10046C000C0093F0000F01F0004C02BF490011F496
:10047C00000F013BF9D041EA0C018FE70CEAD15394
:10048C0092EA0C0F18BF93EA0C0F0AD030F0004C14
:10049C0018BF31F0004CD8D180EA010000F00040C8
:1004AC00704790F0000F17BF90F0004F084691F086
:1004BC00000F91F0004F14D092EA0C0F01D14202C0
:1004CC000FD193EA0C0F03D14B0218BF084608D189
:1004DC0080EA010000F0004040F0FE4040F40000D3
:1004EC00704740F0FE4040F4400070474FF0FF0C66
:1004FC001CEAD0521EBF1CEAD15392EA0C0F93EAAD
:10050C000C0F69D0A2EB030280EA010C49024FEAFE
:10051C00402037D04FF0805343EA111143EA1013B7
:10052C000CF000408B4238BF5B0042F17D024FF46F
:10053C00000C8B4224BF5B1A40EA0C00B3EB510F4A
:10054C0024BFA3EB510340EA5C00B3EB910F24BF33
:10055C00A3EB910340EA9C00B3EBD10F24BFA3EBB8
:10056C00D10340EADC001B0118BF5FEA1C1CE0D180
:10057C00FD2A3FF650AF8B4240EBC25008BF20F033
:10058C00010070470CF0004C4CEA50207F32C2BF87
:10059C00D2F1FF0340EAC250704740F400004FF024
:1005AC000003013A37E792F0000F00F0004C02BF55
:1005BC00400010F4000F013AF9D040EA0C0093F01F
:1005CC00000F01F0004C02BF490011F4000F013B79
:1005DC00F9D041EA0C0195E70CEAD15392EA0C0FE1
:1005EC0008D142027FF47DAF93EA0C0F7FF470AF19
:1005FC00084676E793EA0C0F04D14B023FF44CAF5C
:10060C0008466EE730F0004C18BF31F0004CCAD1F0
:10061C0030F000427FF45CAF31F000437FF43CAF2C
:10062C005FE700BF4FEA4002B2F1FE4F0FD34FF02D
:10063C009E03B3EB12620DD94FEA002343F0004343
:10064C0010F0004F23FA02F018BF404270474FF0F1
:10065C000000704712F1610F01D1420205D110F078
:10066C00004008BF6FF0004070474FF0000070472B
:10067C0038B50E4B054618784FF47A73B3FBF0F38C
:10068C000B4A1068B0FBF3F000F0CEFA044658B9F0
:10069C000F2D09D8024629464FF0FF3000F082FAA0
:1006AC00044B20461D6038BD012038BD00000020E1
:1006BC007400002004000020074A08B513680320CA
:1006CC0043F01003136000F05BFA0020FFF7D0FF3B
:1006DC0004F07EFC002008BD00200240034A044BBD
:1006EC0011681B780B441360704700BFA4050020F1
:1006FC0000000020014B1868704700BFA4050020C3
:10070C000368D86C70477047036810B55A68044684
:10071C00900627D51A68910724D5A26AD2065EBF27
:10072C00A26A42F40072A2629A6802F46022B2F5E4
:10073C00602F10D1227B72B95A6822F020025A60C5
:10074C00A36A23F48073A362A36ADB045EBFA36A6B
:10075C0043F00103A362204604F0CCFD6FF01202BB
:10076C0023681A6023685A68100630D51A68510736
:10077C002DD5A26AD2065EBFA26A42F40052A262D2
:10078C009A6802F4E042B2F5E04F0AD05A6850057C
:10079C0016D49A6802F46022B2F5602F10D1227B35
:1007AC0072B95A6822F080025A60A36A23F480530B
:1007BC00A362A36AD9055EBFA36A43F00103A362D7
:1007CC00204600F0DBF96FF00C0223681A602368F6
:1007DC005A6852060DD51B68DB070AD5A36A20465A
:1007EC0043F48033A362FFF78EFF6FF0010223689E
:1007FC001A6010BD002373B5019390F82430012BBF
:10080C0074D001234D6880F82430062D02684FEA1D
:10081C0085030C6825D82B441F25566B053B9D4042
:10082C0026EA050504FA03F32B435363092C4FEA1C
:10083C0044038D682FD907262344D1681E3B9E4064
:10084C0021EA060105FA03F30B43D360A4F110036C
:10085C00012B2BD90023002280F82420184602B04B
:10086C0070BD0C2D0BD82B441F25166B233B9D40C4
:10087C0026EA050504FA03F32B431363D6E72B444E
:10088C001F25D66A413B9D4026EA050504FA03F371
:10089C002B43D362CAE70726116923449E4021EA01
:1008AC00060105FA03F30B431361CFE7104B9A4291
:1008BC0016D193681B02CDD49368102C43F400031B
:1008CC009360C7D10B4B0C4A1B68B3FBF2F20A23A3
:1008DC0053430193019B002BBCD0019B013BF8E7D8
:1008EC00836A43F0200383620123B4E70223B5E754
:1008FC00002401407400002040420F00002373B517
:10090C000193036804469A68D20702D5002002B00E
:10091C0070BD9A6842F001029A60124B124A1B6831
:10092C00B3FBF2F30193019BC3B9FFF7E3FE064659
:10093C0023689D6815F00105E8D1FFF7DBFE801BED
:10094C000228F5D9A36A84F8245043F01003A3625B
:10095C00E36A012043F00103E362D8E7019B013B0A
:10096C00E0E700BF7400002040420F0090F82430F4
:10097C0010B5012B044658D0012380F82430FFF722
:10098C00BDFF00284DD1A36A294A23F4706323F0DC
:10099C00010343F48073A3622368934204D1254975
:1009AC004A6812F4702F32D1A26A22F48012A26229
:1009BC005A68520541BFA26A22F4405242F4805256
:1009CC00A262A26A12F480521CBFE26A22F00602F2
:1009DC00E262002284F824206FF002021A605A6846
:1009EC0042F020025A609A6802F46022B2F5602F3D
:1009FC0013D10F4A934205D1A2F58062526812F4CA
:100A0C00702F0AD19A6842F4A0029A6010BDA26AB3
:100A1C0042F48012A2624A68CBE79A6842F48012D0
:100A2C00F3E7002384F8243010BD022010BD00BF72
:100A3C00002801400024014038B5036804469A6838
:100A4C00D20701D4002038BD9A6822F001029A60C6
:100A5C00FFF750FE054623689B68DB07F2D5FFF7CE
:100A6C0049FE401B0228F6D9A36A012043F010036B
:100A7C00A362E36A43F00103E36238BD70B5044638
:100A8C00002871D0836A23B9C36280F8243004F043
:100A9C00C1FA2046FFF7D0FFA36A13F0100FA36A28
:100AAC0064D1002862D1E16923F48853626823F091
:100ABC00020343F002030A43A168A362237BB1F54E
:100ACC00807F42EA430238D0012914BF06464FF416
:100ADC008076257D012D07D1002B30D1A369013BF8
:100AEC0046EA433545F400662368B1F5807F5D68BE
:100AFC0025F4694545EA06055D609E681D4D05EACD
:100B0C00060545EA02059D6001D0012920D1216925
:100B1C0001390905DD6A25F470052943D962996804
:100B2C00154B0B409A4215D10023E362A36A23F0C4
:100B3C00030343F00103A36270BD0E46C9E7A36A29
:100B4C0043F02003A362E36A43F00103E362CBE7C3
:100B5C000021DFE7A36A23F0120343F01003A36222
:100B6C00E36A43F00103E362012070BD43F010031C
:100B7C00A362F9E7FDF7E1FFFE0E1FFF70470000CF
:100B8C00074A0002D36800F4E06023F4E0631B041E
:100B9C001B0C43F0BF6343F400330343D360704733
:100BAC0000ED00E0174B30B5DC68C4F30224C4F14F
:100BBC000703251D042B28BF0423062D4FF0010528
:100BCC0098BF002405FA03F303F1FF3388BF033CFD
:100BDC001940A14005FA04F4013C2240002842EAE5
:100BEC0001024FEA0212A9BF00F16040064BD2B2DB
:100BFC0000F56140BBBF00F00F00D2B280F80023BB
:100C0C001A5430BD00ED00E014ED00E0002808DBC4
:100C1C000123420900F01F0003FA00F0014B43F8D6
:100C2C002200704700E100E00138B0F1807F0AD269
:100C3C00F021064B064A586082F823100020072248
:100C4C0098601A6070470120704700BF10E000E008
:100C5C0000ED00E090F8213010B5022B03D00423F6
:100C6C008363012010BD03681A6822F00E021A601B
:100C7C001A6822F001021A60184A93421FD01432EB
:100C8C0093421ED0143293421DD0143293421DD085
:100C9C00143293421DD0143293420CBF4FF4801384
:100CAC004FF080730E4A00245360012380F82130EA
:100CBC00436B80F820407BB19847204610BD012340
:100CCC00F0E71023EEE74FF48073EBE74FF480531B
:100CDC00E8E74FF48033E5E7184610BD0800024002
:100CEC0000000240114AD36813F0100305D01049DC
:100CFC00CB6943F00203CB611023D268500706D5B1
:100D0C000B4943F00403CA6942F00102CA61074A65
:100D1C00D169C90708D50648C16941F00401C16110
:100D2C00D16921F00101D161D360704700200240EC
:100D3C00A8050020064B186910F0800007D0054A62
:100D4C005A6002F188325A601869C0F3C0107047BB
:100D5C000020024023016745034A0020136943F039
:100D6C0080031361704700BF00200240F8B50646AF
:100D7C00FFF7C0FC114C07462546E368D80712D490
:100D8C00E368990644BF2023E360EB68DA0606D4D7
:100D9C00EB69DB0703D4E86810F0040002D0FFF71E
:100DAC00A1FF0120F8BD731CE7D00EB90320F8BDDC
:100DBC00FFF7A0FCC01B8642DFD2F7E70020024001
:100DCC002DE9F84F1F4C9946237E0546012B0F4603
:100DDC00904633D001234CF250302376FFF7C6FFF8
:100DEC0040BB012D03D0022D0CBF0225042500268B
:100DFC00B246DFF854B0320140464946FFF7A8F935
:100E0C00C4F81CA0DBF8103080B243F00103CBF81F
:100E1C00103027F816004CF25030FFF7A7FFDBF824
:100E2C00103023F00103CBF8103018B90136F3B2AF
:100E3C009D42E0D800232376BDE8F88F0220BDE860
:100E4C00F88F00BFA8050020002002400022064BAE
:100E5C00DA61064B1A6942F004021A611A6942F00F
:100E6C0040021A61704700BFA80500200020024014
:100E7C000022064BDA61064B1A6942F002021A6133
:100E8C0058611A6942F040021A617047A8050020A7
:100E9C00002002402DE9F041234D07462B7E884669
:100EAC00012B3DD0012403682C76022B4CF25030E0
:100EBC0013D1FFF75BFF20B1012000232B76BDE897
:100ECC00F081FFF7C3FF4CF25030FFF74FFF174A8A
:100EDC00136923F004031361EFE7FFF747FF0028C2
:100EEC00EAD14FF0FF33C8F800302046BE680F4CF3
:100EFC00FA68BB6803EB82239E42DED23046FFF7D2
:100F0C00B7FF4CF25030FFF731FF236923F0020397
:100F1C00236110B1C8F80060CFE706F58066E7E7FB
:100F2C000220BDE8F08100BFA8050020002002408F
:100F3C002DE9F74F00242646664BDFF8A8E1DFF8D1
:100F4C00A8C10A6832FA06F502D103B0BDE8F08FE9
:100F5C004FF0010808FA06F802EA080290457FD122
:100F6C004D68122D00F0AA8000F28380022D00F053
:100F7C00A28077D8002D00F08980012D00F0998097
:100F8C004FF00F09FF2A93BF824606F18045083DBA
:100F9C00D0F800B092BFB500D0F804B0AD0009FA9B
:100FAC0005F82BEA080804FA05F588BF00F1040AD5
:100FBC0048EA0505CAF80050D1F804A01AF0805F81
:100FCC004ED0454D444FAD6926F0030845F0010560
:100FDC00BD61BD6908F1804805F00105019508F572
:100FEC00803806F0030B019D4FEA8B0BD8F80850A4
:100FFC0009FA0BF925EA0909384DA84263D005F521
:10100C008065A84261D005F58065A8425FD005F5E2
:10101C008065A8420CBF0325042505FA0BF545EAAB
:10102C000905C8F808501D681AF4803F14BF154311
:10103C0095431D605D681AF4003F14BF154395433A
:10104C005D609D681AF4801F14BF154395439D6025
:10105C00DD681AF4001F14BF2A4325EA0202DA6085
:10106C0001366EE7032D22D0112D89D1CC680434C2
:10107C0086E71B4FBD4209D012D8DFF870904D4562
:10108C0004D009F580394D457FF47AAF8C68C4B132
:10109C00012C0CBFC0F81080C0F8148008246FE736
:1010AC007545F3D06545F1D0DFF84490EBE70024AB
:1010BC0066E7CC6864E7CC68083461E7CC680C342C
:1010CC005EE704245CE70025A7E70125A5E70225D8
:1010DC00A3E700BF000401400010024000080140DB
:1010EC00000021100000311000003210000011101F
:1010FC00000022108368194214BF012000207047A1
:10110C000AB1016170470904FBE790F8282210B579
:10111C00012A04460BD0012280F8282284F82410DE
:10112C00006801F0E2FC002084F8280210BD0220C7
:10113C0010BD70B511F0800F044601F007004FEAA6
:10114C0040151FD0012605F128012544214485F8BE
:10115C0029600A614A78C0B20870CB7002B1C881AC
:10116C00022B04BF00230B7194F82832012B11D0F1
:10117C000123206884F8283201F0D4FA002084F886
:10118C00280270BD002605F594712544214485F88C
:10119C002961DEE7022070BD70B5002601F0070161
:1011AC004D01441984F8281105F594710144C4F8D3
:1011BC003C21C4F84031C4F8446184F829610068CA
:1011CC0001F0B0FC304670BD01F0070170B54D0167
:1011DC00441923640026012384F8281005F1280102
:1011EC000144E263666484F82930006801F09AFCDB
:1011FC00304670BD2DE9F84F0446006801F07BFCC9
:10120C00020400F11082206801F075FC43050FD533
:10121C0022682046B2F8443023F480631B041B0C74
:10122C00A2F8443004F071F900212046FFF76DFF5D
:10123C00206801F060FC470408D52268B2F84430FD
:10124C0023F480431B041B0CA2F84430206801F0EB
:10125C0052FC860408D52268B2F8443023F40053BB
:10126C001B041B0CA2F84430206801F044FCC5049C
:10127C001CD522682046B2F8403023F004031B042E
:10128C001B0CA2F84030B2F8403023F008031B04CA
:10129C001B0CA2F8403004F05BF92268B2F8443021
:1012AC0023F480531B041B0CA2F84430206801F07B
:1012BC0022FC000526D52068B0F840309BB243F0E4
:1012CC000803A0F84030B0F8443023F400631B044A
:1012DC001B0CA0F84430B0F840309BB243F0040330
:1012EC00A0F8403001F007FCC10408D52268B2F820
:1012FC00443023F480531B041B0CA2F844302046CA
:10130C0004F016F9206801F0F6FB82050BD5226873
:10131C002046B2F8443023F400731B041B0CA2F8D3
:10132C00443004F0EEF8206801F0E5FBC30508D565
:10133C002268B2F8443023F480731B041B0CA2F80F
:10134C004430BDE8F88FB0F8441089B211F00F06A4
:10135C0040F0B780038811F010019BB22CD103EA46
:10136C00090343F400430380B0F8503094F828206C
:10137C009BB203EBC20300EB4300B0F80434E26B06
:10138C00C3F3090363641344E363204604F0B2F827
:10139C0094F8243053B1226C42B994F8243021686B
:1013AC0043F08003A1F84C3084F824202068B0F876
:1013BC0044301B04C7D426E713F4006521D0B0F8E1
:1013CC00503094F828219BB203EBC20300EB43038B
:1013DC00B3F80C34B4F82E21C3F30903C4F8443128
:1013EC0004F50C7101F086FC22682046138823F06A
:1013FC0070031B051B0D43F08003138004F06CF885
:10140C00D4E71F04D2D5038823F070031B051B0DF2
:10141C0043F080030380B0F8503094F828219BB23D
:10142C0003EBC20300EB4303B3F80C34C3F309031F
:10143C00C4F844318BB1D4F83C1171B1B4F82E21FD
:10144C0001F058FCD4F83C31D4F84421294613441B
:10145C00C4F83C31204604F045F82168D4F83851E2
:10146C00B1F8503001F20C409BB2CDB9C25A22F403
:10147C00F8421204120CC252C25A92B242F4004206
:10148C00C2520B8823F4804323F070031B041B0C03
:10149C0083F4405343F4004343F080030B8085E70F
:1014AC003E2D06D86A08EE0748BF0132920292B26E
:1014BC00E6E76A09ED0608BF02F1FF324AEA82222A
:1014CC00F5E730F826801FFA88F818F4004F3DD065
:1014DC0030F82630770123F070031B051B0D43F009
:1014EC00800320F82630E11991F83431002B58D1C3
:1014FC00B0F8503091F828219BB2063303EBC203AD
:10150C0000EB4303B3F80054C5F3090535B1B1F84A
:10151C002E212B46D1F83C1101F0ECFBE119D1F84E
:10152C004431D1F83C212B44C1F84431D1F840313D
:10153C002A44C1F83C211BB1D1F83801854269D24B
:10154C00274497F82811204603F0CCFF18F0800FA1
:10155C003FF42CAF2168204631F8262092B202EAE3
:10156C00090242F4004221F82620B1F8503004EB75
:10157C00461696F828209BB2023303EBC20301EB0C
:10158C004303B3F80024F36BC2F3090272641A44E8
:10159C00336CF26396F82810002B41D103F0AAFFAC
:1015AC0004E791F8283130F82320DB0012F4804F47
:1015BC00B0F8502092B21FD00232134400EB430318
:1015CC00B3F80054C5F3090535B12B46B1F83021F9
:1015DC00D1F83C1101F08EFBE31993F82811226825
:1015EC0032F821309BB203EA0B0343F4004343F07F
:1015FC00C00322F8213091E70632134400EB430379
:10160C00B3F80054C5F30905002DE5D02B46B1F80D
:10161C003221DDE791F828112046FFF7BDFD95E753
:10162C00FFF7D2FDC2E6DFF80C90DFF80CA0DFF874
:10163C000CB0BBE60F8FFFFF0080FFFF8F8FFFFF0B
:10164C0038B5436801F007059D42044628D80B06BF
:10165C001DD501226B0103F128010344014483F8D9
:10166C00292001230D708B7094F828229A4219D0EE
:10167C0084F82832206801F0CDF925B904F50C71F5
:10168C00206801F03CFA002084F8280238BD0022C2
:10169C004B0103F594710344014483F82921E0E7DD
:1016AC00012038BD022038BD38B5436801F00F0267
:1016BC009A42044626D801F0070311F0800F4FEA36
:1016CC00431217D002F1280101440244012082F890
:1016DC00290000250B708D7094F82832012B13D043
:1016EC000123206884F8283201F0B4F984F82852D8
:1016FC00284638BD02F5947101440244002082F85A
:10170C002901E6E7012038BD022038BD2DE9F3415F
:10171C00054608B901203CE00368DB0710D42B68B0
:10172C009F075DD42B68190700F194802B685A072A
:10173C0000F1BE80E869002840F02C81002028E0F0
:10174C008F4C636803F00C03042B07D0636803F021
:10175C000C03082B09D16368DE0306D523689C03B0
:10176C00DDD56B68002BDAD1D4E76B68B3F5803F1D
:10177C0012D1236843F480332360FEF7BBFF064687
:10178C0023689803CBD4FEF7B5FF801B6428F7D9E8
:10179C00032002B0BDE8F0819BB9236823F48033A9
:1017AC002360236823F480232360FEF7A3FF0646FF
:1017BC0023689903B3D5FEF79DFF801B6428F7D9E6
:1017CC00E6E7B3F5A02F236803D143F4802323600D
:1017DC00CFE723F480332360236823F48023CBE703
:1017EC00674C636813F00C0F07D0636803F00C03AD
:1017FC00082B10D16368DA030DD423689B0702D53C
:10180C002B69012B86D123686A6923F0F80343EA1C
:10181C00C203236086E72A695A4B6AB101221A6017
:10182C00FEF768FF064623689F07ECD4FEF762FFBD
:10183C00801B0228F7D9ABE71A60FEF75BFF064660
:10184C00236898077FF56EAFFEF754FF801B0228C4
:10185C00F6D99DE7AA694A4C4B4BDAB101221A60C2
:10186C00FEF748FF0646636A9B070DD54FF4FA5204
:10187C00464B1B68B3FBF2F3019300BF019B5A1E4E
:10188C000192002BF9D151E7FEF734FF801B02289F
:10189C00E9D97DE71A60FEF72DFF0646636A9F07BC
:1018AC007FF544AFFEF726FF801B0228F6D96FE7C1
:1018BC00334CE369D80024D40127E36943F0805307
:1018CC00E361E36903F080530093009B304E33686F
:1018DC00D90518D5EB68012B26D1236A43F00103F7
:1018EC002362FEF707FF41F288368046236A9B0786
:1018FC003FD5002F3FF41EAFE36923F08053E36123
:10190C0018E70027E2E7336843F480733360FEF78F
:10191C00F1FE80463368DA05DCD4FEF7EBFEA0EB73
:10192C0008006428F6D933E7ABB9236A41F288384A
:10193C0023F001032362236A23F004032362FEF7DE
:10194C00D9FE0646236A9807D3D5FEF7D3FE801B33
:10195C004045F7D91CE7052B236A03D143F0040358
:10196C002362BAE723F001032362236A23F0040302
:10197C00B6E7FEF7BFFEA0EB0800B042B6D907E70A
:10198C0000100240000042428004424274000020D9
:10199C00007000402A4B5A681C4602F00C02082AC0
:1019AC003DD00023274E022833602BD1FEF7A2FE38
:1019BC000746236899011FD42B6AB3F5803F05D1E4
:1019CC006268A96822F400320A436260696A62683C
:1019DC000B4322F474121343636001233360FEF74C
:1019EC0089FE054623689A013FF5A8AEFEF782FEF4
:1019FC00401B0228F6D9CBE6FEF77CFEC01B022862
:101A0C00D7D9C5E6FEF776FE054623689B017FF520
:101A1C0095AEFEF76FFE401B0228F6D9B8E60128FA
:101A2C003FF4B7AE58682B6A00F480329A427FF4C8
:101A3C0071AE6B6A00F47010C01A18BF0120A8E6D2
:101A4C00001002406000424230B5194B87B002AC26
:101A5C0003F11005224618685968083303C2AB42DB
:101A6C001446F7D101238DF80430022311498DF867
:101A7C0005304B6803F00C02082A17D1C3F38342DC
:101A8C0006A80244DB0312F8102C0CD54B680A484C
:101A9C00C3F34043504306AA134413F8143CB0FB61
:101AAC00F3F007B030BD05485043FAE70248F8E7B9
:101ABC00B06200080010024000127A0000093D00DC
:101ACC002DE9F0410D46044610B90120BDE8F08126
:101ADC00454A136803F007038B4229D321688E070C
:101AEC0031D4CA0744D4404A136803F007039D421B
:101AFC0067D322683D4D12F0040F6ED1130706D543
:101B0C006B68226923F4605343EAC2036B60FFF7EE
:101B1C009BFF6B68364AC3F30313D35CD840354B39
:101B2C001860354B1868FEF7A3FD0020BDE8F08166
:101B3C00136823F007030B431360136803F00703C8
:101B4C009942C2D1CAE7294B11F0040F1EBF5A6843
:101B5C0042F4E0625A60080742BF5A6842F460528D
:101B6C005A605A68A06822F0F00202435A60B8E743
:101B7C0062681E4E012A33681BD113F4003FA4D0B7
:101B8C00736841F2883823F0030313437360FEF744
:101B9C00B1FD07467368626803F00C03B3EB820F68
:101BAC00A1D0FEF7A7FDC01B4045F3D90320BDE82B
:101BBC00F081022A02D113F0007FE0E713F0020F4C
:101BCC00DDE7136823F007032B431360136803F05E
:101BDC0007039D427FF479AF8BE76B68E16823F4D0
:101BEC00E0630B436B6089E7002002400010024069
:101BFC00726D00087400002004000020044B054A9C
:101C0C005B68C3F30223D35C034A1068D840704767
:101C1C0000100240826D000874000020044B054A3D
:101C2C005B68C3F3C223D35C034A1068D840704787
:101C3C0000100240826D00087400002003682DE93A
:101C4C00F341D907054620D5354CE369DA0032D487
:101C5C000127E36943F08053E361E36903F08053A8
:101C6C000193019B2F4E3368DB0526D5236A13F4B1
:101C7C00407336D1236A6A6823F44073134323629A
:101C8C001FB1E36923F08053E3612868830706D50D
:101C9C00234AA968536823F440430B43536010F064
:101CAC0010001BD01E4AE9685368002023F48003FF
:101CBC000B43536012E00027D4E7336843F480737E
:101CCC003360FEF717FD80463368D805CED4FEF797
:101CDC0011FDA0EB08006428F6D9032002B0BDE882
:101CEC00F0816A6802F440729342C3D001200E4A1C
:101CFC00236A1060002023F4407110602162D90720
:101D0C00B8D5FEF7F7FC41F288380646236A9A07E5
:101D1C00B0D4FEF7EFFC801B4045F7D9DDE700BFE0
:101D2C00001002400070004040044242036A70B54B
:101D3C0023F001030362036A446882690D6822F090
:101D4C0073022A438D6823F002032B430A4DA842E9
:101D5C000BD1CD6823F008032B438E694D6924F415
:101D6C004074354323F004032C43446082614A6879
:101D7C004263036270BD00BF002C0140036A70B562
:101D8C0023F480730362036A4468C2690D6822F00D
:101D9C0073022A438D6823F4007343EA05230B4D29
:101DAC00A8420DD1CD6823F4006343EA05238E6964
:101DBC004D6924F44054354323F4806344EA0514FC
:101DCC004460C2614A68C263036270BD002C01406A
:101DDC00036A30B523F480530362036A4468C26912
:101DEC000D6822F4E64242EA05228D6823F4005382
:101DFC0043EA0533064DA84202BF4D6924F48044E2
:101E0C0044EA85144460C2614A680264036230BDCE
:101E1C00002C01407047022380F83D3003689A681B
:101E2C0002F00702062A1EBF1A6842F001021A606D
:101E3C00012380F83D300020704770471A4A036830
:101E4C0090420AD0B0F1804F07D0A2F59432904264
:101E5C0003D002F58062904215D14A6823F07003DA
:101E6C001343114A90420AD0B0F1804F07D0A2F52B
:101E7C009432904203D002F58062904203D1CA683A
:101E8C0023F4407313434A6923F080031343036024
:101E9C008B68C3620B688362034B984204BF0B6967
:101EAC000363012343617047002C014010B50446C5
:101EBC00A0B190F83D3003F0FF021BB980F83C2034
:101ECC00FFF7A8FF0223206884F83D30211DFFF79F
:101EDC00B5FF0123002084F83D3010BD012010BD5A
:101EEC0010B50446A0B190F83D3003F0FF021BB9C9
:101EFC0080F83C20FFF7A1FF0223206884F83D30D6
:101F0C00211DFFF79BFF0123002084F83D3010BDFD
:101F1C00012010BD036A70B523F010030362036A3D
:101F2C00446882690D6822F4E64242EA05228D6813
:101F3C0023F0200343EA05130B4DA8420DD1CD68C5
:101F4C0023F0800343EA05138E694D6924F4406441
:101F5C00354323F0400344EA8504446082614A68B7
:101F6C008263036270BD00BF002C014038B590F84D
:101F7C003C300446012B4FF0020025D0012384F89D
:101F8C003D0084F83C300C2A18D8DFE802F0071723
:101F9C0017171E1717172F17171740002068FFF772
:101FAC00C5FE236809699A6942F008029A619A6928
:101FBC0022F004029A619A690A439A610123002073
:101FCC0084F83D3084F83C0038BD2068FFF7A2FF50
:101FDC00236809699A6942F400629A619A6922F449
:101FEC0080629A619A6942EA0122E6E72068FFF76B
:101FFC00C5FE23680969DA6942F00802DA61DA6918
:10200C0022F00402DA61DA690A43DA61D6E7206861
:10201C00FFF7DEFE23680969DA6942F40062DA61CF
:10202C00DA6922F48062DA61DA6942EA0122ECE7C9
:10203C0010B584680A4324F47F4442EA0323234303
:10204C00836010BD90F83C3070B5012B04464FF006
:10205C00020019D0012384F83D00206884F83C303C
:10206C00836823F47F4323F0770383600B68402B52
:10207C0065D015D8102B0CD007D853B101230020F4
:10208C0084F83D3084F83C0070BD202B01D0302BFF
:10209C00F4D1826843F0070322F0700213431AE074
:1020AC00602B34D019D8502BE8D14A68CE68016A1D
:1020BC00056A21F00A0125F00105056283690A43CE
:1020CC0023F0F00343EA061383610262836823F072
:1020DC00700343F057038360D0E7702B0CD0B3F53B
:1020EC00005FCBD1CB684A688968FFF7A1FF2268F3
:1020FC00936843F4804308E0CB684A688968FFF72B
:10210C0097FF2268936843F077039360B6E74D68B6
:10211C00CE68016A21F0100101628269036A22F41F
:10212C00704223F0A00343EA051342EA06328261AF
:10213C000362836823F0700343F06703CBE74A68BC
:10214C00CE68016A056A21F00A0125F001050562D5
:10215C0083690A4323F0F00343EA061383610262A6
:10216C00836823F0700343F04703B4E710B50124F0
:10217C00036A01F01F018C4023EA04030362036A23
:10218C008A401A43026210BD10B504460122006851
:10219C00FFF7ECFF2368094A0020934202BF5A6CF8
:1021AC0042F400425A649A6802F00702062A1EBFE3
:1021BC001A6842F001021A6010BD00BF002C0140E9
:1021CC000368DA6822F49072DA605A6922F001022C
:1021DC005A61202380F83A307047000038B5054624
:1021EC000368C1681A69192422F440520A431A611F
:1021FC0082680069D9680243686921F4B05121F002
:10220C000C0102430A43DA605A69A96922F440724C
:10221C000A435A610D4A934214D1FFF7FFFC604305
:10222C006C686422A400B0FBF4F0B0FBF2F402FB87
:10223C0014031B013233B3FBF2F3296803EB0413D1
:10224C008B6038BDFFF7DAFCE9E700BF00380140CE
:10225C00F8B504460E4617461D4621680B6836EA4B
:10226C00030301D10020F8BD6B1CF7D095B923688E
:10227C000320DA6822F4D072DA605A6922F0010283
:10228C005A61202384F8393084F83A30002384F8DA
:10229C003830F8BDFEF72EFAC01B8542DDD2E6E7DA
:1022AC0010B5044640B390F8393003F0FF021BB967
:1022BC0080F8382002F0FEFE2423226884F839309E
:1022CC00D368204623F40053D360FFF787FF2368BD
:1022DC0000201A6922F490421A615A6922F02A02EB
:1022EC005A61DA6842F40052DA602023E06384F821
:1022FC00393084F83A3010BD012010BD10B50446B9
:10230C0060B390F8393003F0FF021BB980F8382025
:10231C0002F0D0FE2423226884F83930D36820469A
:10232C0023F40053D360FFF759FF236800201A6988
:10233C0022F490421A615A6922F022025A615A69B7
:10234C0042F008025A61DA6842F40052DA60202343
:10235C00E06384F8393084F83A3010BD012010BDA8
:10236C002DE9F0411F4690F839300446202B0D46DC
:10237C0090464ED1002949D0002A47D090F83830E9
:10238C00012B46D0012380F838300023C36321236E
:10239C0080F83930FEF7AEF90646A4F82480A4F88C
:1023AC002680E38C9BB26BB93B46324640212046DB
:1023BC00FFF74EFFA8B9202384F8380084F8393091
:1023CC00BDE8F081E38C3246013B9BB2E384A36809
:1023DC008021B3F5805F20463B460ED1FFF738FFD6
:1023EC0010B10320BDE8F0812B882268C3F30803E9
:1023FC005360236943B90235D3E7FFF729FF00285F
:10240C00EFD123682A785A600135CAE70120BDE86C
:10241C00F0810220BDE8F0812DE9F0411F4690F8D3
:10242C003A300446202B0D46904651D100294CD011
:10243C00002A4AD090F83830012B49D0012380F87B
:10244C0038300023C363222380F83A30FEF752F968
:10245C000646A4F82C80A4F82E80E08D80B230B90A
:10246C00202384F8380084F83A30BDE8F081E38DFD
:10247C003246013B9BB2E385A3682021B3F5805F14
:10248C0020463B4612D1FFF7E3FE10B10320BDE816
:10249C00F081236822695B6822B9C3F3080325F82D
:1024AC00023BDAE7DBB225F8013BD6E7FFF7D0FEBB
:1024BC000028EBD1236821696A1C5B6811B92B7069
:1024CC001546CAE703F07F03F9E70120BDE8F08168
:1024DC000220BDE8F08190F83A30202B20D1E9B1F0
:1024EC00E2B190F83830012B1AD0C28582850023D6
:1024FC002222C36380F83A2002688162D16880F896
:10250C00383041F48071D1605169184641F00101B5
:10251C005161D16841F02001D160704701207047B2
:10252C0002207047704790F83A3010B5222B36D104
:10253C0083680169B3F5805F0268836A23D15268AE
:10254C00E9B9C2F3080223F8022B8362C48D013C63
:10255C00A4B2C4858CB90368DA6822F02002DA6070
:10256C00DA6822F48072DA605A6922F001025A6148
:10257C00202380F83A3000F09DFF002010BDD2B22D
:10258C0023F8012BE1E721B9591C526881621A70BA
:10259C00DCE75268591C816202F07F02F7E70220E7
:1025AC0010BD7047036870B51A6804461607D968E1
:1025BC005D6907D196065AD58D0658D5BDE8704091
:1025CC00FFF7B1BF15F0010502D111F4907F4ED089
:1025DC00D30705D5CE0542BFE36B43F00103E3639C
:1025EC00500704D51DB1E36B43F00203E36393077B
:1025FC0004D51DB1E36B43F00403E363160704D564
:10260C001DB1E36B43F00803E363E36B002B66D06F
:10261C00950604D5880602D52046FFF784FF23686B
:10262C0020465D69E26B110702D415F040051AD003
:10263C00FFF7C6FD23685A69520610D55A69606BBC
:10264C0022F040025A6150B1254B4363FEF702FB66
:10265C00002844D0606BBDE87040436B184720469F
:10266C00FFF79FFF70BDFFF79CFFE56370BD16067B
:10267C0027D50D0625D594F83920212A2FD1A2680B
:10268C00B2F5805F226A17D11188C1F30801596035
:10269C00216979B902322262E28C013A92B2E28467
:1026AC00EAB9DA6822F08002DA60DA6842F04002B5
:1026BC00DA6070BD0132EEE7511C216212785A606B
:1026CC00EAE750060BD54A0609D5DA68204622F00F
:1026DC004002DA60202384F83930FFF723FF70BD05
:1026EC00F126000808B50023406AC385C384FFF7B0
:1026FC0058FF08BD90F83830012B11D02423026804
:10270C0080F83930D36823F00C0343F00403D36012
:10271C00202380F83930002380F838301846704771
:10272C0002207047F0B50D78034630F82520C878A4
:10273C0022F4EC4222F070021204120C03284ED840
:10274C00DFE800F0024A044742F40072002048F22D
:10275C008004224323F825200E78AB4D33F8262035
:10276C00344392B22A40224323F826200C7B0A7869
:10277C00002C40F088804E78CC8896B3B3F850602B
:10278C0003EB021224F00104B6B202F58062A4B28B
:10279C0094530C7833F82420560609D533F82420AA
:1027AC0092B22A4042F4004242F0C00223F82420A4
:1027BC00CA780978012A33F82120944C92B202EAA3
:1027CC00040201D082F0200242F4004242F0800266
:1027DC00CBE042F4C062B9E742F48062B6E7012074
:1027EC00B5E7B3F8505003EB021224F00104ADB27C
:1027FC0002F58162A4B254530A78B3F850600D69A3
:10280C0003EB0212B6B202F20C425DBB945B24F4F1
:10281C00F8442404240C9453945B6FEA44446FEA08
:10282C005444A4B294530C7833F8242055040DD599
:10283C0033F8242022F4E04222F070021204120C2D
:10284C0042F4404242F0800223F82420097833F805
:10285C00212022F4804222F070021204120C82F425
:10286C004052B1E73E2D05D86C08ED0748BF013446
:10287C00A402D6E76F09EC06654C08BF07F1FF37D9
:10288C0044EA8724CDE733F82240A4B22C4044F428
:10289C00014444F0800423F822400A780C89B3F8F0
:1028AC00506003EB021224F00104B6B202F5806210
:1028BC00A4B294530A784C89B3F8506003EB02121B
:1028CC0024F0010402F58162A4B2B6B294534A78A2
:1028DC000C78002A4CD133F82420520409D533F853
:1028EC00242092B22A4042F4404242F0800223F863
:1028FC0024200C7833F8242057060DD533F82420E7
:10290C0022F4E04222F070021204120C42F4004253
:10291C0042F0C00223F824200C7833F8242022F44F
:10292C00E04222F070021204120C42F4004242F017
:10293C00C00223F8242048F280040D7833F82520B7
:10294C0022F4804222F070021204120C82F44052E3
:10295C00224323F82520097833F8212022F4E04281
:10296C0022F040021204120C224323F82120F0BD65
:10297C0033F82420560409D533F8242092B22A4087
:10298C0042F4404242F0800223F824200C7833F8C1
:10299C00242052060DD533F8242022F4E04222F0F4
:1029AC0070021204120C42F4004242F0C00223F8EE
:1029BC0024200C78154D33F8242022F4E04222F028
:1029CC0070021204120C42F4404242F0800223F8CE
:1029DC002420CA780C78012A33F8242092B202EA17
:1029EC00050218BF82F0200242F4004242F080023D
:1029FC0023F82420097833F8212022F4804222F095
:102A0C0070021204120CDFE68F8FFFFFBF8FFFFFE7
:102A1C000080FFFF4B780A788BB130F8223023F41A
:102A2C00E04323F040031B041B0C83F0100343F41E
:102A3C00004343F0800320F822300020704730F828
:102A4C00223023F4804323F070031B041B0C83F40B
:102A5C008053ECE70B7B43BB4B780A783BB330F8E5
:102A6C0022305B060DD530F8223023F4E04323F0FE
:102A7C0070031B041B0C43F4004343F0C00320F809
:102A8C002230CB78012B10D00A7830F8223023F486
:102A9C00E04323F040031B041B0C83F0200343F49E
:102AAC00004343F0800320F822300020704730F8B8
:102ABC0022305B040DD530F8223023F4E04323F0B0
:102ACC0070031B041B0C43F4404343F0800320F8B9
:102ADC0022300A7830F8223023F4804323F070033C
:102AEC001B041B0C83F44053D9E711B98023A0F8C5
:102AFC004C3000207047B0F8440080B27047002082
:102B0C00704700EB4202013302F580625B0802EB76
:102B1C0083039A4200D1704731F8020B22F8040B60
:102B2C00F7E7000070B50D46497804460129AA69FB
:102B3C002B69287B66D19A429DBF0023AB6113465B
:102B4C00D21A88BFAA619EB208BB3346EA8869696B
:102B5C002046FFF7D6FFB4F850302A7899B204F229
:102B6C00044312010B44D6522A7834F8223023F451
:102B7C00E04323F040031B041B0C83F0300343F4AD
:102B8C00004343F0800324F82230002070BD2B78E2
:102B9C00204634F823201B0112F0400FB4F85020CB
:102BAC0091B215BF04F20C4204F2044252185218AE
:102BBC0015BFD652D6526A892A8933466969FFF7FE
:102BCC00A0FF6B782A7873B934F8223023F4E043F1
:102BDC0023F070031B041B0C43F4004343F0C003AD
:102BEC0024F82230C0E7012BBED134F8223023F474
:102BFC00E04323F070031B041B0C43F4404343F0ED
:102C0C008003EDE79A4293BF0023D21AAA61AB610D
:102C1C0098BF13462A78B0B9B4F85000120181B2AB
:102C2C0004F20C400844002B44D1835A23F4F8439B
:102C3C001B041B0C8352835A6FEA43436FEA5343C2
:102C4C009BB283523FE0A1B9B4F85000120181B29B
:102C5C0004F204400844E3B9815A21F4F841090410
:102C6C00090C8152815A6FEA41416FEA514189B294
:102C7C00815269782A780029CED0012923D1B4F861
:102C8C005010120188B204F20C4101449BB28B52D9
:102C9C0019E03E2B05D85908DE0748BF01318902DF
:102CAC00E5E75E09D906124908BF06F1FF3641EA8D
:102CBC008621DCE73E2B12D85908DE0748BF0131CC
:102CCC00890289B281522A7834F8223023F4804365
:102CDC0023F070031B041B0C83F440534FE759097A
:102CEC00DB06034B08BF01F1FF3143EA8123A7E761
:102CFC000080FFFF00EB4202F0B502F580625D0838
:102D0C00084617462E46023036B9DB0744BF32F868
:102D1C00253001F81530F0BD37F8044B013EA4B254
:102D2C0000F8024C240A00F8014CECE708B5D0F886
:102D3C00B4320BB9022008BD1B6898470028F9D1A2
:102D4C0008BD08B5D0F8B4325B689847002008BDC0
:102D5C0038B500F52A750446284600F0E1FA01233F
:102D6C0094F8A812C4F89432B4F8AE32C4F898327D
:102D7C0001F01F03012B0ED007D3022B10D001F052
:102D8C008001204602F0F8FB03E02946204600F0C3
:102D9C00F5F8002038BD2946204600F013FAF8E774
:102DAC002946204600F033FAF3E770B5054616467F
:102DBC0049BBD0F89432032B1ED1D0F86031D0F837
:102DCC00642193420BD99B1A9A42C0F860318CBF94
:102DDC009AB292B2314600F0CCFA002070BDD0F815
:102DEC00B4321B6923B190F89C22032A00D1984776
:102DFC00284600F0C6FAF0E7052BEED1C5F8941280
:102E0C0002F0BAFBE9E7D0F8B4329B692BB190F829
:102E1C009C22032A01D19847DFE7022070BD70B5D0
:102E2C00134604460E46002947D1D0F89422022AB4
:102E3C003CD1056A426A954213D9AA1A0262194614
:102E4C0092B200F08EFA33461A461946204602F02A
:102E5C00DBFB94F8A0320020012B3AD184F8A002BD
:102E6C0070BDC369B3FBF2F502FB153565B99A4227
:102E7C000AD8D0F89822934206D22A4600F071FA6A
:102E8C00C4F898522B46DFE7D4F8B432DB682BB188
:102E9C0094F89C22032A01D1204698478021204691
:102EAC0002F06AFB204600F077FAD2E732F0040316
:102EBC00CFD1802102F060FBCBE7D0F8B4325B6954
:102ECC0033B190F89C22032A02D19847002070BDA0
:102EDC00022070BD002270B5044601254026114623
:102EEC00402302F039FB33468021C4F85851C4F812
:102EFC0064610022204602F02FFB0021D4F8B83286
:102F0C00A561666284F89C52C4F894126160C4F89E
:102F1C00A41223B1D4F8B43220465B689847002041
:102F2C0070BD01740020704790F89C3280F89D327F
:102F3C00042380F89C320020704790F89C32042BBC
:102F4C0004BF90F89D3280F89C320020704708B581
:102F5C0090F89C22032A04D1D0F8B432DB6903B177
:102F6C009847002008BD10B50446802102F004FBF0
:102F7C002046BDE81040002102F0FEBA37B50B78B0
:102F8C00044603F06003202B0D4612D0402B10D0CA
:102F9C00002B5CD14B78092B58D8DFE813F0E900F3
:102FAC0005015700FE005700840013005700D200A3
:102FBC00A000D4F8B43229469B68204698470020DC
:102FCC0003B030BD0023ADF806304B881A0A013A25
:102FDC00062A3BD8DFE802F004202D3A3A525C0076
:102FEC00D0F8B0321B680DF10601207C9847BDF873
:102FFC00062052B1EB8843B19A4228BF1A460146CB
:10300C002046ADF8062000F09FF9EB88002BD6D1B6
:10301C00204600F0B6F9D2E7027CD0F8B43232B9CF
:10302C009B6A0DF10600984702234370DFE7DB6AC9
:10303C00F7E7DBB2052B09D8DFE803F0030C10141B
:10304C00181CD0F8B0325B68002BCCD12046FFF7AF
:10305C008AFFB4E7D0F8B0329B68F5E7D0F8B0320D
:10306C00DB68F1E7D0F8B0321B69EDE7D0F8B0328D
:10307C005B69E9E7D0F8B0329B69E5E7037C002B8C
:10308C00E4D1D0F8B4320DF106005B6B9847AEE793
:10309C00037C002BDAD1D0F8B4320DF106001B6B97
:1030AC0098470723C1E78B88002BCFD1CB88002B07
:1030BC00CCD14D887F2DC9D890F89C32E9B2032B26
:1030CC00C4D080F89E1202F083FA204600F059F921
:1030DC001DB1022384F89C3271E70123FAE7897849
:1030EC00374D01292970B1D890F89C32022B08D0A9
:1030FC00032B14D0FFF737FF29782046FFF721FE6A
:10310C005DE7002984D001210323416080F89C32C3
:10311C002046FFF70BFE02287FF47AAF96E731B911
:10312C000223416080F89C32FFF70BFE70E7416888
:10313C0001293FF46DAFC9B2FFF703FE2978616036
:10314C00E6E7CA88012A81D190F89C32002B3FF423
:10315C007DAF022B04D9032B7FF478AF011D03E064
:10316C000146002341F8083F204600F0EDF826E721
:10317C0090F89C32013B022B3FF668AFCB88022BB8
:10318C007FF464AF0123C360D0F8A4320BB10323E6
:10319C00C360022204F10C01E6E74B88012B7FF49B
:1031AC000EAFC4F8A43233E790F89C32013B022BEB
:1031BC003FF64CAF4B88012B7FF401AF0023F0E7B7
:1031CC008402002038B50B78044603F06003202BF2
:1031DC000D4602D0402B00D0B3B994F89C32013B81
:1031EC00022B10D82B79012B0DD8D4F8B4322946E8
:1031FC009B6820469847EB881BB910B9204600F015
:10320C00C0F8002038BD2046FFF7ADFEF9E738B511
:10321C000A78044602F06002202A0B4613D0402A9A
:10322C0011D06AB95D788A88012DD1B21FD035D3FF
:10323C00032D05D190F89C22022A26D0032A0AD00D
:10324C00FFF791FE05E0D4F8B422194692682046A7
:10325C009047002038BD5A882AB94A0603D0DB882B
:10326C000BB902F089F9204600F08BF8F1E790F8E1
:10327C009C22022A09D0032AE2D15B88002BE8D1D8
:10328C004D06F0D002F086F9EDE74B0616D002F0B1
:10329C0073F98021204602F06FF9DAE790F89C323E
:1032AC00022B0DD0032BCBD1142312F0800F01F085
:1032BC000F0203FB020214D09269EAB92046BFE761
:1032CC004906FBD113064FF000034FF002024CBF2E
:1032DC0000F1140100F5AA710B60204600F034F8DF
:1032EC00B7E7D2F85821002AE8D001F07F0503FB9C
:1032FC00050505F5AA7504E001F07F0505FB03350E
:10330C00054411F07F0303D12B6002222946E4E728
:10331C00204602F04DF908B10123F5E72860F4E7E7
:10332C000B7803704B784370CA788B7803EB0223CD
:10333C0043804A790B7903EB02238380CA798B791A
:10334C0003EB0223C38070471346022210B5C0F86A
:10335C009422C3610A460362002102F047F900205F
:10336C0010BD08B513460A46002102F03FF90020B3
:10337C0008BD08B513460A46002102F045F90020A5
:10338C0008BD08B50423C0F8943200231A46194628
:10339C0002F02CF9002008BD08B50523C0F89432C2
:1033AC0000231A46194602F02FF9002008BD000030
:1033BC00014B1868704700BF88020020014B187839
:1033CC00704700BF85020020014B1868704700BF92
:1033DC009002002038B5084C206808B102F0DAF9E8
:1033EC00064B1D68284602F0CDF92A4620600021C4
:1033FC00BDE8384002F0D6B98C02002090020020C3
:10340C000122064B02281960054B1A7014BF0B22BF
:10341C001A22044B1A60FFF7DDBF00BF88020020A0
:10342C008502002090020020044B1B6823B1044A43
:10343C001268824288BF1954704700BF8C0200206A
:10344C0090020020054B1B682BB1054A1268824282
:10345C0001D9185C70470020704700BF8C02002017
:10346C0090020020044B1B68834286BF034B53F829
:10347C0020000020704700BF9002002008000020B0
:10348C0007B50A4803681A68920709D50022019209
:10349C001A68019201225B680193019B044B1A701C
:1034AC00FFF780F803B05DF804FB00BFC4090020EF
:1034BC00A002002002682E4B73B59A4230D12D4BDE
:1034CC002D4D1B782D4C8DF807302B7863B32C4A7F
:1034DC0013780133DBB2137013782C2B0DD100232E
:1034EC001370284A4FF4005113782748B3FA83F32A
:1034FC005B0913701278FDF703FE002323490B7050
:10350C0023802B709DF8072002F0FF0352B1172B7C
:10351C004FF0010228D00A7016491D48FEF7DBFF58
:10352C0002B070BD1B4A13701A4B1B78B3B91A4DFD
:10353C0023882A689BB2934210D32688FFF744FF56
:10354C002B68B6B21844864208D220882B6880B209
:10355C00C01A9DF807100138FFF766FF2388012277
:10356C0001339BB22380D7E70A4B1A70DCE700BF0C
:10357C000038014094020020A00200209602002096
:10358C0099020020980200200010014070000020D9
:10359C00C40900209A0200209C02002008B50548AE
:1035AC0000228021FDF7ACFDBDE808400248FFF782
:1035BC00A1B800BF000C0140C409002008B5FFF7FA
:1035CC00F7FE054B1860FFF7E9FFBDE80840012244
:1035DC0002490348FEF77FBF9C02002094020020A2
:1035EC00C4090020FFF7EABF30B50446A40287B037
:1035FC0044F000640D46FDF79DFB01230494002468
:10360C0001A902A8059503930294FDF743FC38B970
:10361C00FDF7A2FB0198431C5842584107B030BD3E
:10362C00FDF79AFB2046F9E701217F20FFF7DCBF6D
:10363C000144B1F5807F0BDD00207047830003F15E
:10364C00006303F5FE331B68013042F8043B80B283
:10365C008142F3DC012070470144B1F5807FF8B55D
:10366C00164602DD00242046F8BDFFF7DDFF0446B8
:10367C000028F7D0FDF75EFB094D0A4F043E56F8C3
:10368C00042F002329460220FDF79AFB10B1FDF709
:10369C0063FBE7E70435BD42F1D1FDF75DFBE2E7E3
:1036AC0000FC0108000002080022014B1A60704760
:1036BC00A4020020054A136883424FF0000015BF96
:1036CC000133106013600120704700BFA40200207A
:1036DC000130FFF7A9BEFFF7B5BE000030B50C25D1
:1036EC0085B001AC84E80700074A13780133DBB2DC
:1036FC001370064A05FB032594E8070085E80700CC
:10370C00184605B030BD00BFA8020020C805002037
:10371C0008B500F04FF900F061F900F0C1F8BDE810
:10372C00084000F0D1B800002DE9F041154B0446DB
:10373C001B78154E834222D3144DDFF85C802B7816
:10374C00032B0BD00C22337802FB03839F682FB121
:10375C00596800220220B84703232B7000270C4B1A
:10376C0032781F600B4B34701A700C2303FB0484EB
:10377C00A36823B162683946384698472F70307871
:10378C00BDE8F081A8020020A9020020AA020020B6
:10379C00AC020020B0020020C80500202DE9F04743
:1037AC00204F3B78B946002B39D04FF00C081E4DFA
:1037BC001E4C08FB035358785A68012821689B68F3
:1037CC00AA461B4E12D191421AD1002202209847D0
:1037DC00032333703B7808FB0355E87818B1BDE838
:1037EC00F047FFF7A1BF134B1878F8E7022807D171
:1037FC00914205D1002525602A4628469847357008
:10380C000C2299F80030216802FB03A30120D3E9B4
:10381C000125A84701233370236801332360BDE8D9
:10382C00F08700BFA9020020C8050020AC020020D0
:10383C00AA020020B0020020012870B50CD004D3DD
:10384C0002280CBF0120032070BD0024134B1C70F8
:10385C00FFF72AFF2046F7E7104C0F202578FFF7DB
:10386C003AFF284483B2FF2B8CBFFF2320704FF00C
:10387C000E0088BF2370FFF72EFF05B2092DA8BFDD
:10388C0009250026F0B2854206F1010601DA022074
:10389C00DAE72178FFF71CFFF4E700BFC808002027
:1038AC00002384B002938DF807308DF805308DF825
:1038BC000430044B039304AB13E9070004B0FFF787
:1038CC000DBF00BF453800080A2384B002930023C3
:1038DC0001228DF807308DF80430054B8DF805204A
:1038EC00039304AB13E9070004B0FFF7F7BE00BF66
:1038FC00453800080128F8B512D003D3022851D05E
:10390C0003200CE00B2001F03DFF0024284BC0E904
:10391C000044C0F807401860FFF7C6FE2046F8BD0B
:10392C000D20FFF7D8FEFFF7C5FE08B90220F6E719
:10393C001F4E0027354633680F20DC5DFFF7CBFEAA
:10394C00FF38044424B2336824EAE474DC550137AC
:10395C000A2FF0D10E20FFF7BEFE092828BF092040
:10396C00C4B20C20FFF7B7FE33689A7A98B10AB943
:10397C0001349C729A7A013AFF2100249A722B68C6
:10398C009A7A99542B68E0B2195D0134FFF7A0FEC6
:10399C000A2CF7D1CAE7A24204BFFF229A729A7A84
:1039AC000132E9E7024B186801F0F4FE0120B6E79A
:1039BC00C8080020002384B002938DF807308DF8DE
:1039CC0005308DF80430044B039304AB13E9070066
:1039DC0004B0FFF783BE00BF013900080A2384B08E
:1039EC000293002301228DF807308DF80430054B2B
:1039FC008DF80520039304AB13E9070004B0FFF71F
:103A0C006DBE00BF0139000810B54FF48041084865
:103A1C00FDF770FBB0FA80F44FF4004104486409E0
:103A2C00FDF768FB08B944F00204204610BD00BF46
:103A3C000010014010B54FF400411F48FDF75AFB30
:103A4C00B0FA80F408211D486409FDF753FB08B94E
:103A5C0044F0020410211948FDF74CFB08B944F05E
:103A6C0004044FF480711548FDF744FB08B944F089
:103A7C0008044FF400711148FDF73CFB08B944F001
:103A8C0010044FF480510D48FDF734FB08B944F095
:103A9C0020044FF400510948FDF72CFB08B944F001
:103AAC0040044FF480410548FDF724FB08B944F06D
:103ABC008004204610BD00BF00080140000C0140EE
:103ACC0008B520210348FDF715FBB0FA80F040093A
:103ADC0008BD00BF0008014070B540F23444FF231C
:103AEC006043B0FBF3F316460E4A10885843B0FB04
:103AFC00F4F0401AFCF7F2FB05463046FCF7EEFBFF
:103B0C0001462846FCF73EFC0749FCF7EFFCFCF7A6
:103B1C0089FD00B2A042A8BF204620EAE07080B226
:103B2C0070BD00BFB20200200000C842F8B5B64C10
:103B3C000546236800201E78FFF784FC864200D1DE
:103B4C0085B10020FFF77EFC40F234435843FF233D
:103B5C00B0FBF3F0AD4B256818800020FFF772FC2A
:103B6C0028700125236801205E78FFF76BFC8642E4
:103B7C0000D1ADB10120FFF765FCA549B1F93C308E
:103B8C00B1F93A20B1F93810FFF7A6FF002102462F
:103B9C00084600F0EDFB01202668FFF753FC70701F
:103BAC00236802209E78FFF74DFC864200D1ADB110
:103BBC000220FFF747FC9649B1F94230B1F9402099
:103BCC00B1F93E10FFF788FF01210246002000F0FA
:103BDC00CFFB02202668FFF735FCB070236803206A
:103BEC00DE78FFF72FFC864200D1ADB10320FFF742
:103BFC0029FC8749B1F94830B1F94620B1F9441094
:103C0C00FFF76AFF02210246002000F0B1FB0320FF
:103C1C002668FFF717FCF070236804201E79FFF765
:103C2C0011FC864200D1ADB10420FFF70BFC7849A2
:103C3C00B1F93C30B1F93A20B1F93810FFF74CFF2B
:103C4C0000210246012000F093FB04202668FFF7B8
:103C5C00F9FB3071236805205E79FFF7F3FB864290
:103C6C0000D1ADB10520FFF7EDFB6949B1F9423048
:103C7C00B1F94020B1F93E10FFF72EFF01210246A9
:103C8C00084600F075FB05202668FFF7DBFB70711A
:103C9C00236806209E79FFF7D5FB864200D1ADB193
:103CAC000620FFF7CFFB5A49B1F94830B1F946204D
:103CBC00B1F94410FFF710FF02210246012000F079
:103CCC0057FB06202668FFF7BDFBB0712368072061
:103CDC00DE79FFF7B7FB864200D1ADB10720FFF7C5
:103CEC00B1FB4B49B1F93C30B1F93A20B1F938107C
:103CFC00FFF7F2FE00210246022000F039FB0720FC
:103D0C002668FFF79FFBF071236808201E7AFFF7E7
:103D1C0099FB864200D1ADB10820FFF793FB3C49DB
:103D2C00B1F94230B1F94020B1F93E10FFF7D4FEA1
:103D3C0001210246022000F01BFB08202668FFF739
:103D4C0081FB3072236809205E7AFFF77BFB864289
:103D5C0000D1ADB10920FFF775FB2D49B1F9483001
:103D6C00B1F94620B1F94410FFF7B6FE0221024624
:103D7C00084600F0FDFA09202668FFF763FB707215
:103D8C0023680A209E7AFFF75DFB864200D18DB135
:103D9C000A20FFF757FBDC2364220021FFF79CFE6F
:103DAC0003210246022000F0E3FA0A202668FFF7FE
:103DBC0049FBB072FFF702FB022824D123680B20C9
:103DCC00DF7AFFF73FFB124E96F82530B0FBF3F08D
:103DDC00C0B2874200D1B5B10B20FFF733FB96F888
:103DEC002530B0FBF3F0C0B2FFF79EFC01460B2070
:103DFC00FFF71AFB0B20FFF725FB96F825302268FE
:103E0C00B0FBF3F0D072F8BDB4020020B202002077
:103E1C00CC08002038B50D4C206808B101F0BAFC74
:103E2C00FFF7D2FA013001F0ADFC05462060FFF738
:103E3C00CBFA00210246284601F0B4FCFF2223688D
:103E4C0001201A70BDE83840FFF770BEB4020020A4
:103E5C0030B5102495B0224600210CA801F0A2FC2C
:103E6C00142200210DEB020001F09CFC22460021E3
:103E7C0001A801F097FC02254FF480330922CDE90B
:103E8C001153CDE90A2301224FF4E0130AA80E9234
:103E9C0010921393FDF73AFC0F230024CDE905355E
:103EAC004FF48063294605A8CDE907430994FDF733
:103EBC0007FE122301934FF4004301A8CDE903340C
:103ECC00FDF7BCFE15B030BD00242DE98048AA4D8D
:103EDC0089B0FCF7F1FBFFF7BBFF0694AB69012738
:103EEC0002264FF0800843F01003AB61AB6904A9C4
:103EFC0003F010030093009BAB69A04843F0200330
:103F0C00AB61AB694FF4005903F020030193019BA3
:103F1C00AB694FF0030A43F00403AB61AB6948F2A1
:103F2C00200B03F004030293029BAB6943F00803DC
:103F3C00AB61AB69079603F008030393039BCDE9D0
:103F4C000487FCF7F5FF224641468C48FDF7D8F86C
:103F5C004FF4404304A98A48CDE904340694FCF795
:103F6C00E7FF04A986480796CDE90497FCF7E0FF24
:103F7C0040F2CE7304A98348CDE90436CDF81CA0D9
:103F8C00FCF7D6FF04A97D48CDE904A6CDF81CA00A
:103F9C00FCF7CEFF04A97B48CDE904B40697FCF7E7
:103FAC00C7FF47F2183304A97448CDE904340697C7
:103FBC00FCF7BEFF04A97148CDE904B6CDF81CA0EE
:103FCC00FCF7B6FF4FF480634FF4602A04A96B48EA
:103FDC00CDE90646CDE90437FCF7AAFF6A4A6B4ED9
:103FEC005368494643F0E0633B43536064482246C0
:103FFC00FDF786F8664B30463360B4603473347525
:10400C007460CDE904440694C6F81CA03761FCF733
:10401C0035FD04A930465F4ECDE904470694FCF704
:10402C00E9FB5D4B30463360B460347334757460B7
:10403C00CDE904440694C6F81CA03761FCF71EFDBC
:10404C00042330460C2604A9CDE904370694FCF76A
:10405C00D1FB5248524B534AC0E90249C0E90023F4
:10406C000461C0E90564C461FEF748F922462146A3
:10407C002520FCF797FD2520FCF7C8FD4FF4E13314
:10408C0049494A48C0E90013C0E90244C0E9044662
:10409C00C0E90644FEF704F9454B4648C3F80480D2
:1040AC0000F03CFC444800F039FC444800F036FC7D
:1040BC00414800F033FC3F4800F030FC6B6A00F0E4
:1040CC002BF93F4800F02AFCFFF79EFC0446FFF753
:1040DC00B1FC01462046FFF793F93A4800F01EFC6C
:1040EC00FFF780FA384800F019FCFFF793FE3748C9
:1040FC0000F014FC01F042F9354800F00FFC00F020
:10410C006FF9FFF7DDFC28BB00F016FA00F09CF904
:10411C00304800F003FCFFF7FBFA2F4800F0FEFBE1
:10412C002E4800F0FBFB2E4800F018FC01224FF447
:10413C0000511348FCF7E4FF2A4C00F029FC2378CB
:10414C005BB101F081F820700028F6D10120FFF757
:10415C00EDFCF2E700F0F8F9D8E7FFF7B1FC012825
:10416C0008BF207001F02AF9FFF728F9022801D1C5
:10417C00FFF714FB0020EAE700100240000C01409E
:10418C00001001400008014000000140940900208B
:10419C00002401405809002000280140C4090020D7
:1041AC0090D003000038014000480040180900205E
:1041BC0000E100E0C96800080A690008DB63000838
:1041CC00E9630008FD630008146400082964000812
:1041DC0042640008586400086A64000876640008A9
:1041EC0083640008B8020020704700001C222DE9EF
:1041FC00F0418EB0064600210DEB020001F0D2FA20
:10420C000021102203A8CDE9011101F0CBFA012EF7
:10421C00384C67D062D3022E67D0002340F22A427A
:10422C0004EB8614C4E90133C4E90323636120461B
:10423C00FDF73CFE10B1304800F070FB4FF480539A
:10424C0003A920460393FDF7FDFE10B12B4800F0A7
:10425C0065FB2046FDF744FE10B1294800F05EFBDB
:10426C0040F21A2360220025CDE907230423CDE96F
:10427C000B35244BCDE9095503EB0617DFF890807D
:10428C0076B20D9503EB061657F82530FF2B09D0A7
:10429C0056F8252007A92046FDF768FE10B14046C8
:1042AC0000F03CFB0135042DEED12046FDF7B3FDAB
:1042BC000025DFF8608057F82530FF2B08D056F822
:1042CC0025102046FDF760FF10B1404600F026FB9C
:1042DC000135042DEFD10EB0BDE8F0814FF08043D5
:1042EC0023609AE7084B236497E7084BC4F88030A7
:1042FC0093E700BF040A0020886400089B64000850
:10430C00AE640008E864000800040040002C014082
:10431C00C1640008D46400081FB5144B00209A69CE
:10432C0042F400629A619A6902F400620192019A65
:10433C00DA6942F00102DA61DA6902F001020292F2
:10434C00029ADA6942F00202DA61DB6903F00203D5
:10435C000393039BFFF74AFF0120FFF747FF02205F
:10436C0005B05DF804EBFFF741BF00BF0010024041
:10437C000B4B01EB800153F82110FF290ED0094B98
:10438C0080011B5809B95A637047042901D19A63FB
:10439C007047082901D1DA6370471A64704700BF6F
:1043AC00E8640008040A00200A4641F288330146FA
:1043BC000148FDF7D5BF00BF1809002007B5002341
:1043CC0001220DF107010548FEF726F820B99DF8EA
:1043DC00070003B05DF804FB0020FAE71809002081
:1043EC0010B5184C36220021204601F0DBF9FF22D3
:1043FC0024F8022C40F60A22A31E1A830A229A766B
:10440C00DA7783F8202083F821204FF49672DA842F
:10441C001A854FF69C721A87DC229A87A3F84220E1
:10442C00A3F84820042264214FF6B07083F82520AD
:10443C005987D887A3F84010A3F84400A3F8461076
:10444C0010BD00BFCE08002010B53A4C00202178DA
:10445C00FEF7EAFFA1780120FEF7E6FF21790220A2
:10446C00FEF7E2FFA1790320FEF7DEFF217A04209C
:10447C00FEF7DAFFA17A0520FEF7D6FF217B062096
:10448C00FEF7D2FFA17B0720FEF7CEFF217C082090
:10449C00FEF7CAFFA17C0920FEF7C6FF217D0A208A
:1044AC00FEF7C2FFFEF78AFF022842D1A17D0B2046
:1044BC00FEF7BAFFE17D0C20FEF7B6FF217E0D2042
:1044CC00FEF7B2FF617E0E20FEF7AEFFA17E0F203D
:1044DC00FEF7AAFFE17E1020FEF7A6FF217F112038
:1044EC00FEF7A2FF617F1220FEF79EFFA17F132033
:1044FC00FEF79AFFE17F1420FEF796FF94F8201048
:10450C001520FEF791FF94F821101620FEF78CFF72
:10451C0094F822101720FEF787FF94F82310182028
:10452C00FEF782FF94F824101920BDE81040FEF726
:10453C007BBF10BDCC080020024A4A210020FFF7A7
:10454C0077B800BFCC080020024A4FF480710020DD
:10455C00FFF782B8CC08002038B5844D844C8548D0
:10456C0000F0DCF9284600F0D9F92188824800F0E7
:10457C00D5F96188814800F0D1F9A188804800F014
:10458C00CDF9E1887F4800F0C9F921897E4800F017
:10459C00C5F961897D4800F0C1F9A1897C4800F01A
:1045AC00BDF9E1897B4800F0B9F9218A7A4800F01D
:1045BC00B5F9618A794800F0B1F9A18A784800F020
:1045CC00ADF9A17D774800F0A9F9E17D764800F0BE
:1045DC00A5F9217E754800F0A1F9617E744800F0C0
:1045EC009DF9A17E734800F099F9E17E724800F0C4
:1045FC0095F9217F714800F091F9617F704800F0C6
:10460C008DF9A17F6F4800F089F9E17F6E4800F0C9
:10461C0085F994F820106D4800F080F994F8211079
:10462C006B4800F07BF994F822106A4800F076F998
:10463C0094F82310684800F071F994F82410674836
:10464C0000F06CF9664800F069F9284600F066F94C
:10465C0094F82510634800F061F9E18C624800F091
:10466C005DF9218D614800F059F9614800F056F967
:10467C00604800F053F994F82A105F4800F04EF9A6
:10468C0094F82B105D4800F049F994F82C105C4814
:10469C0000F044F994F82D105A4800F03FF994F8C2
:1046AC002E10594800F03AF994F82F10574800F0A2
:1046BC0035F994F83010564800F030F994F8311070
:1046CC00544800F02BF994F83210534800F026F9B6
:1046DC0094F83310514800F021F994F834105048F4
:1046EC0000F01CF994F835104E4800F017F994F8C6
:1046FC0036104D4800F012F994F837104B4800F082
:10470C000DF94B4800F00AF94A4800F007F9B4F9E2
:10471C003810494800F002F9B4F93A10474800F053
:10472C00FDF8B4F93C10464800F0F8F8B4F93E1026
:10473C00444800F0F3F8B4F94010434800F0EEF8A8
:10474C00B4F94210414800F0E9F8B4F9441040487B
:10475C0000F0E4F8B4F946103E4800F0DFF8B4F984
:10476C0048103D48BDE8384000F0D8B81069000842
:10477C00CC08002018650008216500083165000888
:10478C003D6500084B650008586500086465000825
:10479C00726500087F6500088B6500089965000844
:1047AC00A6650008B4650008C2650008D565000858
:1047BC00E6650008F665000809660008176600083B
:1047CC002566000833660008466600085766000830
:1047DC00676600087A660008886600089666000816
:1047EC00A4660008AD660008BF660008D266000823
:1047FC00E56600080F690008EE660008FE66000812
:10480C00116700082C6700084767000862670008FA
:10481C007C67000891670008A1670008B46700086E
:10482C00CF670008EA670008056800081F680008E1
:10483C00346800080C690008406800084F680008DC
:10484C005C6800086A6800087B6800088A680008D1
:10485C009A680008AA680008B86800080021034B91
:10486C0040220348196000F09DBF00BFFC020020ED
:10487C00B902002008B500F01DFF28B1BDE80840C2
:10488C00017A4068FFF790BD08BD000019491A4A2B
:10489C0010B50B6812680C46C0B99BB9072A14D026
:1048AC0007232360FFF7DAFF144B2168402203EB48
:1048BC008111134801F055F81148FBF741FC114BDD
:1048CC00186002E0013B9342EBD110BD9342FCD047
:1048DC00072B05D14AB90A60BDE81040FFF7BEBFEF
:1048EC00581C904201D10860F6E70133082B08BF31
:1048FC000023D6E70005002004050020000300205B
:10490C00B9020020FC02002010B50446FFF756FD4A
:10491C00207000B910BD0120FCE700000FB413B5E6
:10492C000C4C04AB53F8042B7C212046019301F072
:10493C003FF90949204600F0F3FF2046FBF700FC45
:10494C0081B22046FFF730FD02B0BDE8104004B044
:10495C00704700BF08050020C76800080FB413B5E6
:10496C000A4C04AB53F8042B7C212046019301F034
:10497C001FF92046FBF7E4FB81B22046FFF714FD3C
:10498C0002B0BDE8104004B0704700BF080500201D
:10499C002DE9F04F724B8FB018681B79714C724E29
:1049AC0003908DF810300DF10B00FFF7ADFF0128CF
:1049BC0002D00FB0BDE8F08F9DF80B0000F032FE76
:1049CC0001280ED123683F2B05D85A1C9DF80B10DB
:1049DC002260664AD15401210DF10B00FFF7E4FC73
:1049EC00E1E708287ED16248FFF798FF5F490B7812
:1049FC0083B1604F60483D68402200EB8510013563
:104A0C0000F0AFFF072DCABF00233D603B603A6842
:104A1C005A4B1A605A49554800F0B8FF00250DF161
:104A2C003808574F48F8240D58F825300BB1072D8E
:104A3C002CD140225349059800F081FF074668B3FA
:104A4C0040225149059800F07AFF002838D04FF0E9
:104A5C0000094FF00C0B4D4B1F68B94536DA0BFBB8
:104A6C0009F340229959059803EB060A00F067FFF9
:104A7C0048B9DAF808304146681E984718B9DAF890
:104A8C000400FFF74BFF09F10109E6E73946002066
:104A9C0000F07CFF013548F82500C5E74FF00C0A03
:104AAC003348FFF73BFF394B1B680193019B9F4237
:104ABC00C6DA0AFB07F39859FFF730FF0137F5E721
:104ACC000D20FFF7D7FE0E20FFF7D4FEFFF7C6FE32
:104ADC000DF10B000121FFF767FC03A92C48FFF730
:104AEC003DFF60E700283FF45EAF07280ED1236836
:104AFC00002B04DD00211D4A013B2360D15407200B
:104B0C00FFF7B8FE0A20FFF7B5FE4CE7022816D1D6
:104B1C000B20FFF7AFFE002523680433AB4209D806
:104B2C0003A8FFF71BFF0020FFF7B0FE0F48FFF7AD
:104B3C0015FF38E70C20FFF79DFE0135ECE7032845
:104B4C007FF431AF0B20FFF795FE00252368AB42B5
:104B5C0001DC0120E8E70C20FFF78CFE0135F5E7BE
:104B6C0083640008FC0200208C690008B902002054
:104B7C00C96800080405002000030020000500207F
:104B8C00A66E0008CA680008CF680008D86800083C
:104B9C00D368000808B500F069FC012008BD0000CE
:104BAC0010B50020FEF74EFC384C20800120FEF79B
:104BBC0049FC60800220FEF745FCA0800320FEF734
:104BCC0041FCE0800420FEF73DFC20810520FEF72F
:104BDC0039FC60810620FEF735FCA0810720FEF72A
:104BEC0031FCE0810820FEF72DFC20820920FEF725
:104BFC0029FC60820A20FEF725FCA082FEF7DEFB72
:104C0C00022840D10B20FEF71DFCA0750C20FEF7EE
:104C1C0019FCE0750D20FEF715FC20760E20FEF732
:104C2C0011FC60760F20FEF70DFCA0761020FEF72D
:104C3C0009FCE0761120FEF705FC20771220FEF728
:104C4C0001FC60771320FEF7FDFBA0771420FEF724
:104C5C00F9FBE0771520FEF7F5FB84F82000162011
:104C6C00FEF7F0FB84F821001720FEF7EBFB84F82D
:104C7C0022001820FEF7E6FB84F823001920FEF72B
:104C8C00E1FB84F82400012010BD00BFCC080020FB
:104C9C0008B5486800F047FDC0B2042802D0431E96
:104CAC00012B04D8044B83F82500012008BD0348D0
:104CBC00FFF734FEF9E700BFCC080020586A000863
:104CCC0008B5FEF77BFB012808D003D3022807D0D8
:104CDC00012008BD0348FFF721FEF9E70248FAE777
:104CEC000248F8E74D690008676900087469000814
:104CFC0008B5FFF729FC012008BD08B5FFF72CFC0F
:104D0C00012008BD08B5FEF753FB01460248FFF72A
:104D1C0005FE012008BD00BF3A690008F7B5FEF793
:104D2C0047FB01461648FFF7F9FDFEF74DFB014620
:104D3C001448FFF7F3FDFEF741FB01461248FFF75D
:104D4C00EDFD1248FFF7EAFD0024114DFEF73CFB88
:104D5C00A04202D8012003B0F0BDFEF729FB0619D2
:104D6C002046FEF77FFB07462046FEF76BFB2146ED
:104D7C0000903B4632462846FFF7D0FD0134E5E76C
:104D8C003A690008DC680008F3680008FC68000851
:104D9C0018690008052870B50C4635D1486800F034
:104DAC00C2FC054618B1012817D001252AE0A068DD
:104DBC0000F0B9FC154D85F82E00E06800F0B3FC4E
:104DCC0085F82F00206900F0AEFC85F82C00606996
:104DDC0000F0A9FC85F82D00E7E7A06800F0A3FC23
:104DEC000A4E86F83500E06800F09DFC86F8360027
:104DFC00206900F098FC86F83300606900F093FCA1
:104E0C0086F83400284670BD0025FBE7CC0800204E
:104E1C00042870B50C462BD1486800F084FC05467C
:104E2C0018B1012812D0012520E0A06800F07BFC0D
:104E3C00104D85F82A00E06800F075FC85F82B0011
:104E4C00206900F070FC85F83000ECE7A06800F0F9
:104E5C006AFC084E86F83100E06800F064FC86F8C5
:104E6C003200206900F05FFC86F83700284670BDE0
:104E7C000025FBE7CC080020022838B50C4618D1D9
:104E8C00486800F050FC0C4D38B102280BD0A068DB
:104E9C0000F049FCA5F8420003E0A06800F043FCD8
:104EAC00A887012038BDA06800F03DFCA5F848009B
:104EBC00F7E70020F6E700BFCC080020022838B541
:104ECC000C4617D1486800F02EFC0B4D30B102286F
:104EDC000AD0A06800F027FCE88703E0A06800F087
:104EEC0022FC2887012038BDA06800F01CFCA5F826
:104EFC004400F7E70020F6E7CC080020022838B57C
:104F0C000C4618D1486800F00EFC0C4D38B1022844
:104F1C000BD0A06800F007FCA5F8400003E0A068E7
:104F2C0000F001FC6887012038BDA06800F0FBFB95
:104F3C00A5F84600F7E70020F6E700BFCC080020F4
:104F4C00012810B5044605D149680348FFF7E6FC73
:104F5C00204610BD0024FBE76B6A0008022838B518
:104F6C000C460CD1486800F0DEFB0546A06800F04A
:104F7C00DAFBC1B22846FEF757FA012038BD0020F3
:104F8C00FCE7012810B5044608D1486800F0CBFBBB
:104F9C00C1B20020FEF748FA204610BD0024FBE702
:104FAC00032870B50C4611D1486800F0BCFB0546CF
:104FBC00A06800F0B8FB0646E06800F0B4FBF1B264
:104FCC0082B2E8B2FFF7D4F9012070BD0020FCE7F3
:104FDC000E4B82B09A6942F001029A619A6902F012
:104FEC0001020092009ADA6942F08052DA61DB69C0
:104FFC00074A03F080530193019B536823F0E0634D
:10500C0043F00073536002B0704700BF00100240C1
:10501C000000014030B51024054689B0224600211D
:10502C000DEB040000F0BEFB2B681E4A93421DD111
:10503C001D4B0DEB04019A6942F400729A619A6956
:10504C0002F400720092009A9A6942F004029A618A
:10505C009B6903F004030193019B01230493032335
:10506C0005931248FBF764FF09B030BD104A934218
:10507C00FAD10D4B04A99A6942F480629A619A693B
:10508C0002F480620292029A9A6942F004029A61D6
:10509C009B69049403F004030393039B032305937C
:1050AC00DFE700BF0024014000100240000801406F
:1050BC0000280140102210B5044688B00DEB020008
:1050CC00002100F06FFB23682A4A934225D12A4B1A
:1050DC0004A99A69294842F480429A619A6902F4B7
:1050EC0080420092009A9A6942F008029A619B6988
:1050FC0003F008030193019B4023049312230593AF
:10510C0003230793FBF714FF1D4A536843F0E06336
:10511C0043F00403536008B010BD1A4A9342FAD10D
:10512C00154B04A9DA69154842F48022DA61DA6970
:10513C0002F480220292029A9A6942F008029A6161
:10514C009B6903F008030393039B4FF48063049360
:10515C000223059303230793FBF7EAFE4FF4006346
:10516C000493002304A9054805930693FBF7E0FE7E
:10517C00D1E700BF0038014000100240000C014094
:10518C0000000140004800407047FEE7FEE7FEE7E4
:10519C00FEE7704770477047FBF7A0BA0148FCF771
:1051AC0029B800BFE40A002008B50A4B024619686A
:1051BC0009B9094919606946186802448A4206D936
:1051CC0000F0B6FA0C2303604FF0FF3008BD1A60F4
:1051DC0008BD00BF88050020540D00200F4B1A6835
:1051EC0042F001021A6059680D4A0A405A601A6866
:1051FC0022F0847222F480321A601A6822F480221F
:10520C001A605A6822F4FE025A604FF41F029A6028
:10521C004FF00062034B9A60704700BF00100240D1
:10522C000000FFF800ED00E038B50024054D2B1907
:10523C00285D002259780234FFF79AF8142CF6D125
:10524C0038BD00BF790000202DE9F041214A224BE6
:10525C0011781C881D46164641B11CB920461470A5
:10526C00BDE8F081013C1C800120F9E7BCB94EF689
:10527C0060231A4F2B80FFF7D7FF194B387840F279
:10528C00344203EB4001497813F81000FFF770F833
:10529C003B780133DBB20A2B14BF3B703C702B887C
:1052AC00104C013B2B80FEF70BFC94F8008007465A
:1052BC00B8F1000F0BD1012809D12070FFF7B4FF12
:1052CC004EF660232B80054B377083F800802770D7
:1052DC00CAE700BF8E0500208C0500208F0500203A
:1052EC007900002078000020014B1868FBF70CBAFD
:1052FC0090000020F8B504681A4B0546E31A5C428E
:10530C005C41FBF7FDF9184A21015718BB7BE400FF
:10531C00E6180133DBB202EB46060009052BB08020
:10532C00BB7311D10020063402EB44040234013B60
:10533C0034F8026D13F0FF033044F8D15418A37302
:10534C000523B0FBF3F050522A68084B9A4208BF71
:10535C00074A084B18BF084A1A601868BDE8F8409D
:10536C00FBF704BB00280140C40A002000240140C4
:10537C0058090020900000209409002010B510243A
:10538C000C4B22461846002100F00CFA2246002154
:10539C00204400F007FA002212201146FBF702FC11
:1053AC001220FBF733FCBDE81040034B1868FBF7E9
:1053BC00DDBA00BFC40A00209000002038B5294C8B
:1053CC0094F82A0050B1284D29886A88914205D05A
:1053DC00012812D0022816D02B886B8094F831004B
:1053EC0050B1214D298A6A8A914205D001281ED0DC
:1053FC00022822D02B8A6B8238BD94F82B00C9B2BC
:10540C00FEF712F8E8E794F83030994206D99A4240
:10541C0004D294F82D1094F82C00F1E79942DBD2C9
:10542C009A42D9D994F82F1094F82E00E8E794F802
:10543C003200C9B2FDF7F8FFDCE794F83730994237
:10544C0006D99A4204D294F8341094F83300F1E758
:10545C009942CFD29A42CDD994F8361094F83500AF
:10546C00E8E700BFCC080020C40A002000232DE987
:10547C00F041124CDFF85C80114F124E5D1C294636
:10548C004046FFF74BFA3846FFF748FA218830467A
:10549C00FFF744FA61880C48FFF740FAA17B0B48F0
:1054AC00FFF73CFA0A48FFF739FA022D04F1100411
:1054BC004FF00103E2D1BDE8F08100BFC40A002027
:1054CC0010690008916D00089D6D0008AE6D000814
:1054DC00C96800088A6D000800F50C71D0F86802E4
:1054EC00FDF736BC00EB4113D3F83C21D0F8680231
:1054FC00FDF75BBC00EB4113DA6BD0F86802FDF7EB
:10550C008EBCD0F86802FDF722BD836810B5022B63
:10551C00044601D0FEF768FED4F868020121FDF7BD
:10552C0000FDD4F86802BDE81040FDF7D3BC0000C4
:10553C0010B50446D0F86802FDF7F6FCA36923B158
:10554C00024A136943F00603136110BD00ED00E03D
:10555C00D0F86802FDF7F1BC10B51C46D0F8C002BB
:10556C0013462246FBF7E5FD03289ABF014B185C56
:10557C00022010BDBD6D000808B5D0F8C002FCF7C4
:10558C005FF803289ABF024B185C022008BD00BFCD
:10559C00BD6D000808B5D0F8C002FCF785F80328EB
:1055AC009ABF024B185C022008BD00BFBD6D0008FD
:1055BC000A06D0F8C03245BF01F07F0103EB41135E
:1055CC0003EB411393F82A0058BF93F82A01704754
:1055DC0008B5D0F8C002FBF798FD03289ABF024B20
:1055EC00185C022008BD00BFBD6D000808B5D0F8DE
:1055FC00C002FBF7E9FD03289ABF024B185C02209E
:10560C0008BD00BFBD6D000808B5D0F8C002FBF79F
:10561C00C3FD03289ABF024B185C022008BD00BFD3
:10562C00BD6D00082DE9F0471F4D2B781BB9A0F17B
:10563C0020025E2A31D90D2832D01C4C1C4F4FF061
:10564C000008B946A2465E1CF6B22E70E0543B7AB6
:10565C00B34215D132465146786800F070F90346D2
:10566C0070B90C2202FB08F819F8080080B9072E53
:10567C004FF0000015D9287020606060BDE8F087FD
:10568C0008F10108B8F10F0F07F10C07DFD1EEE7B5
:10569C002B7023606360BDE8F0870120BDE8F087C4
:1056AC000820BDE8F08700BF980500209005002079
:1056BC00E46D00080E2830B50CD800220C24064BE3
:1056CC0004FB02F1CD5C854201D1581830BD01328A
:1056DC000F2AF5D1002030BDE46D0008002103E055
:1056EC000B4B5B58435004310A480B4B42189A42FF
:1056FC00F6D30A4A02E0002342F8043B084B9A42D4
:10570C00F9D3FFF76BFD00F019F8FEF7DDFB7047DE
:10571C00E06F0008000000206402002068020020F6
:10572C00540D0020FEE70A22002100F0FFB9000012
:10573C00014B1868704700BF9400002070B500251D
:10574C000C4E0D4CA41BA410A54209D100F09EFDDB
:10575C0000250A4E0A4CA41BA410A54205D170BD0D
:10576C0056F8253098470135EEE756F8253098471E
:10577C000135F2E7D86F0008D86F0008D86F000821
:10578C00DC6F0008024B0146186800F05FB800BFE0
:10579C0094000020024B0146186800F00BB800BFC3
:1057AC009400002003460244934200D1704703F852
:1057BC00011BF9E738B50546002943D051F8043CE4
:1057CC000C1F002BB8BFE41800F015FA1E4A136822
:1057DC00104633B9636014602846BDE8384000F0C9
:1057EC000BBAA3420BD921686218934201BF1A6805
:1057FC005B685218226063600460EDE713465A68D8
:10580C000AB1A242FAD919685818A0420BD12068E3
:10581C000144581882421960DED110685268014464
:10582C0019605A60D8E702D90C232B60D4E72068A2
:10583C0021188A4201BF1168526809182160626000
:10584C005C60C9E738BD00BF9C05002070B5CD1C5D
:10585C0025F0030508350C2D38BF0C25002D064608
:10586C0001DBA94203D90C233360002070BD00F08A
:10587C00C2F9214A1468214691B9204C23681BB9FE
:10588C00304600F03DF820602946304600F038F8EC
:10589C00431C24D10C233046336000F0ADF9E4E70F
:1058AC000B685B1B18D40B2B0FD90B60CC18CD508D
:1058BC00304600F0A1F904F10B00231D20F0070085
:1058CC00C31AD3D05A42E250D0E74B688C4216BF71
:1058DC00636013600C46EBE70C464968CCE7C41CCC
:1058EC0024F00304A04205D0211A304600F008F839
:1058FC000130CFD02560DBE79C050020A0050020FF
:10590C0038B50023054C054608462360FFF74CFCD0
:10591C00431C02D1236803B12B6038BD500D00200D
:10592C00034610B51A785C1C3AB9013B11F8012BEF
:10593C0003F8012F002AF9D110BD2346F2E710B568
:10594C006AB10139841810F8013B11F8012F934208
:10595C0003D1A04201D0002BF5D1981A10BD1046EE
:10596C00FCE770B50446013902B970BD234611F845
:10597C00015F561E03F8015B2DB91444A342F4D009
:10598C0003F8015BFAE71C463246EDE7134B2DE9B1
:10599C00F0411D680646AC6D0F46B4B95020FFF7B8
:1059AC00F1FEA865C0E90044C0E90244C0E9044422
:1059BC00C0E90A44C0E90C44C0E90E44C0E91044F3
:1059CC00C0E91244846104774462AA6D39463046BA
:1059DC00BDE8F041012300F003B800BF94000020A3
:1059EC00F0B518B9106808B9F0BD204604460F464A
:1059FC0014F8015B17F8016B1EB96DB915602846D8
:105A0C00F2E7B542F6D1002BEFD114600370EBE74F
:105A1C002B460DE026B91C4623460F4613F8015BB6
:105A2C0017F8016BB542F5D1002DF1D00021217092
:105A3C001360D9E72DE9F0478046894692461E4609
:105A4C000F463D46089815F8014B00F0BFF820446E
:105A5C00437813F0080332D12D2C32D101227C78FB
:105A6C00BD1C002E5DD0102E09D1302C07D12B7807
:105A7C0003F0DF03582B4FD110266C780235002A27
:105A8C0014BF4FF000416FF000410027B1FBF6FC52
:105A9C00384606FB1C1EA4F13003092B17D81C46F4
:105AAC00A64223DD7B1C07D084451CD301D1A6451F
:105ABC0019DB012700FB064015F8014BEBE72F46DD
:105ACC00BFE72B2C04BFBD1C7C781A46C9E7A4F198
