:020000040800F2
:1000000000500020ED500008994B00089B4B000861
:100010009D4B00089F4B0008A14B0008000000000A
:10002000000000000000000000000000A34B0008DA
:10003000A54B000800000000A74B0008A94B0008D2
:100040003551000835510008355100083551000878
:100050003551000835510008355100083551000868
:100060003551000835510008355100083551000858
:100070003551000835510008355100083551000848
:100080003551000835510008F94C00083551000879
:10009000AD4B0008355100083551000835510008B6
:1000A0003551000835510008355100083551000818
:1000B0003551000835510008355100083551000808
:1000C00035510008355100083551000835510008F8
:1000D000355100088D3400083551000835510008AD
:1000E0003551000835510008355100080000000066
:1000F0000000000000000000000000000000000000
:0C01000000000000000000005FF808F1A3
:10010C0010B5054C237833B9044B13B10448AFF345
:10011C0000800123237010BD680200200000000045
:10012C00C85C000808B5034B1BB103490348AFF387
:10013C00008008BD000000006C020020C85C0008B4
:10014C00034613F8012B002AFBD1181A013870470B
:10015C00D0400B1CD1409C46203AD340184352420D
:10016C00634693401843704780F0004002E000BFA4
:10017C0081F0004142001FBF5FEA410392EA030F86
:10018C007FEA226C7FEA236C6AD04FEA1262D2EBD0
:10019C001363C1BFD218414048404140B8BF5B42D5
:1001AC00192B88BF704710F0004F40F4000020F06E
:1001BC007F4018BF404211F0004F41F4000121F084
:1001CC007F4118BF494292EA030F3FD0A2F10102CE
:1001DC0041FA03FC10EB0C00C3F1200301FA03F10C
:1001EC0000F0004302D5494260EB4000B0F5000F2F
:1001FC0013D3B0F1807F06D340084FEA310102F1EE
:10020C000102FE2A51D2B1F1004F40EBC25008BF9F
:10021C0020F0010040EA03007047490040EB000069
:10022C0010F4000FA2F10102EDD1B0FA80FCACF198
:10023C00080CB2EB0C0200FA0CF0AABF00EBC25097
:10024C0052421843BCBFD0401843704792F0000F85
:10025C0081F4000106BF80F400000132013BB5E7D8
:10026C004FEA41037FEA226C18BF7FEA236C21D04E
:10027C0092EA030F04D092F0000F08BF08467047B3
:10028C0090EA010F1CBF0020704712F07F4F04D181
:10029C00400028BF40F00040704712F100723CBF94
:1002AC0000F50000704700F0004343F0FE4040F4BE
:1002BC00000070477FEA226216BF08467FEA23637C
:1002CC000146420206BF5FEA412390EA010F40F467
:1002DC00800070474FF0000304E000BF10F00043B3
:1002EC0048BF40425FEA000C08BF704743F096439A
:1002FC0001464FF000001CE050EA010208BF7047B5
:10030C004FF000030AE000BF50EA010208BF70473B
:10031C0011F0004302D5404261EB41015FEA010C50
:10032C0002BF84460146002043F0B64308BFA3F148
:10033C008053A3F50003BCFA8CF2083AA3EBC2532A
:10034C0010DB01FA02FC634400FA02FCC2F1200249
:10035C00BCF1004F20FA02F243EB020008BF20F080
:10036C000100704702F1200201FA02FCC2F12002E6
:10037C0050EA4C0021FA02F243EB020008BF20EADB
:10038C00DC7070474FF0FF0C1CEAD0521EBF1CEA09
:10039C00D15392EA0C0F93EA0C0F6FD01A4480EAF7
:1003AC00010C400218BF5FEA41211ED04FF00063E0
:1003BC0043EA501043EA5111A0FB01310CF000400C
:1003CC00B1F5000F3EBF490041EAD3715B0040EA32
:1003DC00010062F17F02FD2A1DD8B3F1004F40EB02
:1003EC00C25008BF20F00100704790F0000F0CF0D5
:1003FC00004C08BF49024CEA502040EA51207F3A99
:10040C00C2BFD2F1FF0340EAC250704740F4000073
:10041C004FF00003013A5DDC12F1190FDCBF00F064
:10042C0000407047C2F10002410021FA02F1C2F112
:10043C00200200FA02FC5FEA310040F1000053EAAE
:10044C004C0308BF20EADC70704792F0000F00F0FC
:10045C00004C02BF400010F4000F013AF9D040EA02
:10046C000C0093F0000F01F0004C02BF490011F496
:10047C00000F013BF9D041EA0C018FE70CEAD15394
:10048C0092EA0C0F18BF93EA0C0F0AD030F0004C14
:10049C0018BF31F0004CD8D180EA010000F00040C8
:1004AC00704790F0000F17BF90F0004F084691F086
:1004BC00000F91F0004F14D092EA0C0F01D14202C0
:1004CC000FD193EA0C0F03D14B0218BF084608D189
:1004DC0080EA010000F0004040F0FE4040F40000D3
:1004EC00704740F0FE4040F4400070474FF0FF0C66
:1004FC001CEAD0521EBF1CEAD15392EA0C0F93EAAD
:10050C000C0F69D0A2EB030280EA010C49024FEAFE
:10051C00402037D04FF0805343EA111143EA1013B7
:10052C000CF000408B4238BF5B0042F17D024FF46F
:10053C00000C8B4224BF5B1A40EA0C00B3EB510F4A
:10054C0024BFA3EB510340EA5C00B3EB910F24BF33
:10055C00A3EB910340EA9C00B3EBD10F24BFA3EBB8
:10056C00D10340EADC001B0118BF5FEA1C1CE0D180
:10057C00FD2A3FF650AF8B4240EBC25008BF20F033
:10058C00010070470CF0004C4CEA50207F32C2BF87
:10059C00D2F1FF0340EAC250704740F400004FF024
:1005AC000003013A37E792F0000F00F0004C02BF55
:1005BC00400010F4000F013AF9D040EA0C0093F01F
:1005CC00000F01F0004C02BF490011F4000F013B79
:1005DC00F9D041EA0C0195E70CEAD15392EA0C0FE1
:1005EC0008D142027FF47DAF93EA0C0F7FF470AF19
:1005FC00084676E793EA0C0F04D14B023FF44CAF5C
:10060C0008466EE730F0004C18BF31F0004CCAD1F0
:10061C0030F000427FF45CAF31F000437FF43CAF2C
:10062C005FE700BF4FEA4002B2F1FE4F0FD34FF02D
:10063C009E03B3EB12620DD94FEA002343F0004343
:10064C0010F0004F23FA02F018BF404270474FF0F1
:10065C000000704712F1610F01D1420205D110F078
:10066C00004008BF6FF0004070474FF0000070472B
:10067C0038B50E4B054618784FF47A73B3FBF0F38C
:10068C000B4A1068B0FBF3F000F0CEFA044658B9F0
:10069C000F2D09D8024629464FF0FF3000F082FAA0
:1006AC00044B20461D6038BD012038BD00000020E1
:1006BC007400002004000020074A08B513680320CA
:1006CC0043F01003136000F05BFA0020FFF7D0FF3B
:1006DC0004F080F9002008BD00200240034A044BBE
:1006EC0011681B780B441360704700BFDC070020B7
:1006FC0000000020014B1868704700BFDC07002089
:10070C000368D86C70477047036810B55A68044684
:10071C00900627D51A68910724D5A26AD2065EBF27
:10072C00A26A42F40072A2629A6802F46022B2F5E4
:10073C00602F10D1227B72B95A6822F020025A60C5
:10074C00A36A23F48073A362A36ADB045EBFA36A6B
:10075C0043F00103A362204604F0CEFA6FF01202BC
:10076C0023681A6023685A68100630D51A68510736
:10077C002DD5A26AD2065EBFA26A42F40052A262D2
:10078C009A6802F4E042B2F5E04F0AD05A6850057C
:10079C0016D49A6802F46022B2F5602F10D1227B35
:1007AC0072B95A6822F080025A60A36A23F480530B
:1007BC00A362A36AD9055EBFA36A43F00103A362D7
:1007CC00204600F0DBF96FF00C0223681A602368F6
:1007DC005A6852060DD51B68DB070AD5A36A20465A
:1007EC0043F48033A362FFF78EFF6FF0010223689E
:1007FC001A6010BD002373B5019390F82430012BBF
:10080C0074D001234D6880F82430062D02684FEA1D
:10081C0085030C6825D82B441F25566B053B9D4042
:10082C0026EA050504FA03F32B435363092C4FEA1C
:10083C0044038D682FD907262344D1681E3B9E4064
:10084C0021EA060105FA03F30B43D360A4F110036C
:10085C00012B2BD90023002280F82420184602B04B
:10086C0070BD0C2D0BD82B441F25166B233B9D40C4
:10087C0026EA050504FA03F32B431363D6E72B444E
:10088C001F25D66A413B9D4026EA050504FA03F371
:10089C002B43D362CAE70726116923449E4021EA01
:1008AC00060105FA03F30B431361CFE7104B9A4291
:1008BC0016D193681B02CDD49368102C43F400031B
:1008CC009360C7D10B4B0C4A1B68B3FBF2F20A23A3
:1008DC0053430193019B002BBCD0019B013BF8E7D8
:1008EC00836A43F0200383620123B4E70223B5E754
:1008FC00002401407400002040420F00002373B517
:10090C000193036804469A68D20702D5002002B00E
:10091C0070BD9A6842F001029A60124B124A1B6831
:10092C00B3FBF2F30193019BC3B9FFF7E3FE064659
:10093C0023689D6815F00105E8D1FFF7DBFE801BED
:10094C000228F5D9A36A84F8245043F01003A3625B
:10095C00E36A012043F00103E362D8E7019B013B0A
:10096C00E0E700BF7400002040420F0090F82430F4
:10097C0010B5012B044658D0012380F82430FFF722
:10098C00BDFF00284DD1A36A294A23F4706323F0DC
:10099C00010343F48073A3622368934204D1254975
:1009AC004A6812F4702F32D1A26A22F48012A26229
:1009BC005A68520541BFA26A22F4405242F4805256
:1009CC00A262A26A12F480521CBFE26A22F00602F2
:1009DC00E262002284F824206FF002021A605A6846
:1009EC0042F020025A609A6802F46022B2F5602F3D
:1009FC0013D10F4A934205D1A2F58062526812F4CA
:100A0C00702F0AD19A6842F4A0029A6010BDA26AB3
:100A1C0042F48012A2624A68CBE79A6842F48012D0
:100A2C00F3E7002384F8243010BD022010BD00BF72
:100A3C00002801400024014038B5036804469A6838
:100A4C00D20701D4002038BD9A6822F001029A60C6
:100A5C00FFF750FE054623689B68DB07F2D5FFF7CE
:100A6C0049FE401B0228F6D9A36A012043F010036B
:100A7C00A362E36A43F00103E36238BD70B5044638
:100A8C00002871D0836A23B9C36280F8243003F044
:100A9C00C3FF2046FFF7D0FFA36A13F0100FA36A21
:100AAC0064D1002862D1E16923F48853626823F091
:100ABC00020343F002030A43A168A362237BB1F54E
:100ACC00807F42EA430238D0012914BF06464FF416
:100ADC008076257D012D07D1002B30D1A369013BF8
:100AEC0046EA433545F400662368B1F5807F5D68BE
:100AFC0025F4694545EA06055D609E681D4D05EACD
:100B0C00060545EA02059D6001D0012920D1216925
:100B1C0001390905DD6A25F470052943D962996804
:100B2C00154B0B409A4215D10023E362A36A23F0C4
:100B3C00030343F00103A36270BD0E46C9E7A36A29
:100B4C0043F02003A362E36A43F00103E362CBE7C3
:100B5C000021DFE7A36A23F0120343F01003A36222
:100B6C00E36A43F00103E362012070BD43F010031C
:100B7C00A362F9E7FDF7E1FFFE0E1FFF70470000CF
:100B8C00074A0002D36800F4E06023F4E0631B041E
:100B9C001B0C43F0BF6343F400330343D360704733
:100BAC0000ED00E0174B30B5DC68C4F30224C4F14F
:100BBC000703251D042B28BF0423062D4FF0010528
:100BCC0098BF002405FA03F303F1FF3388BF033CFD
:100BDC001940A14005FA04F4013C2240002842EAE5
:100BEC0001024FEA0212A9BF00F16040064BD2B2DB
:100BFC0000F56140BBBF00F00F00D2B280F80023BB
:100C0C001A5430BD00ED00E014ED00E0002808DBC4
:100C1C000123420900F01F0003FA00F0014B43F8D6
:100C2C002200704700E100E00138B0F1807F0AD269
:100C3C00F021064B064A586082F823100020072248
:100C4C0098601A6070470120704700BF10E000E008
:100C5C0000ED00E090F8213010B5022B03D00423F6
:100C6C008363012010BD03681A6822F00E021A601B
:100C7C001A6822F001021A60184A93421FD01432EB
:100C8C0093421ED0143293421DD0143293421DD085
:100C9C00143293421DD0143293420CBF4FF4801384
:100CAC004FF080730E4A00245360012380F82130EA
:100CBC00436B80F820407BB19847204610BD012340
:100CCC00F0E71023EEE74FF48073EBE74FF480531B
:100CDC00E8E74FF48033E5E7184610BD0800024002
:100CEC0000000240114AD36813F0100305D01049DC
:100CFC00CB6943F00203CB611023D268500706D5B1
:100D0C000B4943F00403CA6942F00102CA61074A65
:100D1C00D169C90708D50648C16941F00401C16110
:100D2C00D16921F00101D161D360704700200240EC
:100D3C00E0070020064B186910F0800007D0054A28
:100D4C005A6002F188325A601869C0F3C0107047BB
:100D5C000020024023016745034A0020136943F039
:100D6C0080031361704700BF00200240F8B50646AF
:100D7C00FFF7C0FC114C07462546E368D80712D490
:100D8C00E368990644BF2023E360EB68DA0606D4D7
:100D9C00EB69DB0703D4E86810F0040002D0FFF71E
:100DAC00A1FF0120F8BD731CE7D00EB90320F8BDDC
:100DBC00FFF7A0FCC01B8642DFD2F7E70020024001
:100DCC002DE9F84F1F4C9946237E0546012B0F4603
:100DDC00904633D001234CF250302376FFF7C6FFF8
:100DEC0040BB012D03D0022D0CBF0225042500268B
:100DFC00B246DFF854B0320140464946FFF7A8F935
:100E0C00C4F81CA0DBF8103080B243F00103CBF81F
:100E1C00103027F816004CF25030FFF7A7FFDBF824
:100E2C00103023F00103CBF8103018B90136F3B2AF
:100E3C009D42E0D800232376BDE8F88F0220BDE860
:100E4C00F88F00BFE0070020002002400022064B74
:100E5C00DA61064B1A6942F004021A611A6942F00F
:100E6C0040021A61704700BFE007002000200240DA
:100E7C000022064BDA61064B1A6942F002021A6133
:100E8C0058611A6942F040021A617047E00700206D
:100E9C00002002402DE9F041234D07462B7E884669
:100EAC00012B3DD0012403682C76022B4CF25030E0
:100EBC0013D1FFF75BFF20B1012000232B76BDE897
:100ECC00F081FFF7C3FF4CF25030FFF74FFF174A8A
:100EDC00136923F004031361EFE7FFF747FF0028C2
:100EEC00EAD14FF0FF33C8F800302046BE680F4CF3
:100EFC00FA68BB6803EB82239E42DED23046FFF7D2
:100F0C00B7FF4CF25030FFF731FF236923F0020397
:100F1C00236110B1C8F80060CFE706F58066E7E7FB
:100F2C000220BDE8F08100BFE00700200020024055
:100F3C002DE9F74F00242646664BDFF8A8E1DFF8D1
:100F4C00A8C10A6832FA06F502D103B0BDE8F08FE9
:100F5C004FF0010808FA06F802EA080290457FD122
:100F6C004D68122D00F0AA8000F28380022D00F053
:100F7C00A28077D8002D00F08980012D00F0998097
:100F8C004FF00F09FF2A93BF824606F18045083DBA
:100F9C00D0F800B092BFB500D0F804B0AD0009FA9B
:100FAC0005F82BEA080804FA05F588BF00F1040AD5
:100FBC0048EA0505CAF80050D1F804A01AF0805F81
:100FCC004ED0454D444FAD6926F0030845F0010560
:100FDC00BD61BD6908F1804805F00105019508F572
:100FEC00803806F0030B019D4FEA8B0BD8F80850A4
:100FFC0009FA0BF925EA0909384DA84263D005F521
:10100C008065A84261D005F58065A8425FD005F5E2
:10101C008065A8420CBF0325042505FA0BF545EAAB
:10102C000905C8F808501D681AF4803F14BF154311
:10103C0095431D605D681AF4003F14BF154395433A
:10104C005D609D681AF4801F14BF154395439D6025
:10105C00DD681AF4001F14BF2A4325EA0202DA6085
:10106C0001366EE7032D22D0112D89D1CC680434C2
:10107C0086E71B4FBD4209D012D8DFF870904D4562
:10108C0004D009F580394D457FF47AAF8C68C4B132
:10109C00012C0CBFC0F81080C0F8148008246FE736
:1010AC007545F3D06545F1D0DFF84490EBE70024AB
:1010BC0066E7CC6864E7CC68083461E7CC680C342C
:1010CC005EE704245CE70025A7E70125A5E70225D8
:1010DC00A3E700BF000401400010024000080140DB
:1010EC00000021100000311000003210000011101F
:1010FC00000022108368194214BF012000207047A1
:10110C000AB1016170470904FBE790F8282210B579
:10111C00012A04460BD0012280F8282284F82410DE
:10112C00006801F0E2FC002084F8280210BD0220C7
:10113C0010BD70B511F0800F044601F007004FEAA6
:10114C0040151FD0012605F128012544214485F8BE
:10115C0029600A614A78C0B20870CB7002B1C881AC
:10116C00022B04BF00230B7194F82832012B11D0F1
:10117C000123206884F8283201F0D4FA002084F886
:10118C00280270BD002605F594712544214485F88C
:10119C002961DEE7022070BD70B5002601F0070161
:1011AC004D01441984F8281105F594710144C4F8D3
:1011BC003C21C4F84031C4F8446184F829610068CA
:1011CC0001F0B0FC304670BD01F0070170B54D0167
:1011DC00441923640026012384F8281005F1280102
:1011EC000144E263666484F82930006801F09AFCDB
:1011FC00304670BD2DE9F84F0446006801F07BFCC9
:10120C00020400F11082206801F075FC43050FD533
:10121C0022682046B2F8443023F480631B041B0C74
:10122C00A2F8443003F073FE00212046FFF76DFF57
:10123C00206801F060FC470408D52268B2F84430FD
:10124C0023F480431B041B0CA2F84430206801F0EB
:10125C0052FC860408D52268B2F8443023F40053BB
:10126C001B041B0CA2F84430206801F044FCC5049C
:10127C001CD522682046B2F8403023F004031B042E
:10128C001B0CA2F84030B2F8403023F008031B04CA
:10129C001B0CA2F8403003F05DFE2268B2F844301B
:1012AC0023F480531B041B0CA2F84430206801F07B
:1012BC0022FC000526D52068B0F840309BB243F0E4
:1012CC000803A0F84030B0F8443023F400631B044A
:1012DC001B0CA0F84430B0F840309BB243F0040330
:1012EC00A0F8403001F007FCC10408D52268B2F820
:1012FC00443023F480531B041B0CA2F844302046CA
:10130C0003F018FE206801F0F6FB82050BD522686D
:10131C002046B2F8443023F400731B041B0CA2F8D3
:10132C00443003F0F0FD206801F0E5FBC30508D55F
:10133C002268B2F8443023F480731B041B0CA2F80F
:10134C004430BDE8F88FB0F8441089B211F00F06A4
:10135C0040F0B780038811F010019BB22CD103EA46
:10136C00090343F400430380B0F8503094F828206C
:10137C009BB203EBC20300EB4300B0F80434E26B06
:10138C00C3F3090363641344E363204603F0B4FD21
:10139C0094F8243053B1226C42B994F8243021686B
:1013AC0043F08003A1F84C3084F824202068B0F876
:1013BC0044301B04C7D426E713F4006521D0B0F8E1
:1013CC00503094F828219BB203EBC20300EB43038B
:1013DC00B3F80C34B4F82E21C3F30903C4F8443128
:1013EC0004F50C7101F086FC22682046138823F06A
:1013FC0070031B051B0D43F08003138003F06EFD7F
:10140C00D4E71F04D2D5038823F070031B051B0DF2
:10141C0043F080030380B0F8503094F828219BB23D
:10142C0003EBC20300EB4303B3F80C34C3F309031F
:10143C00C4F844318BB1D4F83C1171B1B4F82E21FD
:10144C0001F058FCD4F83C31D4F84421294613441B
:10145C00C4F83C31204603F047FD2168D4F83851DC
:10146C00B1F8503001F20C409BB2CDB9C25A22F403
:10147C00F8421204120CC252C25A92B242F4004206
:10148C00C2520B8823F4804323F070031B041B0C03
:10149C0083F4405343F4004343F080030B8085E70F
:1014AC003E2D06D86A08EE0748BF0132920292B26E
:1014BC00E6E76A09ED0608BF02F1FF324AEA82222A
:1014CC00F5E730F826801FFA88F818F4004F3DD065
:1014DC0030F82630770123F070031B051B0D43F009
:1014EC00800320F82630E11991F83431002B58D1C3
:1014FC00B0F8503091F828219BB2063303EBC203AD
:10150C0000EB4303B3F80054C5F3090535B1B1F84A
:10151C002E212B46D1F83C1101F0ECFBE119D1F84E
:10152C004431D1F83C212B44C1F84431D1F840313D
:10153C002A44C1F83C211BB1D1F83801854269D24B
:10154C00274497F82811204603F0CEFC18F0800FA2
:10155C003FF42CAF2168204631F8262092B202EAE3
:10156C00090242F4004221F82620B1F8503004EB75
:10157C00461696F828209BB2023303EBC20301EB0C
:10158C004303B3F80024F36BC2F3090272641A44E8
:10159C00336CF26396F82810002B41D103F0ACFCAD
:1015AC0004E791F8283130F82320DB0012F4804F47
:1015BC00B0F8502092B21FD00232134400EB430318
:1015CC00B3F80054C5F3090535B12B46B1F83021F9
:1015DC00D1F83C1101F08EFBE31993F82811226825
:1015EC0032F821309BB203EA0B0343F4004343F07F
:1015FC00C00322F8213091E70632134400EB430379
:10160C00B3F80054C5F30905002DE5D02B46B1F80D
:10161C003221DDE791F828112046FFF7BDFD95E753
:10162C00FFF7D2FDC2E6DFF80C90DFF80CA0DFF874
:10163C000CB0BBE60F8FFFFF0080FFFF8F8FFFFF0B
:10164C0038B5436801F007059D42044628D80B06BF
:10165C001DD501226B0103F128010344014483F8D9
:10166C00292001230D708B7094F828229A4219D0EE
:10167C0084F82832206801F0CDF925B904F50C71F5
:10168C00206801F03CFA002084F8280238BD0022C2
:10169C004B0103F594710344014483F82921E0E7DD
:1016AC00012038BD022038BD38B5436801F00F0267
:1016BC009A42044626D801F0070311F0800F4FEA36
:1016CC00431217D002F1280101440244012082F890
:1016DC00290000250B708D7094F82832012B13D043
:1016EC000123206884F8283201F0B4F984F82852D8
:1016FC00284638BD02F5947101440244002082F85A
:10170C002901E6E7012038BD022038BD2DE9F3415F
:10171C00054608B901203CE00368DB0710D42B68B0
:10172C009F075DD42B68190700F194802B685A072A
:10173C0000F1BE80E869002840F02C81002028E0F0
:10174C008F4C636803F00C03042B07D0636803F021
:10175C000C03082B09D16368DE0306D523689C03B0
:10176C00DDD56B68002BDAD1D4E76B68B3F5803F1D
:10177C0012D1236843F480332360FEF7BBFF064687
:10178C0023689803CBD4FEF7B5FF801B6428F7D9E8
:10179C00032002B0BDE8F0819BB9236823F48033A9
:1017AC002360236823F480232360FEF7A3FF0646FF
:1017BC0023689903B3D5FEF79DFF801B6428F7D9E6
:1017CC00E6E7B3F5A02F236803D143F4802323600D
:1017DC00CFE723F480332360236823F48023CBE703
:1017EC00674C636813F00C0F07D0636803F00C03AD
:1017FC00082B10D16368DA030DD423689B0702D53C
:10180C002B69012B86D123686A6923F0F80343EA1C
:10181C00C203236086E72A695A4B6AB101221A6017
:10182C00FEF768FF064623689F07ECD4FEF762FFBD
:10183C00801B0228F7D9ABE71A60FEF75BFF064660
:10184C00236898077FF56EAFFEF754FF801B0228C4
:10185C00F6D99DE7AA694A4C4B4BDAB101221A60C2
:10186C00FEF748FF0646636A9B070DD54FF4FA5204
:10187C00464B1B68B3FBF2F3019300BF019B5A1E4E
:10188C000192002BF9D151E7FEF734FF801B02289F
:10189C00E9D97DE71A60FEF72DFF0646636A9F07BC
:1018AC007FF544AFFEF726FF801B0228F6D96FE7C1
:1018BC00334CE369D80024D40127E36943F0805307
:1018CC00E361E36903F080530093009B304E33686F
:1018DC00D90518D5EB68012B26D1236A43F00103F7
:1018EC002362FEF707FF41F288368046236A9B0786
:1018FC003FD5002F3FF41EAFE36923F08053E36123
:10190C0018E70027E2E7336843F480733360FEF78F
:10191C00F1FE80463368DA05DCD4FEF7EBFEA0EB73
:10192C0008006428F6D933E7ABB9236A41F288384A
:10193C0023F001032362236A23F004032362FEF7DE
:10194C00D9FE0646236A9807D3D5FEF7D3FE801B33
:10195C004045F7D91CE7052B236A03D143F0040358
:10196C002362BAE723F001032362236A23F0040302
:10197C00B6E7FEF7BFFEA0EB0800B042B6D907E70A
:10198C0000100240000042428004424274000020D9
:10199C00007000402A4B5A681C4602F00C02082AC0
:1019AC003DD00023274E022833602BD1FEF7A2FE38
:1019BC000746236899011FD42B6AB3F5803F05D1E4
:1019CC006268A96822F400320A436260696A62683C
:1019DC000B4322F474121343636001233360FEF74C
:1019EC0089FE054623689A013FF5A8AEFEF782FEF4
:1019FC00401B0228F6D9CBE6FEF77CFEC01B022862
:101A0C00D7D9C5E6FEF776FE054623689B017FF520
:101A1C0095AEFEF76FFE401B0228F6D9B8E60128FA
:101A2C003FF4B7AE58682B6A00F480329A427FF4C8
:101A3C0071AE6B6A00F47010C01A18BF0120A8E6D2
:101A4C00001002406000424230B5194B87B002AC26
:101A5C0003F11005224618685968083303C2AB42DB
:101A6C001446F7D101238DF80430022311498DF867
:101A7C0005304B6803F00C02082A17D1C3F38342DC
:101A8C0006A80244DB0312F8102C0CD54B680A484C
:101A9C00C3F34043504306AA134413F8143CB0FB61
:101AAC00F3F007B030BD05485043FAE70248F8E7B9
:101ABC00E05C00080010024000127A0000093D00B2
:101ACC002DE9F0410D46044610B90120BDE8F08126
:101ADC00454A136803F007038B4229D321688E070C
:101AEC0031D4CA0744D4404A136803F007039D421B
:101AFC0067D322683D4D12F0040F6ED1130706D543
:101B0C006B68226923F4605343EAC2036B60FFF7EE
:101B1C009BFF6B68364AC3F30313D35CD840354B39
:101B2C001860354B1868FEF7A3FD0020BDE8F08166
:101B3C00136823F007030B431360136803F00703C8
:101B4C009942C2D1CAE7294B11F0040F1EBF5A6843
:101B5C0042F4E0625A60080742BF5A6842F460528D
:101B6C005A605A68A06822F0F00202435A60B8E743
:101B7C0062681E4E012A33681BD113F4003FA4D0B7
:101B8C00736841F2883823F0030313437360FEF744
:101B9C00B1FD07467368626803F00C03B3EB820F68
:101BAC00A1D0FEF7A7FDC01B4045F3D90320BDE82B
:101BBC00F081022A02D113F0007FE0E713F0020F4C
:101BCC00DDE7136823F007032B431360136803F05E
:101BDC0007039D427FF479AF8BE76B68E16823F4D0
:101BEC00E0630B436B6089E7002002400010024069
:101BFC005E6400087400002004000020044B054AB9
:101C0C005B68C3F30223D35C034A1068D840704767
:101C1C00001002406E64000874000020044B054A5A
:101C2C005B68C3F3C223D35C034A1068D840704787
:101C3C00001002406E6400087400002003682DE957
:101C4C00F341D907054620D5354CE369DA0032D487
:101C5C000127E36943F08053E361E36903F08053A8
:101C6C000193019B2F4E3368DB0526D5236A13F4B1
:101C7C00407336D1236A6A6823F44073134323629A
:101C8C001FB1E36923F08053E3612868830706D50D
:101C9C00234AA968536823F440430B43536010F064
:101CAC0010001BD01E4AE9685368002023F48003FF
:101CBC000B43536012E00027D4E7336843F480737E
:101CCC003360FEF717FD80463368D805CED4FEF797
:101CDC0011FDA0EB08006428F6D9032002B0BDE882
:101CEC00F0816A6802F440729342C3D001200E4A1C
:101CFC00236A1060002023F4407110602162D90720
:101D0C00B8D5FEF7F7FC41F288380646236A9A07E5
:101D1C00B0D4FEF7EFFC801B4045F7D9DDE700BFE0
:101D2C00001002400070004040044242036A70B54B
:101D3C0023F001030362036A446882690D6822F090
:101D4C0073022A438D6823F002032B430A4DA842E9
:101D5C000BD1CD6823F008032B438E694D6924F415
:101D6C004074354323F004032C43446082614A6879
:101D7C004263036270BD00BF002C0140036A70B562
:101D8C0023F480730362036A4468C2690D6822F00D
:101D9C0073022A438D6823F4007343EA05230B4D29
:101DAC00A8420DD1CD6823F4006343EA05238E6964
:101DBC004D6924F44054354323F4806344EA0514FC
:101DCC004460C2614A68C263036270BD002C01406A
:101DDC00036A30B523F480530362036A4468C26912
:101DEC000D6822F4E64242EA05228D6823F4005382
:101DFC0043EA0533064DA84202BF4D6924F48044E2
:101E0C0044EA85144460C2614A680264036230BDCE
:101E1C00002C01407047022380F83D3003689A681B
:101E2C0002F00702062A1EBF1A6842F001021A606D
:101E3C00012380F83D300020704770471A4A036830
:101E4C0090420AD0B0F1804F07D0A2F59432904264
:101E5C0003D002F58062904215D14A6823F07003DA
:101E6C001343114A90420AD0B0F1804F07D0A2F52B
:101E7C009432904203D002F58062904203D1CA683A
:101E8C0023F4407313434A6923F080031343036024
:101E9C008B68C3620B688362034B984204BF0B6967
:101EAC000363012343617047002C014010B50446C5
:101EBC00A0B190F83D3003F0FF021BB980F83C2034
:101ECC00FFF7A8FF0223206884F83D30211DFFF79F
:101EDC00B5FF0123002084F83D3010BD012010BD5A
:101EEC0010B50446A0B190F83D3003F0FF021BB9C9
:101EFC0080F83C20FFF7A1FF0223206884F83D30D6
:101F0C00211DFFF79BFF0123002084F83D3010BDFD
:101F1C00012010BD036A70B523F010030362036A3D
:101F2C00446882690D6822F4E64242EA05228D6813
:101F3C0023F0200343EA05130B4DA8420DD1CD68C5
:101F4C0023F0800343EA05138E694D6924F4406441
:101F5C00354323F0400344EA8504446082614A68B7
:101F6C008263036270BD00BF002C014038B590F84D
:101F7C003C300446012B4FF0020025D0012384F89D
:101F8C003D0084F83C300C2A18D8DFE802F0071723
:101F9C0017171E1717172F17171740002068FFF772
:101FAC00C5FE236809699A6942F008029A619A6928
:101FBC0022F004029A619A690A439A610123002073
:101FCC0084F83D3084F83C0038BD2068FFF7A2FF50
:101FDC00236809699A6942F400629A619A6922F449
:101FEC0080629A619A6942EA0122E6E72068FFF76B
:101FFC00C5FE23680969DA6942F00802DA61DA6918
:10200C0022F00402DA61DA690A43DA61D6E7206861
:10201C00FFF7DEFE23680969DA6942F40062DA61CF
:10202C00DA6922F48062DA61DA6942EA0122ECE7C9
:10203C0010B584680A4324F47F4442EA0323234303
:10204C00836010BD90F83C3070B5012B04464FF006
:10205C00020019D0012384F83D00206884F83C303C
:10206C00836823F47F4323F0770383600B68402B52
:10207C0065D015D8102B0CD007D853B101230020F4
:10208C0084F83D3084F83C0070BD202B01D0302BFF
:10209C00F4D1826843F0070322F0700213431AE074
:1020AC00602B34D019D8502BE8D14A68CE68016A1D
:1020BC00056A21F00A0125F00105056283690A43CE
:1020CC0023F0F00343EA061383610262836823F072
:1020DC00700343F057038360D0E7702B0CD0B3F53B
:1020EC00005FCBD1CB684A688968FFF7A1FF2268F3
:1020FC00936843F4804308E0CB684A688968FFF72B
:10210C0097FF2268936843F077039360B6E74D68B6
:10211C00CE68016A21F0100101628269036A22F41F
:10212C00704223F0A00343EA051342EA06328261AF
:10213C000362836823F0700343F06703CBE74A68BC
:10214C00CE68016A056A21F00A0125F001050562D5
:10215C0083690A4323F0F00343EA061383610262A6
:10216C00836823F0700343F04703B4E710B50124F0
:10217C00036A01F01F018C4023EA04030362036A23
:10218C008A401A43026210BD10B504460122006851
:10219C00FFF7ECFF2368094A0020934202BF5A6CF8
:1021AC0042F400425A649A6802F00702062A1EBFE3
:1021BC001A6842F001021A6010BD00BF002C0140E9
:1021CC000368DA6822F49072DA605A6922F001022C
:1021DC005A61202380F83A307047000038B5054624
:1021EC000368C1681A69192422F440520A431A611F
:1021FC0082680069D9680243686921F4B05121F002
:10220C000C0102430A43DA605A69A96922F440724C
:10221C000A435A610D4A934214D1FFF7FFFC604305
:10222C006C686422A400B0FBF4F0B0FBF2F402FB87
:10223C0014031B013233B3FBF2F3296803EB0413D1
:10224C008B6038BDFFF7DAFCE9E700BF00380140CE
:10225C00F8B504460E4617461D4621680B6836EA4B
:10226C00030301D10020F8BD6B1CF7D095B923688E
:10227C000320DA6822F4D072DA605A6922F0010283
:10228C005A61202384F8393084F83A30002384F8DA
:10229C003830F8BDFEF72EFAC01B8542DDD2E6E7DA
:1022AC0010B5044640B390F8393003F0FF021BB967
:1022BC0080F8382002F000FC2423226884F839309E
:1022CC00D368204623F40053D360FFF787FF2368BD
:1022DC0000201A6922F490421A615A6922F02A02EB
:1022EC005A61DA6842F40052DA602023E06384F821
:1022FC00393084F83A3010BD012010BD10B50446B9
:10230C0060B390F8393003F0FF021BB980F8382025
:10231C0002F0D2FB2423226884F83930D36820469B
:10232C0023F40053D360FFF759FF236800201A6988
:10233C0022F490421A615A6922F022025A615A69B7
:10234C0042F008025A61DA6842F40052DA60202343
:10235C00E06384F8393084F83A3010BD012010BDA8
:10236C002DE9F0411F4690F839300446202B0D46DC
:10237C0090464ED1002949D0002A47D090F83830E9
:10238C00012B46D0012380F838300023C36321236E
:10239C0080F83930FEF7AEF90646A4F82480A4F88C
:1023AC002680E38C9BB26BB93B46324640212046DB
:1023BC00FFF74EFFA8B9202384F8380084F8393091
:1023CC00BDE8F081E38C3246013B9BB2E384A36809
:1023DC008021B3F5805F20463B460ED1FFF738FFD6
:1023EC0010B10320BDE8F0812B882268C3F30803E9
:1023FC005360236943B90235D3E7FFF729FF00285F
:10240C00EFD123682A785A600135CAE70120BDE86C
:10241C00F0810220BDE8F0812DE9F0411F4690F8D3
:10242C003A300446202B0D46904651D100294CD011
:10243C00002A4AD090F83830012B49D0012380F87B
:10244C0038300023C363222380F83A30FEF752F968
:10245C000646A4F82C80A4F82E80E08D80B230B90A
:10246C00202384F8380084F83A30BDE8F081E38DFD
:10247C003246013B9BB2E385A3682021B3F5805F14
:10248C0020463B4612D1FFF7E3FE10B10320BDE816
:10249C00F081236822695B6822B9C3F3080325F82D
:1024AC00023BDAE7DBB225F8013BD6E7FFF7D0FEBB
:1024BC000028EBD1236821696A1C5B6811B92B7069
:1024CC001546CAE703F07F03F9E70120BDE8F08168
:1024DC000220BDE8F08190F83A30202B20D1E9B1F0
:1024EC00E2B190F83830012B1AD0C28582850023D6
:1024FC002222C36380F83A2002688162D16880F896
:10250C00383041F48071D1605169184641F00101B5
:10251C005161D16841F02001D160704701207047B2
:10252C0002207047704790F83A3010B5222B36D104
:10253C0083680169B3F5805F0268836A23D15268AE
:10254C00E9B9C2F3080223F8022B8362C48D013C63
:10255C00A4B2C4858CB90368DA6822F02002DA6070
:10256C00DA6822F48072DA605A6922F001025A6148
:10257C00202380F83A3000F09DFF002010BDD2B22D
:10258C0023F8012BE1E721B9591C526881621A70BA
:10259C00DCE75268591C816202F07F02F7E70220E7
:1025AC0010BD7047036870B51A6804461607D968E1
:1025BC005D6907D196065AD58D0658D5BDE8704091
:1025CC00FFF7B1BF15F0010502D111F4907F4ED089
:1025DC00D30705D5CE0542BFE36B43F00103E3639C
:1025EC00500704D51DB1E36B43F00203E36393077B
:1025FC0004D51DB1E36B43F00403E363160704D564
:10260C001DB1E36B43F00803E363E36B002B66D06F
:10261C00950604D5880602D52046FFF784FF23686B
:10262C0020465D69E26B110702D415F040051AD003
:10263C00FFF7C6FD23685A69520610D55A69606BBC
:10264C0022F040025A6150B1254B4363FEF702FB66
:10265C00002844D0606BBDE87040436B184720469F
:10266C00FFF79FFF70BDFFF79CFFE56370BD16067B
:10267C0027D50D0625D594F83920212A2FD1A2680B
:10268C00B2F5805F226A17D11188C1F30801596035
:10269C00216979B902322262E28C013A92B2E28467
:1026AC00EAB9DA6822F08002DA60DA6842F04002B5
:1026BC00DA6070BD0132EEE7511C216212785A606B
:1026CC00EAE750060BD54A0609D5DA68204622F00F
:1026DC004002DA60202384F83930FFF723FF70BD05
:1026EC00F126000808B50023406AC385C384FFF7B0
:1026FC0058FF08BD90F83830012B11D02423026804
:10270C0080F83930D36823F00C0343F00403D36012
:10271C00202380F83930002380F838301846704771
:10272C0002207047F0B50D78034630F82520C878A4
:10273C0022F4EC4222F070021204120C03284ED840
:10274C00DFE800F0024A044742F40072002048F22D
:10275C008004224323F825200E78AB4D33F8262035
:10276C00344392B22A40224323F826200C7B0A7869
:10277C00002C40F088804E78CC8896B3B3F850602B
:10278C0003EB021224F00104B6B202F58062A4B28B
:10279C0094530C7833F82420560609D533F82420AA
:1027AC0092B22A4042F4004242F0C00223F82420A4
:1027BC00CA780978012A33F82120944C92B202EAA3
:1027CC00040201D082F0200242F4004242F0800266
:1027DC00CBE042F4C062B9E742F48062B6E7012074
:1027EC00B5E7B3F8505003EB021224F00104ADB27C
:1027FC0002F58162A4B254530A78B3F850600D69A3
:10280C0003EB0212B6B202F20C425DBB945B24F4F1
:10281C00F8442404240C9453945B6FEA44446FEA08
:10282C005444A4B294530C7833F8242055040DD599
:10283C0033F8242022F4E04222F070021204120C2D
:10284C0042F4404242F0800223F82420097833F805
:10285C00212022F4804222F070021204120C82F425
:10286C004052B1E73E2D05D86C08ED0748BF013446
:10287C00A402D6E76F09EC06654C08BF07F1FF37D9
:10288C0044EA8724CDE733F82240A4B22C4044F428
:10289C00014444F0800423F822400A780C89B3F8F0
:1028AC00506003EB021224F00104B6B202F5806210
:1028BC00A4B294530A784C89B3F8506003EB02121B
:1028CC0024F0010402F58162A4B2B6B294534A78A2
:1028DC000C78002A4CD133F82420520409D533F853
:1028EC00242092B22A4042F4404242F0800223F863
:1028FC0024200C7833F8242057060DD533F82420E7
:10290C0022F4E04222F070021204120C42F4004253
:10291C0042F0C00223F824200C7833F8242022F44F
:10292C00E04222F070021204120C42F4004242F017
:10293C00C00223F8242048F280040D7833F82520B7
:10294C0022F4804222F070021204120C82F44052E3
:10295C00224323F82520097833F8212022F4E04281
:10296C0022F040021204120C224323F82120F0BD65
:10297C0033F82420560409D533F8242092B22A4087
:10298C0042F4404242F0800223F824200C7833F8C1
:10299C00242052060DD533F8242022F4E04222F0F4
:1029AC0070021204120C42F4004242F0C00223F8EE
:1029BC0024200C78154D33F8242022F4E04222F028
:1029CC0070021204120C42F4404242F0800223F8CE
:1029DC002420CA780C78012A33F8242092B202EA17
:1029EC00050218BF82F0200242F4004242F080023D
:1029FC0023F82420097833F8212022F4804222F095
:102A0C0070021204120CDFE68F8FFFFFBF8FFFFFE7
:102A1C000080FFFF4B780A788BB130F8223023F41A
:102A2C00E04323F040031B041B0C83F0100343F41E
:102A3C00004343F0800320F822300020704730F828
:102A4C00223023F4804323F070031B041B0C83F40B
:102A5C008053ECE70B7B43BB4B780A783BB330F8E5
:102A6C0022305B060DD530F8223023F4E04323F0FE
:102A7C0070031B041B0C43F4004343F0C00320F809
:102A8C002230CB78012B10D00A7830F8223023F486
:102A9C00E04323F040031B041B0C83F0200343F49E
:102AAC00004343F0800320F822300020704730F8B8
:102ABC0022305B040DD530F8223023F4E04323F0B0
:102ACC0070031B041B0C43F4404343F0800320F8B9
:102ADC0022300A7830F8223023F4804323F070033C
:102AEC001B041B0C83F44053D9E711B98023A0F8C5
:102AFC004C3000207047B0F8440080B27047002082
:102B0C00704700EB4202013302F580625B0802EB76
:102B1C0083039A4200D1704731F8020B22F8040B60
:102B2C00F7E7000070B50D46497804460129AA69FB
:102B3C002B69287B66D19A429DBF0023AB6113465B
:102B4C00D21A88BFAA619EB208BB3346EA8869696B
:102B5C002046FFF7D6FFB4F850302A7899B204F229
:102B6C00044312010B44D6522A7834F8223023F451
:102B7C00E04323F040031B041B0C83F0300343F4AD
:102B8C00004343F0800324F82230002070BD2B78E2
:102B9C00204634F823201B0112F0400FB4F85020CB
:102BAC0091B215BF04F20C4204F2044252185218AE
:102BBC0015BFD652D6526A892A8933466969FFF7FE
:102BCC00A0FF6B782A7873B934F8223023F4E043F1
:102BDC0023F070031B041B0C43F4004343F0C003AD
:102BEC0024F82230C0E7012BBED134F8223023F474
:102BFC00E04323F070031B041B0C43F4404343F0ED
:102C0C008003EDE79A4293BF0023D21AAA61AB610D
:102C1C0098BF13462A78B0B9B4F85000120181B2AB
:102C2C0004F20C400844002B44D1835A23F4F8439B
:102C3C001B041B0C8352835A6FEA43436FEA5343C2
:102C4C009BB283523FE0A1B9B4F85000120181B29B
:102C5C0004F204400844E3B9815A21F4F841090410
:102C6C00090C8152815A6FEA41416FEA514189B294
:102C7C00815269782A780029CED0012923D1B4F861
:102C8C005010120188B204F20C4101449BB28B52D9
:102C9C0019E03E2B05D85908DE0748BF01318902DF
:102CAC00E5E75E09D906124908BF06F1FF3641EA8D
:102CBC008621DCE73E2B12D85908DE0748BF0131CC
:102CCC00890289B281522A7834F8223023F4804365
:102CDC0023F070031B041B0C83F440534FE759097A
:102CEC00DB06034B08BF01F1FF3143EA8123A7E761
:102CFC000080FFFF00EB4202F0B502F580625D0838
:102D0C00084617462E46023036B9DB0744BF32F868
:102D1C00253001F81530F0BD37F8044B013EA4B254
:102D2C0000F8024C240A00F8014CECE708B5D0F886
:102D3C00B4320BB9022008BD1B6898470028F9D1A2
:102D4C0008BD08B5D0F8B4325B689847002008BDC0
:102D5C0038B500F52A750446284600F0E1FA01233F
:102D6C0094F8A812C4F89432B4F8AE32C4F898327D
:102D7C0001F01F03012B0ED007D3022B10D001F052
:102D8C008001204602F0FAF803E02946204600F0C4
:102D9C00F5F8002038BD2946204600F013FAF8E774
:102DAC002946204600F033FAF3E770B5054616467F
:102DBC0049BBD0F89432032B1ED1D0F86031D0F837
:102DCC00642193420BD99B1A9A42C0F860318CBF94
:102DDC009AB292B2314600F0CCFA002070BDD0F815
:102DEC00B4321B6923B190F89C22032A00D1984776
:102DFC00284600F0C6FAF0E7052BEED1C5F8941280
:102E0C0002F0BCF8E9E7D0F8B4329B692BB190F82A
:102E1C009C22032A01D19847DFE7022070BD70B5D0
:102E2C00134604460E46002947D1D0F89422022AB4
:102E3C003CD1056A426A954213D9AA1A0262194614
:102E4C0092B200F08EFA33461A461946204602F02A
:102E5C00DDF894F8A0320020012B3AD184F8A002BE
:102E6C0070BDC369B3FBF2F502FB153565B99A4227
:102E7C000AD8D0F89822934206D22A4600F071FA6A
:102E8C00C4F898522B46DFE7D4F8B432DB682BB188
:102E9C0094F89C22032A01D1204698478021204691
:102EAC0002F06CF8204600F077FAD2E732F0040317
:102EBC00CFD1802102F062F8CBE7D0F8B4325B6955
:102ECC0033B190F89C22032A02D19847002070BDA0
:102EDC00022070BD002270B5044601254026114623
:102EEC00402302F03BF833468021C4F85851C4F813
:102EFC0064610022204602F031F80021D4F8B83287
:102F0C00A561666284F89C52C4F894126160C4F89E
:102F1C00A41223B1D4F8B43220465B689847002041
:102F2C0070BD01740020704790F89C3280F89D327F
:102F3C00042380F89C320020704790F89C32042BBC
:102F4C0004BF90F89D3280F89C320020704708B581
:102F5C0090F89C22032A04D1D0F8B432DB6903B177
:102F6C009847002008BD10B50446802102F006F8F1
:102F7C002046BDE81040002102F000B837B50B78B0
:102F8C00044603F06003202B0D4612D0402B10D0CA
:102F9C00002B5CD14B78092B58D8DFE813F0E900F3
:102FAC0005015700FE005700840013005700D200A3
:102FBC00A000D4F8B43229469B68204698470020DC
:102FCC0003B030BD0023ADF806304B881A0A013A25
:102FDC00062A3BD8DFE802F004202D3A3A525C0076
:102FEC00D0F8B0321B680DF10601207C9847BDF873
:102FFC00062052B1EB8843B19A4228BF1A460146CB
:10300C002046ADF8062000F09FF9EB88002BD6D1B6
:10301C00204600F0B6F9D2E7027CD0F8B43232B9CF
:10302C009B6A0DF10600984702234370DFE7DB6AC9
:10303C00F7E7DBB2052B09D8DFE803F0030C10141B
:10304C00181CD0F8B0325B68002BCCD12046FFF7AF
:10305C008AFFB4E7D0F8B0329B68F5E7D0F8B0320D
:10306C00DB68F1E7D0F8B0321B69EDE7D0F8B0328D
:10307C005B69E9E7D0F8B0329B69E5E7037C002B8C
:10308C00E4D1D0F8B4320DF106005B6B9847AEE793
:10309C00037C002BDAD1D0F8B4320DF106001B6B97
:1030AC0098470723C1E78B88002BCFD1CB88002B07
:1030BC00CCD14D887F2DC9D890F89C32E9B2032B26
:1030CC00C4D080F89E1201F085FF204600F059F91B
:1030DC001DB1022384F89C3271E70123FAE7897849
:1030EC00374D01292970B1D890F89C32022B08D0A9
:1030FC00032B14D0FFF737FF29782046FFF721FE6A
:10310C005DE7002984D001210323416080F89C32C3
:10311C002046FFF70BFE02287FF47AAF96E731B911
:10312C000223416080F89C32FFF70BFE70E7416888
:10313C0001293FF46DAFC9B2FFF703FE2978616036
:10314C00E6E7CA88012A81D190F89C32002B3FF423
:10315C007DAF022B04D9032B7FF478AF011D03E064
:10316C000146002341F8083F204600F0EDF826E721
:10317C0090F89C32013B022B3FF668AFCB88022BB8
:10318C007FF464AF0123C360D0F8A4320BB10323E6
:10319C00C360022204F10C01E6E74B88012B7FF49B
:1031AC000EAFC4F8A43233E790F89C32013B022BEB
:1031BC003FF64CAF4B88012B7FF401AF0023F0E7B7
:1031CC008402002038B50B78044603F06003202BF2
:1031DC000D4602D0402B00D0B3B994F89C32013B81
:1031EC00022B10D82B79012B0DD8D4F8B4322946E8
:1031FC009B6820469847EB881BB910B9204600F015
:10320C00C0F8002038BD2046FFF7ADFEF9E738B511
:10321C000A78044602F06002202A0B4613D0402A9A
:10322C0011D06AB95D788A88012DD1B21FD035D3FF
:10323C00032D05D190F89C22022A26D0032A0AD00D
:10324C00FFF791FE05E0D4F8B422194692682046A7
:10325C009047002038BD5A882AB94A0603D0DB882B
:10326C000BB901F08BFE204600F08BF8F1E790F8DB
:10327C009C22022A09D0032AE2D15B88002BE8D1D8
:10328C004D06F0D001F088FEEDE74B0616D001F0AC
:10329C0075FE8021204601F071FEDAE790F89C3231
:1032AC00022B0DD0032BCBD1142312F0800F01F085
:1032BC000F0203FB020214D09269EAB92046BFE761
:1032CC004906FBD113064FF000034FF002024CBF2E
:1032DC0000F1140100F5AA710B60204600F034F8DF
:1032EC00B7E7D2F85821002AE8D001F07F0503FB9C
:1032FC00050505F5AA7504E001F07F0505FB03350E
:10330C00054411F07F0303D12B6002222946E4E728
:10331C00204601F04FFE08B10123F5E72860F4E7E1
:10332C000B7803704B784370CA788B7803EB0223CD
:10333C0043804A790B7903EB02238380CA798B791A
:10334C0003EB0223C38070471346022210B5C0F86A
:10335C009422C3610A460362002101F049FE002059
:10336C0010BD08B513460A46002101F041FE0020AD
:10337C0008BD08B513460A46002101F047FE00209F
:10338C0008BD08B50423C0F8943200231A46194628
:10339C0001F02EFE002008BD08B50523C0F89432BC
:1033AC0000231A46194601F031FE002008BD00002A
:1033BC00014B1868704700BF88020020014B187839
:1033CC00704700BF85020020014B1868704700BF92
:1033DC009002002038B5084C206808B101F0DCFEE2
:1033EC00064B1D68284601F0CFFE2A4620600021BE
:1033FC00BDE8384001F0D8BE8C02002090020020BD
:10340C000122064B02281960054B1A7014BF0B22BF
:10341C001A22044B1A60FFF7DDBF00BF88020020A0
:10342C008502002090020020044B1B6823B1044A43
:10343C001268824288BF1954704700BF8C0200206A
:10344C0090020020054B1B682BB1054A1268824282
:10345C0001D9185C70470020704700BF8C02002017
:10346C0090020020044B1B68834286BF034B53F829
:10347C0020000020704700BF9002002008000020B0
:10348C0007B50A4803681A68920709D50022019209
:10349C001A68019201225B680193019B044B1A701C
:1034AC00FFF780F803B05DF804FB00BFF80E0020B6
:1034BC00A002002002682E4B73B59A4230D12D4BDE
:1034CC002D4D1B782D4C8DF807302B7863B32C4A7F
:1034DC0013780133DBB2137013782C2B0DD100232E
:1034EC001370284A4FF4005113782748B3FA83F32A
:1034FC005B0913701278FDF703FE002323490B7050
:10350C0023802B709DF8072002F0FF0352B1172B7C
:10351C004FF0010228D00A7016491D48FEF7DBFF58
:10352C0002B070BD1B4A13701A4B1B78B3B91A4DFD
:10353C0023882A689BB2934210D32688FFF744FF56
:10354C002B68B6B21844864208D220882B6880B209
:10355C00C01A9DF807100138FFF766FF2388012277
:10356C0001339BB22380D7E70A4B1A70DCE700BF0C
:10357C000038014094020020A00200209602002096
:10358C0099020020980200200010014070000020D9
:10359C00F80E00209A0200209C02002008B5054875
:1035AC0000228021FDF7ACFDBDE808400248FFF782
:1035BC00A1B800BF000C0140F80E002008B5FFF7C1
:1035CC00F7FE054B1860FFF7E9FFBDE80840012244
:1035DC0002490348FEF77FBF9C02002094020020A2
:1035EC00F80E0020FFF7EABF30B50446A40287B0FE
:1035FC0044F000640D46FDF79DFB01230494002468
:10360C0001A902A8059503930294FDF743FC38B970
:10361C00FDF7A2FB0198431C5842584107B030BD3E
:10362C00FDF79AFB2046F9E701217F20FFF7DCBF6D
:10363C000144B1F5807F0BDD00207047830003F15E
:10364C00006303F5FE331B68013042F8043B80B283
:10365C008142F3DC012070470144B1F5807FF8B55D
:10366C00164602DD00242046F8BDFFF7DDFF0446B8
:10367C000028F7D0FDF75EFB094D0A4F043E56F8C3
:10368C00042F002329460220FDF79AFB10B1FDF709
:10369C0063FBE7E70435BD42F1D1FDF75DFBE2E7E3
:1036AC0000FC010800000208704700002DE9F04101
:1036BC00154B04461B78154E834222D3144DDFF86C
:1036CC005C802B78032B0BD00C22337802FB03830A
:1036DC009F682FB1596800220220B84703232B7032
:1036EC0000270C4B32781F600B4B34701A700C2374
:1036FC0003FB0484A36823B16268394638469847B3
:10370C002F703078BDE8F081A1020020A2020020C9
:10371C00A3020020A4020020A80200200008002020
:10372C002DE9F0411D4E3378B046002B33D00C22DE
:10373C001B4D1C4C02FB03535A781B4F012A0ED114
:10374C0059682268914217D19B6800220220984741
:10375C0003233B70154B1B783370BDE8F081022AB4
:10376C000AD159682268914206D100269B682660CE
:10377C003246304698473E700C2298F8003021684B
:10378C0002FB035301209D685A68A84701233B7034
:10379C00236801332360BDE8F08100BFA202002042
:1037AC0000080020A4020020A3020020A802002090
:1037BC0010B54FF480410848FDF79CFCB0FA80F43A
:1037CC004FF4004104486409FDF794FC08B944F037
:1037DC000204204610BD00BF0010014010B54FF48C
:1037EC0000411F48FDF786FCB0FA80F408211D4803
:1037FC006409FDF77FFC08B944F002041021194854
:10380C00FDF778FC08B944F004044FF480711548B6
:10381C00FDF770FC08B944F008044FF4007111482E
:10382C00FDF768FC08B944F010044FF480510D48C2
:10383C00FDF760FC08B944F020044FF4005109482E
:10384C00FDF758FC08B944F040044FF4804105489A
:10385C00FDF750FC08B944F08004204610BD00BFB1
:10386C0000080140000C014008B520210348FDF779
:10387C0041FCB0FA80F0400908BD00BF00080140CF
:10388C0070B540F23444FF236043B0FBF3F31646AB
:10389C000E4A10885843B0FBF4F0401AFCF71EFD9A
:1038AC0005463046FCF71AFD01462846FCF76AFD32
:1038BC000749FCF71BFEFCF7B5FE00B2A042A8BFFF
:1038CC00204620EAE07080B270BD00BFAA02002042
:1038DC000000C84270B5AF4C0546236800201E7826
:1038EC00FFF7B0FD864200D185B10020FFF7AAFD9D
:1038FC0040F234435843FF23B0FBF3F0A64B25684A
:10390C0018800020FFF79EFD2870012523680120F8
:10391C005E78FFF797FD864200D1ADB10120FFF72D
:10392C0091FD9E49B1F93C30B1F93A20B1F938100A
:10393C00FFF7A6FF00210246084600F0EBFB012032
:10394C002668FFF77FFD7070236802209E78FFF7D2
:10395C0079FD864200D1ADB10220FFF773FD8F498E
:10396C00B1F94230B1F94020B1F93E10FFF788FFB0
:10397C0001210246002000F0CDFB02202668FFF753
:10398C0061FDB07023680320DE78FFF75BFD864293
:10399C0000D1ADB10320FFF755FD8049B1F9483096
:1039AC00B1F94620B1F94410FFF76AFF0221024633
:1039BC00002000F0AFFB03202668FFF743FDF070FA
:1039CC00236804201E79FFF73DFD864200D1ADB17E
:1039DC000420FFF737FD7149B1F93C30B1F93A20B9
:1039EC00B1F93810FFF74CFF00210246012000F01E
:1039FC0091FB04202668FFF725FD30712368052014
:103A0C005E79FFF71FFD864200D1ADB10520FFF7AF
:103A1C0019FD6249B1F94230B1F94020B1F93E10BB
:103A2C00FFF72EFF01210246084600F073FB05202C
:103A3C002668FFF707FD7071236806209E79FFF753
:103A4C0001FD864200D1ADB10620FFF7FBFC5349C6
:103A5C00B1F94830B1F94620B1F94410FFF710FF25
:103A6C0002210246012000F055FB06202668FFF7D4
:103A7C00E9FCB07123680720DE79FFF7E3FC86428E
:103A8C0000D1ADB10720FFF7DDFC4449B1F93C3062
:103A9C00B1F93A20B1F93810FFF7F2FE00210246D5
:103AAC00022000F037FB07202668FFF7CBFCF071F3
:103ABC00236808201E7AFFF7C5FC864200D1ADB101
:103ACC000820FFF7BFFC3549B1F94230B1F940206D
:103ADC00B1F93E10FFF7D4FE01210246022000F09E
:103AEC0019FB08202668FFF7ADFC3072236809200B
:103AFC005E7AFFF7A7FC864200D1ADB10920FFF733
:103B0C00A1FC2649B1F94830B1F94620B1F944106D
:103B1C00FFF7B6FE02210246084600F0FBFA092028
:103B2C002668FFF78FFC707223680A209E7AFFF7D5
:103B3C0089FC864200D18DB10A20FFF783FCDC237F
:103B4C0064220021FFF79CFE03210246022000F0B4
:103B5C00E1FA0A202668FFF775FCB072FFF72EFC1D
:103B6C00022815D123680B20DE7AFFF76BFC864206
:103B7C0000D16DB10B20FFF765FCFFF797FD0146F7
:103B8C000B20FFF751FC0B202468FFF75BFCE07265
:103B9C0070BD00BFAC020020AA020020000E002065
:103BAC0038B50D4C206808B101F0F6FAFFF70CFCA3
:103BBC00013001F0E9FA05462060FFF705FC002111
:103BCC000246284601F0F0FAFF22236801201A7001
:103BDC00BDE83840FFF77EBEAC020020282230B58D
:103BEC0095B00DEB0200002101F0DEFA1422002149
:103BFC000DEB020001F0D8FA0021102201A801F00F
:103C0C00D3FA09230A934FF48033012202250B9334
:103C1C0012934FF4E0130AA80E921092139311957D
:103C2C00FDF774FD0F23002405934FF480632946A0
:103C3C0005A80893069507940994FDF741FF1223F4
:103C4C0001934FF4004301A803930494FDF7F6FF8E
:103C5C0015B030BD2DE9804889B0FCF72DFDFFF77C
:103C6C00BDFF1022AD4D0DEB0200002101F09CFABE
:103C7C000127AB6902264FF0800843F01003AB61BB
:103C8C00AB6904A903F010030093009BAB69A44833
:103C9C0043F02003AB61AB69002403F020030193D4
:103CAC00019BAB694FF4005943F00403AB61AB6962
:103CBC004FF0030A03F004030293029BAB6948F232
:103CCC00200B43F00803AB61AB69079603F00803C4
:103CDC000393039BCDF810800597FDF729F900227B
:103CEC0041468F48FDF70CFA4FF4404304A98D4828
:103CFC00049305940694FDF71BF904A989480796CB
:103D0C00CDF810900597FDF713F940F2CE7304A986
:103D1C00854804930596CDF81CA0FDF709F904A974
:103D2C007F48CDF810A00596CDF81CA0FDF700F942
:103D3C0004A97D480594CDF810B00697FDF7F8F866
:103D4C0047F2183304A97648049305940697FDF7B7
:103D5C00EFF804A972480596CDF81CA0CDF810B068
:103D6C00FDF7E6F84FF480634FF4602A04A96C4821
:103D7C000493069407960597FDF7DAF86B4A6C4E98
:103D8C005368494643F0E0633B4353606548224621
:103D9C00FDF7B6F9674B30463360B4603473347555
:103DAC007460049405940694C6F81CA03761FCF763
:103DBC0065FE04A93046604E049406940597FCF702
:103DCC0019FD5E4B30463360B460347334757460E7
:103DDC00049405940694C6F81CA03761FCF74EFEBB
:103DEC00042330460C2604A9049306940597FCF78B
:103DFC0001FD5348534B544A846080E80C00046125
:103E0C008461C461C0F80C904661FEF777FA2246D3
:103E1C0021462520FCF7C6FE2520FCF7F7FE4FF4C3
:103E2C00E1334A494A4880E80A008460C46004616E
:103E3C008461C4614661FEF733FA464B4648C3F8C9
:103E4C00048000F085FB454800F082FB444800F0FC
:103E5C007FFB424800F07CFB3F4800F079FB6B6A2B
:103E6C0000F02CF93F4800F073FBFFF7A1FC04466F
:103E7C00FFF7B4FC01462046FFF7C2FA3A4800F0BF
:103E8C0067FBFFF7AFFB394800F062FBFFF788FEDA
:103E9C00374800F05DFB00F075FF364800F058FB2A
:103EAC0000F070F9FFF7E0FC28BB00F011FA00F00D
:103EBC0097F9314800F04CFBFFF7F6FB2F4800F068
:103ECC0047FB2F4800F044FB2E4800F061FB012219
:103EDC004FF400511348FDF713F92B4C00F072FB13
:103EEC0023785BB100F0B2FE20700028F6D10120DF
:103EFC00FFF7F0FCF2E700F0F3F9D8E7FFF7B4FCBA
:103F0C00012808BF207000F05DFFFFF757FA022868
:103F1C0001D1FFF705FC0020EAE700BF00100240CA
:103F2C00000C01400010014000080140000001405D
:103F3C00C80E0020002401408C0E002000280140F7
:103F4C00F80E002090D003000038014000480040DB
:103F5C004C0E002000E100E05B6100089E6100084F
:103F6C000B5E0008195E00082D5E0008445E000818
:103F7C00595E0008725E0008885E00089A5E0008B0
:103F8C00A65E0008B35E0008B00200207047000077
:103F9C001C222DE9F0418EB0064600210DEB0200EB
:103FAC0001F002F90021102203A80191029101F005
:103FBC00FBF8012E384C67D062D3022E67D0002359
:103FCC0040F22A4204EB86146360A360E260236132
:103FDC0063612046FDF76AFF10B1304800F0B8FA73
:103FEC004FF4805303A920460393FEF72BF810B12E
:103FFC002B4800F0ADFA2046FDF772FF10B12948AE
:10400C0000F0A6FA6023079340F21A2308930423C6
:10401C0000250B93244BDFF89C8003EB061776B23C
:10402C0009950A950C950D9503EB061657F8253056
:10403C00FF2B09D056F8252007A92046FDF796FF3F
:10404C0010B1404600F084FA0135042DEED1204623
:10405C00FDF7E1FE0025DFF8608057F82530FF2BD7
:10406C0008D056F825102046FEF78EF810B14046C1
:10407C0000F06EFA0135042DEFD10EB0BDE8F081E1
:10408C004FF0804323609AE7084B236497E7084B73
:10409C00C4F8803093E700BF380F0020B85E0008EA
:1040AC00CB5E0008DE5E0008185F000800040040CC
:1040BC00002C0140F15E0008045F00081FB5144B92
:1040CC0000209A6942F400629A619A6902F40062D3
:1040DC000192019ADA6942F00102DA61DA6902F0BE
:1040EC0001020292029ADA6942F00202DA61DB6999
:1040FC0003F002030393039BFFF74AFF0120FFF732
:10410C0047FF0220FFF744FF05B05DF804FB00BF3A
:10411C00001002400B4B01EB800153F82110FF29DA
:10412C000ED0094B80011B5809B95A6370470429FA
:10413C0001D19A637047082901D1DA6370471A6478
:10414C00704700BF185F0008380F00200A4641F284
:10415C00883301460148FEF703B900BF4C0E00201E
:10416C0007B5002301220DF107010548FEF754F9AC
:10417C0020B99DF8070003B05DF804FB0020FAE7B6
:10418C004C0E002010B5154C4A220021204601F09F
:10419C000BF8FF2323800A2323766376A376E37739
:1041AC0084F8203084F821304FF49673E38423850F
:1041BC004FF69C7364224FF6B0712387DC23628721
:1041CC00A387E187A4F84020A4F84230A4F8441057
:1041DC00A4F84620A4F8483010BD00BF000E002003
:1041EC0010B53A4C00202178FFF71EF9A178012078
:1041FC00FFF71AF921790220FFF716F9A1790320AC
:10420C00FFF712F9217A0420FFF70EF9A17A0520A5
:10421C00FFF70AF9217B0620FFF706F9A17B07209F
:10422C00FFF702F9217C0820FFF7FEF8A17C09209A
:10423C00FFF7FAF8217D0A20FFF7F6F8FFF7BEF832
:10424C00022842D1A17D0B20FFF7EEF8E17D0C2076
:10425C00FFF7EAF8217E0D20FFF7E6F8617E0E20CD
:10426C00FFF7E2F8A17E0F20FFF7DEF8E17E1020C9
:10427C00FFF7DAF8217F1120FFF7D6F8617F1220C3
:10428C00FFF7D2F8A17F1320FFF7CEF8E17F1420BF
:10429C00FFF7CAF894F820101520FFF7C5F894F82A
:1042AC0021101620FFF7C0F894F822101720FFF702
:1042BC00BBF894F823101820FFF7B6F894F82410E4
:1042CC001920BDE81040FFF7AFB810BD000E00205C
:1042DC00024A4A210020FFF7ABB900BF000E0020B4
:1042EC00024A4FF480710020FFF7B6B9000E00208F
:1042FC0010B54848484C00F02BF9484800F028F914
:10430C00E18C474800F024F9218D464800F020F953
:10431C00454800F01DF9454800F01AF994F82A10A8
:10432C00434800F015F994F82B10424800F010F9AE
:10433C0094F82C10404800F00BF994F82D103F48DD
:10434C0000F006F994F82E103D4800F001F994F8AD
:10435C002F103C4800F0FCF894F830103A4800F06C
:10436C00F7F894F83110394800F0F2F894F832105C
:10437C00374800F0EDF894F83310364800F0E8F8C0
:10438C0094F83410344800F0E3F894F835103348BE
:10439C0000F0DEF894F83610314800F0D9F894F8B3
:1043AC003710304800F0D4F82F4800F0D1F82F48DF
:1043BC0000F0CEF8B4F938102D4800F0C9F8B4F973
:1043CC003A102C4800F0C4F8B4F93C102A4800F01C
:1043DC00BFF8B4F93E10294800F0BAF8B4F940100F
:1043EC00274800F0B5F8B4F94210264800F0B0F8B0
:1043FC00B4F94410244800F0ABF8B4F94610234843
:10440C0000F0A6F8B4F948102148BDE8104000F0BF
:10441C009FB800BF485F0008000E0020A461000890
:10442C00515F0008645F0008775F0008A361000813
:10443C00805F0008905F0008A35F0008BE5F000863
:10444C00D95F0008F45F00080E60000823600008C4
:10445C003360000846600008616000087C6000085A
:10446C0097600008B1600008C6600008A0610008F1
:10447C00D2600008E1600008EE600008FC600008F3
:10448C000D6100081C6100082C6100083C610008EB
:10449C004A6100080021034B80220348196000F098
:1044AC0083BE00BF34030020B102002010B5194CAC
:1044BC00194A2368D0B9A3B91368072B15D0072361
:1044CC002360FFF7E7FF154B2168802203EBC11136
:1044DC00134800F04CFF1248FBF732FE114B1860EA
:1044EC0003E01268013B9342EAD110BD126893427B
:1044FC00FBD0072B05D13AB92260BDE81040FFF77D
:10450C00C9BF591C8A42F7D00133082B08BF0023BE
:10451C00D6E700BF380700203C07002038030020F6
:10452C00B10200203403002008B500F0C5FD28B10D
:10453C00BDE80840017A4068FFF708BE08BD10B519
:10454C000446FFF70DFE207000B910BD012010BD10
:10455C000FB413B50C4C04AB53F8042B7C21204640
:10456C00019301F02FF80949204600F0DFFE2046A8
:10457C00FBF7E6FD81B22046FFF7E8FD02B0BDE88F
:10458C00104004B0704700BF40070020596100087C
:10459C000FB413B50A4C04AB53F8042B7C21204602
:1045AC00019301F00FF82046FBF7CAFD81B22046BB
:1045BC00FFF7CCFD02B0BDE8104004B0704700BF5F
:1045CC00400700202DE9F046704B97B018681B7916
:1045DC006F4D704E03908DF810300DF10B00FFF7FE
:1045EC00AEFF012802D017B0BDE8F0869DF80B0095
:1045FC0000F01AFD01280ED12B687F2B05D85A1C10
:10460C009DF80B102A60644AD15401210DF10B0066
:10461C00FFF79CFDE1E708287AD16048FFF798FF87
:10462C005D490B7883B15E4F5E483C68802200EB9D
:10463C00C410013400F09BFE072CCABF00233C6061
:10464C003B603A68584B1A605849534800F0A4FE36
:10465C0000240DF15809554F49F8440D59F82430F0
:10466C000BB10F2C1FD180225149059800F06DFE23
:10467C00013C0746F8B180224E49059800F065FED2
:10468C0058BB0D20FFF750FF0E20FFF74DFFFFF733
:10469C0001FF0DF10B000121FFF758FD03A946485E
:1046AC00FFF776FF99E73946002000F075FE0134DC
:1046BC0049F82400D2E74FF00C0A3848FFF748FFBE
:1046CC003E4B1B680193019B9F42D4DA0AFB07F314
:1046DC009859FFF73DFF0137F5E74FF0000A374BCC
:1046EC002C4F1B680193019B9A45D0DA80223968C4
:1046FC00059800F02AFE38B9BB6849462046984711
:10470C0010B97868FFF724FF0AF1010A0C37EAE7C1
:10471C0000283FF462AF07280ED12B68002B04DD74
:10472C0000211D4A013B2B60D1540720FFF7FCFEF2
:10473C000A20FFF7F9FE50E7022816D10B20FFF7ED
:10474C00F3FE00242B6804339C4209D303A8FFF723
:10475C001FFF0020FFF7AAFE0F48FFF719FF3CE7E9
:10476C000C20FFF7E1FE0134ECE703287FF435AFB2
:10477C000B20FFF7D9FE00242B689C4201DB0120A3
:10478C00E8E70C20FFF7D0FE0134F5E7B35E000834
:10479C003403002020620008B10200205B61000895
:1047AC003C070020380300203807002092650008E1
:1047BC005C61000861610008656100086C610008BB
:1047CC0008B500F057FB012008BD08B5FFF788FDC0
:1047DC00012008BD08B5FFF78BFD012008BD0000C6
:1047EC0008B5FEF7E5FD01460248FFF7B1FE0120D2
:1047FC0008BD00BFCE61000808B5FEF7DFFD01283B
:10480C0008D003D3022807D0012008BD0348FFF7C6
:10481C009FFEF9E70248FAE70248F8E7E161000871
:10482C00FB61000808620008F7B5FEF7C1FD014600
:10483C001648FFF78DFEFEF7C7FD01461448FFF73B
:10484C0087FEFEF7BBFD01461248FFF781FE1248BA
:10485C00FFF77EFE0024114DFEF7B6FDA04202D8F4
:10486C00012003B0F0BDFEF7A3FD26182046FEF78D
:10487C00F9FD07462046FEF7E5FD214600903B4634
:10488C0032462846FFF764FE0134E5E7CE610008A6
:10489C00706100088761000890610008AC61000835
:1048AC00022838B50C4618D1486800F03EFC0C4D77
:1048BC0038B102280BD0A06800F037FCA5F84200F4
:1048CC0003E0A06800F031FCA887012038BDA06887
:1048DC0000F02BFCA5F84800F7E7002038BD00BF1E
:1048EC00000E0020022838B50C4617D1486800F09D
:1048FC001CFC0B4D30B102280AD0A06800F015FC4E
:10490C00E88703E0A06800F010FC2887012038BD80
:10491C00A06800F00AFCA5F84400F7E7002038BDB9
:10492C00000E0020022838B50C4618D1486800F05B
:10493C00FCFB0C4D38B102280BD0A06800F0F5FB45
:10494C00A5F8400003E0A06800F0EFFB68870120A9
:10495C0038BDA06800F0E9FBA5F84600F7E7002099
:10496C0038BD00BF000E0020012810B5044608D148
:10497C00486800F0DAFBC1B20020FEF755FD204676
:10498C0010BD0024FBE7032870B50C4611D1486814
:10499C0000F0CBFB0546A06800F0C7FB0646E068BC
:1049AC0000F0C3FBF1B282B2E8B2FFF7B3FB012017
:1049BC0070BD002070BD0000012810B5044605D163
:1049CC0049680348FFF7C4FD204610BD0024FBE7EF
:1049DC00B06200080E4B82B09A6942F001029A61F3
:1049EC009A6902F001020092009ADA6942F0805250
:1049FC00DA61DB69074A03F080530193019B53682A
:104A0C0023F0E06343F00073536002B0704700BFC3
:104A1C00001002400000014030B51024054689B05A
:104A2C00224600210DEB040000F0BEFB2B681E4A51
:104A3C0093421DD11D4B0DEB04019A6942F4007297
:104A4C009A619A6902F400720092009A9A6942F093
:104A5C0004029A619B6903F004030193019B0123F7
:104A6C000493032305931248FCF762FA09B030BD96
:104A7C00104A9342FAD10D4B04A99A6942F4806210
:104A8C009A619A6902F480620292029A9A6942F0DF
:104A9C0004029A619B69049403F004030393039B3F
:104AAC0003230593DFE700BF002401400010024000
:104ABC000008014000280140102210B5044688B0BF
:104ACC000DEB0200002100F06FFB23682A4A934291
:104ADC0025D12A4B04A99A69294842F480429A614B
:104AEC009A6902F480420092009A9A6942F0080294
:104AFC009A619B6903F008030193019B4023049383
:104B0C001223059303230793FCF712FA1D4A5368EB
:104B1C0043F0E06343F00403536008B010BD1A4A3D
:104B2C009342FAD1154B04A9DA69154842F4802254
:104B3C00DA61DA6902F480220292029A9A6942F0EE
:104B4C0008029A619B6903F008030393039B4FF4DB
:104B5C00806304930223059303230793FCF7E8F97E
:104B6C004FF400630493002304A9054805930693AE
:104B7C00FCF7DEF9D1E700BF00380140001002401D
:104B8C00000C014000000140004800407047FEE767
:104B9C00FEE7FEE7FEE7704770477047FBF79EBDE8
:104BAC000148FCF727BB00BF1810002008B50A4BC2
:104BBC000246196809B9094919606946186802441E
:104BCC008A4206D900F0B6FA0C2303604FF0FF308E
:104BDC0008BD1A6008BD00BFC00700208812002065
:104BEC000F4B1A6842F001021A6059680D4A0A40CC
:104BFC005A601A6822F0847222F480321A601A68A1
:104C0C0022F480221A605A6822F4FE025A604FF491
:104C1C001F029A604FF00062034B9A60704700BF0E
:104C2C00001002400000FFF800ED00E038B5002451
:104C3C00054D2B19285D002259780234FFF76AFACA
:104C4C00142CF6D138BD00BF790000202DE9F041BD
:104C5C00214B224C1A781F464AB1208810B9187083
:104C6C00BDE8F081013820800120BDE8F081268864
:104C7C00BEB94EF660231A4D2380FFF7D7FF194BB0
:104C8C00287840F2344203EB4001497813F81000C5
:104C9C00FFF740FA2B780133DBB20A2B14BF2B70D1
:104CAC002E702388104D013B2380FEF7DDFD95F817
:104CBC0000800646B8F1000F0BD1012809D12870ED
:104CCC00FFF7B4FF4EF660232380054B3E7083F84C
:104CDC0000802E70C8E700BFC6070020C407002064
:104CEC00C70700207900002078000020014B1868CD
:104CFC00FBF70ABD90000020F8B504681B4B054675
:104D0C00E31A5C425C41FBF7FBFC194A260197193C
:104D1C00BB7BE400E1180133DBB202EB410100097B
:104D2C00052B8880BB7312D10021063402EB44039F
:104D3C00301D0233104433F8024D83422144FAD122
:104D4C000020931998730523B1FBF3F191532A6852
:104D5C00084B9A4208BF084A084B18BF084A1A6009
:104D6C001868BDE8F840FBF701BE00BF0028014001
:104D7C00F80F0020002401408C0E00209000002031
:104D8C00C80E002038B510250C4C2A4600212046B0
:104D9C0000F00AFA2A460021601900F005FA0022F8
:104DAC0012201146FBF7FEFE1220FBF72FFF044BDF
:104DBC001868BDE83840FBF7D9BD00BFF80F0020DC
:104DCC009000002038B5294C94F82A0050B1284D99
:104DDC0029886A88914205D0012812D0022816D061
:104DEC002B886B8094F8310050B1214D298A6A8A46
:104DFC00914205D001281ED0022822D02B8A6B822A
:104E0C0038BD94F82B00C9B2FEF70EFBE8E794F816
:104E1C003030994206D99A4204D294F82D1094F865
:104E2C002C00F1E79942DBD29A42D9D994F82F1091
:104E3C0094F82E00E8E794F83200C9B2FEF7F4FAC1
:104E4C00DCE794F83730994206D99A4204D294F8A8
:104E5C00341094F83300F1E79942CFD29A42CDD96D
:104E6C0094F8361094F83500E8E700BF000E0020E7
:104E7C00F80F00202DE9F0410025114CDFF8588087
:104E8C00104F114E013529464046FFF761FB38465D
:104E9C00FFF75EFB21883046FFF75AFB61880B4811
:104EAC00FFF756FBA17B0A48FFF752FB0948FFF7B7
:104EBC004FFB022D04F11004E4D1BDE8F08100BFDA
:104ECC00F80F0020A46100087D64000889640008C4
:104EDC009A6400085B6100087664000800F50C71A8
:104EEC00D0F86802FDF734BF00EB4113D3F83C2136
:104EFC00D0F86802FDF759BF00EB4113DA6BD0F81C
:104F0C006802FDF78CBFD0F86802FEF720B8836802
:104F1C0010B5022B044601D0FFF738F8D4F868021C
:104F2C000121FDF7FEFFD4F86802BDE81040FDF743
:104F3C00D1BF000010B50446D0F86802FDF7F4FFAD
:104F4C00A36923B1024A136943F00603136110BD30
:104F5C0000ED00E0D0F86802FDF7EFBF10B51C467D
:104F6C00D0F8C00213462246FCF7E3F803289ABF98
:104F7C00014B185C022010BDA964000808B5D0F8DC
:104F8C00C002FCF75DFB03289ABF024B185C0220A1
:104F9C0008BD00BFA964000808B5D0F8C002FCF732
:104FAC0083FB03289ABF024B185C022008BD00BF8C
:104FBC00A96400080A06D0F8C03245BF01F07F0191
:104FCC0003EB411303EB411393F82A0058BF93F8FA
:104FDC002A01704708B5D0F8C002FCF796F80328F0
:104FEC009ABF024B185C022008BD00BFA9640008E0
:104FFC0008B5D0F8C002FCF7E7F803289ABF024BBB
:10500C00185C022008BD00BFA964000808B5D0F8E0
:10501C00C002FCF7C1F803289ABF024B185C0220AF
:10502C0008BD00BFA96400082DE9F0471F4D2B787F
:10503C001BB9A0F120025E2A31D90D2832D01C4CAC
:10504C001C4F4FF00008B946A2465E1CF6B22E70FB
:10505C00E0543B7AB34215D132465146786800F0A1
:10506C0074F9034670B90C2202FB08F819F8080011
:10507C0080B9072E4FF0000015D9287020606060B1
:10508C00BDE8F08708F10108B8F10F0F07F10C0724
:10509C00DFD1EEE72B7023606360BDE8F087012061
:1050AC00BDE8F0870820BDE8F08700BFD0070020DE
:1050BC00C8070020D06400080E2830B50CD8002298
:1050CC000C24064B04FB02F1CD5C854201D158182F
:1050DC0030BD01320F2AF5D1002030BDD06400085C
:1050EC00002103E00B4B5B58435004310A480B4B37
:1050FC0042189A42F6D30A4A02E0002342F8043BD3
:10510C00084B9A42F9D3FFF76BFD00F019F8FEF744
:10511C00A1FD7047CC66000800000020640200204E
:10512C006802002088120020FEE70A22002100F00D
:10513C0007BA0000014B1868704700BF94000020AC
:10514C0070B500250C4E0D4CA41BA410A54209D122
:10515C0000F0B4FD00250A4E0A4CA41BA410A54275
:10516C0005D170BD56F8253098470135EEE756F855
:10517C00253098470135F2E7C4660008C46600087C
:10518C00C4660008C8660008024B0146186800F0A7
:10519C005FB800BF94000020024B0146186800F075
:1051AC000BB800BF9400002003460244934200D188
:1051BC00704703F8011BF9E738B50546002943D0C1
:1051CC0051F8043C0C1F002BB8BFE41800F01DFA7A
:1051DC001E4A1368104633B9636014602846BDE854
:1051EC00384000F013BAA3420BD9216862189342DD
:1051FC0001BF1A685B685218226063600460EDE7B7
:10520C0013465A680AB1A242FAD919685818A04232
:10521C000BD120680144581882421960DED1106805
:10522C005268014419605A60D8E702D90C232B60EC
:10523C00D4E7206821188A4201BF11685268091806
:10524C00216062605C60C9E738BD00BFD4070020F4
:10525C0070B5CD1C25F0030508350C2D38BF0C2579
:10526C00002D064601DBA94203D90C233360002034
:10527C0070BD00F0CAF9234A1468214691B9224C3A
:10528C0023681BB9304600F041F8206029463046AF
:10529C0000F03CF8431C26D10C233046336000F060
:1052AC00B5F9E4E70B685B1B1AD40B2B0FD90B6019
:1052BC00CC18CD50304600F0A9F904F10B00231D99
:1052CC0020F00700C31A1BD05A42E25070BD8C422A
:1052DC000BBF63684B681360636018BF0C46E9E74B
:1052EC000C464968CAE7C41C24F00304A04205D04C
:1052FC00211A304600F00AF80130CDD02560D9E7EC
:10530C0070BD00BFD4070020D807002038B500239B
:10531C00054C054608462360FFF748FC431C02D1A8
:10532C00236803B12B6038BD84120020024610B5EF
:10533C0013461C780132002CFAD1013B11F8012BD9
:10534C0003F8012F002AF9D110BD10B56AB101394B
:10535C00841810F8013B11F8012F934203D1A0429D
:10536C0001D0002BF5D1981A10BD104610BD70B5A8
:10537C00044602B970BD234611F8015B561E03F8B2
:10538C00015B1DB91444A34203D170BD1C463246C7
:10539C00EFE703F8015BF6E7134B2DE9F0411D68CD
:1053AC000646AC6D0F46B4B95020FFF7EDFEA8656C
:1053BC00046044608460C4600461446184618462FC
:1053CC00C462046344638463C46304644464846497
:1053DC00C46404774462AA6D39463046BDE8F04196
:1053EC00012300F003B800BF94000020F0B518B9F9
:1053FC00106808B9F0BD204604460F4614F8015B4E
:10540C0017F8016B1EB965B915602846F0BDB54299
:10541C00F6D1002BEFD114600370F0BD1C460CE0EC
:10542C0015B90E4614F8013B16F8015BAB42F7D1E7
:10543C00002BF3D0002304F8013C1460F0BD2DE9DF
:10544C00F84F8046894692461F468B465D460A9821
:10545C0015F8014B00F0C4F82044467816F0080605
:10546C000BD12D2C0BD101262C780BF1020567B139
:10547C00102F14D1302C0AD011E0AB46E6E72B2CC0
:10548C0004BF2C780BF10205F1E7302C27D12B78D7
:10549C0003F0DF03582B4BD110276C780235002E0C
:1054AC000CBF6FF000414FF000410022B1FBF7FE42
:1054BC00104607FB1E1CA4F13003092B11D81C4607
:1054CC00A7421DDD531C07D0864516D301D1A44538
:1054DC0013DB012200FB074015F8014BEBE70A2711
:1054EC00DDE7A4F14103192B01D8373CE8E7A4F11F
:1054FC006103192B04D8573CE2E74FF0FF32EBE77E
:10550C00531C08D122230846C8F80030BAF1000F0A
:10551C0007D1BDE8F88F06B14042BAF1000F0CD0AC
:10552C0022B1013DCAF80050BDE8F88F4D46F9E7AD
:10553C003024002FB3D10827B1E7BDE8F88F000065
:10554C00084B37B51C68084D236A002B08BF2B4647
:10555C00009313460A4601462046FFF770FF03B03E
:10556C0030BD00BF94000020F800002030B5141EA0
:10557C0005469BB0184605DA8B234FF0FF302B60A5
:10558C001BB030BD4FF40273ADF80C300CBF23468A
:10559C0004F1FF33029305934FF6FF7300910491CE
:1055AC00ADF80E3002461E9B6946284600F08AF87C
:1055BC00431CBCBF8B232B60002CE1D00022009B32
:1055CC001A70DDE707B5009313460A4601460348F7
:1055DC000068FFF7CBFF03B05DF804FB94000020DC
:1055EC00D0F8EC00704782B001B901A942B14BB1BF
:1055FC0013780B601278101C18BF012002B0704792
:10560C001046FBE76FF00100F8E7704770472DE993
:10561C00F0478E6882469E420C469146984635D895
:10562C008A8912F4906F31D00223256809696F1AA8
:10563C00656905EB450595FBF3F508F101033B4462
:10564C009D4238BF1D46530531D52946FFF700FE54
:10565C00064650B90C23CAF80030A3894FF0FF302E
:10566C0043F04003A381BDE8F0873A46216900F07E
:10567C00D0FAA38923F4906343F08003A3812661BD
:10568C003E44266046466561ED1BA560464528BF35
:10569C00464649463246206800F0C6FAA368002008
:1056AC009B1BA36023681E442660BDE8F0872A4636
:1056BC0000F0D4FA06460028E1D121695046FFF7E4
:1056CC007BFDC7E72DE9F04F9DB003938B89804696
:1056DC001C060D4616460FD50B696BB94021FFF71A
:1056EC00B7FD2860286128B90C23C8F800304FF0AA
:1056FC00FF30C4E040236B610023099320238DF815
:10570C00293030234FF0010B8DF82A3037463C46B8
:10571C0014F8013B002B3CD1B7EB060A0BD05346D7
:10572C00324629464046FFF772FF013000F0A28056
:10573C00099B534409933B78002B00F09B8000237A
:10574C004FF0FF3204930793059206938DF8533074
:10575C001A9305222178504800F04DFA671C049BDF
:10576C00D8B9D90644BF20228DF853201A0744BF5C
:10577C002B228DF8532022782A2A16D000210A20B9
:10578C00079A27463B780134303B092B50D9C9B1D5
:10579C0011E0252BC0D02746B9E73F4A3C46801A7A
:1057AC000BFA00F018430490D3E7039A111D12680A
:1057BC000391002A01DB079204E0524243F00203FA
:1057CC00079204933B782E2B0DD17B78791C2A2BD6
:1057DC0032D1039B02371A1D1B680392002BB8BFF2
:1057EC004FF0FF3305932D4C03223978204600F0FF
:1057FC0002FA38B14023001B03FA00F0049B013776
:10580C00034304933978062225487E1C8DF8281012
:10581C0000F0F1F9002835D0224BFBB9039B07337C
:10582C0023F0070308330393099B4B4409936DE75B
:10583C0000FB02320121A4E700230A241846059339
:10584C000F463A780131303A092A03D9002BCAD0D5
:10585C000590C8E704FB00200123F1E703AB00939C
:10586C002A46114B04A94046AFF30080B0F1FF3F2C
:10587C008146D9D1AB895B063FF539AF09981DB08C
:10588C00BDE8F08F03AB00932A46074B04A94046B2
:10589C0000F084F8EAE700BF8E6500089465000804
:1058AC0098650008000000001B5600082DE9F04721
:1058BC0091461F468A680B6906469342B8BF134649
:1058CC00C9F8003091F843200C46DDF8208012B165
:1058DC000133C9F800302368990642BFD9F800306B
:1058EC000233C9F80030256815F0060507D104F11C
:1058FC00190AE368D9F800209B1A9D422ADB94F818
:10590C0043302268003318BF012392062FD404F1D0
:10591C00430239463046C047013022D02368E5683F
:10592C0003F00603042B18BF0025D9F800204FF014
:10593C00000908BFAD1AA368226908BF25EAE575FE
:10594C009342C4BF9B1AED181A344D451BD100204D
:10595C00BDE8F0870123524639463046C047013036
:10596C0003D14FF0FF30BDE8F0870135C1E730209F
:10597C00E11881F843005A1C94F845102244023374
:10598C0082F84310C3E70123224639463046C0470C
:10599C000130E6D009F10109D7E700002DE9F04309
:1059AC0017460A7E85B06E2A984606460C460C9B16
:1059BC0001F1430E00F0BC801AD8632A2ED00AD80D
:1059CC00002A00F0C880582A00F08A8004F14205B1
:1059DC0084F842202AE0642A01D0692AF6D1216891
:1059EC001A6811F0800F23D0111D1960136827E07D
:1059FC00732A00F0B48008D86F2A2AD0702AE5D117
:105A0C000A6842F020020A6003E0752A21D0782A45
:105A1C00DCD178226F4984F8452064E01A6801F1E2
:105A2C004205111D1960136884F842300123A3E06C
:105A3C0011F0400F02F104011960D7D0B2F9003017
:105A4C00002B03DA2D225B4284F8432062490A22A0
:105A5C0017E02068196810F0800F03D0081D18603B
:105A6C000B6806E010F0400F01F104001860F7D04D
:105A7C000B886F2A14BF0A2208225749002084F889
:105A8C0043006568002DA560C0F29C80206820F062
:105A9C0004002060002B3FD1002D40F0958075460E
:105AAC00082A0BD12368DA0708D5236962689A4261
:105ABC00DEBF302305F8013C05F1FF35AEEB0503E5
:105ACC002361CDF800803B4603AA21463046FFF700
