:020000040800F2
:1000000000500020913B0008ED380008EF38000850
:10001000F1380008F3380008F53800080000000047
:10002000000000000000000000000000F738000899
:10003000F938000800000000FB380008FD3800080F
:10004000D93B0008D93B0008D93B0008D93B000840
:10005000D93B0008D93B0008D93B0008D93B000830
:10006000D93B0008D93B0008D93B0008D93B000820
:10007000D93B0008D93B0008D93B0008D93B000810
:10008000D93B0008D93B0008D93B0008D93B000800
:1000900001390008D93B0008D93B0008D93B0008CA
:1000A000D93B0008D93B0008D93B0008D93B0008E0
:1000B000D93B0008D93B0008D93B0008D93B0008D0
:1000C000D93B0008D93B0008D93B0008D93B0008C0
:1000D000D93B00084D2A0008D93B0008D93B00084D
:1000E000D93B0008D93B0008D93B000800000000BC
:1000F0000000000000000000000000000000000000
:0C01000000000000000000005FF808F1A3
:10010C0010B5054C237833B9044B13B10448AFF345
:10011C0000800123237010BD480200200000000065
:10012C006C47000808B5034B1BB103490348AFF3F8
:10013C00008008BD000000004C0200206C47000845
:10014C00034613F8012B002AFBD1181A013870470B
:10015C0038B50E4B054618784FF47A73B3FBF0F3B1
:10016C000B4A1068B0FBF3F000F0A6F9044658B93E
:10017C000F2D09D8024629464FF0FF3000F068F9E0
:10018C00044B20461D6038BD012038BD0000002006
:10019C007400002004000020074A08B513680320EF
:1001AC0043F01003136000F041F90020FFF7D0FF7B
:1001BC0003F0BAFA002008BD00200240034A044BA9
:1001CC0011681B780B441360704700BFAC0700200C
:1001DC0000000020014B1868704700BFAC070020DE
:1001EC00002373B5019390F82430012B74D00123B4
:1001FC004D6880F82430062D02684FEA85030C68A0
:10020C0025D82B441F25566B053B9D4026EA05053A
:10021C0004FA03F32B435363092C4FEA44038D6810
:10022C002FD907262344D1681E3B9E4021EA0601A4
:10023C0005FA03F30B43D360A4F11003012B2BD964
:10024C000023002280F82420184602B070BD0C2D2B
:10025C000BD82B441F25166B233B9D4026EA050526
:10026C0004FA03F32B431363D6E72B441F25D66AFA
:10027C00413B9D4026EA050504FA03F32B43D36268
:10028C00CAE70726116923449E4021EA060105FAB4
:10029C0003F30B431361CFE7104B9A4216D19368CB
:1002AC001B02CDD49368102C43F400039360C7D188
:1002BC000B4B0C4A1B68B3FBF2F20A23534301931A
:1002CC00019B002BBCD0019B013BF8E7836A43F0F8
:1002DC00200383620123B4E70223B5E70024014025
:1002EC007400002040420F0038B5036804469A6839
:1002FC00D20701D4002038BD9A6822F001029A601E
:10030C00FFF768FF054623689B68DB07F2D5FFF70C
:10031C0061FF401B0228F6D9A36A012043F01003A9
:10032C00A362E36A43F00103E36238BD70B504468F
:10033C00002871D0836A23B9C36280F8243003F09B
:10034C0015FA2046FFF7D0FFA36A13F0100FA36A2B
:10035C0064D1002862D1E16923F48853626823F0E8
:10036C00020343F002030A43A168A362237BB1F5A5
:10037C00807F42EA430238D0012914BF06464FF46D
:10038C008076257D012D07D1002B30D1A369013B4F
:10039C0046EA433545F400662368B1F5807F5D6815
:1003AC0025F4694545EA06055D609E681D4D05EA24
:1003BC00060545EA02059D6001D0012920D121697D
:1003CC0001390905DD6A25F470052943D96299685C
:1003DC00154B0B409A4215D10023E362A36A23F01C
:1003EC00030343F00103A36270BD0E46C9E7A36A81
:1003FC0043F02003A362E36A43F00103E362CBE71B
:10040C000021DFE7A36A23F0120343F01003A36279
:10041C00E36A43F00103E362012070BD43F0100373
:10042C00A362F9E7FDF7E1FFFE0E1FFF074A00028A
:10043C00D36800F4E06023F4E0631B041B0C43F06E
:10044C00BF6343F400330343D360704700ED00E017
:10045C00174B30B5DC68C4F30224C4F10703251D27
:10046C00042B28BF0423062D4FF0010598BF002450
:10047C0005FA03F303F1FF3388BF033C1940A14095
:10048C0005FA04F4013C2240002842EA01024FEA3A
:10049C000212A9BF00F16040064BD2B200F56140D8
:1004AC00BBBF00F00F00D2B280F800231A5430BD4D
:1004BC0000ED00E014ED00E00138B0F1807F0AD2CD
:1004CC00F021064B064A586082F8231000200722C0
:1004DC0098601A6070470120704700BF10E000E080
:1004EC0000ED00E090F8213010B5022B03D004236E
:1004FC008363012010BD03681A6822F00E021A6093
:10050C001A6822F001021A60184A93421FD0143262
:10051C0093421ED0143293421DD0143293421DD0FC
:10052C00143293421DD0143293420CBF4FF48013FB
:10053C004FF080730E4A00245360012380F8213061
:10054C00436B80F820407BB19847204610BD0123B7
:10055C00F0E71023EEE74FF48073EBE74FF4805392
:10056C00E8E74FF48033E5E7184610BD0800024079
:10057C00000002402DE9F74F00242646664BDFF8B9
:10058C00A8E1DFF8A8C10A6832FA06F502D103B077
:10059C00BDE8F08F4FF0010808FA06F802EA0802ED
:1005AC0090457FD14D68122D00F0AA8000F2838017
:1005BC00022D00F0A28077D8002D00F08980012D4B
:1005CC0000F099804FF00F09FF2A93BF824606F185
:1005DC008045083DD0F800B092BFB500D0F804B00B
:1005EC00AD0009FA05F82BEA080804FA05F588BFEE
:1005FC0000F1040A48EA0505CAF80050D1F804A035
:10060C001AF0805F4ED0454D444FAD6926F003087B
:10061C0045F00105BD61BD6908F1804805F0010593
:10062C00019508F5803806F0030B019D4FEA8B0B02
:10063C00D8F8085009FA0BF925EA0909384DA842EF
:10064C0063D005F58065A84261D005F58065A842A8
:10065C005FD005F58065A8420CBF0325042505FA7B
:10066C000BF545EA0905C8F808501D681AF4803FD7
:10067C0014BF154395431D605D681AF4003F14BF09
:10068C00154395435D609D681AF4801F14BF154394
:10069C0095439D60DD681AF4001F14BF2A4325EAB8
:1006AC000202DA6001366EE7032D22D0112D89D1BA
:1006BC00CC68043486E71B4FBD4209D012D8DFF852
:1006CC0070904D4504D009F580394D457FF47AAFD3
:1006DC008C68C4B1012C0CBFC0F81080C0F8148019
:1006EC0008246FE77545F3D06545F1D0DFF84490E9
:1006FC00EBE7002466E7CC6864E7CC68083461E774
:10070C00CC680C345EE704245CE70025A7E70125E0
:10071C00A5E70225A3E700BF00040140001002403A
:10072C0000080140000021100000311000003210C0
:10073C0000001110000022108368194214BF012020
:10074C00002070470AB1016170470904FBE790F87B
:10075C00282210B5012A04460BD0012280F8282249
:10076C0084F82410006801F0A4FC002084F828020E
:10077C0010BD022010BD70B511F0800F044601F0C1
:10078C0007004FEA40151FD0012605F1280125442A
:10079C00214485F829600A614A78C0B20870CB7090
:1007AC0002B1C881022B04BF00230B7194F82832CC
:1007BC00012B11D00123206884F8283201F096FA1D
:1007CC00002084F8280270BD002605F5947125449C
:1007DC00214485F82961DEE7022070BD70B5002642
:1007EC0001F007014D01441984F8281105F59471A5
:1007FC000144C4F83C21C4F84031C4F8446184F885
:10080C002961006801F072FC304670BD01F00701EF
:10081C0070B54D01441923640026012384F8281077
:10082C0005F128010144E263666484F8293000680C
:10083C0001F05CFC304670BD2DE9F84F04460068B1
:10084C0001F03DFC020400F11082206801F037FC3D
:10085C0043050FD522682046B2F8443023F4806358
:10086C001B041B0CA2F8443003F0A3F80021204613
:10087C00FFF76DFF206801F022FC470408D52268C1
:10088C00B2F8443023F480431B041B0CA2F8443010
:10089C00206801F014FC860408D52268B2F84430B4
:1008AC0023F400531B041B0CA2F84430206801F005
:1008BC0006FCC5041CD522682046B2F8403023F053
:1008CC0004031B041B0CA2F84030B2F8403023F098
:1008DC0008031B041B0CA2F8403003F08DF82268AF
:1008EC00B2F8443023F480531B041B0CA2F84430A0
:1008FC00206801F0E4FB000526D52068B0F84030F4
:10090C009BB243F00803A0F84030B0F8443023F415
:10091C0000631B041B0CA0F84430B0F840309BB2B1
:10092C0043F00403A0F8403001F0C9FBC10408D522
:10093C002268B2F8443023F480531B041B0CA2F839
:10094C004430204603F048F8206801F0B8FB8205DB
:10095C000BD522682046B2F8443023F400731B04F4
:10096C001B0CA2F8443003F020F8206801F0A7FB20
:10097C00C30508D52268B2F8443023F480731B04F5
:10098C001B0CA2F84430BDE8F88FB0F8441089B2C3
:10099C0011F00F0640F0B780038811F010019BB2E4
:1009AC002CD103EA090343F400430380B0F8503020
:1009BC0094F828209BB203EBC20300EB4300B0F881
:1009CC000434E26BC3F3090363641344E36320460A
:1009DC0002F0E4FF94F8243053B1226C42B994F83D
:1009EC002430216843F08003A1F84C3084F8242093
:1009FC002068B0F844301B04C7D426E713F4006514
:100A0C0021D0B0F8503094F828219BB203EBC203EC
:100A1C0000EB4303B3F80C34B4F82E21C3F30903F1
:100A2C00C4F8443104F50C7101F048FC22682046EE
:100A3C00138823F070031B051B0D43F080031380F8
:100A4C0002F09EFFD4E71F04D2D5038823F0700375
:100A5C001B051B0D43F080030380B0F8503094F855
:100A6C0028219BB203EBC20300EB4303B3F80C3415
:100A7C00C3F30903C4F844318BB1D4F83C1171B100
:100A8C00B4F82E2101F01AFCD4F83C31D4F84421EE
:100A9C0029461344C4F83C31204602F077FF216804
:100AAC00D4F83851B1F8503001F20C409BB2CDB9AA
:100ABC00C25A22F4F8421204120CC252C25A92B216
:100ACC0042F40042C2520B8823F4804323F070039B
:100ADC001B041B0C83F4405343F4004343F080038A
:100AEC000B8085E73E2D06D86A08EE0748BF013219
:100AFC00920292B2E6E76A09ED0608BF02F1FF32F4
:100B0C004AEA8222F5E730F826801FFA88F818F4B2
:100B1C00004F3DD030F82630770123F070031B05D1
:100B2C001B0D43F0800320F82630E11991F8343185
:100B3C00002B58D1B0F8503091F828219BB20633D5
:100B4C0003EBC20300EB4303B3F80054C5F30905F0
:100B5C0035B1B1F82E212B46D1F83C1101F0AEFB8A
:100B6C00E119D1F84431D1F83C212B44C1F844317E
:100B7C00D1F840312A44C1F83C211BB1D1F83801DD
:100B8C00854269D2274497F82811204602F0FEFED0
:100B9C0018F0800F3FF42CAF2168204631F8262046
:100BAC0092B202EA090242F4004221F82620B1F87E
:100BBC00503004EB461696F828209BB2023303EB18
:100BCC00C20301EB4303B3F80024F36BC2F3090235
:100BDC0072641A44336CF26396F82810002B41D1DE
:100BEC0002F0DCFE04E791F8283130F82320DB001A
:100BFC0012F4804FB0F8502092B21FD0023213443E
:100C0C0000EB4303B3F80054C5F3090535B12B468B
:100C1C00B1F83021D1F83C1101F050FBE31993F8F5
:100C2C002811226832F821309BB203EA0B0343F4FB
:100C3C00004343F0C00322F8213091E706321344FD
:100C4C0000EB4303B3F80054C5F30905002DE5D0C0
:100C5C002B46B1F83221DDE791F828112046FFF739
:100C6C00BDFD95E7FFF7D2FDC2E6DFF80C90DFF88B
:100C7C000CA0DFF80CB0BBE60F8FFFFF0080FFFF6E
:100C8C008F8FFFFF38B5436801F007059D4204467E
:100C9C0028D80B061DD501226B0103F12801034452
:100CAC00014483F8292001230D708B7094F82822BD
:100CBC009A4219D084F82832206801F08FF925B9AE
:100CCC0004F50C71206801F0FEF9002084F828026C
:100CDC0038BD00224B0103F594710344014483F8A1
:100CEC002921E0E7012038BD022038BD38B5436822
:100CFC0001F00F029A42044626D801F0070311F0C6
:100D0C00800F4FEA431217D002F12801014402442C
:100D1C00012082F8290000250B708D7094F8283280
:100D2C00012B13D00123206884F8283201F076F9C6
:100D3C0084F82852284638BD02F5947101440244C7
:100D4C00002082F82901E6E7012038BD022038BDD9
:100D5C002DE9F341054608B901203CE00368DB07A7
:100D6C0010D42B689F075DD42B68190700F1948071
:100D7C002B685A0700F1BE80E869002840F02C81EE
:100D8C00002028E08F4C636803F00C03042B07D081
:100D9C00636803F00C03082B09D16368DE0306D5E6
:100DAC0023689C03DDD56B68002BDAD1D4E76B6824
:100DBC00B3F5803F12D1236843F480332360FFF7EF
:100DCC0009FA064623689803CBD4FFF703FA801B75
:100DDC006428F7D9032002B0BDE8F0819BB92368E1
:100DEC0023F480332360236823F480232360FFF7EC
:100DFC00F1F9064623689903B3D5FFF7EBF9801B8D
:100E0C006428F7D9E6E7B3F5A02F236803D143F4A0
:100E1C0080232360CFE723F480332360236823F4FB
:100E2C008023CBE7674C636813F00C0F07D0636823
:100E3C0003F00C03082B10D16368DA030DD423687C
:100E4C009B0702D52B69012B86D123686A6923F095
:100E5C00F80343EAC203236086E72A695A4B6AB156
:100E6C0001221A60FFF7B6F9064623689F07ECD4F7
:100E7C00FFF7B0F9801B0228F7D9ABE71A60FFF730
:100E8C00A9F90646236898077FF56EAFFFF7A2F91C
:100E9C00801B0228F6D99DE7AA694A4C4B4BDAB164
:100EAC0001221A60FFF796F90646636A9B070DD577
:100EBC004FF4FA52464B1B68B3FBF2F3019300BF9D
:100ECC00019B5A1E0192002BF9D151E7FFF782F9D1
:100EDC00801B0228E9D97DE71A60FFF77BF90646EB
:100EEC00636A9F077FF544AFFFF774F9801B0228F4
:100EFC00F6D96FE7334CE369D80024D40127E369B2
:100F0C0043F08053E361E36903F080530093009B4B
:100F1C00304E3368D90518D5EB68012B26D1236ADE
:100F2C0043F001032362FFF755F941F288368046FE
:100F3C00236A9B073FD5002F3FF41EAFE36923F0D4
:100F4C008053E36118E70027E2E7336843F48073CA
:100F5C003360FFF73FF980463368DA05DCD4FFF7DE
:100F6C0039F9A0EB08006428F6D933E7ABB9236A4A
:100F7C0041F2883823F001032362236A23F004032F
:100F8C002362FFF727F90646236A9807D3D5FFF7A4
:100F9C0021F9801B4045F7D91CE7052B236A03D1A7
:100FAC0043F004032362BAE723F001032362236AAC
:100FBC0023F00403B6E7FFF70DF9A0EB0800B042ED
:100FCC00B6D907E7001002400000424280044242BA
:100FDC0074000020007000402A4B5A681C4602F036
:100FEC000C02082A3DD00023274E022833602BD157
:100FFC00FFF7F0F80746236899011FD42B6AB3F565
:10100C00803F05D16268A96822F400320A4362600D
:10101C00696A62680B4322F4741213436360012300
:10102C003360FFF7D7F8054623689A013FF5A8AE61
:10103C00FFF7D0F8401B0228F6D9CBE6FFF7CAF829
:10104C00C01B0228D7D9C5E6FFF7C4F805462368AC
:10105C009B017FF595AEFFF7BDF8401B0228F6D932
:10106C00B8E601283FF4B7AE58682B6A00F480321A
:10107C009A427FF471AE6B6A00F47010C01A18BFFC
:10108C000120A8E6001002406000424230B5194B26
:10109C0087B002AC03F11005224618685968083372
:1010AC0003C2AB421446F7D101238DF8043002235E
:1010BC0011498DF805304B6803F00C02082A17D142
:1010CC00C3F3834206A80244DB0312F8102C0CD5A0
:1010DC004B680A48C3F34043504306AA134413F821
:1010EC00143CB0FBF3F007B030BD05485043FAE7B1
:1010FC000248F8E7844700080010024000127A000A
:10110C0000093D002DE9F0410D46044610B90120BF
:10111C00BDE8F081454A136803F007038B4229D3DD
:10112C0021688E0731D4CA0744D4404A136803F0AF
:10113C0007039D4267D322683D4D12F0040F6ED118
:10114C00130706D56B68226923F4605343EAC20384
:10115C006B60FFF79BFF6B68364AC3F30313D35CDA
:10116C00D840354B1860354B1868FEF7F1FF00205E
:10117C00BDE8F081136823F007030B431360136879
:10118C0003F007039942C2D1CAE7294B11F0040FAF
:10119C001EBF5A6842F4E0625A60080742BF5A68A0
:1011AC0042F460525A605A68A06822F0F00202437E
:1011BC005A60B8E762681E4E012A33681BD113F4DB
:1011CC00003FA4D0736841F2883823F00303134323
:1011DC007360FEF7FFFF07467368626803F00C0349
:1011EC00B3EB820FA1D0FEF7F5FFC01B4045F3D93E
:1011FC000320BDE8F081022A02D113F0007FE0E762
:10120C0013F0020FDDE7136823F007032B43136081
:10121C00136803F007039D427FF479AF8BE76B688B
:10122C00E16823F4E0630B436B6089E70020024024
:10123C0000100240764B00087400002004000020CF
:10124C00044B054A5B68C3F30223D35C034A106862
:10125C00D840704700100240864B000874000020F4
:10126C00044B054A5B68C3F3C223D35C034A106882
:10127C00D840704700100240864B000874000020D4
:10128C0003682DE9F341D907054620D5354CE369B0
:10129C00DA0032D40127E36943F08053E361E36958
:1012AC0003F080530193019B2F4E3368DB0526D549
:1012BC00236A13F4407336D1236A6A6823F44073AB
:1012CC00134323621FB1E36923F08053E361286861
:1012DC00830706D5234AA968536823F440430B437C
:1012EC00536010F010001BD01E4AE96853680020B0
:1012FC0023F480030B43536012E00027D4E73368D8
:10130C0043F480733360FEF765FF80463368D8057D
:10131C00CED4FEF75FFFA0EB08006428F6D90320BB
:10132C0002B0BDE8F0816A6802F440729342C3D007
:10133C0001200E4A236A1060002023F440711060D3
:10134C002162D907B8D5FEF745FF41F28838064629
:10135C00236A9A07B0D4FEF73DFF801B4045F7D9AE
:10136C00DDE700BF00100240007000404004424224
:10137C00036A70B523F001030362036A446882694F
:10138C000D6822F073022A438D6823F002032B436D
:10139C000A4DA8420BD1CD6823F008032B438E696C
:1013AC004D6924F44074354323F004032C4344600A
:1013BC0082614A684263036270BD00BF002C014029
:1013CC00036A70B523F480730362036A4468C269CC
:1013DC000D6822F073022A438D6823F4007343EAEC
:1013EC0005230B4DA8420DD1CD6823F4006343EACD
:1013FC0005238E694D6924F44054354323F48063EE
:10140C0044EA05144460C2614A68C263036270BD59
:10141C00002C0140036A30B523F480530362036A45
:10142C004468C2690D6822F4E64242EA05228D68DE
:10143C0023F4005343EA0533064DA84202BF4D691D
:10144C0024F4804444EA85144460C2614A6802640E
:10145C00036230BD002C01407047022380F83D3000
:10146C0003689A6802F00702062A1EBF1A6842F047
:10147C0001021A60012380F83D300020704770474C
:10148C001A4A036890420AD0B0F1804F07D0A2F5F7
:10149C009432904203D002F58062904215D14A6892
:1014AC0023F070031343114A90420AD0B0F1804FDD
:1014BC0007D0A2F59432904203D002F5806290429C
:1014CC0003D1CA6823F4407313434A6923F08003A1
:1014DC00134303608B68C3620B688362034B9842AF
:1014EC0004BF0B690363012343617047002C014067
:1014FC0010B50446A0B190F83D3003F0FF021BB9C3
:10150C0080F83C20FFF7A8FF0223206884F83D30C8
:10151C00211DFFF7B5FF0123002084F83D3010BDDD
:10152C00012010BD10B50446A0B190F83D3003F079
:10153C00FF021BB980F83C20FFF7A1FF02232068B3
:10154C0084F83D30211DFFF79BFF0123002084F818
:10155C003D3010BD012010BD036A70B523F010039F
:10156C000362036A446882690D6822F4E64242EA27
:10157C0005228D6823F0200343EA05130B4DA84286
:10158C000DD1CD6823F0800343EA05138E694D69B4
:10159C0024F44064354323F0400344EA850444605A
:1015AC0082614A688263036270BD00BF002C0140F7
:1015BC0038B590F83C300446012B4FF0020025D092
:1015CC00012384F83D0084F83C300C2A18D8DFE85D
:1015DC0002F0071717171E1717172F1717174000AA
:1015EC002068FFF7C5FE236809699A6942F0080272
:1015FC009A619A6922F004029A619A690A439A6183
:10160C000123002084F83D3084F83C0038BD20686C
:10161C00FFF7A2FF236809699A6942F400629A6194
:10162C009A6922F480629A619A6942EA0122E6E799
:10163C002068FFF7C5FE23680969DA6942F00802E1
:10164C00DA61DA6922F00402DA61DA690A43DA61F2
:10165C00D6E72068FFF7DEFE23680969DA6942F4F1
:10166C000062DA61DA6922F48062DA61DA6942EAEC
:10167C000122ECE710B584680A4324F47F4442EA63
:10168C0003232343836010BD90F83C3070B5012BCD
:10169C0004464FF0020019D0012384F83D00206865
:1016AC0084F83C30836823F47F4323F07703836012
:1016BC000B68402B65D015D8102B0CD007D853B124
:1016CC000123002084F83D3084F83C0070BD202BB1
:1016DC0001D0302BF4D1826843F0070322F0700262
:1016EC0013431AE0602B34D019D8502BE8D14A6838
:1016FC00CE68016A056A21F00A0125F00105056230
:10170C0083690A4323F0F00343EA06138361026200
:10171C00836823F0700343F057038360D0E7702B8A
:10172C000CD0B3F5005FCBD1CB684A688968FFF762
:10173C00A1FF2268936843F4804308E0CB684A68B1
:10174C008968FFF797FF2268936843F077039360EB
:10175C00B6E74D68CE68016A21F01001016282691A
:10176C00036A22F4704223F0A00343EA051342EA11
:10177C00063282610362836823F0700343F06703CF
:10178C00CBE74A68CE68016A056A21F00A0125F0A8
:10179C000105056283690A4323F0F00343EA06134B
:1017AC0083610262836823F0700343F04703B4E75C
:1017BC0010B50124036A01F01F018C4023EA0403D5
:1017CC000362036A8A401A43026210BD10B50446D4
:1017DC0001220068FFF7ECFF2368094A00209342BE
:1017EC0002BF5A6C42F400425A649A6802F0070233
:1017FC00062A1EBF1A6842F001021A6010BD00BF13
:10180C00002C01400368DA6822F49072DA605A699D
:10181C0022F001025A61202380F83A307047000010
:10182C0038B505460368C1681A69192422F4405278
:10183C000A431A6182680069D9680243686921F415
:10184C00B05121F00C0102430A43DA605A69A969CC
:10185C0022F440720A435A610D4A934214D1FFF7A5
:10186C00FFFC60436C686422A400B0FBF4F0B0FB96
:10187C00F2F402FB14031B013233B3FBF2F32968BD
:10188C0003EB04138B6038BDFFF7DAFCE9E700BF0C
:10189C0000380140F8B504460E4617461D4621682F
:1018AC000B6836EA030301D10020F8BD6B1CF7D09E
:1018BC0095B923680320DA6822F4D072DA605A6989
:1018CC0022F001025A61202384F8393084F83A302E
:1018DC00002384F83830F8BDFEF77CFCC01B854231
:1018EC00DDD2E6E710B5044640B390F8393003F08A
:1018FC00FF021BB980F8382001F088FF24232268EE
:10190C0084F83930D368204623F40053D360FFF7B2
:10191C0087FF236800201A6922F490421A615A69E1
:10192C0022F02A025A61DA6842F40052DA6020236B
:10193C00E06384F8393084F83A3010BD012010BDD2
:10194C0010B5044660B390F8393003F0FF021BB9B0
:10195C0080F8382001F05AFF2423226884F83930AB
:10196C00D368204623F40053D360FFF759FF236854
:10197C0000201A6922F490421A615A6922F022025C
:10198C005A615A6942F008025A61DA6842F400520C
:10199C00DA602023E06384F8393084F83A3010BDE3
:1019AC00012010BD2DE9F0411F4690F83930044656
:1019BC00202B0D4690464ED1002949D0002A47D005
:1019CC0090F83830012B46D0012380F838300023B2
:1019DC00C363212380F83930FEF7FCFB0646A4F8DC
:1019EC002480A4F82680E38C9BB26BB93B4632462C
:1019FC0040212046FFF74EFFA8B9202384F8380079
:101A0C0084F83930BDE8F081E38C3246013B9BB25F
:101A1C00E384A3688021B3F5805F20463B460ED15A
:101A2C00FFF738FF10B10320BDE8F0812B88226846
:101A3C00C3F308035360236943B90235D3E7FFF7B7
:101A4C0029FF0028EFD123682A785A600135CAE7AC
:101A5C000120BDE8F0810220BDE8F0812DE9F041C4
:101A6C001F4690F83A300446202B0D46904651D133
:101A7C0000294CD0002A4AD090F83830012B49D09C
:101A8C00012380F838300023C363222380F83A30D6
:101A9C00FEF7A0FB0646A4F82C80A4F82E80E08D5F
:101AAC0080B230B9202384F8380084F83A30BDE88D
:101ABC00F081E38D3246013B9BB2E385A368202184
:101ACC00B3F5805F20463B4612D1FFF7E3FE10B121
:101ADC000320BDE8F081236822695B6822B9C3F357
:101AEC00080325F8023BDAE7DBB225F8013BD6E721
:101AFC00FFF7D0FE0028EBD1236821696A1C5B68D4
:101B0C0011B92B701546CAE703F07F03F9E70120E2
:101B1C00BDE8F0810220BDE8F0817047704790F875
:101B2C003A3010B5222B36D183680169B3F5805F4A
:101B3C000268836A23D15268E9B9C2F3080223F818
:101B4C00022B8362C48D013CA4B2C4858CB903689A
:101B5C00DA6822F02002DA60DA6822F48072DA6045
:101B6C005A6922F001025A61202380F83A30FFF7BB
:101B7C00D5FF002010BDD2B223F8012BE1E721B92B
:101B8C00591C526881621A70DCE75268591C8162D8
:101B9C0002F07F02F7E7022010BD7047036870B5B2
:101BAC001A6804461607D9685D6907D196065AD596
:101BBC008D0658D5BDE87040FFF7B1BF15F0010593
:101BCC0002D111F4907F4ED0D30705D5CE0542BF7C
:101BDC00E36B43F00103E363500704D51DB1E36BE2
:101BEC0043F00203E363930704D51DB1E36B43F0A9
:101BFC000403E363160704D51DB1E36B43F008033C
:101C0C00E363E36B002B66D0950604D5880602D5FA
:101C1C002046FFF784FF236820465D69E26B1107BD
:101C2C0002D415F040051AD0FFF7ECFD23685A6971
:101C3C00520610D55A69606B22F040025A6150B1BD
:101C4C00254B4363FEF74EFC002844D0606BBDE887
:101C5C007040436B18472046FFF79FFF70BDFFF79E
:101C6C009CFFE56370BD160627D50D0625D594F8A7
:101C7C003920212A2FD1A268B2F5805F226A17D1B0
:101C8C001188C1F308015960216979B902322262C5
:101C9C00E28C013A92B2E284EAB9DA6822F080026C
:101CAC00DA60DA6842F04002DA6070BD0132EEE7C9
:101CBC00511C216212785A60EAE750060BD54A068D
:101CCC0009D5DA68204622F04002DA60202384F835
:101CDC003930FFF722FF70BDE91C000808B500235E
:101CEC00406AC385C384FFF758FF08BDF0B50D7873
:101CFC00034630F82520C87822F4EC4222F070021A
:101D0C001204120C03284ED8DFE800F0024A0447F4
:101D1C0042F40072002048F28004224323F825206C
:101D2C000E78AB4D33F82620344392B22A4022432E
:101D3C0023F826200C7B0A78002C40F088804E7803
:101D4C00CC8896B3B3F8506003EB021224F0010474
:101D5C00B6B202F58062A4B294530C7833F8242006
:101D6C00560609D533F8242092B22A4042F4004298
:101D7C0042F0C00223F82420CA780978012A33F8EB
:101D8C002120944C92B202EA040201D082F020028B
:101D9C0042F4004242F08002CBE042F4C062B9E768
:101DAC0042F48062B6E70120B5E7B3F8505003EB7C
:101DBC00021224F00104ADB202F58162A4B25453B4
:101DCC000A78B3F850600D6903EB0212B6B202F256
:101DDC000C425DBB945B24F4F8442404240C94530F
:101DEC00945B6FEA44446FEA5444A4B294530C7865
:101DFC0033F8242055040DD533F8242022F4E04286
:101E0C0022F070021204120C42F4404242F08002A2
:101E1C0023F82420097833F8212022F4804222F080
:101E2C0070021204120C82F44052B1E73E2D05D818
:101E3C006C08ED0748BF0134A402D6E76F09EC0625
:101E4C00654C08BF07F1FF3744EA8724CDE733F828
:101E5C002240A4B22C4044F4014444F0800423F802
:101E6C0022400A780C89B3F8506003EB021224F07C
:101E7C000104B6B202F58062A4B294530A784C897C
:101E8C00B3F8506003EB021224F0010402F58162F6
:101E9C00A4B2B6B294534A780C78002A4CD133F8D9
:101EAC002420520409D533F8242092B22A4042F45B
:101EBC00404242F0800223F824200C7833F824208E
:101ECC0057060DD533F8242022F4E04222F070029C
:101EDC001204120C42F4004242F0C00223F82420F7
:101EEC000C7833F8242022F4E04222F07002120421
:101EFC00120C42F4004242F0C00223F8242048F2B3
:101F0C0080040D7833F8252022F4804222F07002F0
:101F1C001204120C82F44052224323F82520097833
:101F2C0033F8212022F4E04222F040021204120C79
:101F3C00224323F82120F0BD33F82420560409D580
:101F4C0033F8242092B22A4042F4404242F08002FC
:101F5C0023F824200C7833F8242052060DD533F8BE
:101F6C00242022F4E04222F070021204120C42F4FB
:101F7C00004242F0C00223F824200C78154D33F8AF
:101F8C00242022F4E04222F070021204120C42F4DB
:101F9C00404242F0800223F82420CA780C78012AAF
:101FAC0033F8242092B202EA050218BF82F0200214
:101FBC0042F4004242F0800223F82420097833F8DE
:101FCC00212022F4804222F070021204120CDFE66F
:101FDC008F8FFFFFBF8FFFFF0080FFFF4B780A78CA
:101FEC008BB130F8223023F4E04323F040031B0480
:101FFC001B0C83F0100343F4004343F0800320F8E0
:10200C0022300020704730F8223023F4804323F034
:10201C0070031B041B0C83F48053ECE70B7B43BB5A
:10202C004B780A783BB330F822305B060DD530F88C
:10203C00223023F4E04323F070031B041B0C43F405
:10204C00004343F0C00320F82230CB78012B10D092
:10205C000A7830F8223023F4E04323F040031B04C9
:10206C001B0C83F0200343F4004343F0800320F85F
:10207C0022300020704730F822305B040DD530F848
:10208C00223023F4E04323F070031B041B0C43F4B5
:10209C00404343F0800320F822300A7830F8223095
:1020AC0023F4804323F070031B041B0C83F4405374
:1020BC00D9E711B98023A0F84C3000207047B0F854
:1020CC00440080B270470020704700EB420201339D
:1020DC0002F580625B0802EB83039A4200D17047E1
:1020EC0031F8020B22F8040BF7E7000070B50D462F
:1020FC00497804460129AA692B69287B66D19A4242
:10210C009DBF0023AB611346D21A88BFAA619EB251
:10211C0008BB3346EA8869692046FFF7D6FFB4F856
:10212C0050302A7899B204F2044312010B44D6526F
:10213C002A7834F8223023F4E04323F040031B04C4
:10214C001B0C83F0300343F4004343F0800324F86A
:10215C002230002070BD2B78204634F823201B0140
:10216C0012F0400FB4F8502091B215BF04F20C429B
:10217C0004F204425218521815BFD652D6526A892C
:10218C002A8933466969FFF7A0FF6B782A7873B9FF
:10219C0034F8223023F4E04323F070031B041B0CAF
:1021AC0043F4004343F0C00324F82230C0E7012B72
:1021BC00BED134F8223023F4E04323F070031B0427
:1021CC001B0C43F4404343F08003EDE79A4293BF6A
:1021DC000023D21AAA61AB6198BF13462A78B0B912
:1021EC00B4F85000120181B204F20C400844002BE8
:1021FC0044D1835A23F4F8431B041B0C8352835A97
:10220C006FEA43436FEA53439BB283523FE0A1B959
:10221C00B4F85000120181B204F204400844E3B94E
:10222C00815A21F4F8410904090C8152815A6FEA50
:10223C0041416FEA514189B2815269782A7800296B
:10224C00CED0012923D1B4F85010120188B204F277
:10225C000C4101449BB28B5219E03E2B05D8590816
:10226C00DE0748BF01318902E5E75E09D90612494C
:10227C0008BF06F1FF3641EA8621DCE73E2B12D877
:10228C005908DE0748BF0131890289B281522A7888
:10229C0034F8223023F4804323F070031B041B0C0E
:1022AC0083F440534FE75909DB06034B08BF01F198
:1022BC00FF3143EA8123A7E70080FFFF00EB4202D6
:1022CC00F0B502F580625D08084617462E460230CE
:1022DC0036B9DB0744BF32F8253001F81530F0BDB4
:1022EC0037F8044B013EA4B200F8024C240A00F863
:1022FC00014CECE708B5D0F8B4320BB9022008BD9C
:10230C001B6898470028F9D108BD08B5D0F8B4323D
:10231C005B689847002008BD38B500F52A7504465F
:10232C00284600F0E1FA012394F8A812C4F894327C
:10233C00B4F8AE32C4F8983201F01F03012B0ED062
:10234C0007D3022B10D001F08001204601F068FB6E
:10235C0003E02946204600F0F5F8002038BD294658
:10236C00204600F013FAF8E72946204600F033FA2D
:10237C00F3E770B50546164649BBD0F89432032BEB
:10238C001ED1D0F86031D0F8642193420BD99B1A3E
:10239C009A42C0F860318CBF9AB292B2314600F0CA
:1023AC00CCFA002070BDD0F8B4321B6923B190F880
:1023BC009C22032A00D19847284600F0C6FAF0E781
:1023CC00052BEED1C5F8941201F02AFBE9E7D0F801
:1023DC00B4329B692BB190F89C22032A01D1984707
:1023EC00DFE7022070BD70B5134604460E46002987
:1023FC0047D1D0F89422022A3CD1056A426A954210
:10240C0013D9AA1A0262194692B200F08EFA334618
:10241C001A461946204601F04BFB94F8A0320020D6
:10242C00012B3AD184F8A00270BDC369B3FBF2F55D
:10243C0002FB153565B99A420AD8D0F89822934216
:10244C0006D22A4600F071FAC4F898522B46DFE700
:10245C00D4F8B432DB682BB194F89C22032A01D156
:10246C00204698478021204601F0DAFA204600F0F9
:10247C0077FAD2E732F00403CFD1802101F0D0FA01
:10248C00CBE7D0F8B4325B6933B190F89C22032AC5
:10249C0002D19847002070BD022070BD002270B59B
:1024AC000446012540261146402301F0A9FA334683
:1024BC008021C4F85851C4F864610022204601F010
:1024CC009FFA0021D4F8B832A561666284F89C5258
:1024DC00C4F894126160C4F8A41223B1D4F8B432D5
:1024EC0020465B689847002070BD0174002070473F
:1024FC0090F89C3280F89D32042380F89C320020A6
:10250C00704790F89C32042B04BF90F89D3280F8F1
:10251C009C320020704708B590F89C22032A04D105
:10252C00D0F8B432DB6903B19847002008BD10B570
:10253C000446802101F074FA2046BDE810400021C9
:10254C0001F06EBA37B50B78044603F06003202B0C
:10255C000D4612D0402B10D0002B5CD14B78092BA0
:10256C0058D8DFE813F0E90005015700FE005700CA
:10257C00840013005700D200A000D4F8B4322946CE
:10258C009B6820469847002003B030BD0023ADF86F
:10259C0006304B881A0A013A062A3BD8DFE802F0CB
:1025AC0004202D3A3A525C00D0F8B0321B680DF181
:1025BC000601207C9847BDF8062052B1EB8843B148
:1025CC009A4228BF1A4601462046ADF8062000F074
:1025DC009FF9EB88002BD6D1204600F0B6F9D2E754
:1025EC00027CD0F8B43232B99B6A0DF106009847E0
:1025FC0002234370DFE7DB6AF7E7DBB2052B09D870
:10260C00DFE803F0030C1014181CD0F8B0325B6830
:10261C00002BCCD12046FFF78AFFB4E7D0F8B032BC
:10262C009B68F5E7D0F8B032DB68F1E7D0F8B03250
:10263C001B69EDE7D0F8B0325B69E9E7D0F8B0324E
:10264C009B69E5E7037C002BE4D1D0F8B4320DF1A3
:10265C0006005B6B9847AEE7037C002BDAD1D0F811
:10266C00B4320DF106001B6B98470723C1E78B882A
:10267C00002BCFD1CB88002BCCD14D887F2DC9D846
:10268C0090F89C32E9B2032BC4D080F89E1201F072
:10269C00F3F9204600F059F91DB1022384F89C325D
:1026AC0071E70123FAE78978374D01292970B1D8F0
:1026BC0090F89C32022B08D0032B14D0FFF737FF75
:1026CC0029782046FFF721FE5DE7002984D00121FF
:1026DC000323416080F89C322046FFF70BFE022852
:1026EC007FF47AAF96E731B90223416080F89C32CF
:1026FC00FFF70BFE70E7416801293FF46DAFC9B2DB
:10270C00FFF703FE29786160E6E7CA88012A81D1C8
:10271C0090F89C32002B3FF47DAF022B04D9032B95
:10272C007FF478AF011D03E00146002341F8083F18
:10273C00204600F0EDF826E790F89C32013B022B86
:10274C003FF668AFCB88022B7FF464AF0123C360E4
:10275C00D0F8A4320BB10323C360022204F10C01A4
:10276C00E6E74B88012B7FF40EAFC4F8A43233E7B5
:10277C0090F89C32013B022B3FF64CAF4B88012B5F
:10278C007FF401AF0023F0E76402002038B50B782A
:10279C00044603F06003202B0D4602D0402B00D0E2
:1027AC00B3B994F89C32013B022B10D82B79012B36
:1027BC000DD8D4F8B43229469B6820469847EB884C
:1027CC001BB910B9204600F0C0F8002038BD2046D7
:1027DC00FFF7ADFEF9E738B50A78044602F060025F
:1027EC00202A0B4613D0402A11D06AB95D788A880A
:1027FC00012DD1B21FD035D3032D05D190F89C22D9
:10280C00022A26D0032A0AD0FFF791FE05E0D4F85D
:10281C00B4221946926820469047002038BD5A8849
:10282C002AB94A0603D0DB880BB901F0F9F8204627
:10283C0000F08BF8F1E790F89C22022A09D0032AC9
:10284C00E2D15B88002BE8D14D06F0D001F0F6F810
:10285C00EDE74B0616D001F0E3F88021204601F09D
:10286C00DFF8DAE790F89C32022B0DD0032BCBD19A
:10287C00142312F0800F01F00F0203FB020214D09C
:10288C009269EAB92046BFE74906FBD113064FF01F
:10289C0000034FF002024CBF00F1140100F5AA71C5
:1028AC000B60204600F034F8B7E7D2F85821002A24
:1028BC00E8D001F07F0503FB050505F5AA7504E0DA
:1028CC0001F07F0505FB0335054411F07F0303D1AF
:1028DC002B6002222946E4E7204601F0BDF808B13E
:1028EC000123F5E72860F4E70B7803704B7843700D
:1028FC00CA788B7803EB022343804A790B7903EB7C
:10290C0002238380CA798B7903EB0223C38070473F
:10291C001346022210B5C0F89422C3610A46036222
:10292C00002101F0B7F8002010BD08B513460A4687
:10293C00002101F0AFF8002008BD08B513460A4687
:10294C00002101F0B5F8002008BD08B50423C0F83B
:10295C00943200231A46194601F09CF8002008BD59
:10296C0008B50523C0F8943200231A46194601F025
:10297C009FF8002008BD0000014B1868704700BF8D
:10298C0068020020014B1878704700BF65020020D8
:10299C00014B1868704700BF7002002010B5064C40
:1029AC00206808B101F04AF9044B1868013001F0B5
:1029BC003DF9206010BD00BF6C02002070020020A9
:1029CC000122064B02281960054B1A7014BF0B220A
:1029DC001A22044B1A60FFF7E1BF00BF6802002007
:1029EC006502002070020020044B1B6823B1044ACE
:1029FC001268824288BF1954704700BF6C020020D5
:102A0C0070020020054B1B682BB1054A12688242EC
:102A1C0001D9185C70470020704700BF6C02002081
:102A2C0070020020044B1B68834286BF034B53F893
:102A3C0020000020704700BF70020020080000201A
:102A4C00F7B5FFF799FF2A4C2A4E30602046FFF766
:102A5C00A5F82268284913680D78002101911068A7
:102A6C0013F0020301905268EDB20192019A234ACD
:102A7C0002D0117003B0F0BD1178214CC1B12149C5
:102A8C000B70238013708DB1172D4FF001002BD0DC
:102A9C00087013701C4B4FF400511A781B48B2FA93
:102AAC0082F252091A70FDF74DFEE3E7184B1D70C8
:102ABC00174B1B789BB9238832689BB293420ED379
:102ACC002788FFF765FF3368BFB21844874206D2E8
:102ADC00238830689BB22946181AFFF785FF238894
:102AEC0001339BB22380C5E7094B1870E0E700BFA8
:102AFC005C0800207C020020740200208002002070
:102B0C0076020020700000207802002000100140A6
:102B1C00790200207047000010B54FF4804108483E
:102B2C00FDF70AFEB0FA80F44FF400410448640942
:102B3C00FDF702FE08B944F00204204610BD00BFA8
:102B4C000010014010B54FF400411F48FDF7F4FD93
:102B5C00B0FA80F408211D486409FDF7EDFD08B9B1
:102B6C0044F0020410211948FDF7E6FD08B944F0C1
:102B7C0004044FF480711548FDF7DEFD08B944F0EC
:102B8C0008044FF400711148FDF7D6FD08B944F064
:102B9C0010044FF480510D48FDF7CEFD08B944F0F8
:102BAC0020044FF400510948FDF7C6FD08B944F064
:102BBC0040044FF480410548FDF7BEFD08B944F0D0
:102BCC008004204610BD00BF00080140000C0140ED
:102BDC0040F23442FF235043B0FBF3F3034908881F
:102BEC005843B0FBF2F080B2704700BF8202002065
:102BFC0070B5674C0546236800201E78FFF702FF6E
:102C0C00864200D15DB10020FFF7FCFE40F2344358
:102C1C005843FF23B0FBF3F001255E4B188023686B
:102C2C0001205E78FFF7EEFE864200D14DB1012007
:102C3C00FFF7E8FEFFF7CCFF00210246084600F044
:102C4C0017FB236802209E78FFF7DCFE864200D13A
:102C5C004DB10220FFF7D6FEFFF7BAFF0121024665
:102C6C00002000F005FB23680320DE78FFF7CAFE86
:102C7C00864200D14DB10320FFF7C4FEFFF7A8FF39
:102C8C0002210246002000F0F3FA236804201E798A
:102C9C00FFF7B8FE864200D14DB10420FFF7B2FE1B
:102CAC00FFF796FF00210246012000F0E1FA2368AD
:102CBC0005205E79FFF7A6FE864200D14DB10520B6
:102CCC00FFF7A0FEFFF784FF01210246084600F043
:102CDC00CFFA236806209E79FFF794FE864200D136
:102CEC004DB10620FFF78EFEFFF772FF0221024660
:102CFC00012000F0BDFA23680720DE79FFF782FE81
:102D0C00864200D14DB10720FFF77CFEFFF760FF34
:102D1C0000210246022000F0ABFA236808201E7A3C
:102D2C00FFF770FE864200D14DB10820FFF76AFE16
:102D3C00FFF74EFF01210246022000F099FA2368AA
:102D4C0009205E7AFFF75EFE864200D14DB1092064
:102D5C00FFF758FEFFF73CFF02210246084600F041
:102D6C0087FA23680A209C7AFFF74CFE844200D134
:102D7C004DB10A20FFF746FEFFF72AFF032102465A
:102D8C00022000F075FABDE87040FFF7FBBD00BFF4
:102D9C00840200208202002038B50C4C206808B157
:102DAC0000F04CFFFFF7F4FD013000F03FFF05464B
:102DBC002060FFF7EDFD0021421C284600F046FF85
:102DCC00BDE838400120FFF713BF00BF840200208C
:102DDC00282230B595B00DEB0200002100F036FF33
:102DEC00142200210DEB020000F030FF0021102214
:102DFC0001A800F02BFF09230A934FF48033012222
:102E0C0002250B9312934FF4E0130AA80E92109222
:102E1C0013931195FDF79CFF0F23002405934FF49A
:102E2C008063294605A80893069507940994FEF734
:102E3C0069F9122301934FF4004301A803930494FE
:102E4C00FEF71EFA15B030BD80B588B0FDF7A4F9B9
:102E5C00FFF7BEFF10228C4D00210DEB020000F09D
:102E6C00F5FEAB69002243F01003AB61AB69802126
:102E7C0003F010030093009BAB69844843F02003DC
:102E8C00AB61AB69002403F020030193019BAB6998
:102E9C00012743F00403AB61AB69022603F0040382
:102EAC000293029BAB694FF4005843F00803AB61EB
:102EBC00AB694FF0030903F008030393039BFDF781
:102ECC0041FC4FF4404304A97148049305940694C3
:102EDC00FDF750FB04A96E480796CDF810800597B6
:102EEC00FDF748FB40F2CE7348F2200A04A969486A
:102EFC0004930596CDF81C90FDF73CFB04A96348A0
:102F0C00CDF810900596CDF81C90FDF733FB04A975
:102F1C006048CDF810A005940697FDF72BFB47F2FF
:102F2C00183304A95948049305940697FDF722FB1E
:102F3C0004A956480596CDF81C90CDF810A0FDF7C5
:102F4C0019FB4FF480634FF4602904A94F48049394
:102F5C00079605970694FDF70DFB4F4A4F4E5368A5
:102F6C00414643F0E0633B43536049483A46FDF722
:102F7C00E9FB4B4B30463360B46034733475C6F8A0
:102F8C001C9074603761049405940694FDF7CEF997
:102F9C0004A93046434E049405970694FDF720F996
:102FAC00414B30463360B46034733475C6F81C90B2
:102FBC0074603761049405940694FDF7B7F9042303
:102FCC0030460C2604A9049305970694FDF708F9DE
:102FDC003648374A374B846080E80C00C0F80C80C8
:102FEC00046146618461C461FEF7AAFC4FF4E133CD
:102FFC003149324880E80A008460C460046146614B
:10300C008461C461FEF76EFC80222D4B2D485A6002
:10301C0000F0C4F92C4800F0C1F92C4800F0BEF9BE
:10302C00294800F0BBF9274800F0B8F96B6A00F0AA
:10303C00F3F8274800F0B2F9FFF76EFD0546FFF7ED
:10304C0081FD01462846FFF7BBFC224800F0A6F99B
:10305C00FFF760FD204800F0A1F9FFF79DFE1F4827
:10306C0000F09CF91E4800F099F91E4800F0B6F9E2
:10307C00224641460648FDF765FB00F0C9F90020E1
:10308C00FFF7B6FDF9E700BF00100240000C01404D
:10309C000010014000080140000001402C080020F5
:1030AC0000240140F0070020002801405C080020AB
:1030BC000038014090D0030000480040B0070020C9
:1030CC0000E100E0BA490008FE490008B0480008D9
:1030DC00BE480008D2480008E9480008FE4800082D
:1030EC001749000824490008704700001C222DE9EC
:1030FC00F0418EB0064600210DEB020000F0A6FD5B
:10310C000021102203A80191029100F09FFD012ED5
:10311C00384C67D062D3022E67D0002340F22A428B
:10312C0004EB86146360A360E26023616361204654
:10313C00FEF7DEF910B1304800F030F94FF480534F
:10314C0003A920460393FEF79FFA10B12B4800F019
:10315C0025F92046FEF7E6F910B1294800F01EF9D2
:10316C006023079340F21A230893042300250B9342
:10317C00244BDFF89C8003EB061776B209950A9571
:10318C000C950D9503EB061657F82530FF2B09D03F
:10319C0056F8252007A92046FEF70AFA10B140463A
:1031AC0000F0FCF80135042DEED12046FEF755F960
:1031BC000025DFF8608057F82530FF2B08D056F833
:1031CC0025102046FEF702FB10B1404600F0E6F851
:1031DC000135042DEFD10EB0BDE8F0814FF08043E6
:1031EC0023609AE7084B236497E7084BC4F88030B8
:1031FC0093E700BF9C080020294900083C490008BF
:10320C004F4900088849000800040040002C014088
:10321C0062490008754900081FB5144B00209A69D3
:10322C0042F400629A619A6902F400620192019A76
:10323C00DA6942F00102DA61DA6902F00102029203
:10324C00029ADA6942F00102DA61DB6903F00103E8
:10325C000393039BFFF74AFF0120FFF747FF022070
:10326C00FFF744FF05B05DF804FB00BF00100240FF
:10327C000B4B01EB800153F82110FF290ED0094BA9
:10328C0080011B5809B95A637047042901D19A630C
:10329C007047082901D1DA6370471A64704700BF80
:1032AC00884900089C0800200A4641F288330146F0
:1032BC000148FEF777BB00BFB007002007B500231D
:1032CC0001220DF107010548FEF7C8FB20B99DF856
:1032DC00070003B05DF804FB0020FAE7B0070020FC
:1032EC000021034B80220348196000F0AFBC00BFE3
:1032FC00080300208802002010B5194C194A2368D5
:10330C00D0B9A3B91368072B15D007232360FFF797
:10331C00E7FF154B2168802203EBC111134800F025
:10332C0078FD1248FCF70CFF114B186003E0126893
:10333C00013B9342EAD110BD12689342FBD0072B9C
:10334C0005D13AB92260BDE81040FFF7C9BF591C3E
:10335C008A42F7D00133082B08BF0023D6E700BF01
:10336C000C070020100700200C030020880200200E
:10337C000803002008B500F0F1FB28B1BDE80840B7
:10338C00017A4068FFF790BF08BD10B50446FFF7FF
:10339C0095FF207000B910BD012010BD0FB413B5FE
:1033AC000C4C04AB53F8042B7C212046019300F009
:1033BC005BFE0949204600F00BFD2046FCF7C0FEE1
:1033CC0081B22046FFF770FF02B0BDE8104004B098
:1033DC00704700BF14070020B84900080FB413B59C
:1033EC000A4C04AB53F8042B7C212046019300F0CB
:1033FC003BFE2046FCF7A4FE81B22046FFF754FFAB
:10340C0002B0BDE8104004B0704700BF14070020A4
:10341C002DE9F046704B97B018681B796F4D704EC4
:10342C0003908DF810300DF10B00FFF7AEFF012863
:10343C0002D017B0BDE8F0869DF80B0000F046FBFB
:10344C0001280ED12B687F2B05D85A1C9DF80B1028
:10345C002A60644AD15401210DF10B00FFF724FFBF
:10346C00E1E708287AD16048FFF798FF5D490B78AF
:10347C0083B15E4F5E483C68802200EBC41001347F
:10348C0000F0C7FC072CCABF00233C603B603A68C5
:10349C00584B1A605849534800F0D0FC00240DF1E9
:1034AC005809554F49F8440D59F824300BB10F2CDD
:1034BC001FD180225149059800F099FC013C074628
:1034CC00F8B180224E49059800F091FC58BB0D20B4
:1034DC00FFF750FF0E20FFF74DFFFFF701FF0DF137
:1034EC000B000121FFF7E0FE03A94648FFF776FF2A
:1034FC0099E73946002000F0A1FC013449F824007A
:10350C00D2E74FF00C0A3848FFF748FF3E4B1B68D8
:10351C000193019B9F42D4DA0AFB07F39859FFF7FA
:10352C003DFF0137F5E74FF0000A374B2C4F1B6876
:10353C000193019B9A45D0DA80223968059800F0F6
:10354C0056FC38B9BB6849462046984710B978688C
:10355C00FFF724FF0AF1010A0C37EAE700283FF4D1
:10356C0062AF07280ED12B68002B04DD00211D4A09
:10357C00013B2B60D1540720FFF7FCFE0A20FFF71C
:10358C00F9FE50E7022816D10B20FFF7F3FE0024BA
:10359C002B6804339C4209D303A8FFF71FFF0020BC
:1035AC00FFF7AAFE0F48FFF719FF3CE70C20FFF7C7
:1035BC00E1FE0134ECE703287FF435AF0B20FFF775
:1035CC00D9FE00242B689C4201DB0120E8E70C208B
:1035DC00FFF7D0FE0134F5E724490008080300206A
:1035EC00804A000888020020BA4900081007002011
:1035FC000C0300200C070020764C0008BB49000887
:10360C00C0490008C4490008C849000808B5024868
:10361C00FFF7C4FE012008BDCC49000808B5FFF730
:10362C00ABF901460248FFF7B9FE012008BD00BF07
:10363C002E4A000808B5FFF7A5F9012808D003D3D6
:10364C00022807D0012008BD0348FFF7A7FEF9E7C1
:10365C000248FAE70248F8E7414A00085B4A0008CA
:10366C00684A0008F7B5FFF787F901461648FFF7D7
:10367C0095FEFFF78DF901461448FFF78FFEFFF713
:10368C0081F901461248FFF789FE1248FFF786FEC2
:10369C000024114DFFF77CF9A04202D8012003B0A1
:1036AC00F0BDFFF769F926182046FFF7BBF907466E
:1036BC002046FFF7A7F9214600903B4632462846A4
:1036CC00FFF76CFE0134E5E72E4A0008D0490008EC
:1036DC00E7490008F04900080C4A0008032870B5B7
:1036EC000C4611D1486800F072FA0546A06800F04B
:1036FC006EFA0646E06800F06AFAF1B282B2E8B2FD
:10370C00FFF7B6FD012070BD002070BD012810B57B
:10371C00044605D149680348FFF740FE204610BD1A
:10372C000024FBE7C84A00080E4B82B09A6942F0AD
:10373C0001029A619A6902F001020092009ADA6918
:10374C0042F08052DA61DB69074A03F0805301933F
:10375C00019B536823F0E06343F00073536002B0A5
:10376C00704700BF001002400000014030B510242B
:10377C00054689B0224600210DEB040000F066FAE4
:10378C002B681E4A93421DD11D4B0DEB04019A6907
:10379C0042F400729A619A6902F400720092009AE3
:1037AC009A6942F004029A619B6903F00403019345
:1037BC00019B01230493032305931248FCF7DAFEC3
:1037CC0009B030BD104A9342FAD10D4B04A99A6945
:1037DC0042F480629A619A6902F480620292029ABF
:1037EC009A6942F004029A619B69049403F0040301
:1037FC000393039B03230593DFE700BF00240140E1
:10380C00001002400008014000280140102210B5B1
:10381C00044688B00DEB0200002100F017FA236873
:10382C002A4A934225D12A4B04A99A69294842F481
:10383C0080429A619A6902F480420092009A9A69D5
:10384C0042F008029A619B6903F008030193019B03
:10385C00402304931223059303230793FCF78AFE5A
:10386C001D4A536843F0E06343F00403536008B00F
:10387C0010BD1A4A9342FAD1154B04A9DA691548BE
:10388C0042F48022DA61DA6902F480220292029A0E
:10389C009A6942F008029A619B6903F0080303934A
:1038AC00039B4FF480630493022305930323079334
:1038BC00FCF760FE4FF400630493002304A9054851
:1038CC0005930693FCF756FED1E700BF0038014084
:1038DC0000100240000C0140000001400048004074
:1038EC007047FEE7FEE7FEE7FEE77047704770475C
:1038FC00FCF764BC0148FCF79FBF00BF5C090020CB
:10390C0008B50A4B0246196809B909491960694694
:10391C00186802448A4206D900F05EF90C23036051
:10392C004FF0FF3008BD1A6008BD00BF940700209F
:10393C00CC0B00200F4B1A6842F001021A60596838
:10394C000D4A0A405A601A6822F0847222F48032BE
:10395C001A601A6822F480221A605A6822F4FE0255
:10396C005A604FF41F029A604FF00062034B9A604A
:10397C00704700BF001002400000FFF800ED00E0AF
:10398C0000F50C71D0F86802FEF7C6BC00EB4113D1
:10399C00D3F83C21D0F86802FEF7EBBC00EB4113E6
:1039AC00DA6BD0F86802FEF71EBDD0F86802FEF79D
:1039BC00B2BD836810B5022B044601D0FFF794FB0F
:1039CC00D4F868020121FEF790FDD4F86802BDE836
:1039DC001040FEF763BD000010B50446D0F8680235
:1039EC00FEF786FDA36923B1024A136943F006036F
:1039FC00136110BD00ED00E0D0F86802FEF781BD48
:103A0C0010B51C46D0F8C00213462246FCF7B3FE94
:103A1C0003289ABF014B185C022010BD8E4B000886
:103A2C0008B5D0F8C002FDF72DF903289ABF024B58
:103A3C00185C022008BD00BF8E4B000808B5D0F8FA
:103A4C00C002FDF753F903289ABF024B185C022001
:103A5C0008BD00BF8E4B00080A06D0F8C03245BF27
:103A6C0001F07F0103EB411303EB411393F82A00A0
:103A7C0058BF93F82A01704708B5D0F8C002FCF77C
:103A8C0066FE03289ABF024B185C022008BD00BFDB
:103A9C008E4B000808B5D0F8C002FCF7B7FE03281F
:103AAC009ABF024B185C022008BD00BF8E4B000869
:103ABC0008B5D0F8C002FCF791FE03289ABF024B60
:103ACC00185C022008BD00BF8E4B00082DE9F047A2
:103ADC001F4D2B781BB9A0F120025E2A31D90D287D
:103AEC0032D01C4C1C4F4FF00008B946A2465E1C4D
:103AFC00F6B22E70E0543B7AB34215D132465146A1
:103B0C00786800F074F9034670B90C2202FB08F8CF
:103B1C0019F8080080B9072E4FF0000015D928704D
:103B2C0020606060BDE8F08708F10108B8F10F0F64
:103B3C0007F10C07DFD1EEE72B7023606360BDE863
:103B4C00F0870120BDE8F0870820BDE8F08700BFB2
:103B5C00A007002098070020B44B00080E2830B5B1
:103B6C000CD800220C24064B04FB02F1CD5C8542E0
:103B7C0001D1581830BD01320F2AF5D1002030BDCB
:103B8C00B44B0008002103E00B4B5B58435004314D
:103B9C000A480B4B42189A42F6D30A4A02E0002319
:103BAC0042F8043B084B9A42F9D3FFF7C3FE00F0EE
:103BBC0019F8FFF749F97047B04D000800000020D4
:103BCC004802002048020020CC0B0020FEE70A220D
:103BDC00002100F007BA0000014B1868704700BFC5
:103BEC007800002070B500250C4E0D4CA41BA410C1
:103BFC00A54209D100F0B4FD00250A4E0A4CA41BC5
:103C0C00A410A54205D170BD56F825309847013552
:103C1C00EEE756F8253098470135F2E7A84D000835
:103C2C00A84D0008A84D0008AC4D0008024B0146F9
:103C3C00186800F05FB800BF78000020024B014606
:103C4C00186800F00BB800BF78000020034602444F
:103C5C00934200D1704703F8011BF9E738B50546CC
:103C6C00002943D051F8043C0C1F002BB8BFE418BA
:103C7C0000F01DFA1E4A1368104633B963601460D5
:103C8C002846BDE8384000F013BAA3420BD921688E
:103C9C006218934201BF1A685B6852182260636015
:103CAC000460EDE713465A680AB1A242FAD91968C2
:103CBC005818A0420BD12068014458188242196050
:103CCC00DED110685268014419605A60D8E702D9F5
:103CDC000C232B60D4E7206821188A4201BF11689D
:103CEC0052680918216062605C60C9E738BD00BF8A
:103CFC00A407002070B5CD1C25F0030508350C2D4C
:103D0C0038BF0C25002D064601DBA94203D90C2334
:103D1C003360002070BD00F0CAF9234A14682146B4
:103D2C0091B9224C23681BB9304600F041F8206051
:103D3C002946304600F03CF8431C26D10C23304673
:103D4C00336000F0B5F9E4E70B685B1B1AD40B2B5E
:103D5C000FD90B60CC18CD50304600F0A9F904F106
:103D6C000B00231D20F00700C31A1BD05A42E2504F
:103D7C0070BD8C420BBF63684B681360636018BFE7
:103D8C000C46E9E70C464968CAE7C41C24F0030456
:103D9C00A04205D0211A304600F00AF80130CDD0EF
:103DAC002560D9E770BD00BFA4070020A80700203C
:103DBC0038B50023054C054608462360FFF7A0FDE7
:103DCC00431C02D1236803B12B6038BDC80B002003
:103DDC00024610B513461C780132002CFAD1013B77
:103DEC0011F8012B03F8012F002AF9D110BD10B5E1
:103DFC006AB10139841810F8013B11F8012F934274
:103E0C0003D1A04201D0002BF5D1981A10BD104659
:103E1C0010BD70B5044602B970BD234611F8015BA4
:103E2C00561E03F8015B1DB91444A34203D170BDA7
:103E3C001C463246EFE703F8015BF6E7134B2DE91E
:103E4C00F0411D680646AC6D0F46B4B95020FFF723
:103E5C00EDFEA865046044608460C4600461446144
:103E6C0084618462C462046344638463C4630464D1
:103E7C0044648464C46404774462AA6D3946304651
:103E8C00BDE8F041012300F003B800BF780000202A
:103E9C00F0B518B9106808B9F0BD204604460F46B5
:103EAC0014F8015B17F8016B1EB965B9156028464B
:103EBC00F0BDB542F6D1002BEFD114600370F0BD0C
:103ECC001C460CE015B90E4614F8013B16F8015BC4
:103EDC00AB42F7D1002BF3D0002304F8013C146063
:103EEC00F0BD2DE9F84F8046894692461F468B4619
:103EFC005D460A9815F8014B00F0C4F8204446784A
:103F0C0016F008060BD12D2C0BD101262C780BF1B9
:103F1C00020567B1102F14D1302C0AD011E0AB463A
:103F2C00E6E72B2C04BF2C780BF10205F1E7302CC3
:103F3C0027D12B7803F0DF03582B4BD110276C784B
:103F4C000235002E0CBF6FF000414FF000410022F3
:103F5C00B1FBF7FE104607FB1E1CA4F13003092B26
:103F6C0011D81C46A7421DDD531C07D0864516D31D
:103F7C0001D1A44513DB012200FB074015F8014BCE
:103F8C00EBE70A27DDE7A4F14103192B01D8373CF5
:103F9C00E8E7A4F16103192B04D8573CE2E74FF092
:103FAC00FF32EBE7531C08D122230846C8F8003037
:103FBC00BAF1000F07D1BDE8F88F06B14042BAF153
:103FCC00000F0CD022B1013DCAF80050BDE8F88FAB
:103FDC004D46F9E73024002FB3D10827B1E7BDE8EF
:103FEC00F88F0000084B37B51C68084D236A002B6E
:103FFC0008BF2B46009313460A4601462046FFF79E
:10400C0070FF03B030BD00BF78000020DC00002042
:10401C0030B5141E05469BB0184605DA8B234FF0BD
:10402C00FF302B601BB030BD4FF40273ADF80C3079
:10403C000CBF234604F1FF33029305934FF6FF7335
:10404C0000910491ADF80E3002461E9B694628463D
:10405C0000F08AF8431CBCBF8B232B60002CE1D0F2
:10406C000022009B1A70DDE707B5009313460A4641
:10407C00014603480068FFF7CBFF03B05DF804FB73
:10408C0078000020D0F8EC00704782B001B901A98B
:10409C0042B14BB113780B601278101C18BF012081
:1040AC0002B070471046FBE76FF00100F8E770476D
:1040BC0070472DE9F0478E6882469E420C46914629
:1040CC00984635D88A8912F4906F31D0022325682E
:1040DC0009696F1A656905EB450595FBF3F508F160
:1040EC0001033B449D4238BF1D46530531D529463B
:1040FC00FFF700FE064650B90C23CAF80030A3891E
:10410C004FF0FF3043F04003A381BDE8F0873A46FF
:10411C00216900F0D0FAA38923F4906343F0800363
:10412C00A38126613E44266046466561ED1BA56071
:10413C00464528BF464649463246206800F0C6FA36
:10414C00A36800209B1BA36023681E442660BDE867
:10415C00F0872A4600F0D4FA06460028E1D12169FE
:10416C005046FFF77BFDC7E72DE9F04F9DB0039359
:10417C008B8980461C060D4616460FD50B696BB90C
:10418C004021FFF7B7FD2860286128B90C23C8F837
:10419C0000304FF0FF30C4E040236B6100230993E3
:1041AC0020238DF8293030234FF0010B8DF82A3065
:1041BC0037463C4614F8013B002B3CD1B7EB060AC2
:1041CC000BD05346324629464046FFF772FF01306A
:1041DC0000F0A280099B534409933B78002B00F01C
:1041EC009B8000234FF0FF320493079305920693B4
:1041FC008DF853301A9305222178504800F04DFA6F
:10420C00671C049BD8B9D90644BF20228DF85320D3
:10421C001A0744BF2B228DF8532022782A2A16D055
:10422C0000210A20079A27463B780134303B092BA2
:10423C0050D9C9B111E0252BC0D02746B9E73F4A68
:10424C003C46801A0BFA00F018430490D3E7039A0B
:10425C00111D12680391002A01DB079204E05242FF
:10426C0043F00203079204933B782E2B0DD17B78FD
:10427C00791C2A2B32D1039B02371A1D1B6803921F
:10428C00002BB8BF4FF0FF3305932D4C0322397828
:10429C00204600F002FA38B14023001B03FA00F06C
:1042AC00049B0137034304933978062225487E1C6E
:1042BC008DF8281000F0F1F9002835D0224BFBB90D
:1042CC00039B073323F0070308330393099B4B44E9
:1042DC0009936DE700FB02320121A4E700230A24B5
:1042EC00184605930F463A780131303A092A03D91A
:1042FC00002BCAD00590C8E704FB00200123F1E78E
:10430C0003AB00932A46114B04A94046AFF300803F
:10431C00B0F1FF3F8146D9D1AB895B063FF539AF90
:10432C0009981DB0BDE8F08F03AB00932A46074BEC
:10433C0004A9404600F084F8EAE700BF724C00087C
:10434C00784C00087C4C000800000000BF400008BE
:10435C002DE9F04791461F468A680B690646934241
:10436C00B8BF1346C9F8003091F843200C46DDF86D
:10437C00208012B10133C9F800302368990642BF7E
:10438C00D9F800300233C9F80030256815F006055D
:10439C0007D104F1190AE368D9F800209B1A9D4251
:1043AC002ADB94F843302268003318BF01239206AD
:1043BC002FD404F1430239463046C047013022D095
:1043CC002368E56803F00603042B18BF0025D9F811
:1043DC0000204FF0000908BFAD1AA368226908BF7E
:1043EC0025EAE5759342C4BF9B1AED181A344D4566
:1043FC001BD10020BDE8F0870123524639463046D8
:10440C00C047013003D14FF0FF30BDE8F0870135D4
:10441C00C1E73020E11881F843005A1C94F845108C
:10442C002244023382F84310C3E701232246394663
:10443C003046C0470130E6D009F10109D7E700004A
:10444C002DE9F04317460A7E85B06E2A984606463B
:10445C000C460C9B01F1430E00F0BC801AD8632A69
:10446C002ED00AD8002A00F0C880582A00F08A8082
:10447C0004F1420584F842202AE0642A01D0692A1A
:10448C00F6D121681A6811F0800F23D0111D196024
:10449C00136827E0732A00F0B48008D86F2A2AD05A
:1044AC00702AE5D10A6842F020020A6003E0752AFE
:1044BC0021D0782ADCD178226F4984F8452064E039
:1044CC001A6801F14205111D1960136884F8423015
:1044DC000123A3E011F0400F02F104011960D7D0C1
:1044EC00B2F90030002B03DA2D225B4284F8432012
:1044FC0062490A2217E02068196810F0800F03D077
:10450C00081D18600B6806E010F0400F01F1040064
:10451C001860F7D00B886F2A14BF0A22082257495B
:10452C00002084F843006568002DA560C0F29C80D3
:10453C00206820F004002060002B3FD1002D40F0BB
:10454C0095807546082A0BD12368DA0708D52369AC
:10455C0062689A42DEBF302305F8013C05F1FF3555
:10456C00AEEB05032361CDF800803B4603AA214640
:10457C003046FFF7EDFE013055D14FF0FF3005B05E
:10458C00BDE8F08381F845203C492268186812F098
:10459C00800F00F104051D6001D0036802E0550690
:1045AC00FBD50388D00744BF42F0200222601BB920
:1045BC00226822F0200222601022B1E77546B3FB7C
:1045CC00F2F002FB1033CB5C05F8013D03460028EA
:1045DC00F5D1B7E708681A6810F0800F496904D064
:1045EC00101D18601368196007E010F0400F02F1FD
:1045FC00040018601368F6D01980002375462361F7
:10460C00B1E71A68111D1960156800216268284607
:10461C0000F043F808B1401B60606368236100231D
:10462C0084F843309FE723692A4639463046C04711
:10463C000130A2D023689B0707D5002504F1190986
:10464C00E368039A9B1A9D4205DBE068039B984242
:10465C00B8BF184693E701234A4639463046C0474F
:10466C0001308AD00135EBE7002BA7D10B7804F190
:10467C00420584F8423065E7944C0008834C0008EE
:10468C0049B1FF2A8BBF8A230A700360012088BFBF
:10469C004FF0FF3070470846704710B5C9B202445E
:1046AC009042034601D1002010BD1C7801308C4291
:1046BC00F6D1184610BD10B5431E0A44914200D1E4
:1046CC0010BD11F8014B03F8014FF7E7884210B504
:1046DC0001EB020303D8421E99420CD110BD984243
:1046EC00F9D28118D21AD34200D110BD13F8014D62
:1046FC0001F8014DF7E711F8014B02F8014FEBE718
:10470C00F8B5074614460E4621B91146BDE8F840E7
:10471C00FFF7F0BA22B9FFF7A1FA25462846F8BDF3
:10472C0000F014F884420FD921463846FFF7E2FA1C
:10473C0005460028F2D031462246FFF7BCFF314631
:10474C003846FFF78BFAE9E73546E7E751F8040CF2
:10475C000028A0F10400BCBF0B58C0187047000023
:10476C00F8B500BFF8BC08BC9E467047F8B500BF52
:08477C00F8BC08BC9E46704722
:1047840002030405060708090A0B0C0D0E0F10108E
:104794004D41585F4252494748544E004348315FA7
:1047A400524544004348315F475245454E00434813
:1047B400315F424C5545004348325F524544004303
:1047C40048325F475245454E004348325F424C559C
:1047D40045004348335F524544004348335F4752E2
:1047E40045454E004348335F424C554500434833EA
:1047F4005F57484954450053545249505F42495405
:1048040053005354524950315F5041545445524E11
:10481400005354524950315F53504545440053545A
:10482400524950315F53495A45005354524950310B
:104834005F434F4D504C4558005354524950315FDB
:104844005631005354524950315F5632005354523A
:104854004950315F5633005354524950325F5041EE
:10486400545445524E005354524950325F535045AC
:104874004544005354524950325F53495A450053FA
:1048840054524950325F434F4D504C455800535495
:10489400524950325F5631005354524950325F5698
:1048A40032005354524950325F563300444D58201D
:1048B4004354524C2056312E300054696D65722099
:1048C400496E697420636F6D706C65746500444D46
:1048D4005835313220436F6E66696720636F6D709F
:1048E4006C65746500444D5835313220496E6974E5
:1048F40020636F6D706C6574650050574D20557062
:104904006461746520496E697420636F6D706C65B1
:104914007465005368656C6C204163746976650046
:104924004442473E0054696D657220496E697420A3
:104934004572726F7220310054696D657220496E40
:104944006974204572726F7220320054696D657209
:1049540020496E6974204572726F72203300546965
:104964006D657220496E6974204572726F722034CD
:104974000054696D657220496E6974204572726FC6
:104984007220350004000000080000000C00000044
:10499400FF00000000000000040000000800000008
:1049A4000C000000000000000400000008000000EB
:1049B400FF0000000D0A0068656C7000636C7300F2
:1049C4000A2573000600000054424400444D583543
:1049D400313220426C6F636B6C656E6774683A2089
:1049E4002564004D6F64653A202564002D2D2D2D1E
:1049F4002D2D2D2D2D2D2D2D2D2D2D2D2D2D2D2DE3
:104A04002D2D2D2D2D2D2D005265673A202564095D
:104A140020416464723A25642020092028257329E2
:104A2400092056616C3A20256400444D58353132D2
:104A340020416464726573733A202564004D6F6489
:104A440065204E6F6E652028556E696E69746961C4
:104A54006C697A656429004D6F64652031202850A3
:104A6400574D29004D6F64652032202850574D2042
:104A74002B2053747269702900000000DA4A000880
:104A8400DF4A000819370008EC4A0008F44A000815
:104A940029360008FE4A0008064B00084136000883
:104AA400104B0008194B000871360008244B00080D
:104AB4002F4B0008193600083C4B0008434B0008F4
:104AC400E93600084C6F6F706261636B2044617457
:104AD400613A2025730074657374007465737420DF
:104AE4005B6D73675D0A0D006765746164647200D1
:104AF400676574616464720A0D006765746D6F6440
:104B040065006765746D6F64650A0D0064756D708A
:104B1400726567730064756D70726567730A0D0062
:104B240064756D70636F6E6669670064756D70633C
:104B34006F6E6669670A0D0073657470776D007334
:104B4400657470776D205B69642028302E2E3229BD
:104B54005D205B63682028302E2E33295D205B6442
:104B64007574792028302E2E3635353335295D0A73
:104B74000D0000000000000000000102030406070D
:104B84000809000000000102030400020102081BDE
:104B94005B324B1B5B4B1B5B324A1B5B421B5B4414
:104BA4001B5B431B5B417F1B5B481B5B0144090090
:104BB40002000000A74B00080300000003000000EF
:104BC4009E4B00080300000004000000A14B0008F5
:104BD4000300000005000000A44B000803000000CF
:104BE40006000000B24B00080100000007000000AE
:104BF400924B00080100000009000000AA4B0008C5
:104C0400010000000A000000974B000803000000A8
:104C14000B000000934B0008040000000C0000008F
:104C2400AE4B0008040000000D0000009A4B000881
:104C3400040000000E000000AB4B0008030000005D
:104C44000000000000000000000000000000000060
:104C54000000000000000000000000000000000050
:104C6400000000004300504F534958002E00232DEC
:104C7400302B2000686C4C00656667454647003061
:104C840031323334353637383941424344454600AE
:104C940030313233343536373839616263646566AE
:104CA4000000202020202020202020282828282818
:104CB40020202020202020202020202020202020F0
:104CC4002020881010101010101010101010101048
:104CD4001010040404040404040404041010101048
:104CE4001010104141414141410101010101010103
:104CF4000101010101010101010101010110101073
:104D040010101042424242424202020202020202D5
:104D14000202020202020202020202020210101045
:104D2400102000000000000000000000000000004F
:104D3400000000000000000000000000000000006F
:104D4400000000000000000000000000000000005F
:104D5400000000000000000000000000000000004F
:104D6400000000000000000000000000000000003F
:104D7400000000000000000000000000000000002F
:104D8400000000000000000000000000000000001F
:104D9400000000000000000000000000000000000F
:044DA400000000000B
:044DA80031010008CD
:044DAC000D010008ED
:104DB000010000001000000094470008A047000810
:104DC000A8470008B2470008BB470008C3470008CF
:104DD000CD470008D6470008DE470008E84700082E
:104DE000F1470008FB47000806480008154800087E
:104DF000224800082E4800083D480008474800089F
:104E0000514800085B4800086A48000877480008D5
:104E100083480008924800089C480008A6480008FB
:104E2000010000000024F4007C00002000000000CD
:104E30000000000000000000000000000000000072
:104E40000000000000000000000000000000000062
:104E50000000000000000000000000000000000052
:104E60000000000000000000000000000000000042
:104E70000000000000000000000000000000000032
:104E800000000000000000000000000043000000DF
:104E90000000000000000000000000000000000012
:104EA00000000000000000000000000043000000BF
:104EB00000000000000000000000000000000000F2
:104EC000000000000000000000000000430000009F
:104ED00000000000000000000000000000000000D2
:104EE000000000000000000000000000430000007F
:104EF00000000000000000000000000000000000B2
:104F0000000000000000000000000000430000005E
:104F10000000000000000000000000000000000091
:104F2000000000000000000000000000430000003E
:104F30000000000000000000000000000000000071
:104F4000000000000000000000000000430000001E
:104F50000000000000000000000000000000000051
:104F60000000000000000000000000008D46000866
:104F70009740000800000000A54C0008704C000895
:104F8000BA490008BA490008BA490008BA490008F5
:104F9000BA490008BA490008BA490008BA490008E5
:104FA000BA490008FFFFFFFFFFFFFFFFFFFFFFFF02
:104FB000FFFF000001004153434949000000000089
:104FC00000000000000000000000000000000000E1
:104FD0000000000000004153434949000000000068
:104FE00000000000000000000000000000000000C1
:084FF0000000000000000000B9
:0400000508003B9123
:00000001FF
